:100000000C94E3000C94372B0C94642B0C940B0190
:100010000C940B010C940B010C940B010C940B0130
:100020000C940B010C940B010C940B010C940B0120
:100030000C940B010C940B010C940B010C940B0110
:100040000C94E32C0C940B010C948F260C94DD265D
:100050000C940B010C940B010C940B010C940B01F0
:100060000C940B010C940B010A444E537365727689
:100070003A20000A444843507372763A20000A47F7
:100080006174657761793A20000A4E65746D617319
:100090006B3A20000A495020416464723A200055AE
:1000A0006E61626C6520746F20726574726965762A
:1000B00065207468652049502041646472657373DB
:1000C000210D0A004C697374656E696E6720666F56
:1000D0007220636F6E6E656374696F6E732E2E2E61
:1000E0000052657175657374204448435000436F36
:1000F0006E6E656374656421004661696C65642198
:10010000000A417474656D7074696E6720746F20A5
:10011000636F6E6E65637420746F2000436F756C3F
:10012000646E277420626567696E28292120436800
:1001300065636B20796F757220776972696E673FAE
:10014000000A496E697469616C697A696E672E2E5E
:100150002E0048656C6C6F2C2043433330303021C7
:100160000A0000000000240027002A000000000010
:10017000250028002B000000000023002600290095
:10018000040404040404040402020202020203033D
:100190000303030301020408102040800102040845
:1001A00010200102040810200000000700020100D6
:1001B0000003040600000000000000009F149B1DC7
:1001C0001B234928AB2811241FBECFEFD8E0DEBF88
:1001D000CDBF14E0A0E0B1E0E8E1F0E602C0059098
:1001E0000D92A037B107D9F717E0A0E7B4E001C03E
:1001F0001D92AD3CB107E1F711E0C6ECD1E004C0BF
:100200002297FE010E940630CC3BD107C9F70E941D
:10021000D42C0C940A300C940000FB01DC0102C0C9
:1002200001900D9241505040D8F70895FB01DC0138
:1002300001900D920020E1F70895882319F48CB500
:10024000806202C08CB58F7D8CBD08959CB5937F74
:10025000982B9CBD08952CB5382F33702C7F322BF2
:100260003CBD2DB590E095958795959587958170C6
:100270002E7F822B8DBD08958AE061E00E940C2EB6
:100280008AE061E00E94CD2D8CB580618CBD8CB57B
:1002900080648CBD8DE061E00E94CD2D8BE061E03B
:1002A0000E94CD2D0895CF93DF93FC01DC014D9387
:1002B0009D01BB27A72F962F852F8183F9013196AA
:1002C000CB01AA27BB27E9018983472F552766273A
:1002D000772741833296CF01DF91CF910895DC01DA
:1002E000FC01619311967C933196CF010895FB0137
:1002F000E80FF91F318120E08081280F311DC901ED
:100300000895FB01E80FF91F238130E040E050E041
:10031000522F442733272227828190E0A0E0B0E0CB
:10032000DC0199278827280F391F4A1F5B1F80810E
:10033000280F311D411D511D818190E0A0E0B0E0EA
:10034000BA2FA92F982F8827280F391F4A1F5B1F04
:10035000B901CA010895DF93CF9300D0CDB7DEB7BE
:100360002091C7073091C807CE01019621153105AC
:1003700019F48D5C974002C0821B930B9A8389838A
:1003800089819A810F900F90CF91DF910895AF925C
:10039000BF92CF92DF92EF92FF920F931F9359017A
:1003A0006A016830710581059105A0F522E0A21669
:1003B000B104C104D10470F521E030E0062E02C082
:1003C000220F331F0A94E2F720953095442737FD1A
:1003D0004095542FE090CE03F090CF030091D003CE
:1003E0001091D1032E213F2140235123062E04C01A
:1003F000AA0CBB1CCC1CDD1C0A94D2F72A293B2971
:100400004C295D292093CE033093CF034093D00332
:100410005093D1031F910F91FF90EF90DF90CF90F9
:10042000BF90AF9008959B01AC01683071058105C4
:100430009105E8F481E090E002C0880F991F2A95A9
:10044000E2F79C01442737FD4095542F8091CE035D
:100450009091CF03A091D003B091D10328233923E9
:100460004A235B23211531054105510521F021E087
:1004700030E040E050E0B901CA0108958F929F92A8
:10048000AF92BF92CF92DF92EF92FF920F931F93A2
:10049000DF93CF93CDB7DEB7A9970FB6F894DEBF41
:1004A0000FBECDBF8C0161E070E00E9477019C011E
:1004B0006C01EE24FF24D6FE6DC081E420303807A5
:1004C00009F068C0C80165E070E00E9477014C0146
:1004D00097E0A92EB12CA00EB11ECC24DD24EE2471
:1004E000FF24870112C0C50162E070E00E9477011D
:1004F000A0E0B0E0E80EF91E0A1F1B1FA4E0B0E068
:10050000AA0EBB1E0894C11CD11CC814D90458F3F0
:1005100080918C0490918D048E0D9F1D90938D047D
:1005200080938C048091980490919904A0919A04EE
:10053000B0919B04E80EF91E0A1F1B1FE09298045D
:10054000F092990400939A0410939B0420919804CC
:100550003091990440919A0450919B0480919404A5
:1005600090919504A0919604B091970428173907AB
:100570004A075B0709F0ADC080919C04882309F409
:10058000A8C0E0917E04F0917F0469E970E080E00A
:1005900090E04AC0C60180709078892B09F4F2C0BF
:1005A000B0E820343B0709F499C0E0E821343E0765
:1005B000A0F4F0E824303F0751F180E825303807F7
:1005C00038F4215030482230310508F07EC11FC078
:1005D0002051304809F079C12BC0A4E820303A07F7
:1005E000B1F0B4E821303B0748F4E0E820383E079A
:1005F00071F02050324809F068C109C088E8203005
:10060000380709F4ADC02050394809F05EC1809127
:100610007E0490917F04892B09F45BC0E0917E04F5
:10062000F0917F04C701B60140E050E020E050C0E7
:10063000F8013596D80115968C9115978D8B81818F
:100640008E8B82818F8B8381888FF80139961996E2
:100650008C911997898F81818A8F82818B8F838179
:100660008C8FF8013D961D968C911D978D8F818101
:100670008E8F82818F8F838188A3F8017196519626
:100680008C91519789A381818AA382818BA38381D5
:100690008CA3F801759655968C9155978DA3818101
:1006A0008EA382818FA3838188A714968C9189A7BA
:1006B00080917E0490917F04892B59F0E0917E0413
:1006C000F0917F04C701B601AE014B5E5F4F25E19B
:1006D000099521E030E040E050E0FBC00B5F1F4F88
:1006E000C80160E070E00E94810169837A838B8396
:1006F0009C83C80164E070E00E9481016D837E8369
:100700008F839887C80168E070E00E948101698743
:100710007A878B879C87C8016CE070E00E9481011A
:100720006D877E878F87988BC80160E170E00E949B
:1007300081019B01AC0180917E0490917F04892B03
:1007400041F2E0917E04F0917F04298B3A8B4B8B30
:100750005C8BC701B601AE014F5F5F4F24E1B8CF9C
:1007600080917E0490917F04892B09F4B2CFE091AF
:100770007E04F0917F040B5F1F4FC701B601A801F3
:1007800021E0A6CFB3E0CB16B0E1DB06B0E0EB068C
:10079000B0E0FB0699F0EFE0CE16E0E1DE06E0E027
:1007A000EE06E0E0FE0651F0FEE0CF16F0E1DF06D7
:1007B000F0E0EF06F0E0FF0609F06AC085E0C82E21
:1007C000D12CC00ED11EC60164E070E00E948101F0
:1007D000675C7F4F8F4F9F4F09F077C0D801149609
:1007E0008C9190E0A0E0B0E080938804909389041D
:1007F000A0938A04B0938B04C60160E070E00E946D
:1008000081017B018C01C60164E070E00E948101DE
:10081000675C7F4F8F4F9F4F09F05BCFE8E0EE168C
:10082000F1040105110508F054CF81E090E00E2C91
:1008300002C0880F991F0A94E2F780959095AA2725
:1008400097FDA095BA2F2091CE033091CF03409110
:10085000D0035091D10382239323A423B52321E015
:1008600030E040E050E00E2C04C0220F331F441F44
:10087000551F0A94D2F7822B932BA42BB52B809370
:10088000CE039093CF03A093D003B093D10321CF95
:100890008091700490917104A0E0B0E0C816D90670
:1008A000EA06FB0691F060E0F0E0CF16F0E1DF062B
:1008B000F0E0EF06F0E0FF0609F461E081E0682770
:1008C000262F30E040E050E004C020E030E040E07F
:1008D00050E0B901CA01A9960FB6F894DEBF0FBE69
:1008E000CDBFCF91DF911F910F91FF90EF90DF90DF
:1008F000CF90BF90AF909F908F9008958091720499
:1009000090917304892BD1F0E0917404F0917504F7
:100910008081843099F4CF010E943E0261307105DC
:100920008105910559F410927304109272040E948B
:10093000112021E030E040E050E004C020E030E051
:1009400040E050E0B901CA010895DF93CF9300D091
:1009500000D0CDB7DEB719821A821B821C82FC013F
:100960008581823021F1833009F43FC0813009F064
:100970005FC080917A0490917B04892B91F0E09183
:100980007A04F0917B04CE0101960995AC010097A1
:1009900041F0609176047091770429813A8181E079
:1009A00045C0609176047091770481E03BC08091EE
:1009B000780490917904892B91F0E0917804F0917A
:1009C0007904CE0101960995AC01009741F0609140
:1009D00076047091770429813A8182E027C0609182
:1009E00076047091770482E01DC080917C04909120
:1009F0007D04892B91F0E0917C04F0917D04CE017F
:100A000001960995AC01009741F0609176047091D0
:100A1000770429813A8183E009C06091760470915E
:100A2000770483E040E050E020E030E00E94C4081A
:100A30000F900F900F900F90CF91DF9108954F92EC
:100A40005F926F927F928F929F92AF92BF92CF925E
:100A5000DF92EF92FF920F931F93CF93DF936C017E
:100A60002B013A01AA24BB240E94472180917204E1
:100A700090917304892BC1F3809074049090750455
:100A8000D4018C91843009F0BFC2C40161E070E0F0
:100A90000E9477015C01C4010E943E02611571054C
:100AA0008105910509F0A4C2E4012596B8E0AB16D2
:100AB000B0E1BB0608F056C0E6E0AE16E0E1BE06C7
:100AC00008F0CCC0F2E0AF16F2E0BF0609F4C6C0F1
:100AD00003E0A01602E0B00600F51DE0A116B10487
:100AE00080F468E0A616B10408F0B8C081E0A8164A
:100AF000B10408F47DC297E0A916B10408F4AEC0B1
:100B0000D4C1ADE0AA16B10409F4A3C0B1E0AB169C
:100B1000B2E0BB0609F06CC29CC0E3E0AE16E0E1B7
:100B2000BE0698F4F1E0AF16F0E1BF0608F096C0FB
:100B300005E0A01602E0B00608F48BC017E0A1168D
:100B400012E0B10609F054C28DC064E0A61660E15F
:100B5000B60609F4DCC085E0A81680E1B80608F006
:100B6000B1C042C191E1A91690E1B90609F471C082
:100B7000A2E1AA16A0E1BA0658F5BBE0AB16B0E1B7
:100B8000BB0609F46BC0ECE0AE16E0E1BE0668F40B
:100B9000F9E0AF16F0E1BF0609F460C00AE0A01664
:100BA00000E1B00608F073C13AC11FE0A11610E1E0
:100BB000B10609F419C160E1A61660E1B60608F0B5
:100BC00061C08DE0A81680E1B80609F011C29FC08F
:100BD00095E0A91690E2B90609F4A4C1A6E0AA1608
:100BE000A0E2BA0668F4B2E1AB16B0E1BB0609F4C4
:100BF00060C0E1E0AE16E0E2BE0608F4F9C129C02B
:100C0000FAE0AF16F0E2BF0660F408E0A01600E2DA
:100C1000B006F8F416E0A11610E2B10609F0E8C13A
:100C200018C06BE0A61660E4B60609F0E1C1D40175
:100C300015968C9190E090938D0480938C04CE0156
:100C400061E070E00E94770190938F0480938E049E
:100C5000CFC1E4018C81F6018083CAC1CE0160E07E
:100C600070E01EC0F4018481D6018D936D01CE0128
:100C700060E070E00E948101AB01BC01C6010E94EE
:100C80005301B6C1CE0160E070E00E948101F6011F
:100C900061937193819391936F01CE0164E070E051
:100CA0000E948101D6016D937D938D939C93139740
:100CB0009FC1CE0160E070E00E947701E601998358
:100CC000888396C1CE0160E070E00E948101F60148
:100CD00061937193819391938F01CE0164E070E0F1
:100CE0000E948101D60114966D937D938D939C9300
:100CF0001797E4E0CE2ED12CC00ED11ED601FE01F6
:100D0000389680E101900D928150E1F771C1CE01DA
:100D100060E070E00E948101F6016193719381931C
:100D200091938F01CE0164E070E00E948101D601B1
:100D300014966D937D938D939C93179774E0C72EB3
:100D4000D12CC00ED11ECE0168E070E00E9481015E
:100D50009B01AC01E8016C837D838E839F83F60148
:100D600084819581A681B781875C9F4FAF4FBF4F2C
:100D700009F03EC1283031054105510508F038C160
:100D8000822F21E030E0082E02C0220F331F0A9488
:100D9000E2F720953095442737FD4095542FE09099
:100DA000CE03F090CF030091D0031091D1032E21F8
:100DB0003F214023512361E0E62EF12C012D112D1E
:100DC00004C0EE0CFF1C001F111F8A95D2F72E29BC
:100DD0003F29402B512B2093CE033093CF034093D8
:100DE000D0035093D10304C1CE0160E070E00E94B3
:100DF0008101D6016D937D938D939D938D01CE01DD
:100E000064E070E00E948101E6016C837D838E8343
:100E10009F8354E0C52ED12CC00ED11EE9C0CE0157
:100E200060E070E00E948101F6016193719381930B
:100E300091938F01CE0164E070E00E948101D601A0
:100E400014966D937D938D939C93179744E0E42EB5
:100E5000F12CE00EF11ECE0168E070E00E948101ED
:100E6000F801648375838683978334E0C32ED12C85
:100E7000CE0CDF1CCE016CE070E00E948101D70136
:100E800014966D937D938D939C931797B1C0E40155
:100E90008C81F60184838D819E81AF81B885E601C6
:100EA00088839983AA83BB83A3C0CE0160E070E0EE
:100EB0000E948101F60161937193819391938F0157
:100EC000CE0164E070E00E948101D60114966D931A
:100ED0007D938D939C931797CE0168E070E00E94FC
:100EE0007701A0E0B0E0F80184839583A683B783FF
:100EF000CE016AE070E00E947701A0E0B0E0F60168
:100F000082879387A487B5872CE0E22EF12CCE0C44
:100F1000DF1CD601FE013C9686E201900D928150C5
:100F2000E1F766C0D40115968C91F6018193898111
:100F3000D60111968C9311978A8181838B8182834C
:100F40001496F4013996E4018985E6018C83818148
:100F50008D8382818E8383818F839D012C5F3F4FA0
:100F6000F4013D96E4018D8514968C93149781814C
:100F7000E601898782818A8783818B87F401719654
:100F8000E4018989E9018C838181E6018D87828171
:100F90008E8783818F87F4017596E4018D89E9013D
:100FA000888781811D968C931D9782811E968C93D4
:100FB0001E9783811F968C93E4019601F401D6015C
:100FC000A4014A5F5F4F818D54968C93549731965C
:100FD0001196E417F507B9F7A401405E5F4F8F8DB6
:100FE000F901828F21962F5F3F4FC417D507B9F7BC
:100FF0008091700490917104A816B906B9F5109209
:1010000071041092700432C0D40112960C91C40184
:1010100063E070E00E947701EC0141145104A1F0FB
:10102000C401059664E070E00E948101462FF3013F
:10103000608371838283938394012B5E3F4FC2014F
:10104000B90150E00E940D01202F30E0FE01E21BAB
:10105000F30B2B5F3F4F280D391DC601B901AF01BE
:101060000E940D0110929304109292041092730446
:10107000109272040E941120D4018C91843041F4AA
:10108000B0E0AB16B0E1BB0619F4C4010E94A504A0
:101090008091700490917104892B09F0E5CC8091C6
:1010A000920490919304892B09F0DECC80E090E0CB
:1010B000DF91CF911F910F91FF90EF90DF90CF9034
:1010C000BF90AF909F908F907F906F905F904F9068
:1010D000089521E030E030939304209392040E941D
:1010E0001F0508959093710480937004CB0160E014
:1010F00070E040E050E00E941F050895CF92DF921B
:10110000EF92FF920F931F936B01890192E0FB0115
:10111000958386834783040F151F0E0D1F1DCB017A
:101120000896B8010E946F010B5F1F4FC601B801FE
:101130000E94CD2160E070E080E090E01F910F916F
:10114000FF90EF90DF90CF900895EF92FF920F9372
:101150001F939C017B01042F81E0FB018583CB0160
:101160000696B9010E946F01FC01008310E00C5F3C
:101170001F4FC701B8010E94CD2180E090E01F9170
:101180000F91FF90EF9008954F925F926F927F9230
:101190008F929F92AF92BF92CF92DF92EF92FF9287
:1011A0000F931F93CF93DF936B014A01E90145E051
:1011B000442E512C460E571E93E0FB0195838683E7
:1011C00037E0632E712C660E771E8E010E5F1F4F67
:1011D000C301B8010E946F017C012BE0A22EB12C4B
:1011E000AC0CBD1CF3E0C93EDF0790F4BE010E94C9
:1011F0006F01C701BE010E946F01C501B401AE01BC
:101200000E940D012696C601BE010E94CD2147C055
:10121000CE0168EE73E00E94B32F660F771F060FB2
:10122000171FC701B8010E946F01C70168EE73E084
:101230000E946F01D501F40188EE93E001900D92B8
:101240000197E1F78E01085E134088EEE82E83E0F7
:10125000F82EE80CF91CC6016EEE73E01BC00E946C
:10126000472183E0093E180720F4E80100E010E080
:1012700004C0085E1340C8EED3E0F201D183C083FE
:10128000C301B701AE010E940D01EC0EFD1E2296B6
:10129000C201BE010E94CD210115110501F7DF91A8
:1012A000CF911F910F91FF90EF90DF90CF90BF9063
:1012B000AF909F908F907F906F905F904F90089528
:1012C0000F931F938C01609176047091770485E0F1
:1012D00090E240E00E94A50885E090E2B8010E94FB
:1012E00072081F910F9108958F929F92AF92BF92B3
:1012F000CF92DF92EF92FF920F931F93DF93CF93E2
:101300000F92CDB7DEB74C018B017A0169018FEFE7
:101310008983A0907604B0907704F4018081918154
:10132000A281B3810197A109B1090997A105B1056E
:1013300040F48AE090E0A0E0B0E080839183A28353
:10134000B383F80180819181A281B3810197A109C2
:10135000B1090997A105B10540F48AE090E0A0E049
:10136000B0E080839183A283B383F7018081918170
:10137000A281B3810197A109B1090997A105B1051E
:1013800040F48AE090E0A0E0B0E080839183A28303
:10139000B383F60180819181A281B3810197A10974
:1013A000B1090997A105B10540F48AE090E0A0E0F9
:1013B000B0E080839183A283B383F40140815181A3
:1013C00062817381C50109960E945301F801408131
:1013D0005181628173810E945301F70140815181E3
:1013E000628173810E945301F601408151816281C3
:1013F00073810E94530189E090E2B50144E10E94AB
:10140000A50889E090E2BE016F5F7F4F0E947208DD
:101410002981332727FD3095432F532FB901CA0166
:101420000F90CF91DF911F910F91FF90EF90DF9080
:10143000CF90BF90AF909F908F900895CF92DF9202
:10144000EF92FF920F931F93DF93CF930F92CDB73D
:10145000DEB7D62EC72E8A014132510518F02FEF84
:101460003FEF36C0E0907604F0907704AC0160E086
:1014700070E0C70109960E94530148E050E060E027
:1014800070E00E945301A80160E070E00E945301E7
:10149000DC018D2D9C2DFC019F01200F311F02C00E
:1014A00081918D93E217F307D9F7402F445F81E1D3
:1014B00090E1B7010E94A50881E190E1BE016F5F54
:1014C0007F4F0E9472088981282F332727FD30958E
:1014D000C9010F90CF91DF911F910F91FF90EF9075
:1014E000DF90CF9008952F923F924F925F926F922C
:1014F0007F928F929F92AF92BF92CF92DF92EF92A4
:10150000FF920F931F93DF93CF93CDB7DEB728974A
:101510000FB6F894DEBF0FBECDBF2B013C012D836B
:101520003E834F8358871601C0907604D09077048D
:10153000C6010996B301A2010E9453014D815E814B
:101540006F8178850E945301B801A7010E94530161
:1015500048E050E060E070E00E945301B501A40152
:101560000E945301BC0120E030E040E050E00CC09C
:10157000F901DB01A20FB31FE20DF31D80818C93F3
:101580002F5F3F4F4F4F5F4F281539054A055B05C9
:1015900078F3482D4C5E89E090E1B6010E94A508E1
:1015A00089E090E1BE016F5F7F4F0E947208298140
:1015B0003A814B815C8157FD03C060E070E005C05B
:1015C000B9013093CC072093CB07CB0128960FB6F7
:1015D000F894DEBF0FBECDBFCF91DF911F910F9169
:1015E000FF90EF90DF90CF90BF90AF909F908F9043
:1015F0007F906F905F904F903F902F900895CF9283
:10160000DF92EF92FF920F931F93DF93CF9300D05F
:1016100000D0CDB7DEB78B019C01F42EE52E8FEF05
:101620009FEFAFEFBFEF89839A83AB83BC83C090FA
:101630007604D0907704C6010996B901A8010E94EA
:10164000530148E050E060E070E00E94530148E040
:1016500050E060E070E00E945301DC018F2D9E2D70
:10166000FC019F01285F3F4F81918D93E217F307A3
:10167000D9F787E090E1B60144E10E94A50887E030
:1016800090E1BE016F5F7F4F0E94720869817A818D
:101690008B819C819B012093CB073093CC070F90CB
:1016A0000F900F900F90CF91DF911F910F91FF90AE
:1016B000EF90DF90CF900895AF92BF92CF92DF92DC
:1016C000EF92FF920F931F93DF93CF93CDB7DEB7C7
:1016D00028970FB6F894DEBF0FBECDBFB82EA92E47
:1016E0008B016A018FEF9FEF9093CC078093CB071C
:1016F000673E710518F02FEF3FEF3BC0E090760496
:10170000F0907704C701099648E050E060E070E08F
:101710000E945301A80160E070E00E945301DC01C7
:101720008B2D9A2DFC019F01200F311F02C081914A
:101730008D93E217F307D9F7402F485F80E190E1DE
:10174000B7010E94A50880E190E1BE016F5F7F4F65
:101750000E94720829813A813093CC072093CB07ED
:101760008D819E81AF81B885F60180839183A283AC
:10177000B383C90128960FB6F894DEBF0FBECDBF64
:10178000CF91DF911F910F91FF90EF90DF90CF905D
:10179000BF90AF9008958F929F92AF92BF92CF92D9
:1017A000DF92EF92FF920F931F93DF93CF9300D0BE
:1017B00000D0CDB7DEB77B018C0159016A018FEFF4
:1017C0009FEFAFEFBFEF89839A83AB83BC83809099
:1017D000760490907704C4010996B801A7010E948D
:1017E0005301B601A5010E94530186E090E1B401C6
:1017F00048E00E94A50886E090E1BE016F5F7F4F40
:101800000E94720869817A818B819C819B0120935F
:10181000CB073093CC070F900F900F900F90CF9184
:10182000DF911F910F91FF90EF90DF90CF90BF90CD
:10183000AF909F908F900895CF92DF92EF92FF929A
:101840000F931F93DF93CF9300D000D0CDB7DEB7B7
:101850008B019C01F42EE52E8FEF9FEFAFEFBFEFD2
:1018600089839A83AB83BC83C0907604D09077043D
:10187000C6010996B901A8010E94530148E050E051
:1018800060E070E00E94530148E050E060E070E0EA
:101890000E945301DC018F2D9E2DFC019F01285FCA
:1018A0003F4F81918D93E217F307D9F782E090E1E2
:1018B000B60144E10E94A50882E090E1BE016F5F9D
:1018C0007F4F0E94720869817A818B819C819B0184
:1018D0002093CB073093CC070F900F900F900F9071
:1018E000CF91DF911F910F91FF90EF90DF90CF90FC
:1018F00008952F923F924F925F926F927F928F92B4
:101900009F92AF92BF92CF92DF92EF92FF920F938E
:101910001F93DF93CF93CDB7DEB764970FB6F894DC
:10192000DEBF0FBECDBF2B013C015E874D870F8709
:10193000188B298B3A8B15019C8A8B8A89A49AA4CF
:10194000ABA4BCA40091760410917704C801099659
:10195000B301A2010E9453014F85588969897A8990
:101960000E945301B701A6010E945301C401B801AE
:101970004CE00E94A508C401BE016F5F7F4F0E942A
:1019800072088D819E81AF81B885181619061A06D6
:101990001B063CF48D859E85B1014B895C890E94B4
:1019A00069088D819E818093CB079093CC076496C4
:1019B0000FB6F894DEBF0FBECDBFCF91DF911F9160
:1019C0000F91FF90EF90DF90CF90BF90AF909F90DE
:1019D0008F907F906F905F904F903F902F900895E1
:1019E0008F929F92AF92BF92CF92DF92EF92FF922F
:1019F0000F931F9300D000D0F4E08F2EF0E19F2EC4
:101A0000A12CB12CEDB7FEB781829282A382B48261
:101A1000AA24BB24882499240E94790C0F900F904B
:101A20000F900F901F910F91FF90EF90DF90CF904C
:101A3000BF90AF909F908F9008954F925F926F925A
:101A40007F928F929F92AF92BF92CF92DF92EF924E
:101A5000FF920F931F93DF93CF93CDB7DEB76097BD
:101A60000FB6F894DEBF0FBECDBF5B016C014A011B
:101A7000390128018701E0907604F0907704C701CE
:101A80000996B601A5010E94530144E150E060E0CF
:101A900070E00E94530144E150E060E070E00E9479
:101AA000530144E150E060E070E00E94530144E1E2
:101AB00050E060E070E00E94530140E050E060E0E0
:101AC00070E00115110521F441E050E060E070E0A4
:101AD0000E9453018114910429F440E050E060E039
:101AE00070E005C0F40140815181628173810E94E0
:101AF00053016114710429F440E050E060E070E0AB
:101B000005C0F30140815181628173810E945301BC
:101B10004114510429F440E050E060E070E005C059
:101B2000F20140815181628173810E9453019C01C5
:101B30000115110551F1F80180819181A281B381D4
:101B40000097A105B10591F484819581A681B781A3
:101B500088589341A040B0404CF488E893E1A0E05D
:101B6000B0E0F80184839583A683B783F8014081B0
:101B7000518162817381C9010E945301F80144813E
:101B80005581668177810E94530188E090E1B70119
:101B90004CE20E94A50888E090E1BE016F5F7F4F94
:101BA0000E94720889819A81AB81BC81B7FD27C0F0
:101BB0008114910449F08D819E81AF81B885F40133
:101BC00080839183A283B3836114710449F0898572
:101BD0009A85AB85BC85F30180839183A283B3830F
:101BE0004114510449F08D859E85AF85B889F20175
:101BF00080839183A283B38329813A8106C0909325
:101C0000CC078093CB072FEF3FEFC90160960FB64B
:101C1000F894DEBF0FBECDBFCF91DF911F910F9122
:101C2000FF90EF90DF90CF90BF90AF909F908F90FC
:101C30007F906F905F904F9008958F929F92AF9298
:101C4000BF92CF92DF92EF92FF920F931F93DF9399
:101C5000CF93CDB7DEB768970FB6F894DEBF0FBE4F
:101C6000CDBF5B016C017A014901009176041091AE
:101C70007704C8010996B601A5010E94530185E0C9
:101C800090E1B80144E00E94A50885E090E1BE0122
:101C90006F5F7F4F0E947208E114F10441F0D70199
:101CA000FE01399688E001900D928150E1F7811490
:101CB000910449F088E090E0A0E0B0E0F401808376
:101CC0009183A283B3838D819E819093CC0780936F
:101CD000CB077C010027F7FC0095102FF8E0EF16EA
:101CE000F1040105110538F4C801B70120E030E026
:101CF00040E050E006C0C601B50121E030E040E020
:101D000050E00E94C701B701C80168960FB6F89469
:101D1000DEBF0FBECDBFCF91DF911F910F91FF901E
:101D2000EF90DF90CF90BF90AF909F908F900895ED
:101D3000CF92DF92EF92FF920F931F93DF93CF9397
:101D400000D000D0CDB7DEB76B017C018FEF9FEFE5
:101D5000AFEFBFEF89839A83AB83BC830091760496
:101D600010917704C8010996B701A6010E9453019A
:101D70008BE090E1B80144E00E94A5088BE090E17F
:101D8000BE016F5F7F4F0E94720889819A81909394
:101D9000CC078093CB07C701B60121E030E040E0DB
:101DA00050E00E94C70169817A818B819C810F90EC
:101DB0000F900F900F90CF91DF911F910F91FF9097
:101DC000EF90DF90CF9008954F925F926F927F9245
:101DD0008F929F92AF92BF92CF92DF92EF92FF923B
:101DE0000F931F93DF93CF9300D000D0CDB7DEB712
:101DF0005B016C0139014A018FEF9FEFAFEFBFEF3D
:101E000089839A83AB83BC83409076045090770497
:101E1000C2010996B601A5010E945301B401A301B4
:101E20000E945301B801A7010E94530181E090E193
:101E3000B2014CE00E94A50881E090E1BE016F5F15
:101E40007F4F0E94720869817A818B819C81709397
:101E5000CC076093CB0720E030E040E050E00E94E8
:101E6000C70169817A818B819C810F900F900F90BF
:101E70000F90CF91DF911F910F91FF90EF90DF9026
:101E8000CF90BF90AF909F908F907F906F905F901A
:101E90004F9008958F929F92AF92BF92CF92DF9210
:101EA000EF92FF920F931F938C010E942B2D4B01F9
:101EB0005C016801EE24D7FCE094FE2C809188043C
:101EC00090918904A0918A04B0918B040097A10598
:101ED000B105B1F08091880490918904A0918A04A1
:101EE000B0918B049C019093CC078093CB07109208
:101EF00088041092890410928A0410928B042CC0DA
:101F0000C701B6010E941302611571058105910593
:101F100019F02FEF3FEF20C00E942B2D681979098F
:101F20008A099B09615375478040904018F02DEF56
:101F30003FEF12C080918C0490918D04892B09F49D
:101F4000BDCF80918C0490918D04019790938D0466
:101F500080938C0420E030E0C9011F910F91FF9025
:101F6000EF90DF90CF90BF90AF909F908F900895AB
:101F70002F923F924F925F926F927F928F929F9299
:101F8000AF92BF92CF92DF92EF92FF920F931F9387
:101F9000DF93CF93CDB7DEB76A970FB6F894DEBF65
:101FA0000FBECDBF1B012C015C8B4B8B380149014F
:101FB000CD8ADE8AEF8AF88EBA8EA98ECFA4D8A8F1
:101FC000E9A8FAA8CB010E944A0F9C01009709F0EA
:101FD000CBC08091940490919504A0919604B09107
:101FE00097040196A11DB11D8093940490939504CC
:101FF000A0939604B09397042091760430917704CF
:102000003A8B298B8BA99CA9ADA9BEA981389105D2
:10201000A105B105B9F083389105A105B105F1F429
:10202000A4019301285F3F4F4F4F5F4F2D873E879D
:102030004F87588BA988BA8842E250E0A40EB51E9B
:1020400018E10CC0A988BA888AE190E0A80EB91EF0
:102050001A8E198ECC24DD24760110E189899A89A3
:102060000A96B201A1010E945301012F10E0045011
:102070001040A80160E070E00C5F1F4F0E94530108
:10208000B401A3010E9453014D895E896F89788D47
:102090000E9453012BA93CA94DA95EA92338310503
:1020A0004105510561F44D855E856F8578890E94F3
:1020B000530148E050E060E070E00E94530120E0EE
:1020C00030E040E050E00CC0EB89FC89E20FF31FE8
:1020D0008081D5018D935D012F5F3F4F4F4F5F4F43
:1020E00026153705480559057CF32BA93CA94DA9B0
:1020F0005EA92338310541055105C1F420E030E0E7
:1021000040E050E00EC0F901D501A20FB31F898D48
:102110009A8DE80FF91F80818C932F5F3F4F4F4FAF
:102120005F4F2C153D054E055F056CF38BA9698942
:102130007A89A8019301098D1A8D76010E947E0883
:10214000BE016F5F7F4F2BA93CA94DA95EA9233823
:1021500031054105510519F48FE090E102C083E09B
:1021600090E10E9472089301C9016A960FB6F89433
:10217000DEBF0FBECDBFCF91DF911F910F91FF90BA
:10218000EF90DF90CF90BF90AF909F908F907F9017
:102190006F905F904F903F902F9008958F929F92F5
:1021A000AF92BF92CF92DF92EF92FF920F931F9365
:1021B000EDB7FEB738970FB6F894FEBF0FBEEDBF70
:1021C0001182128213821482B1E88B2E912CA12CE1
:1021D000B12C85829682A782B086AA24BB240E9455
:1021E000B80F2DB73EB7285F3F4F0FB6F8943EBFEC
:1021F0000FBE2DBF1F910F91FF90EF90DF90CF90FA
:10220000BF90AF909F908F900895AF92BF92CF9262
:10221000DF92EF92FF920F931F9370937904609374
:10222000780450937B0440937A0430937D04209388
:102230007C041093810400938004F0928304E09264
:102240008204D0928504C0928404B0928704A09244
:10225000860490937F0480937E0481E080939C04A5
:102260001F910F91FF90EF90DF90CF90BF90AF90B4
:1022700008950F931F93DF93CF9300D000D0CDB775
:10228000DEB7AB01BC01DB01CA0188709078A07099
:10229000B07088509048A040B040A9F410929C04BF
:1022A000483080E8580780E0680780E0780729F424
:1022B00020E030E040E050E02AC0477F5F77607068
:1022C0007070506803C081E080939C048FEF9FEF93
:1022D000AFEFBFEF89839A83AB83BC830091760411
:1022E00010917704C80109960E94530188E090E09C
:1022F000B80144E00E94A50888E090E0BE016F5F4D
:102300007F4F0E94720829813A814B815C81B9011B
:10231000CA010F900F900F900F90CF91DF911F91F6
:102320000F9108952F923F924F925F926F927F92FA
:102330008F929F92AF92BF92CF92DF92EF92FF92D5
:102340000F931F93DF93CF93CDB7DEB728970FB6C8
:10235000F894DEBF0FBECDBF3B014C0119012A012D
:102360008DA58F839EA598878091760490917704A0
:102370009E838D83099644E250E060E070E00E9405
:102380005301B401A3010E945301B201A1010E94B3
:102390005301B801A7010E945301B601A5010E9493
:1023A00053014D8D5E8D6F8D78A10E94530149A11F
:1023B0005AA16BA17CA10E9453014DA15EA16FA106
:1023C00078A50E94530149A55AA56BA57CA50E943A
:1023D0005301DC018F819885FC019F01205C3F4FF8
:1023E00002C081918D93E217F307D9F783E090E063
:1023F0006D817E8144E60E94A50883E090E0BE01E5
:102400006F5F7F4F0E94720869817A818B819C8106
:1024100028960FB6F894DEBF0FBECDBFCF91DF91E7
:102420001F910F91FF90EF90DF90CF90BF90AF90F2
:102430009F908F907F906F905F904F903F902F90E4
:1024400008950F931F93DF93CF9300D000D0CDB7A3
:10245000DEB7AB01BC010091760410917704C8018E
:1024600009960E9453018FEF9FEFAFEFBFEF898373
:102470009A83AB83BC8386E090E0B80144E00E947D
:10248000A50886E090E0BE016F5F7F4F0E94720852
:1024900069817A818B819C810F900F900F900F90B2
:1024A000CF91DF911F910F9108954F925F926F929C
:1024B0007F928F929F92AF92BF92CF92DF92EF92D4
:1024C000FF920F931F93DF93CF9300D000D0CDB72F
:1024D000DEB75B016C0139014A018FEF9FEFAFEF6F
:1024E000BFEF89839A83AB83BC834090760450907E
:1024F0007704C2010996B601A5010E945301B401F7
:10250000A3010E945301B801A7010E94530184E076
:1025100090E0B2014CE00E94A50884E090E0BE018A
:102520006F5F7F4F0E94720869817A818B819C81E5
:102530000F900F900F900F90CF91DF911F910F91FF
:10254000FF90EF90DF90CF90BF90AF909F908F90D3
:102550007F906F905F904F9008952F923F924F928F
:102560005F926F927F928F929F92AF92BF92CF9223
:10257000DF92EF92FF920F931F93DF93CF93CDB72C
:10258000DEB760970FB6F894DEBF0FBECDBF2B014C
:102590003C015C874B870D871E872F87388B160180
:1025A0008E010B5F1F4F86E0D8011D928A95E9F7D7
:1025B0008FEF9FEFAFEFBFEF89839A83AB83BC832D
:1025C000C0907604D0907704C60109964CE150E0A3
:1025D00060E070E00E9453014D855E856F857889CB
:1025E0000E945301B301A2010E9453014D855E85F3
:1025F0006F857889405F5F4F6F4F7F4F0E94530117
:10260000B501A4010E94530160E070E00E946F01D7
:10261000DC01E114F10481F0AC0120E030E0F701CD
:10262000E20FF31F8081FA018193AF012F5F3F4FCB
:1026300026303105A1F70EC0B8019C01AE01455FFF
:102640005F4FFB018191BF01F90181939F016417E5
:102650007507B9F7BD016A5F7F4F20E030E040E0C9
:1026600050E00CC0EB85FC85E20FF31F8081DB019D
:102670008D93BD012F5F3F4F4F4F5F4F8D859E85DF
:10268000AF85B889281739074A075B075CF38114BF
:102690009104A104B104C9F021143104B1F020E087
:1026A00030E040E050E00CC0F901DB01A20FB31FA5
:1026B000E20DF31D80818C932F5F3F4F4F4F5F4F93
:1026C000281539054A055B057CF34D85445E480DA8
:1026D00081E090E0B6010E94A50881E090E0BE0193
:1026E0006F5F7F4F0E94720869817A818B819C8124
:1026F0009B012093CB073093CC0760960FB6F894DC
:10270000DEBF0FBECDBFCF91DF911F910F91FF9024
:10271000EF90DF90CF90BF90AF909F908F907F9081
:102720006F905F904F903F902F900895EF92FF929F
:102730000F931F93CF93DF93EC01109294041092A8
:102740009504109296041092970410929804109297
:10275000990410929A0410929B04109271041092A2
:10276000700410928D0410928C0410928F041092B9
:102770008E0410929104109290041092930410927F
:102780009204109288041092890410928A04109284
:102790008B041092730410927204109275041092BC
:1027A00074048BE795E0909377048093760488E334
:1027B00094E10E94E222E0918004F0918104099565
:1027C0007B018C01E0918604F091870481E00995FA
:1027D000E114F1040105110559F0E0918004F09134
:1027E000810409956115710581059105B1F714C042
:1027F000E0918004F09181040995611571058105CE
:102800009105B1F3E0918004F0918104099561157F
:10281000710581059105B1F7E0917604F091770497
:10282000CD2B11F480E001C082E0818780E090E44C
:10283000BF0141E00E94A50880E090E460E070E004
:102840000E94720860917604709177048BE090E4A6
:1028500040E00E94A5088BE090E460E070E00E94F8
:102860007208DF91CF911F910F91FF90EF90089523
:1028700021E030E030937304209372049093750448
:10288000809374040E947E040895EF92FF920F9348
:10289000FC01108260939D0440939E0420939F044A
:1028A0008FEF8093A0040093A1041092D704F092BC
:1028B000D904E092D8040F91FF90EF900895FC01A5
:1028C0001382128288EE93E0A0E0B0E084839583C7
:1028D000A683B7838CED93E091838083E15BFF4F08
:1028E0008FEF9FEFAFEFBFEF80839183A283B3831E
:1028F0000895FC011382128288EE93E0A0E0B0E01C
:1029000084839583A683B7838CED93E09183808342
:10291000E15BFF4F40835183628373831292129273
:1029200012920895FC01A081B18154962D913C91A1
:102930005597F9010995811181E0089508950F9344
:102940008AED94E060E040E020E000E00E949F28F3
:102950000F910895CF92DF92EF92FF920F931F9302
:10296000DB01FC01E15BFF4F60817181828193811A
:102970008A0120E030E0AD01CC24DD2476010E9404
:10298000F00C1F910F91FF90EF90DF90CF90089582
:102990008F929F92AF92BF92CF92DF92EF92FF926F
:1029A0000F931F93DF93CF93CDB7DEB72C970FB65E
:1029B000F894DEBF0FBECDBFFC01E15BFF4F80810D
:1029C0009181A281B381EF54F040B7FF03C020E0B2
:1029D00030E082C0E35BFF4F20813181ED54F04055
:1029E0001216130664F4E45BFF4F8081EC54F04050
:1029F00090E0821793071CF4281B390B6DC01982D5
:102A00001A821B821C82E15BFF4FC080D180E28072
:102A1000F380C701B60120E230E040E050E00E94C0
:102A2000E92F922E832E022F132F000F111F000F5C
:102A3000111F5E010894A11CB11C0A0D1B1DC701CA
:102A4000B60120E230E040E050E00E94E92F21E0B2
:102A500030E040E050E004C0220F331F441F551FF8
:102A60006A95D2F7E92DF82DEE0FFF1FEE0FFF1F2D
:102A7000EA0DFB1D80819181A281B381282B392B26
:102A80004A2B5B2BF80120833183428353831D82C1
:102A90001E821F82188688E893E1A0E0B0E0898753
:102AA0009A87AB87BC870894C11CD11CE11CF11C20
:102AB000C701B601A50120E030E000E010E0E5E04C
:102AC000EE2EF12CEC0EFD1E0E941D0D20E030E0DC
:102AD000019711F421E030E0C9012C960FB6F8946B
:102AE000DEBF0FBECDBFCF91DF911F910F91FF9041
:102AF000EF90DF90CF90BF90AF909F908F90089510
:102B00000F931F938C01015B1F4FF801608171814E
:102B1000828193810E94980E2FEF3FEF4FEF5FEF7E
:102B2000F80120833183428353831F910F910895CD
:102B30004F925F926F927F928F929F92AF92BF92CD
:102B4000CF92DF92EF92FF920F931F93CF93DF9379
:102B5000EC019CE0492E512C4C0E5D1E8DE4882E1C
:102B6000912C8C0E9D1E0CE4A02EB12CAC0EBD1E23
:102B70001FE4612E712C6C0E7D1E1FC00E94472128
:102B8000F3016081718182819381A20100E410E0F0
:102B900020E030E0CC24DD2476010E94F00CF4012A
:102BA00091838083875C9F4F31F4CE010E94801512
:102BB00020E030E014C0F5011082F4012081318161
:102BC00012161306DCF6F5018081E82FF0E02E17CF
:102BD0003F07A1F2EC0FFD1F8485282F30E0C901CB
:102BE000DF91CF911F910F91FF90EF90DF90CF90E9
:102BF000BF90AF909F908F907F906F905F904F901D
:102C000008954F925F926F927F928F929F92AF92B0
:102C1000BF92CF92DF92EF92FF920F931F93CF93C9
:102C2000DF93EC015CE0452E512C480E591E4DE41B
:102C3000842E912C880E991E3CE4A32EB12CA80E54
:102C4000B91E2FE4622E712C680E791E1FC00E94DF
:102C50004721F3016081718182819381A20100E4A7
:102C600010E020E030E0CC24DD2476010E94F00C5E
:102C7000F40191838083875C9F4F31F4CE010E94E1
:102C8000801520E030E017C0F5011082F40180814A
:102C9000918118161906DCF6F5012081E22FF0E08B
:102CA0008E179F07A1F2EC0FFD1F84852F5FF501A2
:102CB0002083282F30E0C901DF91CF911F910F9120
:102CC000FF90EF90DF90CF90BF90AF909F908F904C
:102CD0007F906F905F904F9008950E9480150895A7
:102CE0000F931F93CF93DF93EC018C01015B1F4F78
:102CF000F80180819181A281B381B7FD27C0E8816D
:102D0000F9810480F581E02DCE010995892B01F52B
:102D1000D8012D913D914D915C91F901E954FB4F02
:102D200080818130A9F4CA01B9010E94980ED801AE
:102D3000ED91FC91E954FB4F10828FEF9FEFAFEFC5
:102D4000BFEFF80180839183A283B38380E001C049
:102D500081E0DF91CF911F910F910895CF92DF9283
:102D6000EF92FF920F931F93DF93CF930F92CDB704
:102D7000DEB76983FC01E15BFF4F60817181828175
:102D80009381AE014F5F5F4F01E010E020E030E043
:102D9000CC24DD2476010E94CE109C01442737FD0F
:102DA0004095542F57FF02C020E030E0C9010F903A
:102DB000CF91DF911F910F91FF90EF90DF90CF9017
:102DC0000895CF92DF92EF92FF920F931F93DB0152
:102DD000FC01E15BFF4F60817181828193818A01F7
:102DE00020E030E0AD01CC24DD2476010E94CE103D
:102DF0001F910F91FF90EF90DF90CF9008956F9209
:102E00007F928F929F92AF92BF92CF92DF92EF927A
:102E1000FF920F931F93DF93CF93CDB7DEB76097E9
:102E20000FB6F894DEBF0FBECDBF5C014B013A0177
:102E30008DE490E0A80EB91ED5011D921C92F501FB
:102E400012925F0184EB9FEFA80EB91E62E070E062
:102E500080E090E021E030E040E050E0E6E0EE2E5F
:102E6000F12C012D112D0E94E40E6B017C019FEFCE
:102E7000C9169FEFD9069FEFE9069FEFF906C9F142
:102E8000F601E954FB4F10828E010F5F1F4F80E166
:102E9000D8011D928A95E9F782E090E09A838983B0
:102EA0007B826C82F40182819381A481B5812B2F76
:102EB0003327442755272D839D01442755272E83EB
:102EC000892F9A2FAB2FBB278F8382818887C701D9
:102ED000B601A80100E110E020E030E00E94FF0A06
:102EE0006F5F7F4F8F4F9F4F39F4C701B6010E942C
:102EF000980E20E030E00CC08FE490E0A80EB91EE0
:102F0000D501CD92DD92ED92FC92139721E030E055
:102F1000C90160960FB6F894DEBF0FBECDBFCF914A
:102F2000DF911F910F91FF90EF90DF90CF90BF90B6
:102F3000AF909F908F907F906F900895DF93CF9385
:102F400000D000D0CDB7DEB78091D70482FF09C092
:102F500083E091E069E070E0AE014F5F5F4F0E9457
:102F60005C0B8091D70490E0969587959695879510
:102F700081700F900F900F900F90CF91DF91089577
:102F8000AF92BF92CF92DF92EF92FF920F931F9377
:102F9000DF93CF93CDB7DEB72A970FB6F894DEBF95
:102FA0000FBECDBF6C01CB015A0119821A821B8260
:102FB0001C82DB010D900020E9F71197A61BB70BCF
:102FC000BD01AE014F5F5F4F0E945C0B49815A818A
:102FD0006B817C814115510561057105A1F0892B3B
:102FE00091F0D601ED91FC91E484F5848E010B5FA4
:102FF0001F4FC8010E94FC28C601B801A501F701B6
:1030000009959C0102C020E030E0C9012A960FB664
:10301000F894DEBF0FBECDBFCF91DF911F910F910E
:10302000FF90EF90DF90CF90BF90AF900895CF9337
:10303000DF93FC019B01E15BFF4F215B3F4FE90107
:1030400088819981AA81BB8180839183A283B38384
:10305000D9019E918E9192938293ED018A918293F0
:10306000E054F040DE01A054B04080E40D900192A5
:103070008150E1F7DF91CF910895EF92FF920F9386
:103080001F937B018C01FA01422F80E8E81680E84B
:10309000F80680E0080780E0180731F48091D70433
:1030A00081608093D7042BC081E0E81680E8F806A1
:1030B00080E0080780E0180731F48091D70482602F
:1030C0008093D70428C082E0E81680E8F80680E004
:1030D000080780E0180731F48091D704897F809336
:1030E000D7042FC080E1E81680E8F80680E00807E2
:1030F00080E0180721F48091D704846009C089E931
:10310000E816F1040105110531F48091D7048860B7
:103110008093D70428C080E4E81680E8F80680E0B1
:10312000080780E0180769F48091A2048F5F8093FC
:10313000A20423EA34E0C901BF0150E00E940D015E
:1031400012C080E0E81688E8F80680E0080780E012
:10315000180749F44081403230F4E42FF0E0E9549C
:10316000FB4F81E080831F910F91FF90EF900895B6
:103170008F929F92AF92BF92CF92DF92EF92FF9287
:103180000F931F93DF93CF93CDB7DEB7EA970FB6B8
:10319000F894DEBF0FBECDBFFC016B015A0149019F
:1031A00080818823F1F18091D70481FF3AC080911A
:1031B000D70482FF36C0CE0101960E9460098C813F
:1031C000882379F189819A81AB81BC81F601808362
:1031D0009183A283B3838D819E81AF81B885F501F0
:1031E00080839183A283B38389859A85AB85BC85CF
:1031F000F40180839183A283B3838D859E85AF85FF
:10320000B889F80180839183A283B38389899A89DD
:10321000AB89BC89F70180839183A283B38381E06A
:1032200001C080E0EA960FB6F894DEBF0FBECDBFB6
:10323000CF91DF911F910F91FF90EF90DF90CF9092
:10324000BF90AF909F908F9008952F923F924F9292
:103250005F926F927F928F929F92AF92BF92CF9226
:10326000DF92EF92FF920F931F93FC01D62EC72E91
:10327000342E252E8081882309F466C02801390167
:1032800084E0481651046104710408F05DC0A62F63
:10329000B72FFD0101900020E9F73197EA1BFB0BE6
:1032A000B19708F051C0A42FB52FFD010190002067
:1032B000E9F73197EA1BFB0BB19708F045C060E0D6
:1032C00070E080E090E020E030E040E050E0EE246C
:1032D000FF2487010E945512611571058105910532
:1032E00099F564EF71E080E090E00E94392DED2DBA
:1032F000FC2DDF010D900020E9F78D0101501040F9
:103300000E1B1F0BE32DF22DDF010D900020E9F7BE
:103310004D010894810891088E1A9F0A20E030E040
:10332000AA24BB24C301B2014D2D5C2DEE24FF2441
:10333000C32CD22C0E94AD1220E0611571058105CD
:10334000910519F421E001C020E0822F1F910F9117
:10335000FF90EF90DF90CF90BF90AF909F908F90B5
:103360007F906F905F904F903F902F9008958F9235
:103370009F92AF92BF92CF92DF92EF92FF920F9304
:103380001F93FC01D62EC72E80818823E1F160E0D7
:1033900070E080E090E020E030E040E050E0EE249B
:1033A000FF2487010E945512611571058105910561
:1033B00051F564EF71E080E090E00E94392DED2D31
:1033C000FC2DDF010D900020E9F78D010150104028
:1033D0000E1B1F0B20E030E060E070E080E090E02A
:1033E0004D2D5C2DEE24FF24CC24DD24882499244B
:1033F00054010E94AD1220E061157105810591050F
:1034000019F421E001C020E0822F1F910F91FF905D
:10341000EF90DF90CF90BF90AF909F908F900895E6
:10342000EF92FF920F931F937A018B018091D80442
:103430009091D904009709F440C0272F33274427DF
:103440005527622F4AE050E00E94472A8091D80415
:103450009091D9046EE20E945F2998014427552774
:103460008091D8049091D904622F4AE050E00E94E4
:10347000472A8091D8049091D9046EE20E945F2976
:103480005527412F302F2F2D8091D8049091D904AA
:10349000622F4AE050E00E94472A8091D804909120
:1034A000D9046EE20E945F298091D8049091D904DA
:1034B0006E2D4AE050E00E94472A1F910F91FF9025
:1034C000EF9008956F927F928F929F92AF92BF92EA
:1034D000CF92DF92EF92FF920F931F93CF93DF93E0
:1034E000EC01962E842E722E632E8881882309F09B
:1034F00091C090919E048091A004923011F480E0DC
:1035000003C0933009F481E08093A0048F3F09F455
:1035100083C00E9499228DE398E16FE97FE14FE833
:103520005FE127E93FE107EA1FE1B5E0EB2EB0E2FA
:10353000FB2EAFEBCA2EAFE1DA2EF3EBAF2EFFE19D
:10354000BF2E0E940511892D90E00E9496138820BD
:10355000A1F460E070E080E090E020E030E040E046
:1035600050E0EE24FF2487010E9455126FEF70E0B7
:1035700080E090E00E9421120FC060E070E080E0E7
:1035800090E020E030E040E050E0E1E0EE2EF12C71
:10359000012D112D0E94551264E072E880E090E048
:1035A0000E9439116115710581059105A9F581E028
:1035B0008883882079F100E010E00EC00E94472146
:1035C0000F5F1F4F83E00A3E180731F16AE070E099
:1035D00080E090E00E94392D8091D70481FFEECFEA
:1035E00068EE73E080E090E00E94392D8091D7046E
:1035F00082FF10C0E72DF62DDF010D900020E9F7C6
:103600001197AE1BBF0B81E090E0672D762DAD01C9
:103610000E941E0A81E001C080E0DF91CF911F91DE
:103620000F91FF90EF90DF90CF90BF90AF909F9061
:103630008F907F906F900895AF92BF92CF92DF925C
:10364000EF92FF920F931F93CF93DF93FC01808142
:10365000882311F420E04FC08DB79EB742970FB674
:10366000F8949EBF0FBE8DBFEDB7FEB731968FEFBA
:103670009FE1A0E0B0E0CDB7DEB789839A83AB834A
:10368000BC8388E89FEFAFEFBFEF84839583A68369
:10369000B78310861186128613868CE291E0A0E033
:1036A000B0E084879587A687B78784EF93E0918BF6
:1036B000808BCB01BA0124E130E040E050E0F4E639
:1036C000EF2EF12C012D112DE5E0AE2EB12CC12CE9
:1036D000D12C0E94921120E04DB75EB74E5E5F4F35
:1036E0000FB6F8945EBF0FBE4DBF61157105810521
:1036F000910509F421E0822FDF91CF911F910F9165
:10370000FF90EF90DF90CF90BF90AF9008955F92C1
:103710006F927F928F929F92AF92BF92CF92DF92E1
:10372000EF92FF920F931F93CF93DF93EC013B0136
:103730004A01522EA02E8881882309F452C0B02E4F
:10374000C22EDD24EE24FF24AA2051F0BB2039F440
:103750008091D70490E096958795817042C0BA9485
:103760000E944721CE0140EA5FE060E070E00E94E5
:103770001C1B64E971E180E090E00E94392DCE01CC
:1037800040E050E060E070E00E941C1B552021F0FA
:10379000F4018081882349F4CE01B3010E94B71956
:1037A0008823D1F000E117E208C0CE01B301A401E3
:1037B000970186010E942519F3CF8091D70481FDDE
:1037C0000BC00E9447216AE070E080E090E00E9418
:1037D000392D0A50104089F78091D70481FFB4CF6A
:1037E00081E0DF91CF911F910F91FF90EF90DF90DB
:1037F000CF90BF90AF909F908F907F906F905F9091
:103800000895FC01A081B18154962D913C9155976A
:10381000F9010995811181E008950F931F93DF93BA
:10382000CF9300D000D000D0CDB7DEB7DB01FC01D4
:10383000248535852115310519F420E030E01BC0C1
:10384000F90180819181FC01048515858EE694E063
:103850009A83898312968D919D910D90BC91A02D94
:103860008B839C83AD83BE83C901BE016F5F7F4F95
:10387000F80109959C01C90126960FB6F894DEBFA0
:103880000FBECDBFCF91DF911F910F910895FC0125
:10389000A485B585109719F420E030E009C0ED91BA
:1038A000FC9111970684F785E02DCD0109959C01C7
:1038B000C9010895FC01A485B585109711F480E035
:1038C0000895ED91FC9111970488F589E02DCD01C3
:1038D00009950895FC01A485B585109719F420E099
:1038E00030E009C0ED91FC9111970190F081E02D3D
:1038F000CD0109959C01C9010895FC01A485B585F8
:10390000109719F420E030E009C0ED91FC91119777
:103910000680F781E02DCD0109959C01C90108952C
:10392000FC01A485B585109719F420E030E009C0AA
:10393000ED91FC9111970480F581E02DCD01099561
:103940009C01C9010895FC01A485B585109719F45F
:1039500020E030E009C0ED91FC9111970088F189D9
:10396000E02DCD0109959C01C9010895FC01A485B4
:10397000B585109719F420E030E009C0ED91FC9175
:1039800011970280F381E02DCD0109959C01C901B9
:103990000895FC01A485B585109719F420E030E066
:1039A00009C0ED91FC9111970084F185E02DCD01C6
:1039B00009959C01C9010895FC01A485B58510975E
:1039C00041F0ED91FC9111970284F385E02DCD013A
:1039D00009950895FC01A485B585109741F0ED91F6
:1039E000FC9111970288F389E02DCD010995089586
:1039F000CF93DF939C01C2E4D4E04F3FB9F0FC01C8
:103A00001382128288EE93E0A0E0B0E08483958375
:103A1000A683B783D183C08383E54802C001112404
:103A20000496860F971F958784870FC0FC01138229
:103A3000128288EE93E0A0E0B0E084839583A683B1
:103A4000B783D183C08315861486C901DF91CF91D6
:103A500008954F925F926F927F928F929F92AF9252
:103A6000BF92CF92DF92EF92FF920F931F93CF936B
:103A7000DF935C013B014A017C01CC24DD2400E0A2
:103A800010E083E5482E512C049DE001059DD00DEA
:103A9000149DD00D11242496CA0DDB1DD701149658
:103AA000ED91FC9115970488F589E02DCE010995DB
:103AB000882371F0D7011496ED91FC91159702803F
:103AC000F381E02DCE01B301A4010995C80ED91EE2
:103AD0000F5F1F4F83E590E0E80EF91E03301105DC
:103AE00099F6C601DF91CF911F910F91FF90EF9052
:103AF000DF90CF90BF90AF909F908F907F906F900E
:103B00005F904F900895DF93CF930F92CDB7DEB7BC
:103B1000FC016983A081B18112962D913C9113978C
:103B2000BE016F5F7F4F41E050E0F90109950F90B2
:103B3000CF91DF9108950F9380EE94E060E040E034
:103B400020E000E00E949F280F9108952F923F925D
:103B50004F925F927F928F929F92AF92BF92CF923D
:103B6000DF92EF92FF920F931F93DF93CF93CDB726
:103B7000DEB7C355D0400FB6F894DEBF0FBECDBF41
:103B80005C016C017724EE24FF2423E5222E312CE6
:103B90009FEF892E912C8A0C9B1C2E010894411CAE
:103BA000511CE29C8001E39C100DF29C100D11242D
:103BB0000C5F1F4F0A0D1B1DD6011496ED91FC9151
:103BC00015970488F589E02DC80109958823F1F43B
:103BD0000E944721F401608171818281938140E0DC
:103BE00050E020E030E00E941D0ECB0177FD0EC0BA
:103BF000AC01662757FD6095762FC2010E947914AB
:103C0000C801B2010E941718772473940894E11C2C
:103C1000F11C83E590E0C80ED91E93E0E916F1048B
:103C200009F0BFCF872DCD5ADF4F0FB6F894DEBF16
:103C30000FBECDBFCF91DF911F910F91FF90EF90FD
:103C4000DF90CF90BF90AF909F908F907F905F90CC
:103C50004F903F902F900895AF92BF92CF92DF92F6
:103C6000EF92FF920F931F93CF93DF936C01EB01C1
:103C70000E94A61D209709F08883760100E010E0DD
:103C800033E5A32EB12C0A9DE0010B9DD00D1A9DAA
:103C9000D00D11242496CC0DDD1DD7011496ED9185
:103CA000FC9115970488F589E02DCE0109958823AC
:103CB000C9F0D7011496ED91FC9115970480F58118
:103CC000E02DCE0109951816190664F4802FDF91B6
:103CD000CF911F910F91FF90EF90DF90CF90BF9009
:103CE000AF9008950F5F1F4F83E590E0E80EF91E37
:103CF0000330110541F68FEFEACFEF92FF920F9359
:103D00001F93F82EE92E8B01CB0160E070E00E943A
:103D10002C1E482F8F2D9E2DB8010E94F81C8F2D30
:103D20009E2D1F910F91FF90EF9008952F923F923B
:103D30004F925F926F927F928F929F92AF92BF92BB
:103D4000CF92DF92EF92FF920F931F93DF93CF9367
:103D5000CDB7DEB7A1970FB6F894DEBF0FBECDBFCB
:103D60001C0180E498E3A0E0B0E08A839B83AC83ED
:103D7000BD8380E19EE0A0E0B0E08E839F83A887B2
:103D8000B9878EE190E0A0E0B0E08A879B87AC879E
:103D9000BD871E861F86188A198A0E944721CE0178
:103DA0000296BE016A5F7F4FAE01465F5F4F9E0184
:103DB000225F3F4F0E9474096115710581059105CD
:103DC00009F067C00E94472162E070E080E090E067
:103DD00021E030E040E050E0A6E0EA2EF12C012D99
:103DE000112D0E94E40E8B0177FD53C00E944721E4
:103DF00019822801662457FC6094762CC301B20115
:103E00002FEF3FEF40E050E0F2E0EF2EF12C012DDC
:103E1000112D6E010894C11CD11CE1E08E2E912C55
:103E2000A12CB12C0E94730A97FD33C082E090E070
:103E30009B8B8A8B1E8A1F8A188E198EF101E35084
:103E4000FF4F908181818C8B9D8B0E944721C30104
:103E5000B201AE014E5E5F4F00E110E020E030E0C5
:103E60000E941C0C97FD15C00E944721C301B2019E
:103E700020E030E040E050E00E94CB0B97FD09C00D
:103E80008FEF90E0280E391EF1014082518262824C
:103E90007382A1960FB6F894DEBF0FBECDBFCF914F
:103EA000DF911F910F91FF90EF90DF90CF90BF9027
:103EB000AF909F908F907F906F905F904F903F90CA
:103EC0002F900895EF92FF920F931F938C017B0127
:103ED000FC011382128288E394E091838083C801FD
:103EE00004960E945F14C801895A9F4F0E945F1474
:103EF000C80186559F4F0E945F1403501F4FF80161
:103F0000E192F1928FEF9FEFAFEFBFEF808391834C
:103F1000A283B3831F910F91FF90EF900895FC014E
:103F2000108211821282138280E090E00895FC01D9
:103F3000108211821282138280E090E00895FC01C9
:103F4000108211821282138280E090E008958091A5
:103F50009E040E94602E9C01442737FD4095542FFB
:103F6000B901CA010895882321F080919F0461E07E
:103F700003C080919F0460E00E940C2E089510926F
:103F8000FF058091A0040E94242B08951092FF0544
:103F90008091A0040E94242B0895CF93DF930E9468
:103FA000C61F80919D0461E00E940C2E8091E9045F
:103FB0008CBD8091E804882319F08DB5816002C022
:103FC0008DB58E7F8DBDC091F604D091F704CE578C
:103FD000DF4F8881C258D0408E3D09F0FFCF82E08C
:103FE00090E0A0E0B0E08093F0049093F104A093FF
:103FF000F204B093F304E091EA04F091EB04CE01F3
:1040000005960995DF91CF91089581E08093FF0592
:104010008091A00462EB70E242E050E00E94012B2C
:10402000089581E08093FF058091A00462EB70E227
:1040300042E050E00E94012B08950F931F93CF930D
:10404000DF938C01EB0184E00E94260120E030E048
:1040500093E00BC09EBD0DB407FEFDCF8EB5F801F9
:10406000E20FF31F80832F5F3F4F2C173D0790F324
:10407000DF91CF911F910F910895EF92FF920F93CF
:104080001F93CF93DF93C091F604D091F7048D81F5
:10409000823021F0843009F047C01BC0CE01059664
:1040A00063E070E00E9477019C0140E050E080FDF9
:1040B00005C02F5F3F4F4F4F5F4F05C021153105A2
:1040C0004105510589F1CE010A96B9010E941D20D2
:1040D0002BC08885282F30E040E050E079018A012C
:1040E0000894E108F10801091109DA01C9010996EA
:1040F000A11DB11D80FF02C079018A01E114F10404
:104100000105110529F0CE010A96B7010E941D2074
:1041100088E090E0A0E0B0E08093F0049093F10498
:10412000A093F204B093F30460E070E080E090E0CC
:10413000DF91CF911F910F91FF90EF9008950E9412
:104140003D20611571058105910511F40E94CD1F77
:1041500008958091F6049091F7046AE070E00E945F
:104160001D20089581E08093FE058091F0049091D8
:10417000F104A091F204B091F3040097A105B105F8
:1041800069F481E090E0A0E0B0E08093F0049093C7
:10419000F104A093F204B093F30476C08230910549
:1041A000A105B105B1F586E090E0A0E0B0E0809314
:1041B000F0049093F104A093F204B093F30480917F
:1041C0009D0460E00E940C2E8CB58093E9048DB5AF
:1041D00081708093E8048091E6048CBD8091E704AF
:1041E000882319F08DB5816002C08DB58E7F8DBD9D
:1041F0000E94A92088E090E0A0E0B0E08093F00465
:104200009093F104A093F204B093F3040E949F20D2
:104210003BC00397A105B105B9F56091F404709115
:10422000F5044091EC045091ED0420E030E00BC027
:10423000FB01E20FF31F80818EBD0DB407FEFDCFA1
:104240008EB52F5F3F4F2417350790F382E090E043
:10425000A0E0B0E08093F0049093F104A093F20406
:10426000B093F30480919D0461E00E940C2E809134
:10427000E9048CBD8091E804882319F08DB5816034
:1042800002C08DB58E7F8DBD1092FE050895809180
:104290009E040E94602E892B51F48091FE05882394
:1042A00031F48091FF05882311F00E94B220089517
:1042B0000F931F93CF93DF93EC018B0180919D04AB
:1042C00060E00E940C2E8CB58093E9048DB581705E
:1042D0008093E8048091E6048CBD8091E7048823F4
:1042E00019F08DB5816002C08DB58E7F8DBD61E006
:1042F00070E080E090E00E94392D20E030E0FE0187
:10430000E20FF31F80818EBD0DB407FEFDCF8EB589
:104310002F5F3F4F2430310591F761E070E080E07E
:1043200090E00E94392DB80164507040FE0120E0F9
:1043300030E009C084818EBD0DB407FEFDCF8EB57F
:104340002F5F3F4F319626173707A0F382E090E0AA
:10435000A0E0B0E08093F0049093F104A093F20405
:10436000B093F30480919D0461E00E940C2E809133
:10437000E9048CBD8091E804882319F08DB5816033
:1043800002C08DB58E7F8DBD60E070E080E090E072
:10439000DF91CF911F910F9108950F931F93CF93AA
:1043A000DF93EC0190E060FF91E081E088839B0166
:1043B000290F311D3983960F9A831B821C828091AD
:1043C000FD058E3D09F0FFCF8091F0049091F1043E
:1043D000A091F204B091F3040097A105B10509F48E
:1043E000FFCF89010B5F1F4F0197A105B10529F48C
:1043F000CE01B8010E94582185C0E0918404F0915B
:10440000850409958091F0049091F104A091F20443
:10441000B091F3040297A105B10509F089C083E0CA
:1044200090E0A0E0B0E08093F0049093F104A093BA
:10443000F204B093F304D093F504C093F404109302
:10444000ED040093EC0480919D0460E00E940C2E2A
:104450008CB58093E9048DB581708093E8048091D8
:10446000E6048CBD8091E704882319F08DB5816046
:1044700002C08DB58E7F8DBDE0918204F0918304E2
:104480000995E0918004F091810409956115710509
:1044900081059105B9F56091F4047091F50440919E
:1044A000EC045091ED0420E030E00BC0FB01E20F82
:1044B000F31F80818EBD0DB407FEFDCF8EB52F5F3B
:1044C0003F4F2417350790F382E090E0A0E0B0E082
:1044D0008093F0049093F104A093F204B093F3045A
:1044E00080919D0461E00E940C2E8091E9048CBDB6
:1044F0008091E804882319F08DB5816002C08DB5E4
:104500008E7F8DBD8091F0049091F104A091F20412
:10451000B091F3040297A105B10549F460E070E0A1
:1045200080E090E0DF91CF911F910F910895FFCF30
:10453000FFCF80919F0461E00E94CD2D80919F0468
:1045400060E00E940C2E64EF71E080E090E00E9439
:10455000392D80919D0461E00E94CD2D80919E04B3
:1045600062E00E94CD2D8CB58093E9048DB58170F9
:104570008093E8040E943C0184E00E94260181E0CF
:104580000E941D018091A1040E942B018CB5809393
:10459000E6048DB581708093E70480919D0461E00D
:1045A0000E940C2E8091E9048CBD8091E804882340
:1045B00019F08DB5816002C08DB58E7F8DBD80E014
:1045C00090E00895CF93DF931092F0041092F104DD
:1045D0001092F2041092F304A8EFB4E023E8ED0186
:1045E000E22F1992EA95E9F7EBE7F5E0EF0119926E
:1045F0002A95E9F79093EB048093EA041092ED0476
:104600001092EC041092F5041092F404B093F704A5
:10461000A093F6041092EF041092EE048EED8093B6
:104620007A058093FD05E0918204F0918304099559
:10463000DF91CF910895EF92FF920F9384E097E07E
:1046400060E040E020E000E00E949F2880E096E0EB
:104650006AE043E025E004E032E9E32E37E0F32EA0
:104660000E94451481E096E060E570E00E94621FC0
:104670000F91FF90EF900895EF92FF920F931F9389
:10468000DF93CF93CDB7DEB764970FB6F894DEBF54
:104690000FBECDBF80E096E0BE016F5F7F4FAE01E1
:1046A0004B5F5F4F9E01275F3F4F8E01035F1F4FA0
:1046B000E1E1EE2EF12CEC0EFD1E0E94B8188823CD
:1046C00041F482E997E06FE970E00E94872980E079
:1046D0004BC082E997E064E970E00E943C2949817F
:1046E0005A816B817C8180E096E00E94101A82E9F9
:1046F00097E069E870E00E943C294D815E816F81FE
:10470000788580E096E00E94101A82E997E06EE7D3
:1047100070E00E943C2949855A856B857C8580E044
:1047200096E00E94101A82E997E063E770E00E9429
:104730003C294D855E856F85788980E096E00E94F2
:10474000101A82E997E068E670E00E943C294989E6
:104750005A896B897C8980E096E00E94101A82E970
:1047600097E00E94672981E064960FB6F894DEBF57
:104770000FBECDBFCF91DF911F910F91FF90EF90B2
:1047800008950F9382E997E040E052EC61E070E019
:104790000E94182782E997E062E571E00E9487296C
:1047A00082E997E062E671E00E94B82A0E94AB01BC
:1047B000BC0182E997E04AE050E00E94992A82E930
:1047C00097E061E471E00E94872980E096E060E074
:1047D00040E020E030E00E94621A882339F482E948
:1047E00097E06CE171E00E948729FFCF82E997E0B2
:1047F00061E071E00E943C2982E997E06DE671E09A
:104800000E94BB2A80E096E06DE671E043E751E04C
:1048100023E000E00E94871B882339F482E997E0B7
:1048200069EF70E00E948729FFCF82E997E06EEE82
:1048300070E00E94872982E997E061EE70E00E94B3
:10484000872906C064E670E080E090E00E94392D80
:1048500080E096E00E949E178823A1F306C068EED0
:1048600073E080E090E00E94392D0E943C23882371
:10487000B1F381E096E00E94961E82E997E064EC35
:1048800070E00E9487290F9108958F929F92AF92B6
:10489000BF92CF92DF92EF92FF920F931F93DF931D
:1048A000CF93CDB7DEB7A3970FB6F894DEBF0FBE98
:1048B000CDBFB6E1EB2EF12CEC0EFD1EC70161E081
:1048C00076E00E947D1EC7010E94011C882309F426
:1048D000DDC082E997E06EE771E00E94BB2A8E019D
:1048E0000F5F1F4FC80169E871E00E947D2C88248A
:1048F0008394C7019E2CA92EB02E012FA8E0CA2EAA
:10490000D12CCC0EDD1EFFE0EF2EF12CEC0EFD1EA7
:10491000A2C0892D9A2D0E94901C892B09F49BC05E
:10492000892D9A2D0E947D1C182F8A3091F5C60181
:104930006AE871E00E94972CC6016B2D702F0E94CF
:10494000462C63E971E00E942A2CBC0182E997E0C1
:104950000E94CE2AC6010E94CE2C82E997E066E929
:1049600071E00E94B82A6D817E8182E997E04AE079
:1049700050E00E942A2AC70169E871E00E947D2C5C
:104980008B2D902FB7010E94B12CC7010E94C82C1B
:104990000CC08D819E818436910538F41D3029F03C
:1049A0008B2D902F612F0E94052C612F772767FD9B
:1049B000709582E997E00E9409281A3009F048C0F2
:1049C000882019F48824839446C08E010A5E1F4F04
:1049D000C80165EA71E00E94BB2AC80165EB71E07D
:1049E0000E94BB2AC8016DEC71E00E94BB2AC8017D
:1049F0000E946729C8016FED71E00E94BB2AC801BF
:104A00006FEE71E00E94BB2AC80166EF71E00E9460
:104A1000BB2AC80164E072E00E94BB2AC8016BE0B7
:104A200072E00E94BB2AC80169E372E00E94BB2ABF
:104A3000C80164E672E00E94BB2AC8016FE872E018
:104A40000E94BB2AC80167E972E00E94BB2A0AC023
:104A50001D3009F08824892D9A2D0E945A1C882324
:104A600009F057CF61E070E080E090E00E94392DBE
:104A7000CE0146960E94EA1C82E997E06FE972E057
:104A80000E94BB2ACE0101960E94C82CA3960FB6A5
:104A9000F894DEBF0FBECDBFCF91DF911F910F9174
:104AA000FF90EF90DF90CF90BF90AF909F908F904E
:104AB00008950F931F93CF93DF93BC01823091052C
:104AC00010F462E070E0E091C907F091CA0740E09D
:104AD00050E0A0E0B0E024C0808191818617970764
:104AE000D0F08617970771F482819381109729F08F
:104AF00013969C938E9312972CC09093CA07809321
:104B0000C90727C04115510519F08417950718F4F6
:104B10008D01AC01EF01DF01828193819C01F901DC
:104B20003097D1F641155105F9F0CA01861B970B54
:104B30008430910580F48A819B810115110521F053
:104B4000F8019383828304C09093CA078093C907B6
:104B5000FE01329645C0FE01E80FF91F6193719383
:104B60000297998388833CC08091C7079091C807BA
:104B7000892B41F48091D4039091D5039093C80779
:104B80008093C7074091D6035091D7034115510533
:104B900041F44DB75EB78091D2039091D303481B87
:104BA000590B2091C7073091C80724173507B0F477
:104BB000CA01821B930B8617970780F0AB014E5FEB
:104BC0005F4F8417950750F0420F531F5093C8074B
:104BD0004093C707F9016193719302C0E0E0F0E0F0
:104BE000CF01DF91CF911F910F910895CF93DF9364
:104BF0009C01009709F48FC0EC0122971B821A8256
:104C00006091C9077091CA076115710581F48881A7
:104C10009981820F931F2091C7073091C8072817E9
:104C2000390739F5D093C807C093C70774C0DB01B3
:104C300040E050E0AC17BD0708F1BB83AA83FE013A
:104C400021913191E20FF31FAE17BF0779F48D91D7
:104C50009C911197280F391F2E5F3F4F398328836E
:104C600012968D919C9113979B838A8341155105D0
:104C700071F4D093CA07C093C9074DC012968D91A5
:104C80009C911397AD01009711F0DC01D3CFDA01AD
:104C90001396DC93CE931297FA0121913191E20F92
:104CA000F31FCE17DF0769F488819981280F391F18
:104CB0002E5F3F4FFA01318320838A819B8193834A
:104CC0008283E0E0F0E0DB0112968D919C911397D6
:104CD000009719F0BC01FD01F6CFAB014E5F5F4FAD
:104CE000DB018D919C91840F951F2091C707309116
:104CF000C8072817390779F4309729F41092CA07A2
:104D00001092C90702C01382128242505040509341
:104D1000C8074093C707DF91CF91089508951F9268
:104D20000F920FB60F9211242F933F934F938F93AF
:104D30009F93EF93FF938091C00082FD1DC040912F
:104D4000C60020914A0730914B072F5F3F4F2F73CA
:104D5000307080914C0790914D072817390771F0FA
:104D6000E0914A07F0914B07E65FF84F408330939C
:104D70004B0720934A0702C08091C600FF91EF9134
:104D80009F918F914F913F912F910F900FBE0F9058
:104D90001F901895E0919E07F0919F07E05CFF4FF0
:104DA0008191919120813181821B930B8F7390703F
:104DB000892B11F00E948E2608951F920F920FB634
:104DC0000F9211242F933F938F939F93EF93FF9311
:104DD00020918E0730918F078091900790919107D5
:104DE0002817390731F48091C1008F7D8093C1006D
:104DF00014C0E0919007F0919107E25BF84F208199
:104E0000809190079091910701968F739070909385
:104E10009107809390072093C600FF91EF919F9197
:104E20008F913F912F910F900FBE0F901F9018956B
:104E3000AF92BF92DF92EF92FF920F931F93CF93A7
:104E4000DF93EC017A018B01DD24403081EE5807BD
:104E500080E0680780E0780711F0DD24D39491E0CA
:104E6000A92EB12CEC89FD89DD2069F0C50108A0CF
:104E700002C0880F991F0A94E2F7808360E079E00E
:104E80008DE390E005C0108260E874E88EE190E068
:104E9000A80197010E94C72F215030404040504048
:104EA000569547953795279580E12030380720F0B3
:104EB000DD2011F0DD24D6CFE889F9893083EA8935
:104EC000FB89208319A2EE89FF89408121E030E02F
:104ED000C9010C8C02C0880F991F0A94E2F7482B75
:104EE0004083EE89FF894081C9010D8C02C0880F83
:104EF000991F0A94E2F7482B4083EE89FF8940818D
:104F0000C9010E8C02C0880F991F0A94E2F7482B42
:104F10004083EE89FF8980810F8C02C0220F331FEE
:104F20000A94E2F7209528232083DF91CF911F91E7
:104F30000F91FF90EF90DF90BF90AF900895DC014C
:104F40001C96ED91FC911D97E05CFF4F21913191F2
:104F500080819181281B390B2F733070C90108950E
:104F6000DC011C96ED91FC911D97E05CFF4F2081C8
:104F70003181E054F040DF01AE5BBF4F8D919C91D9
:104F800011972817390719F42FEF3FEF07C08D91BC
:104F90009C91E80FF91F8081282F30E0C901089506
:104FA000DC011C96ED91FC911D97E05CFF4F208188
:104FB0003181E054F040DF01AE5BBF4F8D919C9199
:104FC00011972817390719F42FEF3FEF10C08D9173
:104FD0009C911197E80FF91F20818D919C91119759
:104FE00001968F73907011969C938E9330E0C90157
:104FF0000895DC0191968C919197882339F054960D
:10500000ED91FC915597808186FFF9CF91961C9286
:105010000895CF93DF93EC01EE85FF85E05CFF4FB1
:1050200020813181E054F0402F5F3F4F2F7330706B
:10503000DF01AE5BBF4F8D919C9111972817390707
:10504000D1F3E05CFF4F80819181E054F040E80FA4
:10505000F91F6083EE85FF85E05CFF4F318320837D
:10506000EE89FF89208181E090E00F8C02C0880FDB
:10507000991F0A94E2F7282B208381E089A3EC8909
:10508000FD8980818064808381E090E0DF91CF9111
:105090000895109295071092940788EE93E0A0E08F
:1050A000B0E08093960790939707A0939807B093EA
:1050B00099078EE594E090939307809392078AE096
:1050C00097E090939F0780939E078EE497E09093DC
:1050D000A1078093A00785EC90E09093A3078093AD
:1050E000A20784EC90E09093A5078093A40780EC3E
:1050F00090E09093A7078093A60781EC90E09093AF
:10510000A9078093A80782EC90E09093AB07809367
:10511000AA0786EC90E09093AD078093AC0784E0FB
:105120008093AE0783E08093AF0787E08093B0075A
:1051300085E08093B10781E08093B20708950F93D3
:10514000FC018EE694E09183808362834383248311
:1051500005830F9108958EE694E09093B5078093B0
:10516000B4071092B6071092B7071092B8071092C2
:10517000B90708958F929F92AF92BF92CF92DF921C
:10518000EF92FF920F931F93CF93DF934C016B012C
:105190007C01AA24BB24C0E0D0E0C601F7016281F3
:1051A0004AE050E00E94472A8C01C6016EE20E944C
:1051B0005F29080F191FA00EB11E21960894E11C4B
:1051C000F11CC330D10549F7C601F40165814AE0FD
:1051D00050E00E94472A9501280F391FC901DF912D
:1051E000CF911F910F91FF90EF90DF90CF90BF90E4
:1051F000AF909F908F900895DF93CF9300D000D011
:10520000CDB7DEB7FC018EE694E0918380834283C4
:105210005383648375830F900F900F900F90CF91FD
:10522000DF910895CF92DF92EF92FF920F931F9339
:10523000CF93DF937C016B018A01C0E0D0E00FC007
:10524000D6016D916D01D701ED91FC910190F08136
:10525000E02DC7010995C80FD91F01501040011555
:10526000110571F7CE01DF91CF911F910F91FF9042
:10527000EF90DF90CF900895EF92FF920F931F93DE
:10528000CF93DF937C018B01C0E0D0E0F8010F5F8A
:105290001F4F6491662359F0D701ED91FC91019065
:1052A000F081E02DC7010995C80FD91FEFCFCE01BE
:1052B000DF91CF911F910F91FF90EF900895DC0146
:1052C000ED91FC910190F081E02D09950895EF9208
:1052D000FF920F931F938C01DC01ED91FC910190E3
:1052E000F081E02D6DE009957C01D801ED91FC91F4
:1052F0000190F081E02DC8016AE009959C012E0D16
:105300003F1DC9011F910F91FF90EF900895EF92FB
:10531000FF920F931F937C010E943C298C01C701CF
:105320000E9467299C01200F311FC9011F910F9115
:10533000FF90EF900895CF93DF93EC016115710515
:1053400019F420E030E00FC0DB010D900020E9F7F8
:105350001197A61BB70BE881F9810280F381E02D3C
:10536000AD0109959C01C901DF91CF9108954F923C
:105370005F927F928F929F92AF92BF92CF92DF9275
:10538000EF92FF920F931F93DF93CF93CDB7DEB7CA
:10539000A1970FB6F894DEBF0FBECDBF2C01742EBF
:1053A000CB01223008F42AE019A231E2C32ED12C1D
:1053B000CC0EDD1E822E9924AA24BB24672D752FC6
:1053C000A50194010E94C72F79018A01C801B70184
:1053D000A50194010E94942F472D461B0894C108F3
:1053E000D1084A3014F4405D01C0495CF6014083A5
:1053F000E114F1040105110521F07E2C5F2DC80197
:10540000DDCFC201B6010E949B29A1960FB6F89488
:10541000DEBF0FBECDBFCF91DF911F910F91FF90E7
:10542000EF90DF90CF90BF90AF909F908F907F9044
:105430005F904F900895DC012115310541F4ED9105
:10544000FC910190F081E02D642F099508950E9450
:10545000B7290895CF92DF92EF92FF920F931F9397
:105460006C017B019A0100E010E0B801A7010E94E5
:105470001B2A8C01C6010E946729080F191FC80149
:105480001F910F91FF90EF90DF90CF900895EF92D2
:10549000FF920F931F939A01E62EFF2400E010E085
:1054A000B801A7010E941B2A1F910F91FF90EF9056
:1054B0000895CF92DF92EF92FF920F931F93CF93B5
:1054C000DF93EC016A017B012115310541F4E8818C
:1054D000F9810190F081E02D642F09951FC02A30D9
:1054E0003105D1F477FF17C0E881F9810190F0818F
:1054F000E02D6DE209958C0144275527BA014C191E
:105500005D096E097F09CE012AE00E94B729980142
:10551000280F391F04C02AE00E94B7299C01C90145
:10552000DF91CF911F910F91FF90EF90DF90CF907F
:105530000895CF92DF92EF92FF920F931F936C0129
:105540007B019A010027F7FC0095102FB801A701F5
:105550000E94592A8C01C6010E946729080F191F51
:10556000C8011F910F91FF90EF90DF90CF900895A9
:105570000E949B290895EF92FF920F931F937C0145
:105580000E949B298C01C7010E946729080F191FDF
:10559000C8011F910F91FF90EF900895AF92BF92B5
:1055A000CF92DF92EF92FF920F931F93CF93DF93EF
:1055B0005C016B01EE24FF24C0E0D0E010C0D501F7
:1055C000ED91FC9100811181C601BE010E94912BD9
:1055D000682FC501F8010995E80EF91E2196F6011C
:1055E00084819581C817D90750F3C701DF91CF9106
:1055F0001F910F91FF90EF90DF90CF90BF90AF90F1
:105600000895823000F5E82FF0E0EE0FFF1FE6541A
:10561000F84F71836083882319F08130A1F408C0AA
:10562000809169008C7F842B80936900E89A0895AB
:1056300080916900440F551F440F551F837F842BB1
:1056400080936900E99A0895823080F4882319F0E4
:10565000813021F402C0E89801C0E998E82FF0E019
:10566000EE0FFF1FE654F84F1182108208951F922B
:105670000F920FB60F9211242F933F934F935F9386
:105680006F937F938F939F93AF93BF93EF93FF930A
:105690008091BA079091BB07892B29F0E091BA0756
:1056A000F091BB070995FF91EF91BF91AF919F9149
:1056B0008F917F916F915F914F913F912F910F90BB
:1056C0000FBE0F901F9018951F920F920FB60F925A
:1056D00011242F933F934F935F936F937F938F93F7
:1056E0009F93AF93BF93EF93FF938091BC079091EB
:1056F000BD07892B29F0E091BC07F091BD07099502
:10570000FF91EF91BF91AF919F918F917F916F9199
:105710005F914F913F912F910F900FBE0F901F906F
:105720001895FC01848195816817790748F40190E8
:10573000F081E02D309721F0E60FF71F808108956A
:1057400080E008950F931F93CF93DF93EC018B01BB
:105750006F5F7F4F888199810E94B32E009711F46B
:1057600080E005C0998388831B830A8381E0DF91F1
:10577000CF911F910F910895CF93DF93EC01888112
:105780009981892B29F08A819B818617970760F47C
:10579000CE010E94A22B882341F08C819D81892B10
:1057A00019F4E881F981108281E0DF91CF910895A9
:1057B000EF92FF920F931F93CF93DF93EC017B0146
:1057C0006C817D81E114F104C1F04115510599F01E
:1057D0008A01060F171FB8010E94BC2B882369F0AD
:1057E000888199812C813D81820F931FB7010E948E
:1057F00016011D830C8381E001C080E0DF91CF9111
:105800001F910F91FF90EF900895DF93CF9300D0F9
:10581000CDB7DEB769831A82BE016F5F7F4F41E06B
:1058200050E00E94D82B0F900F90CF91DF910895F8
:10583000CF93DF93EC0188819981009711F00E944A
:10584000F625198218821D821C821B821A82DF9122
:10585000CF9108950F931F93182F092F611571058C
:1058600061F0DB010D900020E9F71197A61BB70B43
:10587000AD010E94D82B882321F4812F902F0E9404
:10588000182C812F902F1F910F9108950F931F9324
:10589000182F092FFB0160817181448155810E947D
:1058A000D82B882321F4812F902F0E94182C812F30
:1058B000902F1F910F910895EF92FF920F931F93D6
:1058C000CF93DF93EC017B018A01BA010E94BC2BCC
:1058D000882321F4CE010E94182C07C01D830C835D
:1058E00088819981B7010E941601CE01DF91CF9185
:1058F0001F910F91FF90EF900895CF93DF93EC01EC
:10590000198218821B821A821D821C821E826115D6
:10591000710551F0DB010D900020E9F71197A61BEE
:10592000B70BAD010E945C2CDF91CF910895CF930E
:10593000DF93EC01198218821B821A821D821C825D
:105940001E826115710551F0DB010D900020E9F711
:105950001197A61BB70BAD010E945C2CDF91CF9174
:105960000895CF93DF93EC01FB018617970761F051
:10597000608171816115710529F0448155810E9412
:105980005C2C02C00E94182CCE01DF91CF910895AB
:10599000FC01808191810E94F6250895FC0180819F
:1059A00091810E94F6250895CF93DF930E94922D56
:1059B0000E94C123CAECD6E20E9445242097E1F35D
:1059C0000E94CA26F9CF1F920F920FB60F92112490
:1059D0002F933F938F939F93AF93BF938091C20771
:1059E0009091C307A091C407B091C5073091C60735
:1059F0000196A11DB11D232F2D5F2D3720F02D57AE
:105A00000196A11DB11D2093C6078093C2079093F4
:105A1000C307A093C407B093C5078091BE079091B8
:105A2000BF07A091C007B091C1070196A11DB11D8C
:105A30008093BE079093BF07A093C007B093C107A0
:105A4000BF91AF919F918F913F912F910F900FBE7A
:105A50000F901F9018958FB7F8942091C20730913E
:105A6000C3074091C4075091C5078FBFB901CA0150
:105A700008959B01AC017FB7F8948091BE07909187
:105A8000BF07A091C007B091C10766B5A89B05C02C
:105A90006F3F19F00196A11DB11D7FBFBA2FA92F2D
:105AA000982F8827860F911DA11DB11D62E0880FD8
:105AB000991FAA1FBB1F6A95D1F7BC012DC0FFB764
:105AC000F8948091BE079091BF07A091C007B09154
:105AD000C107E6B5A89B05C0EF3F19F00196A11DCF
