:100000000C9442020C94812E0C94AE2E0C946A0235
:100010000C946A020C946A020C946A020C946A02B0
:100020000C946A020C946A020C946A020C946A02A0
:100030000C946A020C946A020C946A020C946A0290
:100040000C942B300C946A020C94EA290C94312AFB
:100050000C946A020C946A020C946A020C946A0270
:100060000C946A020C946A020D0A000D0A0030001A
:100070003078000A444E53736572763A20000A4481
:100080004843507372763A20000A4761746577617D
:10009000793A20000A4E65746D61736B3A20000A4C
:1000A000495020416464723A2000556E61626C656B
:1000B00020746F2072657472696576652074686556
:1000C0002049502041646472657373210D0A004316
:1000D0006C69656E7420646973636F6E6E656374BA
:1000E00065640000485454502F312E31203430358F
:1000F000204D6574686F64204E6F7420416C6C6F86
:10010000776564005D003E3E3E434D442056414CC1
:100110003D5B003E3E3E504154483A003C2F6874DF
:100120006D6C3E00596F7520616363657373656420
:1001300020706174683A20003C2F666F726D3E003B
:100140003C696E70757420747970653D27737562B3
:100150006D6974272076616C75653D2753656E6403
:1001600020646174612E2E2E273E003C696E7075EE
:100170007420747970653D74657874206E616D6566
:100180003D2774696D65272076616C75653D273163
:10019000303030273E003C696E7075742074797081
:1001A000653D74657874206E616D653D27636D648F
:1001B000272076616C75653D276D6F76656C656689
:1001C00074273E003C666F726D3E003C68313E54C1
:1001D0004553543C2F68313E003C68746D6C3E00C2
:1001E0003C21444F43545950452048544D4C3E0007
:1001F000436F6E6E656374696F6E3A20636C6F73E4
:100200006500436F6E74656E742D547970653A2085
:10021000746578742F68746D6C00485454502F3195
:100220002E3120323030204F4B00506174683A201C
:1002300000416374696F6E3A200050726F6365739A
:1002400073696E67207265717565737400436C69BC
:10025000656E7420636F6E6E65637465642E004C0A
:10026000697374656E696E6720666F7220636F6E66
:100270006E656374696F6E732E2E2E0074686572DE
:10028000652069736E277420616E206F6276696FD6
:100290007573206D6F6D656E7420746F2064697363
:1002A000636F6E6E65637420776974682061207374
:1002B00065727665722E0D0A0074696D656F7574CE
:1002C00020706572696F64207061737365732E208E
:1002D0002054686973206973206E6F726D616C20A1
:1002E0006265686176696F75722073696E63650017
:1002F0004150206D61792072656675736520636F6A
:100300006E6E656374696F6E207265717565737466
:10031000732066726F6D20746865204343333030FC
:100320003020756E74696C20610073696E6365209E
:10033000746865202E646973636F6E6E65637428DC
:10034000292066756E6374696F6E206973206E650F
:100350007665722063616C6C65642C20736F207409
:100360006865000D0A4E4F54453A20546869732061
:10037000736B65746368206D617920636175736563
:100380002070726F626C656D732077697468206F7E
:100390007468657220736B65746368657300526579
:1003A0007175657374204448435000436F6E6E65E9
:1003B0006374656421004661696C656421000A41CB
:1003C0007474656D7074696E6720746F20636F6EEE
:1003D0006E65637420746F2000436F756C646E27C4
:1003E0007420626567696E28292120436865636B04
:1003F00020796F757220776972696E673F000A49CC
:100400006E697469616C697A696E672E2E2E004878
:10041000656C6C6F2C20434333303030210A000070
:10042000000000240027002A00000000002500280A
:10043000002B000000000023002600290004040413
:10044000040404040402020202020203030303037D
:10045000030102040810204080010204081020015A
:10046000020408102000000007000201000003043D
:1004700006000000000000000000EE15D51F8D25CD
:10048000972BF32B11241FBECFEFD8E0DEBFCDBFDB
:1004900011E0A0E0B1E0EAEFF7E602C005900D92AE
:1004A000AC3DB107D9F715E0ACEDB1E001C01D924C
:1004B000A53EB107E1F714E0C4E8D4E004C02297F8
:1004C000FE010E944E33CA37D107C9F70E941C3083
:1004D0000C94FB330C940000882319F48CB58062D3
:1004E00002C08CB58F7D8CBD08959CB5937F982BF1
:1004F0009CBD08952CB5382F33702C7F322B3CBD1A
:100500002DB590E0959587959595879581702E7F6F
:10051000822B8DBD08958AE061E00E9454318AE00B
:1005200061E00E9415318CB580618CBD8CB5806412
:100530008CBD8DE061E00E9415318BE061E00E948E
:1005400015310895CF93DF93FC01DC014D939D019C
:10055000BB27A72F962F852F8183F9013196CB01D9
:10056000AA27BB27E9018983472F552766277727C5
:1005700041833296CF01DF91CF910895DC01FC01D8
:10058000619311967C933196CF010895FB01E80F9A
:10059000F91F318120E08081280F311DC9010895A4
:1005A000FB01E80FF91F238130E040E050E0522FBB
:1005B000442733272227828190E0A0E0B0E0DC01CD
:1005C00099278827280F391F4A1F5B1F8081280F12
:1005D000311D411D511D818190E0A0E0B0E0BA2F96
:1005E000A92F982F8827280F391F4A1F5B1FB90191
:1005F000CA010895DF93CF9300D0CDB7DEB7209125
:10060000DF053091E005CE0101962115310519F481
:10061000855E954002C0821B930B9A8389838981F2
:100620009A810F900F90CF91DF910895AF92BF9272
:10063000CF92DF92EF92FF920F931F9359016A01BD
:100640006830710581059105A0F522E0A216B1047C
:10065000C104D10470F521E030E0062E02C0220F63
:10066000331F0A94E2F720953095442737FD4095D3
:10067000542FE0903A01F0903B0100913C01109121
:100680003D012E213F2140235123062E04C0AA0CF8
:10069000BB1CCC1CDD1C0A94D2F72A293B294C290F
:1006A0005D2920933A0130933B0140933C015093E4
:1006B0003D011F910F91FF90EF90DF90CF90BF9081
:1006C000AF9008959B01AC016830710581059105DB
:1006D000E8F481E090E002C0880F991F2A95E2F7C4
:1006E0009C01442737FD4095542F80913A01909109
:1006F0003B01A0913C01B0913D01282339234A23BD
:100700005B23211531054105510521F021E030E041
:1007100040E050E0B901CA0108958F929F92AF92D4
:10072000BF92CF92DF92EF92FF920F931F93DF93CE
:10073000CF93CDB7DEB7A9970FB6F894DEBF0FBE43
:10074000CDBF8C0161E070E00E94C6029C016C018B
:10075000EE24FF24D6FE6DC081E42030380709F076
:1007600068C0C80165E070E00E94C6024C0197E0D5
:10077000A92EB12CA00EB11ECC24DD24EE24FF2422
:10078000870112C0C50162E070E00E94C602A0E0CD
:10079000B0E0E80EF91E0A1F1B1FA4E0B0E0AA0E8D
:1007A000BB1E0894C11CD11CC814D90458F38091F5
:1007B000FA019091FB018E0D9F1D9093FB01809398
:1007C000FA018091060290910702A0910802B0916F
:1007D0000902E80EF91E0A1F1B1FE0920602F092A2
:1007E000070200930802109309022091060230913B
:1007F00007024091080250910902809102029091F3
:100800000302A0910402B0910502281739074A0794
:100810005B0709F0ADC080910A02882309F4A8C0E3
:10082000E091EC01F091ED0169E970E080E090E089
:100830004AC0C60180709078892B09F4F2C0B0E8F4
:1008400020343B0709F499C0E0E821343E07A0F4C6
:10085000F0E824303F0751F180E82530380738F4BC
:10086000215030482230310508F07EC11FC0205190
:10087000304809F079C12BC0A4E820303A07B1F024
:10088000B4E821303B0748F4E0E820383E0771F037
:100890002050324809F068C109C088E82030380784
:1008A00009F4ADC02050394809F05EC18091EC01D7
:1008B0009091ED01892B09F45BC0E091EC01F0917E
:1008C000ED01C701B60140E050E020E050C0F80162
:1008D0003596D80115968C9115978D8B81818E8BCD
:1008E00082818F8B8381888FF801399619968C913C
:1008F0001997898F81818A8F82818B8F83818C8FD9
:10090000F8013D961D968C911D978D8F81818E8F5C
:1009100082818F8F838188A3F801719651968C9183
:10092000519789A381818AA382818BA383818CA320
:10093000F801759655968C9155978DA381818EA35C
:1009400082818FA3838188A714968C9189A7809137
:10095000EC019091ED01892B59F0E091EC01F091BF
:10096000ED01C701B601AE014B5E5F4F25E1099570
:1009700021E030E040E050E0FBC00B5F1F4FC801BA
:1009800060E070E00E94D00269837A838B839C834D
:10099000C80164E070E00E94D0026D837E838F8383
:1009A0009887C80168E070E00E94D00269877A8762
:1009B0008B879C87C8016CE070E00E94D0026D8735
:1009C0007E878F87988BC80160E170E00E94D0021B
:1009D0009B01AC018091EC019091ED01892B41F2DA
:1009E000E091EC01F091ED01298B3A8B4B8B5C8B04
:1009F000C701B601AE014F5F5F4F24E1B8CF8091D0
:100A0000EC019091ED01892B09F4B2CFE091EC015A
:100A1000F091ED010B5F1F4FC701B601A80121E066
:100A2000A6CFB3E0CB16B0E1DB06B0E0EB06B0E05A
:100A3000FB0699F0EFE0CE16E0E1DE06E0E0EE0620
:100A4000E0E0FE0651F0FEE0CF16F0E1DF06F0E058
:100A5000EF06F0E0FF0609F06AC085E0C82ED12C51
:100A6000C00ED11EC60164E070E00E94D002675C37
:100A70007F4F8F4F9F4F09F077C0D80114968C910C
:100A800090E0A0E0B0E08093F6019093F701A0938E
:100A9000F801B093F901C60160E070E00E94D00255
:100AA0007B018C01C60164E070E00E94D002675CAB
:100AB0007F4F8F4F9F4F09F05BCFE8E0EE16F104B8
:100AC0000105110508F054CF81E090E00E2C02C022
:100AD000880F991F0A94E2F780959095AA2797FDB1
:100AE000A095BA2F20913A0130913B0140913C01F1
:100AF00050913D0182239323A423B52321E030E0CC
:100B000040E050E00E2C04C0220F331F441F551F3D
:100B10000A94D2F7822B932BA42BB52B80933A0106
:100B200090933B01A0933C01B0933D0121CF809174
:100B3000DE019091DF01A0E0B0E0C816D906EA0618
:100B4000FB0691F060E0F0E0CF16F0E1DF06F0E0A8
:100B5000EF06F0E0FF0609F461E081E06827262F48
:100B600030E040E050E004C020E030E040E050E001
:100B7000B901CA01A9960FB6F894DEBF0FBECDBF6A
:100B8000CF91DF911F910F91FF90EF90DF90CF9069
:100B9000BF90AF909F908F9008958091E0019091C9
:100BA000E101892BD1F0E091E201F091E301808134
:100BB000843099F4CF010E948D0361307105810565
:100BC000910559F41092E1011092E0010E948322F4
:100BD00021E030E040E050E004C020E030E040E0C0
:100BE00050E0B901CA010895DF93CF9300D000D03F
:100BF000CDB7DEB719821A821B821C82FC01858167
:100C0000823021F1833009F43FC0813009F05FC0A8
:100C10008091E8019091E901892B91F0E091E80140
:100C2000F091E901CE0101960995AC01009741F0E0
:100C30006091E4017091E50129813A8181E045C02C
:100C40006091E4017091E50181E03BC08091E60193
:100C50009091E701892B91F0E091E601F091E70195
:100C6000CE0101960995AC01009741F06091E40135
:100C70007091E50129813A8182E027C06091E40109
:100C80007091E50182E01DC08091EA019091EB0135
:100C9000892B91F0E091EA01F091EB01CE010196F0
:100CA0000995AC01009741F06091E4017091E50174
:100CB00029813A8183E009C06091E4017091E501E6
:100CC00083E040E050E020E030E00E94130A0F9003
:100CD0000F900F900F90CF91DF9108954F925F92F8
:100CE0006F927F928F929F92AF92BF92CF92DF923C
:100CF000EF92FF920F931F93CF93DF936C012B0121
:100D00003A01AA24BB240E94B9238091E00190916A
:100D1000E101892BC1F38090E2019090E301D401BD
:100D20008C91843009F0BFC2C40161E070E00E9480
:100D3000C6025C01C4010E948D0361157105810525
:100D4000910509F0A4C2E4012596B8E0AB16B0E124
:100D5000BB0608F056C0E6E0AE16E0E1BE0608F0BD
:100D6000CCC0F2E0AF16F2E0BF0609F4C6C003E063
:100D7000A01602E0B00600F51DE0A116B10480F453
:100D800068E0A616B10408F0B8C081E0A816B10466
:100D900008F47DC297E0A916B10408F4AEC0D4C12E
:100DA000ADE0AA16B10409F4A3C0B1E0AB16B2E0FD
:100DB000BB0609F06CC29CC0E3E0AE16E0E1BE06E3
:100DC00098F4F1E0AF16F0E1BF0608F096C005E038
:100DD000A01602E0B00608F48BC017E0A11612E0DE
:100DE000B10609F054C28DC064E0A61660E1B606F3
:100DF00009F4DCC085E0A81680E1B80608F0B1C0AF
:100E000042C191E1A91690E1B90609F471C0A2E1CD
:100E1000AA16A0E1BA0658F5BBE0AB16B0E1BB06D6
:100E200009F46BC0ECE0AE16E0E1BE0668F4F9E050
:100E3000AF16F0E1BF0609F460C00AE0A01600E1B9
:100E4000B00608F073C13AC11FE0A11610E1B10667
:100E500009F419C160E1A61660E1B60608F061C0A8
:100E60008DE0A81680E1B80609F011C29FC095E098
:100E7000A91690E2B90609F4A4C1A6E0AA16A0E258
:100E8000BA0668F4B2E1AB16B0E1BB0609F460C083
:100E9000E1E0AE16E0E2BE0608F4F9C129C0FAE0CE
:100EA000AF16F0E2BF0660F408E0A01600E2B0065C
:100EB000F8F416E0A11610E2B10609F0E8C118C076
:100EC0006BE0A61660E4B60609F0E1C1D401159600
:100ED0008C9190E09093FB018093FA01CE0161E048
:100EE00070E00E94C6029093FD018093FC01CFC187
:100EF000E4018C81F6018083CAC1CE0160E070E01C
:100F00001EC0F4018481D6018D936D01CE0160E095
:100F100070E00E94D002AB01BC01C6010E94A20297
:100F2000B6C1CE0160E070E00E94D002F60161938C
:100F30007193819391936F01CE0164E070E00E9400
:100F4000D002D6016D937D938D939C9313979FC18F
:100F5000CE0160E070E00E94C602E60199838883BA
:100F600096C1CE0160E070E00E94D002F60161936C
:100F70007193819391938F01CE0164E070E00E94A0
:100F8000D002D60114966D937D938D939C93179701
:100F9000E4E0CE2ED12CC00ED11ED601FE01389633
:100FA00080E101900D928150E1F771C1CE0160E0C6
:100FB00070E00E94D002F601619371938193919346
:100FC0008F01CE0164E070E00E94D002D601149639
:100FD0006D937D938D939C93179774E0C72ED12CBE
:100FE000C00ED11ECE0168E070E00E94D0029B01CD
:100FF000AC01E8016C837D838E839F83F60184813D
:101000009581A681B781875C9F4FAF4FBF4F09F095
:101010003EC1283031054105510508F038C1822F05
:1010200021E030E0082E02C0220F331F0A94E2F7BD
:1010300020953095442737FD4095542FE0903A0194
:10104000F0903B0100913C0110913D012E213F2188
:101050004023512361E0E62EF12C012D112D04C017
:10106000EE0CFF1C001F111F8A95D2F72E293F2975
:10107000402B512B20933A0130933B0140933C018C
:1010800050933D0104C1CE0160E070E00E94D002A7
:10109000D6016D937D938D939D938D01CE0164E078
:1010A00070E00E94D002E6016C837D838E839F8373
:1010B00054E0C52ED12CC00ED11EE9C0CE0160E097
:1010C00070E00E94D002F601619371938193919335
:1010D0008F01CE0164E070E00E94D002D601149628
:1010E0006D937D938D939C93179744E0E42EF12CA0
:1010F000E00EF11ECE0168E070E00E94D002F8011F
:10110000648375838683978334E0C32ED12CCE0C01
:10111000DF1CCE016CE070E00E94D002D701149673
:101120006D937D938D939C931797B1C0E4018C814F
:10113000F60184838D819E81AF81B885E601888325
:101140009983AA83BB83A3C0CE0160E070E00E94B4
:10115000D002F60161937193819391938F01CE0137
:1011600064E070E00E94D002D60114966D937D93E6
:101170008D939C931797CE0168E070E00E94C602A1
:10118000A0E0B0E0F80184839583A683B783CE0105
:101190006AE070E00E94C602A0E0B0E0F60182873B
:1011A0009387A487B5872CE0E22EF12CCE0CDF1CB0
:1011B000D601FE013C9686E201900D928150E1F746
:1011C00066C0D40115968C91F60181938981D60170
:1011D00011968C9311978A8181838B8182831496D7
:1011E000F4013996E4018985E6018C8381818D8340
:1011F00082818E8383818F839D012C5F3F4FF40119
:101200003D96E4018D8514968C9314978181E601B7
:10121000898782818A8783818B87F4017196E401B3
:101220008989E9018C838181E6018D8782818E879E
:1012300083818F87F4017596E4018D89E9018887A0
:1012400081811D968C931D9782811E968C931E978B
:1012500083811F968C93E4019601F401D601A401C9
:101260004A5F5F4F818D54968C93549731961196B7
:10127000E417F507B9F7A401405E5F4F8F8DF901C0
:10128000828F21962F5F3F4FC417D507B9F7809102
:10129000DE019091DF01A816B906B9F51092DF01C1
:1012A0001092DE0132C0D40112960C91C40163E0A9
:1012B00070E00E94C602EC0141145104A1F0C40187
:1012C000059664E070E00E94D002462FF30160832F
:1012D00071838283938394012B5E3F4FC201B901D6
:1012E00050E00E947E33202F30E0FE01E21BF30B22
:1012F0002B5F3F4F280D391DC601B901AF010E9478
:101300007E3310920102109200021092E1011092BD
:10131000E0010E948322D4018C91843041F4B0E03A
:10132000AB16B0E1BB0619F4C4010E94F40580912C
:10133000DE019091DF01892B09F0E5CC809100025C
:1013400090910102892B09F0DECC80E090E0DF91E2
:10135000CF911F910F91FF90EF90DF90CF90BF90B2
:10136000AF909F908F907F906F905F904F90089577
:1013700021E030E030930102209300020E946E06CB
:1013800008959093DF018093DE01CB0160E070E06F
:1013900040E050E00E946E060895CF92DF92EF92F7
:1013A000FF920F931F936B01890192E0FB019583DC
:1013B00086834783040F151F0E0D1F1DCB01089652
:1013C000B8010E94BE020B5F1F4FC601B8010E9408
:1013D0003F2460E070E080E090E01F910F91FF906B
:1013E000EF90DF90CF900895EF92FF920F931F93AD
:1013F0009C017B01042F81E0FB018583CB010696D4
:10140000B9010E94BE02FC01008310E00C5F1F4F77
:10141000C701B8010E943F2480E090E01F910F9126
:10142000FF90EF9008954F925F926F927F928F920C
:101430009F92AF92BF92CF92DF92EF92FF920F9363
:101440001F93CF93DF936B014A01E90145E0442EDE
:10145000512C460E571E93E0FB019583868337E09F
:10146000632E712C660E771E8E010E5F1F4FC30117
:10147000B8010E94BE027C012BE0A22EB12CAC0C64
:10148000BD1CF3E0C93EDF0790F4BE010E94BE021E
:10149000C701BE010E94BE02C501B401AE010E9497
:1014A0007E332696C601BE010E943F2447C0CE016E
:1014B00068EE73E00E94FB32660F771F060F171F5E
:1014C000C701B8010E94BE02C70168EE73E00E9426
:1014D000BE02D501F40188EE93E001900D920197D0
:1014E000E1F78E01085E134088EEE82E83E0F82EC7
:1014F000E80CF91CC6016EEE73E01BC00E94B92314
:1015000083E0093E180720F4E80100E010E004C081
:10151000085E1340C8EED3E0F201D183C083C3015B
:10152000B701AE010E947E33EC0EFD1E2296C20171
:10153000BE010E943F240115110501F7DF91CF91F3
:101540001F910F91FF90EF90DF90CF90BF90AF90E1
:101550009F908F907F906F905F904F9008950F9322
:101560001F938C016091E4017091E50185E090E2A8
:1015700040E00E94F40985E090E2B8010E94C109B0
:101580001F910F9108958F929F92AF92BF92CF9229
:10159000DF92EF92FF920F931F93DF93CF930F92FF
:1015A000CDB7DEB74C018B017A0169018FEF8983DA
:1015B000A090E401B090E501F40180819181A281C5
:1015C000B3810197A109B1090997A105B10540F4BB
:1015D0008AE090E0A0E0B0E080839183A283B383AF
:1015E000F80180819181A281B3810197A109B1099C
:1015F0000997A105B10540F48AE090E0A0E0B0E0D1
:1016000080839183A283B383F70180819181A2813A
:10161000B3810197A109B1090997A105B10540F46A
:101620008AE090E0A0E0B0E080839183A283B3835E
:10163000F60180819181A281B3810197A109B1094D
:101640000997A105B10540F48AE090E0A0E0B0E080
:1016500080839183A283B383F401408151816281AD
:101660007381C50109960E94A202F801408151814F
:10167000628173810E94A202F701408151816281DF
:1016800073810E94A202F6014081518162817381BF
:101690000E94A20289E090E2B50144E10E94F409AF
:1016A00089E090E2BE016F5F7F4F0E94C1092981EE
:1016B000332727FD3095432F532FB901CA010F90CF
:1016C000CF91DF911F910F91FF90EF90DF90CF901E
:1016D000BF90AF909F908F900895CF92DF92EF923E
:1016E000FF920F931F93DF93CF930F92CDB7DEB787
:1016F000D62EC72E8A014132510518F02FEF3FEF49
:1017000036C0E090E401F090E501AC0160E070E0EB
:10171000C70109960E94A20248E050E060E070E034
:101720000E94A202A80160E070E00E94A202DC0117
:101730008D2D9C2DFC019F01200F311F02C0819136
:101740008D93E217F307D9F7402F445F81E190E1D1
:10175000B7010E94F40981E190E1BE016F5F7F4F04
:101760000E94C1098981282F332727FD3095C9019F
:101770000F90CF91DF911F910F91FF90EF90DF902D
:10178000CF9008952F923F924F925F926F927F92E7
:101790008F929F92AF92BF92CF92DF92EF92FF9281
:1017A0000F931F93DF93CF93CDB7DEB728970FB674
:1017B000F894DEBF0FBECDBF2B013C012D833E83CD
:1017C0004F8358871601C090E401D090E501C6010F
:1017D0000996B301A2010E94A2024D815E816F8130
:1017E00078850E94A202B801A7010E94A20248E0E7
:1017F00050E060E070E00E94A202B501A4010E94E6
:10180000A202BC0120E030E040E050E00CC0F90151
:10181000DB01A20FB31FE20DF31D80818C932F5FBC
:101820003F4F4F4F5F4F281539054A055B0578F349
:10183000482D4C5E89E090E1B6010E94F40989E0F0
:1018400090E1BE016F5F7F4F0E94C10929813A81FB
:101850004B815C8157FD03C060E070E005C0B901B9
:101860003093E4052093E305CB0128960FB6F89456
:10187000DEBF0FBECDBFCF91DF911F910F91FF90C3
:10188000EF90DF90CF90BF90AF909F908F907F9020
:101890006F905F904F903F902F900895CF92DF927E
:1018A000EF92FF920F931F93DF93CF9300D000D05E
:1018B000CDB7DEB78B019C01F42EE52E8FEF9FEFA5
:1018C000AFEFBFEF89839A83AB83BC83C090E40101
:1018D000D090E501C6010996B901A8010E94A202B3
:1018E00048E050E060E070E00E94A20248E050E072
:1018F00060E070E00E94A202DC018F2D9E2DFC01B1
:101900009F01285F3F4F81918D93E217F307D9F72D
:1019100087E090E1B60144E10E94F40987E090E19C
:10192000BE016F5F7F4F0E94C10969817A818B81FF
:101930009C819B012093E3053093E4050F900F9069
:101940000F900F90CF91DF911F910F91FF90EF902B
:10195000DF90CF900895AF92BF92CF92DF92EF9237
:10196000FF920F931F93DF93CF93CDB7DEB72897E6
:101970000FB6F894DEBF0FBECDBFB82EA92E8B01D7
:101980006A018FEF9FEF9093E4058093E305673E34
:10199000710518F02FEF3FEF3BC0E090E401F090AD
:1019A000E501C701099648E050E060E070E00E9460
:1019B000A202A80160E070E00E94A202DC018B2D6F
:1019C0009A2DFC019F01200F311F02C081918D9340
:1019D000E217F307D9F7402F485F80E190E1B701A4
:1019E0000E94F40980E190E1BE016F5F7F4F0E9489
:1019F000C10929813A813093E4052093E3058D8163
:101A00009E81AF81B885F60180839183A283B383E1
:101A1000C90128960FB6F894DEBF0FBECDBFCF9197
:101A2000DF911F910F91FF90EF90DF90CF90BF90CB
:101A3000AF9008958F929F92AF92BF92CF92DF9214
:101A4000EF92FF920F931F93DF93CF9300D000D0BC
:101A5000CDB7DEB77B018C0159016A018FEF9FEF93
:101A6000AFEFBFEF89839A83AB83BC838090E4019F
:101A70009090E501C4010996B801A7010E94A20255
:101A8000B601A5010E94A20286E090E1B40148E0FF
:101A90000E94F40986E090E1BE016F5F7F4F0E94D3
:101AA000C10969817A818B819C819B012093E30527
:101AB0003093E4050F900F900F900F90CF91DF912E
:101AC0001F910F91FF90EF90DF90CF90BF90AF905C
:101AD0009F908F900895CF92DF92EF92FF920F9395
:101AE0001F93DF93CF9300D000D0CDB7DEB78B012B
:101AF0009C01F42EE52E8FEF9FEFAFEFBFEF8983B0
:101B00009A83AB83BC83C090E401D090E501C60109
:101B10000996B901A8010E94A20248E050E060E0E5
:101B200070E00E94A20248E050E060E070E00E9495
:101B3000A202DC018F2D9E2DFC019F01285F3F4FEB
:101B400081918D93E217F307D9F782E090E1B60116
:101B500044E10E94F40982E090E1BE016F5F7F4F93
:101B60000E94C10969817A818B819C819B012093AC
:101B7000E3053093E4050F900F900F900F90CF91F5
:101B8000DF911F910F91FF90EF90DF90CF9008951C
:101B90002F923F924F925F926F927F928F929F927D
:101BA000AF92BF92CF92DF92EF92FF920F931F936B
:101BB000DF93CF93CDB7DEB764970FB6F894DEBF4F
:101BC0000FBECDBF2B013C015E874D870F87188B61
:101BD000298B3A8B15019C8A8B8A89A49AA4ABA481
:101BE000BCA40091E4011091E501C8010996B3017C
:101BF000A2010E94A2024F85588969897A890E94B0
:101C0000A202B701A6010E94A202C401B8014CE0E1
:101C10000E94F409C401BE016F5F7F4F0E94C10999
:101C20008D819E81AF81B885181619061A061B068C
:101C30003CF48D859E85B1014B895C890E94B80971
:101C40008D819E818093E3059093E40564960FB6A1
:101C5000F894DEBF0FBECDBFCF91DF911F910F91E2
:101C6000FF90EF90DF90CF90BF90AF909F908F90BC
:101C70007F906F905F904F903F902F9008958F923C
:101C80009F92AF92BF92CF92DF92EF92FF920F930B
:101C90001F9300D000D0F4E08F2EF0E19F2EA12CF6
:101CA000B12CEDB7FEB781829282A382B482AA24BE
:101CB000BB24882499240E94C80D0F900F900F9088
:101CC0000F901F910F91FF90EF90DF90CF90BF90FA
:101CD000AF909F908F9008954F925F926F927F92F6
:101CE0008F929F92AF92BF92CF92DF92EF92FF922C
:101CF0000F931F93DF93CF93CDB7DEB760970FB6E7
:101D0000F894DEBF0FBECDBF5B016C014A01390103
:101D100028018701E090E401F090E501C7010996F0
:101D2000B601A5010E94A20244E150E060E070E02B
:101D30000E94A20244E150E060E070E00E94A20232
:101D400044E150E060E070E00E94A20244E150E013
:101D500060E070E00E94A20240E050E060E070E0CD
:101D60000115110521F441E050E060E070E00E94AF
:101D7000A2028114910429F440E050E060E070E098
:101D800005C0F40140815181628173810E94A202E9
:101D90006114710429F440E050E060E070E005C097
:101DA000F30140815181628173810E94A20241143A
:101DB000510429F440E050E060E070E005C0F20119
:101DC00040815181628173810E94A2029C010115B0
:101DD000110551F1F80180819181A281B3810097B1
:101DE000A105B10591F484819581A681B7818858B8
:101DF0009341A040B0404CF488E893E1A0E0B0E00B
:101E0000F80184839583A683B783F80140815181CB
:101E100062817381C9010E94A202F8014481558147
:101E2000668177810E94A20288E090E1B7014CE2CE
:101E30000E94F40988E090E1BE016F5F7F4F0E942D
:101E4000C10989819A81AB81BC81B7FD27C081140A
:101E5000910449F08D819E81AF81B885F401808322
:101E60009183A283B3836114710449F089859A85B3
:101E7000AB85BC85F30180839183A283B383411436
:101E8000510449F08D859E85AF85B889F201808324
:101E90009183A283B38329813A8106C09093E4059C
:101EA0008093E3052FEF3FEFC90160960FB6F894DA
:101EB000DEBF0FBECDBFCF91DF911F910F91FF907D
:101EC000EF90DF90CF90BF90AF909F908F907F90DA
:101ED0006F905F904F9008958F929F92AF92BF92B4
:101EE000CF92DF92EF92FF920F931F93DF93CF93E6
:101EF000CDB7DEB768970FB6F894DEBF0FBECDBF83
:101F00005B016C017A0149010091E4011091E50146
:101F1000C8010996B601A5010E94A20285E090E1E0
:101F2000B80144E00E94F40985E090E1BE016F5FD2
:101F30007F4F0E94C109E114F10441F0D701FE0175
:101F4000399688E001900D928150E1F78114910457
:101F500049F088E090E0A0E0B0E0F4018083918354
:101F6000A283B3838D819E819093E4058093E305E2
:101F70007C010027F7FC0095102FF8E0EF16F10424
:101F80000105110538F4C801B70120E030E040E058
:101F900050E006C0C601B50121E030E040E050E06D
:101FA0000E941603B701C80168960FB6F894DEBF09
:101FB0000FBECDBFCF91DF911F910F91FF90EF909A
:101FC000DF90CF90BF90AF909F908F900895CF9269
:101FD000DF92EF92FF920F931F93DF93CF9300D086
:101FE00000D0CDB7DEB76B017C018FEF9FEFAFEF75
:101FF000BFEF89839A83AB83BC830091E401109186
:10200000E501C8010996B701A6010E94A2028BE072
:1020100090E1B80144E00E94F4098BE090E1BE0138
:102020006F5F7F4F0E94C10989819A819093E40577
:102030008093E305C701B60121E030E040E050E0C5
:102040000E94160369817A818B819C810F900F9089
:102050000F900F90CF91DF911F910F91FF90EF9014
:10206000DF90CF9008954F925F926F927F928F9200
:102070009F92AF92BF92CF92DF92EF92FF920F9317
:102080001F93DF93CF9300D000D0CDB7DEB75B01B5
:102090006C0139014A018FEF9FEFAFEFBFEF8983EA
:1020A0009A83AB83BC834090E4015090E501C20168
:1020B0000996B601A5010E94A202B401A3010E94E3
:1020C000A202B801A7010E94A20281E090E1B20140
:1020D0004CE00E94F40981E090E1BE016F5F7F4F08
:1020E0000E94C10969817A818B819C817093E4058A
:1020F0006093E30520E030E040E050E00E941603EA
:1021000069817A818B819C810F900F900F900F9045
:10211000CF91DF911F910F91FF90EF90DF90CF90C3
:10212000BF90AF909F908F907F906F905F904F90F7
:1021300008958F929F92AF92BF92CF92DF92EF92CB
:10214000FF920F931F938C010E9473304B015C012F
:102150006801EE24D7FCE094FE2C8091F60190916A
:10216000F701A091F801B091F9010097A105B1051F
:10217000B1F08091F6019091F701A091F801B09132
:10218000F9019C019093E4058093E3051092F60118
:102190001092F7011092F8011092F9012CC0C701BA
:1021A000B6010E946203611571058105910519F060
:1021B0002FEF3FEF20C00E947330681979098A0918
:1021C0009B09615375478040904018F02DEF3FEF19
:1021D00012C08091FA019091FB01892B09F4BDCFC7
:1021E0008091FA019091FB0101979093FB018093FC
:1021F000FA0120E030E0C9011F910F91FF90EF90AC
:10220000DF90CF90BF90AF909F908F9008952F92C6
:102210003F924F925F926F927F928F929F92AF9276
:10222000BF92CF92DF92EF92FF920F931F93DF93B3
:10223000CF93CDB7DEB76A970FB6F894DEBF0FBE67
:10224000CDBF1B012C015C8B4B8B38014901CD8A22
:10225000DE8AEF8AF88EBA8EA98ECFA4D8A8E9A814
:10226000FAA8CB010E9499109C01009709F0CBC0FD
:102270008091020290910302A0910402B0910502A4
:102280000196A11DB11D8093020290930302A093B9
:102290000402B09305022091E4013091E5013A8BEC
:1022A000298B8BA99CA9ADA9BEA981389105A1054F
:1022B000B105B9F083389105A105B105F1F4A40188
:1022C0009301285F3F4F4F4F5F4F2D873E874F87CA
:1022D000588BA988BA8842E250E0A40EB51E18E1D6
:1022E0000CC0A988BA888AE190E0A80EB91E1A8E9F
:1022F000198ECC24DD24760110E189899A890A9609
:10230000B201A1010E94A202012F10E0045010406E
:10231000A80160E070E00C5F1F4F0E94A202B401B0
:10232000A3010E94A2024D895E896F89788D0E9467
:10233000A2022BA93CA94DA95EA92338310541056C
:10234000510561F44D855E856F8578890E94A202F2
:1023500048E050E060E070E00E94A20220E030E03F
:1023600040E050E00CC0EB89FC89E20FF31F808154
:10237000D5018D935D012F5F3F4F4F4F5F4F261566
:102380003705480559057CF32BA93CA94DA95EA941
:102390002338310541055105C1F420E030E040E02B
:1023A00050E00EC0F901D501A20FB31F898D9A8D9F
:1023B000E80FF91F80818C932F5F3F4F4F4F5F4F86
:1023C0002C153D054E055F056CF38BA969897A894B
:1023D000A8019301098D1A8D76010E94CD09BE01D5
:1023E0006F5F7F4F2BA93CA94DA95EA9233831050A
:1023F0004105510519F48FE090E102C083E090E1BE
:102400000E94C1099301C9016A960FB6F894DEBF14
:102410000FBECDBFCF91DF911F910F91FF90EF9035
:10242000DF90CF90BF90AF909F908F907F906F90F4
:102430005F904F903F902F9008958F929F92AF9210
:10244000BF92CF92DF92EF92FF920F931F93EDB75F
:10245000FEB738970FB6F894FEBF0FBEEDBF1182DE
:10246000128213821482B1E88B2E912CA12CB12CF4
:1024700085829682A782B086AA24BB240E94071177
:102480002DB73EB7285F3F4F0FB6F8943EBF0FBE43
:102490002DBF1F910F91FF90EF90DF90CF90BF90D5
:1024A000AF909F908F900895AF92BF92CF92DF929E
:1024B000EF92FF920F931F937093E7016093E601F1
:1024C0005093E9014093E8013093EB012093EA0136
:1024D0001093EF010093EE01F092F101E092F00110
:1024E000D092F301C092F201B092F501A092F401F2
:1024F0009093ED018093EC0181E080930A021F919B
:102500000F91FF90EF90DF90CF90BF90AF90089524
:102510000F931F93DF93CF9300D000D0CDB7DEB7DA
:10252000AB01BC01DB01CA0188709078A070B0706B
:1025300088509048A040B040A9F410920A02483058
:1025400080E8580780E0680780E0780729F420E0F9
:1025500030E040E050E02AC0477F5F7760707070E5
:10256000506803C081E080930A028FEF9FEFAFEFC6
:10257000BFEF89839A83AB83BC830091E401109100
:10258000E501C80109960E94A20288E090E0B80126
:1025900044E00E94F40988E090E0BE016F5F7F4F45
:1025A0000E94C10929813A814B815C81B901CA012C
:1025B0000F900F900F900F90CF91DF911F910F917F
:1025C00008952F923F924F925F926F927F928F92D7
:1025D0009F92AF92BF92CF92DF92EF92FF920F93B2
:1025E0001F93DF93CF93CDB7DEB728970FB6F8943C
:1025F000DEBF0FBECDBF3B014C0119012A018DA5E5
:102600008F839EA598878091E4019091E5019E8338
:102610008D83099644E250E060E070E00E94A202DF
:10262000B401A3010E94A202B201A1010E94A20270
:10263000B801A7010E94A202B601A5010E94A20250
:102640004D8D5E8D6F8D78A10E94A20249A15AA185
:102650006BA17CA10E94A2024DA15EA16FA178A5F1
:102660000E94A20249A55AA56BA57CA50E94A202C0
:10267000DC018F819885FC019F01205C3F4F02C0E7
:1026800081918D93E217F307D9F783E090E06D8194
:102690007E8144E60E94F40983E090E0BE016F5F12
:1026A0007F4F0E94C10969817A818B819C81289624
:1026B0000FB6F894DEBF0FBECDBFCF91DF911F9153
:1026C0000F91FF90EF90DF90CF90BF90AF909F90D1
:1026D0008F907F906F905F904F903F902F900895D4
:1026E0000F931F93DF93CF9300D000D0CDB7DEB709
:1026F000AB01BC010091E4011091E501C80109960C
:102700000E94A2028FEF9FEFAFEFBFEF89839A8302
:10271000AB83BC8386E090E0B80144E00E94F409FA
:1027200086E090E0BE016F5F7F4F0E94C109698122
:102730007A818B819C810F900F900F900F90CF9199
:10274000DF911F910F9108954F925F926F927F9248
:102750008F929F92AF92BF92CF92DF92EF92FF92B1
:102760000F931F93DF93CF9300D000D0CDB7DEB788
:102770005B016C0139014A018FEF9FEFAFEFBFEFB3
:1027800089839A83AB83BC834090E4015090E50138
:10279000C2010996B601A5010E94A202B401A301DB
:1027A0000E94A202B801A7010E94A20284E090E068
:1027B000B2014CE00E94F40984E090E0BE016F5F3A
:1027C0007F4F0E94C10969817A818B819C810F9022
:1027D0000F900F900F90CF91DF911F910F91FF906D
:1027E000EF90DF90CF90BF90AF909F908F907F90B1
:1027F0006F905F904F9008952F923F924F925F920B
:102800006F927F928F929F92AF92BF92CF92DF9200
:10281000EF92FF920F931F93DF93CF93CDB7DEB765
:1028200060970FB6F894DEBF0FBECDBF2B013C0101
:102830005C874B870D871E872F87388B16018E018B
:102840000B5F1F4F86E0D8011D928A95E9F78FEF45
:102850009FEFAFEFBFEF89839A83AB83BC83C090B8
:10286000E401D090E501C60109964CE150E060E03A
:1028700070E00E94A2024D855E856F8578890E9476
:10288000A202B301A2010E94A2024D855E856F855E
:102890007889405F5F4F6F4F7F4F0E94A202B50162
:1028A000A4010E94A20260E070E00E94BE02DC016E
:1028B000E114F10481F0AC0120E030E0F701E20F17
:1028C000F31F8081FA018193AF012F5F3F4F2630C4
:1028D0003105A1F70EC0B8019C01AE01455F5F4F05
:1028E000FB018191BF01F90181939F016417750775
:1028F000B9F7BD016A5F7F4F20E030E040E050E073
:102900000CC0EB85FC85E20FF31F8081DB018D930A
:10291000BD012F5F3F4F4F4F5F4F8D859E85AF8528
:10292000B889281739074A075B075CF381149104BB
:10293000A104B104C9F021143104B1F020E030E069
:1029400040E050E00CC0F901DB01A20FB31FE20D23
:10295000F31D80818C932F5F3F4F4F4F5F4F2815A2
:1029600039054A055B057CF34D85445E480D81E0E1
:1029700090E0B6010E94F40981E090E0BE016F5F33
:102980007F4F0E94C10969817A818B819C819B0163
:102990002093E3053093E40560960FB6F894DEBF0C
:1029A0000FBECDBFCF91DF911F910F91FF90EF90A0
:1029B000DF90CF90BF90AF909F908F907F906F905F
:1029C0005F904F903F902F900895EF92FF920F935A
:1029D0001F93CF93DF93EC01109202021092030237
:1029E0001092040210920502109206021092070241
:1029F00010920802109209021092DF011092DE017B
:102A00001092FB011092FA011092FD011092FC014C
:102A10001092FF011092FE0110920102109200022A
:102A20001092F6011092F7011092F8011092F9013C
:102A30001092E1011092E0011092E3011092E20184
:102A400089EE92E09093E5018093E40187E895E1B7
:102A50000E945425E091EE01F091EF0109957B0170
:102A60008C01E091F401F091F50181E00995E11408
:102A7000F1040105110559F0E091EE01F091EF012B
:102A800009956115710581059105B1F714C0E091B3
:102A9000EE01F091EF010995611571058105910530
:102AA000B1F3E091EE01F091EF0109956115710527
:102AB00081059105B1F7E091E401F091E501CD2B9D
:102AC00011F480E001C082E0818780E090E4BF01E2
:102AD00041E00E94F40980E090E460E070E00E9430
:102AE000C1096091E4017091E5018BE090E440E060
:102AF0000E94F4098BE090E460E070E00E94C1095C
:102B0000DF91CF911F910F91FF90EF90089521E0F9
:102B100030E03093E1012093E0019093E301809352
:102B2000E2010E94CD050895EF92FF920F93FC0100
:102B3000108260930B0240930C0220930D028FEFE2
:102B400080930E0200930F0210924502F09247020A
:102B5000E09246020F91FF90EF900895FC011382DE
:102B6000128288EE93E0A0E0B0E084839583A68390
:102B7000B78388E491E091838083E15BFF4F8FEF1F
:102B80009FEFAFEFBFEF80839183A283B38308955C
:102B9000FC011382128288EE93E0A0E0B0E084830F
:102BA0009583A683B78388E491E091838083E15B7A
:102BB000FF4F408351836283738312921292129269
:102BC0000895FC01A081B18154962D913C915597B7
:102BD000F9010995811181E0089508950F9388E422
:102BE00092E060E040E020E000E00E94E72B0F91DF
:102BF0000895CF92DF92EF92FF920F931F93DB0124
:102C0000FC01E15BFF4F60817181828193818A01C8
:102C100020E030E0AD01CC24DD2476010E943F0E9F
:102C20001F910F91FF90EF90DF90CF9008958F92BA
:102C30009F92AF92BF92CF92DF92EF92FF920F934B
:102C40001F93DF93CF93CDB7DEB72C970FB6F894D1
:102C5000DEBF0FBECDBFFC01E15BFF4F80819181E4
:102C6000A281B381EF54F040B7FF03C020E030E011
:102C700082C0E35BFF4F20813181ED54F04012169A
:102C8000130664F4E45BFF4F8081EC54F04090E065
:102C9000821793071CF4281B390B6DC019821A8206
:102CA0001B821C82E15BFF4FC080D180E280F380F9
:102CB000C701B60120E230E040E050E00E9431332D
:102CC000922E832E022F132F000F111F000F111FA2
:102CD0005E010894A11CB11C0A0D1B1DC701B601A1
:102CE00020E230E040E050E00E94313321E030E06B
:102CF00040E050E004C0220F331F441F551F6A9567
:102D0000D2F7E92DF82DEE0FFF1FEE0FFF1FEA0D92
:102D1000FB1D80819181A281B381282B392B4A2B05
:102D20005B2BF80120833183428353831D821E82F3
:102D30001F82188688E893E1A0E0B0E089879A872F
:102D4000AB87BC870894C11CD11CE11CF11CC701D6
:102D5000B601A50120E030E000E010E0E5E0EE2E55
:102D6000F12CEC0EFD1E0E946C0E20E030E001976D
:102D700011F421E030E0C9012C960FB6F894DEBFC3
:102D80000FBECDBFCF91DF911F910F91FF90EF90BC
:102D9000DF90CF90BF90AF909F908F9008950F934A
:102DA0001F938C01015B1F4FF8016081718182814B
:102DB00093810E94E70F2FEF3FEF4FEF5FEFF80196
:102DC00020833183428353831F910F9108954F9243
:102DD0005F926F927F928F929F92AF92BF92CF92AB
:102DE000DF92EF92FF920F931F93CF93DF93EC014B
:102DF0009CE0492E512C4C0E5D1E8DE4882E912CAA
:102E00008C0E9D1E0CE4A02EB12CAC0EBD1E1FE43A
:102E1000612E712C6C0E7D1E1FC00E94B923F30120
:102E20006081718182819381A20100E410E020E041
:102E300030E0CC24DD2476010E943F0EF401918322
:102E40008083875C9F4F31F4CE010E94CF1620E033
:102E500030E014C0F5011082F40120813181121696
:102E60001306DCF6F5018081E82FF0E02E173F070E
:102E7000A1F2EC0FFD1F8485282F30E0C901DF91FE
:102E8000CF911F910F91FF90EF90DF90CF90BF9067
:102E9000AF909F908F907F906F905F904F9008952C
:102EA0004F925F926F927F928F929F92AF92BF925A
:102EB000CF92DF92EF92FF920F931F93CF93DF9306
:102EC000EC015CE0452E512C480E591E4DE4842E39
:102ED000912C880E991E3CE4A32EB12CA80EB91E8D
:102EE0002FE4622E712C680E791E1FC00E94B92338
:102EF000F3016081718182819381A20100E410E07D
:102F000020E030E0CC24DD2476010E943F0EF40165
:102F100091838083875C9F4F31F4CE010E94CF164E
:102F200020E030E017C0F5011082F401808191812A
:102F300018161906DCF6F5012081E22FF0E08E1755
:102F40009F07A1F2EC0FFD1F84852F5FF501208301
:102F5000282F30E0C901DF91CF911F910F91FF9091
:102F6000EF90DF90CF90BF90AF909F908F907F9029
:102F70006F905F904F9008950E94CF1608950F9321
:102F80001F93CF93DF93EC018C01015B1F4FF8017E
:102F900080819181A281B381B7FD27C0E881F98149
:102FA0000480F581E02DCE010995892B01F5D8012A
:102FB0002D913D914D915C91F901EB5DFD4F80812B
:102FC0008130A9F4CA01B9010E94E70FD801ED913F
:102FD000FC91EB5DFD4F10828FEF9FEFAFEFBFEFE6
:102FE000F80180839183A283B38380E001C081E0F4
:102FF000DF91CF911F910F9108952F923F924F92A1
:103000005F926F927F928F929F92AF92BF92CF9278
:10301000DF92EF92FF920F931F93DF93CF93CDB781
:10302000DEB7A0970FB6F894DEBF0FBECDBF3C0150
:103030004B0100E0AA24BB241E010894211C311C72
:103040006FE4462E512C460C571CF4010894811C49
:10305000911C84918823D1F0F101E00FF11D808350
:103060000F5F003290F3F201608171818281938160
:10307000A10100E210E020E030E0CC24DD24760164
:103080000E941D12A80EB91E00E0DFCF0023B1F090
:103090008FE490E0680E791EF30160817181828176
:1030A000938110E020E030E0AE014F5F5F4FCC2411
:1030B000DD2476010E941D12A80EB91EC501A0963E
:1030C0000FB6F894DEBF0FBECDBFCF91DF911F9139
:1030D0000F91FF90EF90DF90CF90BF90AF909F90B7
:1030E0008F907F906F905F904F903F902F900895BA
:1030F000EF92FF920F931F938C010E94FD177C01AA
:10310000C8016BE670E00E94FD179C012E0D3F1D6B
:10311000C9011F910F91FF90EF900895CF92DF9218
:10312000EF92FF920F931F93DF93CF930F92CDB740
:10313000DEB76983FC01E15BFF4F608171818281B1
:103140009381AE014F5F5F4F01E010E020E030E07F
:10315000CC24DD2476010E941D129C01442737FDFA
:103160004095542F57FF02C020E030E0C9010F9076
:10317000CF91DF911F910F91FF90EF90DF90CF9053
:103180000895CF92DF92EF92FF920F931F93CF9308
:10319000DF93EC01AB01DB010D900020E9F7119703
:1031A000A61BB70B19F420E030E00FC0C15BDF4F66
:1031B000688179818A819B818D0120E030E0CC2477
:1031C000DD2476010E941D129C01C901DF91CF917F
:1031D0001F910F91FF90EF90DF90CF900895EF92A5
:1031E000FF920F931F938C010E94C1187C01C801AC
:1031F00068E670E00E94FD179C012E0D3F1DC9017D
:103200001F910F91FF90EF900895CF92DF92EF9270
:10321000FF920F931F93DB01FC01E15BFF4F608185
:103220007181828193818A0120E030E0AD01CC245C
:10323000DD2476010E941D121F910F91FF90EF90E7
:10324000DF90CF9008956F927F928F929F92AF926E
:10325000BF92CF92DF92EF92FF920F931F93DF9373
:10326000CF93CDB7DEB760970FB6F894DEBF0FBE31
:10327000CDBF5C014B013A018DE490E0A80EB91E70
:10328000D5011D921C92F50112925F0184EB9FEF14
:10329000A80EB91E62E070E080E090E021E030E02E
:1032A00040E050E0E6E0EE2EF12C012D112D0E94C1
:1032B00033106B017C019FEFC9169FEFD9069FEF7A
:1032C000E9069FEFF906C9F1F601EB5DFD4F1082AB
:1032D0008E010F5F1F4F80E1D8011D928A95E9F79B
:1032E00082E090E09A8389837B826C82F401828100
:1032F0009381A481B5812B2F3327442755272D8314
:103300009D01442755272E83892F9A2FAB2FBB274A
:103310008F8382818887C701B601A80100E110E090
:1033200020E030E00E944E0C6F5F7F4F8F4F9F4F29
:1033300039F4C701B6010E94E70F20E030E00CC06D
:103340008FE490E0A80EB91ED501CD92DD92ED92EA
:10335000FC92139721E030E0C90160960FB6F89413
:10336000DEBF0FBECDBFCF91DF911F910F91FF90B8
:10337000EF90DF90CF90BF90AF909F908F907F9015
:103380006F900895DF93CF9300D000D0CDB7DEB714
:103390008091450282FF09C083E091E069E070E01E
:1033A000AE014F5F5F4F0E94AB0C8091450290E0F1
:1033B000969587959695879581700F900F900F90B1
:1033C0000F90CF91DF910895AF92BF92CF92DF928D
:1033D000EF92FF920F931F93DF93CF93CDB7DEB79A
:1033E0002A970FB6F894DEBF0FBECDBF6C01CB019C
:1033F0005A0119821A821B821C82DB010D90002067
:10340000E9F71197A61BB70BBD01AE014F5F5F4FE8
:103410000E94AB0C49815A816B817C814115510519
:1034200061057105A1F0892B91F0D601ED91FC9118
:10343000E484F5848E010B5F1F4FC8010E94442C69
:10344000C601B801A501F70109959C0102C020E061
:1034500030E0C9012A960FB6F894DEBF0FBECDBF8B
:10346000CF91DF911F910F91FF90EF90DF90CF9060
:10347000BF90AF900895CF93DF93FC019B01E15B78
:10348000FF4F215B3F4FE90188819981AA81BB8170
:1034900080839183A283B383D9019E918E9192936D
:1034A0008293ED018A918293E054F040DE01A054B2
:1034B000B04080E40D9001928150E1F7DF91CF910F
:1034C0000895EF92FF920F931F937B018C01FA01F5
:1034D000422F80E8E81680E8F80680E0080780E0E0
:1034E000180731F4809145028160809345022BC01A
:1034F00081E0E81680E8F80680E0080780E0180719
:1035000031F48091450282608093450228C082E0B8
:10351000E81680E8F80680E0080780E0180731F434
:1035200080914502897F809345022FC080E1E81693
:1035300080E8F80680E0080780E0180721F4809111
:103540004502846009C089E9E816F1040105110506
:1035500031F48091450288608093450228C080E460
:10356000E81680E8F80680E0080780E0180769F4AC
:10357000809110028F5F8093100221E132E0C90137
:10358000BF0150E00E947E3312C080E0E81688E858
:10359000F80680E0080780E0180749F440814032CF
:1035A00030F4E42FF0E0EB5DFD4F81E080831F916C
:1035B0000F91FF90EF9008958F929F92AF92BF92DC
:1035C000CF92DF92EF92FF920F931F93DF93CF93EF
:1035D000CDB7DEB7EA970FB6F894DEBF0FBECDBF0A
:1035E000FC016B015A01490180818823F1F180912E
:1035F000450281FF3AC08091450282FF36C0CE016C
:1036000001960E94AF0A8C81882379F189819A8181
:10361000AB81BC81F60180839183A283B3838D81CA
:103620009E81AF81B885F50180839183A283B383A6
:1036300089859A85AB85BC85F40180839183A283BB
:10364000B3838D859E85AF85B889F801808391838A
:10365000A283B38389899A89AB89BC89F701808366
:103660009183A283B38381E001C080E0EA960FB624
:10367000F894DEBF0FBECDBFCF91DF911F910F91A8
:10368000FF90EF90DF90CF90BF90AF909F908F9082
:1036900008952F923F924F925F926F927F928F92F6
:1036A0009F92AF92BF92CF92DF92EF92FF920F93D1
:1036B0001F93FC01D62EC72E342E252E8081882301
:1036C00009F466C02801390184E0481651046104F8
:1036D000710408F05DC0A62FB72FFD0101900020F6
:1036E000E9F73197EA1BFB0BB19708F051C0A42F03
:1036F000B52FFD0101900020E9F73197EA1BFB0B84
:10370000B19708F045C060E070E080E090E020E014
:1037100030E040E050E0EE24FF2487010E94A41333
:10372000611571058105910599F564EF71E080E0FF
:1037300090E00E948130ED2DFC2DDF010D900020E6
:10374000E9F78D01015010400E1B1F0BE32DF22DE8
:10375000DF010D900020E9F74D01089481089108E0
:103760008E1A9F0A20E030E0AA24BB24C301B201D4
:103770004D2D5C2DEE24FF24C32CD22C0E94FC1373
:1037800020E0611571058105910519F421E001C062
:1037900020E0822F1F910F91FF90EF90DF90CF904C
:1037A000BF90AF909F908F907F906F905F904F9061
:1037B0003F902F9008958F929F92AF92BF92CF9299
:1037C000DF92EF92FF920F931F93FC01D62EC72E2C
:1037D00080818823E1F160E070E080E090E020E00B
:1037E00030E040E050E0EE24FF2487010E94A41363
:1037F000611571058105910551F564EF71E080E077
:1038000090E00E948130ED2DFC2DDF010D90002015
:10381000E9F78D01015010400E1B1F0B20E030E036
:1038200060E070E080E090E04D2D5C2DEE24FF2400
:10383000CC24DD248824992454010E94FC1320E028
:10384000611571058105910519F421E001C020E0A1
:10385000822F1F910F91FF90EF90DF90CF90BF903C
:10386000AF909F908F900895EF92FF920F931F93C8
:103870007A018B018091460290914702009709F4EA
:1038800040C0272F332744275527622F4AE050E0B6
:103890000E946A2D80914602909147026EE20E943A
:1038A000A72C980144275527809146029091470202
:1038B000622F4AE050E00E946A2D8091460290916A
:1038C00047026EE20E94A72C5527412F302F2F2D43
:1038D0008091460290914702622F4AE050E00E9498
:1038E0006A2D80914602909147026EE20E94A72CB9
:1038F00080914602909147026E2D4AE050E00E946E
:103900006A2D1F910F91FF90EF9008956F927F9213
:103910008F929F92AF92BF92CF92DF92EF92FF92DF
:103920000F931F93CF93DF93EC01962E842E722E6C
:10393000632E8881882309F08EC080910C0282302A
:1039400011F480E005C0833011F08FEF01C081E0F9
:1039500080930E020E940B2581E69AE161E172E2FA
:1039600041E052E229E032E209E112E2B7E7EB2E50
:10397000B2E2FB2EA1E3CA2EA2E2DA2EF5E2AF2ECE
:10398000F2E2BF2E0E945412892D90E00E94E514AD
:103990008820A1F460E070E080E090E020E030E07A
:1039A00040E050E0EE24FF2487010E94A4136FEF53
:1039B00070E080E090E00E9470130FC060E070E063
:1039C00080E090E020E030E040E050E0E1E0EE2EEA
:1039D000F12C012D112D0E94A41364E072E880E007
:1039E00090E00E9488126115710581059105A9F585
:1039F00081E08883882079F100E010E00EC00E9409
:103A0000B9230F5F1F4F83E00A3E180731F16AE0C8
:103A100070E080E090E00E9481308091450281FF5B
:103A2000EECF68EE73E080E090E00E9481308091FC
:103A3000450282FF10C0E72DF62DDF010D9000201A
:103A4000E9F71197AE1BBF0B81E090E0672D762D53
:103A5000AD010E946D0B81E001C080E0DF91CF914C
:103A60001F910F91FF90EF90DF90CF90BF90AF909C
:103A70009F908F907F906F900895AF92BF92CF925A
:103A8000DF92EF92FF920F931F93DF93CF93CDB707
:103A9000DEB7C054D0400FB6F894DEBF0FBECDBF26
:103AA0009C01DE011196E0E6F1E080E401900D92C8
:103AB0008150E1F7D9018C91882311F420E04EC0A8
:103AC000EDB7FEB772970FB6F894FEBF0FBEEDBF0D
:103AD00031960FEF1FE120E030E0ADB7BEB7119691
:103AE0000D931D932D933C93149788E89FEFAFEFB0
:103AF000BFEF84839583A683B783108611861286D1
:103B000013868CE291E0A0E0B0E084879587A687D9
:103B1000B787CE010196918B808BCB01BA0124E14E
:103B200030E040E050E0F4E6EF2EF12C012D112DB5
:103B3000E5E0AE2EB12CC12CD12C0E94E11220E088
:103B4000EDB7FEB772960FB6F894FEBF0FBEEDBF8D
:103B5000611571058105910509F421E0822FC05C92
:103B6000DF4F0FB6F894DEBF0FBECDBFCF91DF9110
:103B70001F910F91FF90EF90DF90CF90BF90AF908B
:103B800008955F926F927F928F929F92AF92BF92B1
:103B9000CF92DF92EF92FF920F931F93CF93DF9319
:103BA000EC013B014A01522EA02E8881882309F4A2
:103BB00052C0B02EC22EDD24EE24FF24AA2051F0E4
:103BC000BB2039F48091450290E0969587958170ED
:103BD00042C0BA940E94B923CE0140EA5FE060E09F
:103BE00070E00E943D1D64E971E180E090E00E9478
:103BF0008130CE0140E050E060E070E00E943D1D69
:103C0000552021F0F4018081882349F4CE01B301CD
:103C10000E94DB1B8823D1F000E117E208C0CE012F
:103C2000B301A401970186010E94491BF3CF809143
:103C3000450281FD0BC00E94B9236AE070E080E07C
:103C400090E00E9481300A50104089F7809145022F
:103C500081FFB4CF81E0DF91CF911F910F91FF9051
:103C6000EF90DF90CF90BF90AF909F908F907F901C
:103C70006F905F900895FC01A081B18154962D91C1
:103C80003C915597F9010995811181E008950F93B1
:103C90001F93DF93CF9300D000D000D0CDB7DEB715
:103CA000DB01FC01248535852115310519F420E05F
:103CB00030E01BC0F90180819181FC0104851585EC
:103CC0008AED91E09A83898312968D919D910D9052
:103CD000BC91A02D8B839C83AD83BE83C901BE01A3
:103CE0006F5F7F4FF80109959C01C90126960FB6B9
:103CF000F894DEBF0FBECDBFCF91DF911F910F9122
:103D00000895FC01A485B585109719F420E030E0F2
:103D100009C0ED91FC9111970684F785E02DCD0146
:103D200009959C01C9010895FC01A485B5851097EA
:103D300011F480E00895ED91FC9111970488F589C4
:103D4000E02DCD0109950895FC01A485B585109756
:103D500019F420E030E009C0ED91FC911197019039
:103D6000F081E02DCD0109959C01C9010895FC0168
:103D7000A485B585109719F420E030E009C0ED91D5
:103D8000FC9111970680F781E02DCD0109959C01EA
:103D9000C9010895FC01A485B585109719F420E0A8
:103DA00030E009C0ED91FC9111970480F581E02D80
:103DB000CD0109959C01C9010895FC01A485B58533
:103DC000109719F420E030E009C0ED91FC911197B3
:103DD0000088F189E02DCD0109959C01C901089564
:103DE000FC01A485B585109719F420E030E009C0E6
:103DF000ED91FC9111970280F381E02DCD010995A1
:103E00009C01C9010895FC01A485B585109719F49A
:103E100020E030E009C0ED91FC9111970084F1851C
:103E2000E02DCD0109959C01C9010895FC01A485EF
:103E3000B585109741F0ED91FC9111970284F385BF
:103E4000E02DCD0109950895FC01A485B585109755
:103E500041F0ED91FC9111970288F389E02DCD019D
:103E600009950895CF93DF939C01CEEAD1E04F3FAF
:103E7000B9F0FC011382128288EE93E0A0E0B0E07A
:103E800084839583A683B783D183C08383E5480267
:103E9000C00111240496860F971F958784870FC051
:103EA000FC011382128288EE93E0A0E0B0E08483EC
:103EB0009583A683B783D183C08315861486C901F1
:103EC000DF91CF9108954F925F926F927F928F9280
:103ED0009F92AF92BF92CF92DF92EF92FF920F9399
:103EE0001F93CF93DF935C013B014A017C01CC24FB
:103EF000DD2400E010E083E5482E512C049DE00114
:103F0000059DD00D149DD00D11242496CA0DDB1DE6
:103F1000D7011496ED91FC9115970488F589E02D51
:103F2000CE010995882371F0D7011496ED91FC918B
:103F300015970280F381E02DCE01B301A40109950C
:103F4000C80ED91E0F5F1F4F83E590E0E80EF91EE3
:103F50000330110599F6C601DF91CF911F910F91A2
:103F6000FF90EF90DF90CF90BF90AF909F908F9099
:103F70007F906F905F904F900895DF93CF930F9253
:103F8000CDB7DEB7FC016983A081B18112962D9176
:103F90003C911397BE016F5F7F4F41E050E0F90104
:103FA00009950F90CF91DF9108950F938EE492E0E1
:103FB00060E040E020E000E00E94E72B0F910895D0
:103FC0002F923F924F925F927F928F929F92AF92E9
:103FD000BF92CF92DF92EF92FF920F931F93DF93E6
:103FE000CF93CDB7DEB7C355D0400FB6F894DEBF40
:103FF0000FBECDBF5C016C017724EE24FF2423E5C6
:10400000222E312C9FEF892E912C8A0C9B1C2E0185
:104010000894411C511CE29C8001E39C100DF29C11
:10402000100D11240C5F1F4F0A0D1B1DD601149695
:10403000ED91FC9115970488F589E02DC80109954B
:104040008823F1F40E94B923F40160817181828197
:10405000938140E050E020E030E00E946C0FCB0103
:1040600077FD0EC0AC01662757FD6095762FC20123
:104070000E94C815C801B2010E943B1A77247394AC
:104080000894E11CF11C83E590E0C80ED91E93E072
:10409000E916F10409F0BFCF872DCD5ADF4F0FB6D7
:1040A000F894DEBF0FBECDBFCF91DF911F910F916E
:1040B000FF90EF90DF90CF90BF90AF909F908F9048
:1040C0007F905F904F903F902F900895AF92BF9256
:1040D000CF92DF92EF92FF920F931F93CF93DF93D4
:1040E0006C01EB010E94E01F209709F088837601A4
:1040F00000E010E033E5A32EB12C0A9DE0010B9DFA
:10410000D00D1A9DD00D11242496CC0DDD1DD701A4
:104110001496ED91FC9115970488F589E02DCE0158
:1041200009958823C9F0D7011496ED91FC91159754
:104130000480F581E02DCE0109951816190664F466
:10414000802FDF91CF911F910F91FF90EF90DF9023
:10415000CF90BF90AF9008950F5F1F4F83E590E021
:10416000E80EF91E0330110541F68FEFEACFEF920A
:10417000FF920F931F93F82EE92E8B01CB0160E085
:1041800070E00E946620482F8F2D9E2DB8010E945E
:10419000321F8F2D9E2D1F910F91FF90EF9008954C
:1041A0002F923F924F925F926F927F928F929F9247
:1041B000AF92BF92CF92DF92EF92FF920F931F9335
:1041C000DF93CF93CDB7DEB7A1970FB6F894DEBFDC
:1041D0000FBECDBF1C0180E498E3A0E0B0E08A836D
:1041E0009B83AC83BD8380E19EE0A0E0B0E08E8342
:1041F0009F83A887B9878EE190E0A0E0B0E08A872E
:104200009B87AC87BD871E861F86188A198A0E94E5
:10421000B923CE010296BE016A5F7F4FAE01465FB1
:104220005F4F9E01225F3F4F0E94C30A61157105D7
:104230008105910509F067C00E94B92362E070E032
:1042400080E090E021E030E040E050E0A6E0EA2E9F
:10425000F12C012D112D0E9433108B0177FD53C0DD
:104260000E94B92319822801662457FC6094762C99
:10427000C301B2012FEF3FEF40E050E0F2E0EF2E3C
:10428000F12C012D112D6E010894C11CD11CE1E00F
:104290008E2E912CA12CB12C0E94C20B97FD33C005
:1042A00082E090E09B8B8A8B1E8A1F8A188E198E63
:1042B000F101E350FF4F908181818C8B9D8B0E9497
:1042C000B923C301B201AE014E5E5F4F00E110E0C1
:1042D00020E030E00E946B0D97FD15C00E94B923CD
:1042E000C301B20120E030E040E050E00E941A0D2E
:1042F00097FD09C08FEF90E0280E391EF101408232
:10430000518262827382A1960FB6F894DEBF0FBE0F
:10431000CDBFCF91DF911F910F91FF90EF90DF9074
:10432000CF90BF90AF909F908F907F906F905F9055
:104330004F903F902F900895EF92FF920F931F930D
:104340008C017B01FC011382128284EA91E091834B
:104350008083C80104960E94AE15C801895A9F4FF8
:104360000E94AE15C80186559F4F0E94AE1503509E
:104370001F4FF801E192F1928FEF9FEFAFEFBFEF88
:1043800080839183A283B3831F910F91FF90EF905D
:104390000895FC0184859585009729F420E030E09C
:1043A00040E050E004C00E94CF169B01AC01B9016F
:1043B000CA010895FC0184859585009719F420E0D1
:1043C00030E003C00E9478189C01C9010895FC01E7
:1043D00084859585009719F420E030E003C00E94A1
:1043E000FD179C01C9010895FC01848595850097FE
:1043F00019F420E030E003C00E94EF189C01C901CD
:104400000895FC01108211821282138280E090E0F4
:104410000895FC01108211821282138280E090E0E4
:104420000895FC01108211821282138280E090E0D4
:10443000089580910C020E94A8319C01442737FD09
:104440004095542FB901CA010895882321F0809125
:104450000D0261E003C080910D0260E00E945431C2
:10446000089510926D0380910E020E946E2E0895A1
:1044700010926D0380910E020E946E2E0895CF93CC
:10448000DF930E94382280910B0261E00E94543138
:10449000809157028CBD80915602882319F08DB50A
:1044A000816002C08DB58E7F8DBDC0916402D091B8
:1044B0006502CE57DF4F8881C258D0408E3D09F04B
:1044C000FFCF82E090E0A0E0B0E080935E029093A6
:1044D0005F02A0936002B0936102E0915802F091F4
:1044E0005902CE0105960995DF91CF91089581E09B
:1044F00080936D0380910E0264E273E242E050E02B
:104500000E944B2E089581E080936D0380910E02EE
:1045100064E273E242E050E00E944B2E08950F9354
:104520001F93CF93DF938C01EB0184E00E9475020F
:1045300020E030E093E00BC09EBD0DB407FEFDCF40
:104540008EB5F801E20FF31F80832F5F3F4F2C17CA
:104550003D0790F3DF91CF911F910F910895EF9256
:10456000FF920F931F93CF93DF93C0916402D0917A
:1045700065028D81823021F0843009F047C01BC074
:10458000CE01059663E070E00E94C6029C0140E007
:1045900050E080FD05C02F5F3F4F4F4F5F4F05C07C
:1045A000211531054105510589F1CE010A96B90160
:1045B0000E948F222BC08885282F30E040E050E0F9
:1045C00079018A010894E108F10801091109DA0169
:1045D000C9010996A11DB11D80FF02C079018A01A0
:1045E000E114F1040105110529F0CE010A96B70185
:1045F0000E948F2288E090E0A0E0B0E080935E020D
:1046000090935F02A0936002B093610260E070E05B
:1046100080E090E0DF91CF911F910F91FF90EF909C
:1046200008950E94AF22611571058105910511F46D
:104630000E943F22089580916402909165026AE091
:1046400070E00E948F22089581E080936C03809136
:104650005E0290915F02A0916002B09161020097AA
:10466000A105B10569F481E090E0A0E0B0E080939D
:104670005E0290935F02A0936002B093610276C0E5
:1046800082309105A105B105B1F586E090E0A0E08A
:10469000B0E080935E0290935F02A0936002B093BB
:1046A000610280910B0260E00E9454318CB58093CE
:1046B00057028DB5817080935602809154028CBD53
:1046C00080915502882319F08DB5816002C08DB5A7
:1046D0008E7F8DBD0E941B2388E090E0A0E0B0E0BB
:1046E00080935E0290935F02A0936002B093610298
:1046F0000E9411233BC00397A105B105B9F5609154
:1047000062027091630240915A0250915B0220E074
:1047100030E00BC0FB01E20FF31F80818EBD0DB4B2
:1047200007FEFDCF8EB52F5F3F4F2417350790F35F
:1047300082E090E0A0E0B0E080935E0290935F02A0
:10474000A0936002B093610280910B0261E00E942D
:104750005431809157028CBD80915602882319F004
:104760008DB5816002C08DB58E7F8DBD10926C03BA
:10477000089580910C020E94A831892B51F48091F8
:104780006C03882331F480916D03882311F00E941B
:10479000242308950F931F93CF93DF93EC018B0194
:1047A00080910B0260E00E9454318CB580935702D7
:1047B0008DB5817080935602809154028CBD80919A
:1047C0005502882319F08DB5816002C08DB58E7FAA
:1047D0008DBD61E070E080E090E00E94813020E0DB
:1047E00030E0FE01E20FF31F80818EBD0DB407FEA5
:1047F000FDCF8EB52F5F3F4F2430310591F761E03B
:1048000070E080E090E00E948130B8016450704018
:10481000FE0120E030E009C084818EBD0DB407FEAA
:10482000FDCF8EB52F5F3F4F319626173707A0F388
:1048300082E090E0A0E0B0E080935E0290935F029F
:10484000A0936002B093610280910B0261E00E942C
:104850005431809157028CBD80915602882319F003
:104860008DB5816002C08DB58E7F8DBD60E070E03A
:1048700080E090E0DF91CF911F910F9108950F9309
:104880001F93CF93DF93EC0190E060FF91E081E014
:1048900088839B01290F311D3983960F9A831B82D0
:1048A0001C8280916B038E3D09F0FFCF80915E02E8
:1048B00090915F02A0916002B09161020097A10502
:1048C000B10509F4FFCF89010B5F1F4F0197A105C7
:1048D000B10529F4CE01B8010E94CA2385C0E09138
:1048E000F201F091F301099580915E0290915F02CF
:1048F000A0916002B09161020297A105B10509F093
:1049000089C083E090E0A0E0B0E080935E029093E5
:104910005F02A0936002B0936102D0936302C093E0
:10492000620210935B0200935A0280910B0260E0D6
:104930000E9454318CB5809357028DB5817080935D
:104940005602809154028CBD80915502882319F043
:104950008DB5816002C08DB58E7F8DBDE091F00177
:10496000F091F1010995E091EE01F091EF010995C7
:104970006115710581059105B9F56091620270912B
:10498000630240915A0250915B0220E030E00BC07C
:10499000FB01E20FF31F80818EBD0DB407FEFDCF3A
:1049A0008EB52F5F3F4F2417350790F382E090E0DC
:1049B000A0E0B0E080935E0290935F02A09360025B
:1049C000B093610280910B0261E00E9454318091AA
:1049D00057028CBD80915602882319F08DB58160F5
:1049E00002C08DB58E7F8DBD80915E0290915F0279
:1049F000A0916002B09161020297A105B10549F44E
:104A000060E070E080E090E0DF91CF911F910F9126
:104A10000895FFCFFFCF80910D0261E00E94153114
:104A200080910D0260E00E94543164EF71E080E0FB
:104A300090E00E94813080910B0261E00E9415316C
:104A400080910C0262E00E9415318CB58093570270
:104A50008DB58170809356020E948B0284E00E9483
:104A6000750281E00E946C0280910F020E947A021E
:104A70008CB5809354028DB58170809355028091DE
:104A80000B0261E00E945431809157028CBD8091ED
:104A90005602882319F08DB5816002C08DB58E7FD6
:104AA0008DBD80E090E00895CF93DF9310925E0279
:104AB00010925F021092600210926102A6E6B2E0CC
:104AC00023E8ED01E22F1992EA95E9F7E9EEF2E029
:104AD000EF0119922A95E9F79093590280935802B1
:104AE00010925B0210925A021092630210926202BC
:104AF000B0936502A093640210925D0210925C0272
:104B00008EED8093E80280936B03E091F001F091C9
:104B1000F1010995DF91CF910895EF92FF920F93E4
:104B20008FE195E060E040E020E000E00E94E72BAC
:104B30008EE693E06AE043E025E004E03DEAE32E00
:104B400035E0F32E0E9494158FE693E060E570E067
:104B50000E949C210F91FF90EF900895EF92FF9299
:104B60000F931F93DF93CF93CDB7DEB764970FB644
:104B7000F894DEBF0FBECDBF8EE693E0BE016F5F3F
:104B80007F4FAE014B5F5F4F9E01275F3F4F8E010E
:104B9000035F1F4FE1E1EE2EF12CEC0EFD1E0E9493
:104BA000DC1A882341F48DEA95E06AEA70E00E94FD
:104BB000CF2C80E04BC08DEA95E06FE970E00E9459
:104BC000842C49815A816B817C818EE693E00E941E
:104BD000341C8DEA95E064E970E00E94842C4D81DC
:104BE0005E816F8178858EE693E00E94341C8DEAA9
:104BF00095E069E870E00E94842C49855A856B85B0
:104C00007C858EE693E00E94341C8DEA95E06EE789
:104C100070E00E94842C4D855E856F8578898EE6D4
:104C200093E00E94341C8DEA95E063E770E00E94F7
:104C3000842C49895A896B897C898EE693E00E948D
:104C4000341C8DEA95E00E94AF2C81E064960FB68B
:104C5000F894DEBF0FBECDBFCF91DF911F910F91B2
:104C6000FF90EF9008950F931F93CF93DF93EB0185
:104C70008A0160E171E00E947933BC01009729F05C
:104C8000CE014AE050E00E94A53380E090E060E170
:104C900071E00E947933BC01009729F0C80140E41B
:104CA00050E00E94A533DF91CF911F910F9108959D
:104CB000DC01623071059CF0FC01E60FF71F3297B2
:104CC000808132968D3059F4319780818A3039F461
:104CD000CD01BA01A9010E94332681E0089580E048
:104CE0000895AF92BF92CF92DF92EF92FF920F930F
:104CF0001F93DF93CF93CDB7DEB7AC970FB6F89481
:104D0000DEBF0FBECDBF8E01015E1F4FC8016FE633
:104D100073E00E94B720C8010E943B1E882309F45B
:104D200070C18DEA95E06DE472E00E94CF2C109284
:104D3000D2041092D1048FE5E2E7F4E0DF011D9286
:104D40008A95E9F78BE0E3EDF4E0DF011D928A95A7
:104D5000E9F781E4EEEDF4E0DF011D928A95E9F7D1
:104D60000E9473306B017C0184EF91E0A0E0B0E021
:104D7000C80ED91EEA1EFB1EC801B02EA92E21C0E6
:104D80000091D1041091D2048B2D9A2D0E94B71E50
:104D9000F801EE58FB4F80830F5F1F4F1093D20432
:104DA0000093D1046091D1047091D20482E794E021
:104DB00043ED54E02EED34E00E945826882309F09C
:104DC000F5C00E9473306C157D058E059F0508F0B7
:104DD000CDC08091D1049091D2048E3591050CF014
:104DE000C5C08B2D9A2D0E94CA1E892BD9F2C8CF1F
:104DF000C8016AE172E00E94DA21C80162E072E053
:104E00000E94DA21C80160EF71E00E94DA21C80136
:104E10000E94AF2CC80160EE71E00E94DA21C80147
:104E200069ED71E00E94DA21C8016BEC71E00E942B
:104E3000DA21C80164EC71E00E94DA21C80166E958
:104E400071E00E94DA21C8016BE671E00E94DA216C
:104E5000C80160E471E00E94DA21C80168E371E0F2
:104E60000E94DA21C80164E271E00E94E721C801D2
:104E70006EED74E00E94F421C8016CE171E00E94C3
:104E8000DA218DEA95E063E171E00E94842C8E01C5
:104E90000F5F1F4FC8016EED74E00E949C2FB7E0BA
:104EA000EB2EF12CEC0EFD1EC70162E171E00E94B9
:104EB0009C2FC801B7010E94202FD82EC7010E9445
:104EC0001630C8010E941630DD20A9F1ADE0AA2EEF
:104ED000B12CAC0EBD1EC5016EED74E00E949C2F7E
:104EE000F3E1CF2ED12CCC0EDD1E29893A89C601E3
:104EF000B50144E150E00E94CF2FC6010E94EC2E84
:104F00007B018C018DEA95E066E071E00E94842CC3
:104F10008DEA95E0B7014AE050E00E94BC2D8DEA91
:104F200095E064E071E00E94CF2CC6010E9416302B
:104F3000C5010E9416308E01075E1F4FC8016EED3D
:104F400074E00E949C2F8DEA95E0B8010E94372EF4
:104F5000C8010E9416300AC0C80164EE70E00E94C9
:104F6000DA21C80163EE70E00E94DA2164E670E0A5
:104F700080E090E00E9481308DEA95E069E171E087
:104F80000E94EE2D0E94FA02BC018DEA95E04AE0F3
:104F900050E00E94CF2D8DEA95E06FEC70E00E940A
:104FA000CF2CCE014F960E94C9212BC08DEA95E0EF
:104FB0006AE372E00E94CF2C8DEA95E061E372E033
:104FC0000E94842C8DEA95E063ED74E00E94F12D3F
:104FD0008DEA95E06AE272E00E94842C8DEA95E009
:104FE0006EED74E00E94F12D83ED94E064E271E0D7
:104FF0000E9487338E01015E1F4F009709F4F8CE9F
:10500000ABCFAC960FB6F894DEBF0FBECDBFCF913D
:10501000DF911F910F91FF90EF90DF90CF90BF90A5
:10502000AF9008950F938DEA95E040E052EC61E077
:1050300070E00E946C2A8DEA95E06FE074E00E94B7
:10504000CF2C8DEA95E069E171E00E94EE2D0E947F
:10505000FA02BC018DEA95E04AE050E00E94CF2DB3
:105060008DEA95E06EEF73E00E94CF2C8EE693E020
:1050700060E040E020E030E00E94861C882339F4A4
:105080008DEA95E069ED73E00E94CF2CFFCF8DEAA9
:1050900095E06EEB73E00E94842C8DEA95E068E267
:1050A00071E00E94F12D8EE693E068E271E04EE23D
:1050B00051E023E000E00E94C11D882339F48DEA0D
:1050C00095E066EB73E00E94CF2CFFCF8DEA95E070
:1050D0006BEA73E00E94CF2C8DEA95E06EE973E0F5
:1050E0000E94CF2C06C064E670E080E090E00E9451
:1050F00081308EE693E00E94C2198823A1F306C096
:1051000068EE73E080E090E00E9481300E94AE255E
:105110008823B1F38DEA95E063E673E00E94CF2C1B
:105120008DEA95E06AE273E00E94CF2C8DEA95E06B
:1051300060EF72E00E94CF2C8DEA95E069EB72E09F
:105140000E94CF2C8DEA95E06CE772E00E94CF2C94
:105150008FE693E00E94D0208DEA95E06FE572E043
:105160000E94CF2C0F9108950F931F93CF93DF933D
:10517000BC018230910510F462E070E0E091E1053D
:10518000F091E205A0E0B0E040E050E024C0808172
:10519000918186179707D0F08617970771F482815F
:1051A0009381109729F013969C938E9312972CC09D
:1051B0009093E2058093E10527C04115510519F050
:1051C0008417950718F4EF018D01AC01DF0182818E
:1051D00093819C01F9013097D1F641155105F9F001
:1051E000CA01861B970B8430910580F48A819B81CC
:1051F0000115110521F0F8019383828304C0909377
:10520000E2058093E105FE01329645C0FE01E80FFC
:10521000F91F619371930297998388833CC08091B1
:10522000DF059091E005892B41F480914001909138
:1052300041019093E0058093DF0540914201509138
:1052400043014115510541F44DB75EB780913E01D0
:1052500090913F01481B590B2091DF053091E005EB
:1052600024173507B0F4CA01821B930B86179707E2
:1052700080F0AB014E5F5F4F8417950750F0420FEF
:10528000531F5093E0054093DF05F901619371933B
:1052900002C0E0E0F0E0CF01DF91CF911F910F91CC
:1052A0000895CF93DF939C01009709F48FC0EC0120
:1052B00022971B821A826091E1057091E2056115C7
:1052C000710581F488819981820F931F2091DF05F8
:1052D0003091E0052817390739F5D093E005C093E0
:1052E000DF0574C0DB0140E050E0AC17BD0708F1FA
:1052F000BB83AA83FE0121913191E20FF31FAE1708
:10530000BF0779F48D919C911197280F391F2E5F5B
:105310003F4F3983288312968D919C9113979B83DD
:105320008A834115510571F4D093E205C093E105DC
:105330004DC012968D919C911397AD01009711F07D
:10534000DC01D3CFDA011396DC93CE931297FA01E6
:1053500021913191E20FF31FCE17DF0769F48881A5
:105360009981280F391F2E5F3F4FFA013183208327
:105370008A819B8193838283E0E0F0E0DB011296D7
:105380008D919C911397009719F0BC01FD01F6CF08
:10539000AB014E5F5F4FDB018D919C91840F951F98
:1053A0002091DF053091E0052817390779F430970F
:1053B00029F41092E2051092E10502C013821282D4
:1053C000425050405093E0054093DF05DF91CF916C
:1053D000089508951F920F920FB60F9211242F93E4
:1053E0003F934F938F939F93EF93FF934091C6000A
:1053F00020916505309166052F5F3F4F2F73307008
:1054000080916705909168052817390759F0E09158
:105410006505F0916605EB5DFA4F408330936605B4
:1054200020936505FF91EF919F918F914F913F914F
:105430002F910F900FBE0F901F901895E091B90516
:10544000F091BA05E05CFF4F81919191208131810B
:10545000821B930B8F739070892B11F00E94E929A6
:1054600008951F920F920FB60F9211242F933F931E
:105470008F939F93EF93FF932091A9053091AA05F5
:105480008091AB059091AC052817390731F48091D4
:10549000C1008F7D8093C10014C0E091AB05F091F5
:1054A000AC05E759FA4F20818091AB059091AC058E
:1054B00001968F7390709093AC058093AB05209309
:1054C000C600FF91EF919F918F913F912F910F9087
:1054D0000FBE0F901F901895AF92BF92DF92EF9280
:1054E000FF920F931F93CF93DF93EC017A018B010F
:1054F000DD24403081EE580780E0680780E07807BF
:1055000011F0DD24D39491E0A92EB12CEC89FD8912
:10551000DD2069F0C5010E8C02C0880F991F0A9426
:10552000E2F7808360E079E08DE390E005C01082CF
:1055300060E874E88EE190E0A80197010E940F33C3
:10554000215030404040504056954795379527951B
:1055500080E12030380720F0DD2011F0DD24D6CFA7
:10556000E889F9893083EA89FB892083EE89FF89FC
:10557000408121E030E0C9010A8C02C0880F991FE8
:105580000A94E2F7482B4083EE89FF894081C901E4
:105590000B8C02C0880F991F0A94E2F7482B4083B6
:1055A000EE89FF894081C9010C8C02C0880F991FC8
:1055B0000A94E2F7482B4083EE89FF8980810D8CA5
:1055C00002C0220F331F0A94E2F72095282320837C
:1055D000DF91CF911F910F91FF90EF90DF90BF90DF
:1055E000AF900895DC011C96ED91FC911D97E05C55
:1055F000FF4F2191319180819181281B390B2F73AD
:105600003070C9010895DC011C96ED91FC911D9745
:10561000E05CFF4F20813181E054F040DF01AE5B60
:10562000BF4F8D919C9111972817390719F42FEFCF
:105630003FEF07C08D919C91E80FF91F8081282FC3
:1056400030E0C9010895DC011C96ED91FC911D9795
:10565000E05CFF4F20813181E054F040DF01AE5B20
:10566000BF4F8D919C9111972817390719F42FEF8F
:105670003FEF10C08D919C911197E80FF91F208189
:105680008D919C91119701968F73907011969C93B8
:105690008E9330E0C9010895FC0186859785DC0171
:1056A000A05CBF4FFC01EE5BFF4F2D913C91119729
:1056B0008081918128173907C1F70895CF93DF932F
:1056C000EC01EE85FF85E05CFF4F20813181E054E5
:1056D000F0402F5F3F4F2F733070DF01AE5BBF4F45
:1056E0008D919C91119728173907D1F3E05CFF4FFA
:1056F00080819181E054F040E80FF91F6083EE85CE
:10570000FF85E05CFF4F31832083EE89FF89208194
:1057100081E090E00D8C02C0880F991F0A94E2F797
:10572000282B208381E090E0DF91CF9108951092A3
:10573000B0051092AF0588EE93E0A0E0B0E0809352
:10574000B1059093B205A093B305B093B4058AEC6C
:1057500091E09093AE058093AD0585E295E090933E
:10576000BA058093B90589E695E09093BC058093CE
:10577000BB0585EC90E09093BE058093BD0584EC5D
:1057800090E09093C0058093BF0580EC90E09093EB
:10579000C2058093C10581EC90E09093C40580938D
:1057A000C30586EC90E09093C6058093C50584E020
:1057B0008093C70583E08093C80587E08093C9057F
:1057C00085E08093CA0581E08093CB0508950F930F
:1057D000FC018AED91E0918380836283438324837B
:1057E00005830F9108958AED91E09093CD05809304
:1057F000CC051092CE051092CF051092D0051092D4
:10580000D10508958F929F92AF92BF92CF92DF926F
:10581000EF92FF920F931F93CF93DF934C016B0195
:105820007C01AA24BB24C0E0D0E0C601F70162815C
:105830004AE050E00E946A2D8C01C6016EE20E948F
:10584000A72C080F191FA00EB11E21960894E11C69
:10585000F11CC330D10549F7C601F40165814AE066
:1058600050E00E946A2D9501280F391FC901DF9170
:10587000CF911F910F91FF90EF90DF90CF90BF904D
:10588000AF909F908F900895DF93CF9300D000D07A
:10589000CDB7DEB7FC018AED91E09183808342832E
:1058A0005383648375830F900F900F900F90CF9167
:1058B000DF910895CF92DF92EF92FF920F931F93A3
:1058C000CF93DF937C016B018A01C0E0D0E00FC071
:1058D000D6016D916D01D701ED91FC910190F081A0
:1058E000E02DC7010995C80FD91F015010400115BF
:1058F000110571F7CE01DF91CF911F910F91FF90AC
:10590000EF90DF90CF900895EF92FF920F931F9347
:10591000CF93DF937C018B01C0E0D0E0F8010F5FF3
:105920001F4F6491662359F0D701ED91FC910190CE
:10593000F081E02DC7010995C80FD91FEFCFCE0127
:10594000DF91CF911F910F91FF90EF900895DC01AF
:10595000ED91FC910190F081E02D09950895EF9271
:10596000FF920F931F938C01DC01ED91FC9101904C
:10597000F081E02D6DE009957C01D801ED91FC915D
:105980000190F081E02DC8016AE009959C012E0D7F
:105990003F1DC9011F910F91FF90EF900895EF9265
:1059A000FF920F931F937C010E94842C8C01C701EE
:1059B0000E94AF2C9C01200F311FC9011F910F9134
:1059C000FF90EF900895CF93DF93DB010D900020BF
:1059D000E9F71197A61BB70BEC01E881F98102806A
:1059E000F381E02DAD010995DF91CF9108954F929C
:1059F0005F927F928F929F92AF92BF92CF92DF92EF
:105A0000EF92FF920F931F93DF93CF93CDB7DEB743
:105A1000A1970FB6F894DEBF0FBECDBF2C01742E38
:105A2000CB01223008F42AE019A231E2C32ED12C96
:105A3000CC0EDD1E822E9924AA24BB24672D752F3F
:105A4000A50194010E940F3379018A01C801B701B1
:105A5000A50194010E94DC32472D461B0894C10821
:105A6000D1084A3014F4405D01C0495CF60140831E
:105A7000E114F1040105110521F07E2C5F2DC80110
:105A8000DDCFC201B6010E94E32CA1960FB6F894B7
:105A9000DEBF0FBECDBFCF91DF911F910F91FF9061
:105AA000EF90DF90CF90BF90AF909F908F907F90BE
:105AB0005F904F900895DC012115310541F4ED917F
:105AC000FC910190F081E02D642F099508950E94CA
:105AD000F72C0895EF92FF920F931F939A01E62EF1
