:100000000C94A0030C9489350C94B6350C94C80359
:100010000C94C8030C94C8030C94C8030C94C80334
:100020000C94C8030C94C8030C94C8030C94C80324
:100030000C94C8030C94C8030C94C8030C94C80314
:100040000C94F2350C94C8030C941E310C946C3152
:100050000C94C8030C94C8030C94C8030C94C803F4
:100060000C94C8030C94C8030D0A000D0A0030005C
:100070003078000D041E0437044B045C04640473E0
:10008000047A04A904D704000508050D05140544E5
:100090000571059B05A305A805AF05DC0508062F1E
:1000A0000637063C06430672069F06C8060A444EFB
:1000B00053736572763A20000A444843507372764F
:1000C0003A20000A476174657761793A20000A4E48
:1000D00065746D61736B3A20000A49502041646475
:1000E000723A2000556E61626C6520746F207265F3
:1000F0007472696576652074686520495020416492
:100100006472657373210D0A006D6F76656C6566A8
:1001100074006D6F76657269676874006D6F7665DF
:100120007570006D6F7665646F776E0021212120F8
:100130004D4F564520444F574E202121212100216B
:100140002121204D4F5645205550202121212100AD
:10015000212121204D4F5645205249474854202106
:1001600021212100212121204D4F5645204C45467B
:10017000542021212121005D005D5B005D2076611E
:100180006C75653D5B00636D643D5B0072756E432D
:100190006F6D6D616E6400436C69656E7420646997
:1001A00073636F6E6E6563746564000048545450E9
:1001B0002F312E3120343035204D6574686F642026
:1001C0004E6F7420416C6C6F776564003C2F6874CF
:1001D0006D6C3E003C2F68323E20003C68723E3C15
:1001E00068323E20524553554C542000506174688B
:1001F0003A2000416374696F6E3A200050726F6359
:10020000657373696E6720726571756573740043F9
:100210006C69656E7420636F6E6E65637465642EC1
:10022000004C697374656E696E6720666F72206337
:100230006F6E6E656374696F6E732E2E2E00746818
:100240006572652069736E277420616E206F627617
:10025000696F7573206D6F6D656E7420746F2064A7
:100260006973636F6E6E656374207769746820616B
:10027000207365727665722E0D0A0074696D656F64
:10028000757420706572696F642070617373657333
:100290002E202054686973206973206E6F726D611F
:1002A0006C206265686176696F75722073696E6330
:1002B00065004150206D6179207265667573652017
:1002C000636F6E6E656374696F6E207265717565BC
:1002D0007374732066726F6D2074686520434333B6
:1002E00030303020756E74696C20610073696E6304
:1002F0006520746865202E646973636F6E6E656334
:100300007428292066756E6374696F6E2069732086
:100310006E657665722063616C6C65642C20736F0A
:1003200020746865000D0A4E4F54453A20546869A0
:100330007320736B65746368206D617920636175E8
:1003400073652070726F626C656D73207769746875
:10035000206F7468657220736B65746368657300E1
:1003600052657175657374204448435000436F6E45
:100370006E656374656421004661696C6564210083
:100380000A417474656D7074696E6720746F2063C0
:100390006F6E6E65637420746F2000436F756C64BC
:1003A0006E277420626567696E282921204368657D
:1003B000636B20796F757220776972696E673F0091
:1003C0000A496E697469616C697A696E672E2E2EAE
:1003D00000414354494F4E3D00414354494F4E3D27
:1003E00000414354494F4E3D00414354494F4E3D17
:1003F00000414354494F4E3D005069636176657436
:100400002057694669204343333030300048545404
:10041000502F312E3120323030204F4B0A00436FA5
:100420006E74656E742D547970653A2074657874B5
:100430002F68746D6C0A00436F6E6E656374696F2C
:100440006E3A20636C6F73650A0A003C21444F4387
:10045000545950452048544D4C3E0A003C68746D38
:100460006C3E0A003C68313E544553543C2F683181
:100470003E0A003C666F726D3E003C696E7075749A
:1004800020747970653D74657874206E616D653D8A
:1004900027636D64272076616C75653D276D6F76E7
:1004A000656C656674273E0A003C696E7075742041
:1004B000747970653D74657874206E616D653D2753
:1004C000646567726565272076616C75653D272DCB
:1004D000313630273E0A003C696E7075742074799D
:1004E00070653D277375626D6974272076616C7540
:1004F000653D274D6F7665206C656674273E0A0062
:100500003C2F666F726D3E003C62723E003C666F2F
:10051000726D3E003C696E70757420747970653D33
:1005200074657874206E616D653D27636D64272066
:1005300076616C75653D276D6F7665726967687465
:10054000273E0A003C696E70757420747970653DB1
:1005500074657874206E616D653D276465677265AA
:1005600065272076616C75653D27313230273E0A5C
:10057000003C696E70757420747970653D277375E1
:10058000626D6974272076616C75653D274D6F76C5
:1005900065207269676874273E0A003C2F666F7297
:1005A0006D3E003C62723E003C666F726D3E003CE8
:1005B000696E70757420747970653D746578742007
:1005C0006E616D653D27636D64272076616C75658E
:1005D0003D276D6F76657570273E0A003C696E7029
:1005E000757420747970653D74657874206E616DE2
:1005F000653D27646567726565272076616C756562
:100600003D273330273E0A003C696E7075742074B4
:100610007970653D277375626D6974272076616C0A
:1006200075653D274D6F7665205550273E0A003C85
:100630002F666F726D3E003C62723E003C666F72C8
:100640006D3E003C696E70757420747970653D7400
:10065000657874206E616D653D27636D6427207633
:10066000616C75653D276D6F7665646F776E273EAB
:100670000A003C696E70757420747970653D74650C
:100680007874206E616D653D2764656772656527C6
:100690002076616C75653D272D3330273E0A003C7E
:1006A000696E70757420747970653D277375626D1D
:1006B0006974272076616C75653D274D6F766520DE
:1006C000444F574E273E0A003C2F666F726D3E0026
:1006D00000000000240027002A0000000000250080
:1006E00028002B000000000023002600290004043D
:1006F00004040404040402020202020203030303CA
:1007000003030102040810204080010204081020A5
:10071000010204081020000000070002010000038D
:10072000040600000000000000006364696E6F7042
:10073000737578585B006B1D2627DE2CD8323A3350
:1007400011241FBECFEFD8E0DEBFCDBF12E0A0E086
:10075000B1E0E8EFF0E702C005900D92AC36B107CA
:10076000D9F716E0ACE6B2E001C01D92A03CB1079B
:10077000E1F717E0C0E4D7E004C02297FE010E9431
:100780003438C633D107C9F70E94E3350C947A3860
:100790000C940000FB01DC018D9105908019011083
:1007A000D9F3990B0895FB01DC0105900D9200200F
:1007B000E1F708954CE652E00E9400040895FB0121
:1007C000DC0102C001900D9241505040D8F70895CD
:1007D000FB01DC018D91019080190110D9F3990B77
:1007E0000895FB01DC014150504048F001900D920A
:1007F0000020C9F701C01D9241505040E0F7089514
:10080000009731F4DA018D919C91009709F40EC0A4
:10081000DC01FB013D912191222319F03217C9F32C
:10082000FACF332331F4DA011D921C9288279927DD
:1008300008951197AF93BF93FB013D91219132171A
:1008400071F4332321F488279927119702C01E924F
:100850001196FA01A193B0839F918F91089522235D
:1008600069F7EACFAEE0B0E0E8E3F4E00C94513889
:100870000D891E8986E08C831A8309838FEF9FE799
:100880009E838D839E01275E3F4FCE0101966F8927
:10089000788DA9010E9470042F813885020F131FE3
:1008A000F80110822E96E4E00C946D38AEE0B0E0D2
:1008B000ECE5F4E00C94533885E08C838B899C89BB
:1008C0009A8389839E01295E3F4FCE0101966D89EF
:1008D0007E89A9010E94D1072E96E2E00C946F3820
:1008E000ABE0B0E0E6E7F4E00C9443383C012B01C8
:1008F0005A01FC0117821682838181FD03C06FEFCC
:100900007FEFC6C19AE0892E1E010894211C311C7C
:10091000F3012381F20123FD859123FF81912F01B2
:10092000882309F4B2C1853239F423FD859123FF70
:1009300081912F01853229F490E0B3010E9445098D
:10094000E7CF982FFF24EE249924FFE1FF15D0F084
:100950009B3269F09C3228F4903259F0933291F432
:100960000EC09D3249F0903369F441E024C052E05A
:10097000F52A84E0F82A28C098E0F92A25C0E0E1A9
:10098000FE2A22C0F7FC29C0892F80538A3070F4D8
:10099000F6FE05C0989C902C1124980E15C0E89C7A
:1009A000E02C1124E80EF0E2FF2A0EC09E3229F45A
:1009B000F6FC6BC140E4F42A07C09C3619F450E8F9
:1009C000F52A02C0983649F4F20123FD959123FFE0
:1009D00091912F01992309F0B8CF892F8554833045
:1009E00018F08052833038F444E050E0A40EB51E75
:1009F0005FE359830FC0933631F0933779F0933525
:100A000009F056C020C0F5018081898342E050E0A2
:100A1000A40EB51E610101E010E012C0F501C08016
:100A2000D180F6FC03C06FEF7FEF02C0692D70E04C
:100A300042E050E0A40EB51EC6010E94F8088C01E9
:100A40005FE7F52214C0F501C080D180F6FC03C039
:100A50006FEF7FEF02C0692D70E042E050E0A40E1E
:100A6000B51EC6010E94ED088C0150E8F52AF3FE80
:100A700007C01AC080E290E0B3010E944509EA94E1
:100A80008E2D90E008171907A8F30EC0F601F7FCA9
:100A90008591F7FE81916F0190E0B3010E944509B5
:100AA000E110EA94015010400115110579F7EAC0F0
:100AB000943611F0993669F5F7FE08C0F5012081EA
:100AC00031814281538184E090E00AC0F501808148
:100AD00091819C01442737FD4095542F82E090E09E
:100AE000A80EB91E9FE6F92257FF09C05095409500
:100AF000309521953F4F4F4F5F4FE0E8FE2ACA01E6
:100B0000B901A1012AE030E00E948B09D82ED21849
:100B100040C0953729F41F2D1F7E2AE030E01DC00C
:100B20001F2D197F9F3661F0903720F4983509F01A
:100B3000ACC00FC0903739F0983709F0A6C004C098
:100B400028E030E00AC0106114FD146020E130E0BC
:100B500004C014FD166020E132E017FF08C0F50163
:100B6000608171818281938144E050E008C0F50189
:100B700080819181BC0180E090E042E050E0A40ED1
:100B8000B51EA1010E948B09D82ED2188FE7F82E2E
:100B9000F122F6FE0BC05EEFF522D91438F4F4FE14
:100BA00007C0F2FC05C08FEEF82202C01D2D01C067
:100BB000192DF4FE0DC0FE01ED0DF11D8081803375
:100BC00019F499EEF92208C01F5FF2FE05C003C0B8
:100BD0008F2D867809F01F5F0F2DF3FC14C0F0FEF7
:100BE0000FC01E1510F09D2C0BC09D2C9E0C911A51
:100BF0001E2D06C080E290E0B3010E9445091F5FF0
:100C00001E15C0F304C01E1510F4E11A01C0EE2435
:100C100004FF0FC080E390E0B3010E94450902FF8A
:100C20001DC001FD03C088E790E00EC088E590E09C
:100C30000BC0802F867891F001FF02C08BE201C0CB
:100C400080E2F7FC8DE290E0B3010E94450906C006
:100C500080E390E0B3010E9445099A94D914C0F34F
:100C6000DA94F101ED0DF11D808190E0B3010E9455
:100C70004509DD20A9F706C080E290E0B3010E949B
:100C80004509EA94EE20C1F743CEF30166817781EE
:100C9000CB012B96E2E10C945F38FC0120FD08C0EB
:100CA00023FD05C022FF02C073836283518340830A
:100CB0000895EF92FF920F931F9344FF02C033E019
:100CC00011C046FF02C034E00DC0DB01FC01AA0FD9
:100CD000BB1FEE1FFF1F1094D1F76A0F7B1F8E1FE3
:100CE0009F1F31E0660F771F881F991F3150D1F782
:100CF0007B018C01E20EF11C011D111DA801970161
:100D0000B701CA011F910F91FF90EF9008950F93C3
:100D10001F93CF93DF938C01C8010E940309EC015C
:100D200097FD08C00E943B38892BB1F7CE01B8016E
:100D30000E947109CE01DF91CF911F910F9108950B
:100D4000A0E0B0E0E6EAF6E00C944B38EC01C62EE9
:100D50005A01122F0E940309AC018B3219F08D3217
:100D600051F41068CA9409F46DC0CE010E940309C1
:100D7000AC0197FD67C06DEFD62ED1228D2D80730B
:100D800001F54033F1F4CA9409F447C0CE010E9442
:100D90000309AC0197FD41C082E0D82A483711F021
:100DA000483559F480E4D82ACA94B9F1CE010E949A
:100DB0000309AC0199232CF430C0D6FC02C080E1B9
:100DC000D82AEE24FF248701242F2053283088F0CE
:100DD000D4FC09C02A3068F0D6FE05C02F7D822FD2
:100DE0008151863028F0CA01BE010E94710912C0EB
:100DF0002750C801B7014D2D0E9459067B018C0177
:100E000082E0D82ACA9461F0CE010E940309AC01A5
:100E100097FFDACFD1FC04C015C0EE24FF24870170
:100E2000D7FE08C010950095F094E094E11CF11CE9
:100E3000011D111DC501B801A7012D2D0E944D06F0
:100E400081E001C080E0CDB7DEB7EAE00C946738FE
:100E5000A0E2B0E0EEE2F7E00C9447386C01A62E79
:100E60008A017901FE01319680E2DF011D928A95A7
:100E7000E9F770E030E060E040E050E04F01A1E0D1
:100E8000B0E0F6018381F70183FD259183FF219175
:100E90007F01222309F47EC02E3519F44115510536
:100EA00069F1872F90E08417950744F42D3551F1AF
:100EB0002D3221F4332329F431E021C0332309F406
:100EC000622F322F832F869586958695F401E80F41
:100ED000F11D832F87703D0102C0660C771C8A9537
:100EE000E2F7208126292083361711F430E007C06D
:100EF000361710F43F5FE6CF3150E4CF71E04F5F1B
:100F00005F4FBFCF332319F08E8180628E837723AA
:100F100059F0FE0131969E012F5D3F4F80818095F3
:100F20008193E217F307D1F7BB24B3944E010894E1
:100F3000811C911CC6010E940309AC0197FD22C0CF
:100F4000869586958695F401E80FF11D808190E0E5
:100F50009A012770307002C0959587952A95E2F71F
:100F600080FD05C0CA01B6010E9471090BC00115C0
:100F7000110519F0D8014D938D01AA94BB24AA2024
:100F8000C9F602C0BB2031F40115110529F0F801A2
:100F9000108202C0EE24FF24C701A096EEE00C945C
:100FA0006338A0E0B0E0E7EDF7E00C9447385C016F
:100FB0006B013A01FC01178216828824EAC0812F56
:100FC00090E00E943B38892B21F0C5010E948706E2
:100FD000E0C0153249F4F601F3FC6591F3FE61912E
:100FE0006F01653269F415E2C5010E94030997FD9E
:100FF000DCC0181709F4CDC0B5010E947109DAC030
:101000006A3219F0162F00E006C0F3FC1591F3FECA
:1010100011916F0101E099240FC00260692D70E009
:1010200080E090E040E20E945906962EF601F3FC23
:101030001591F3FE11916F01212F20532A3068F38F
:1010400001FD03C099249A9403C0992009F4B2C009
:10105000183621F01C3699F4F6010BC0F601F3FCAA
:101060006591F3FE6191683619F06F01162F07C084
:1010700008600460F3FC1591F3FE11916F011123D8
:1010800009F498C08AE297E0612F70E00E94E208BC
:10109000892B09F48FC0802F00FF03C0EE24FF24AA
:1010A00007C0F301E080F18022E030E0620E731EA1
:1010B0001E3651F4F5014681578160E070E0C701AA
:1010C000202F0E944D0665C0133691F481FD02C0A9
:1010D00099249394C5010E94030997FD66C0E11409
:1010E000F10419F0F70181937F019A9499F74FC0A9
:1010F0001B3559F4C501692DA70196010E942807E7
:101100006C01009709F043C03DC0C5010E948706ED
:1011100097FD4BC01F3659F1103728F4143629F1CA
:10112000193639F527C0133719F0153711F51DC0D9
:10113000C5010E940309EC0197FD11C00E943B38D4
:10114000892B29F0CE01B5010E94710908C0E11474
:10115000F10419F0F701C1937F019A9449F7E11462
:10116000F104A9F0F701108212C0006203C000610F
:1011700001C00064C501692DA701202F0E94A006AF
:10118000882329F4F5018381807379F413C000FF6B
:101190008394F501F380F601F3FC1591F3FE1191B0
:1011A0006F01112309F00BCF05C0882019F42FEF30
:1011B0003FEF02C0282D30E0C901CDB7DEB7EEE029
:1011C0000C946338FC010590061621F00020D9F735
:1011D000C00108953197CF010895FC010590615039
:1011E00070400110D8F7809590958E0F9F1F08953D
:1011F000FC016150704001900110D8F780959095E6
:101200008E0F9F1F0895CF93DF93EC014B8140FF1A
:101210001AC046FF0AC04F7B4B838E819F81019687
:101220009F838E838A81282F2BC042FF13C0E881C1
:10123000F9818081282F332727FD3095211531052D
:1012400029F440624B832FEF3FEF1BC03196F983A7
:10125000E88311C0EA85FB85CE0109959C0197FFC3
:101260000AC09B812F5F3F4F11F080E201C080E1F7
:10127000892B8B83E8CF8E819F8101969F838E83FC
:1012800030E0C901DF91CF9108950F931F93CF9361
:10129000DF938C01EB018B8181FF1BC082FF0DC0AE
:1012A0002E813F818C819D812817390764F4E88164
:1012B000F9810193F983E88306C0E885F985802FD9
:1012C0000995892B31F48E819F8101969F838E83AE
:1012D00002C00FEF1FEFC801DF91CF911F910F9157
:1012E00008959C01FB01838180FF11C086FD0FC022
:1012F0009FEF2F3F390759F0228380648F7D8383CE
:101300008681978101979783868330E002C02FEF13
:101310003FEFC9010895FA01AA27283051F1203181
:1013200081F1E8946F936E7F6E5F7F4F8F4F9F4F79
:10133000AF4FB1E03ED0B4E03CD0670F781F891FBB
:101340009A1FA11D680F791F8A1F911DA11D6A0F89
:10135000711D811D911DA11D20D009F468943F913C
:101360002AE0269F11243019305D3193DEF6CF013B
:101370000895462F4770405D4193B3E00FD0C9F701
:10138000F6CF462F4F70405D4A3318F0495D31FD6E
:101390004052419302D0A9F7EACFB4E0A6959795C1
:1013A000879577956795BA95C9F700976105710597
:1013B00008959B01AC010A2E0694579547953795E1
:1013C0002795BA95C9F7620F731F841F951FA01D3B
:1013D0000895882319F48CB5806202C08CB58F7D86
:1013E0008CBD08959CB5937F982B9CBD08952CB51A
:1013F000382F33702C7F322B3CBD2DB590E0959566
:1014000087959595879581702E7F822B8DBD089548
:101410008AE061E00E941B378AE061E00E94DC36CE
:101420008CB580618CBD8CB580648CBD8DE061E035
:101430000E94DC368BE061E00E94DC360895CF9399
:10144000DF93FC01DC014D939D01BB27A72F962F55
:10145000852F8183F9013196CB01AA27BB27E901AA
:101460008983472F55276627772741833296CF01F7
:10147000DF91CF910895DC01FC01619311967C937B
:101480003196CF010895FB01E80FF91F318120E06B
:101490008081280F311DC9010895FB01E80FF91F54
:1014A000238130E040E050E0522F442733272227A9
:1014B000828190E0A0E0B0E0DC0199278827280F26
:1014C000391F4A1F5B1F8081280F311D411D511D8F
:1014D000818190E0A0E0B0E0BA2FA92F982F882753
:1014E000280F391F4A1F5B1FB901CA010895DF93F6
:1014F000CF9300D0CDB7DEB72091BA063091BB06AE
:10150000CE0101962115310519F4805C964002C088
:10151000821B930B9A83898389819A810F900F9004
:10152000CF91DF910895AF92BF92CF92DF92EF9269
:10153000FF920F931F9359016A016830710581056D
:101540009105A0F522E0A216B104C104D10470F502
:1015500021E030E0062E02C0220F331F0A94E2F78A
:1015600020953095442737FD4095542FE090D001C9
:10157000F090D1010091D2011091D3012E213F2191
:1015800040235123062E04C0AA0CBB1CCC1CDD1C1E
:101590000A94D2F72A293B294C295D292093D001AE
:1015A0003093D1014093D2015093D3011F910F91F9
:1015B000FF90EF90DF90CF90BF90AF9008959B0188
:1015C000AC016830710581059105E8F481E090E097
:1015D00002C0880F991F2A95E2F79C01442737FD26
:1015E0004095542F8091D0019091D101A091D201CA
:1015F000B091D301282339234A235B2321153105D8
:101600004105510521F021E030E040E050E0B90112
:10161000CA0108958F929F92AF92BF92CF92DF92AC
:10162000EF92FF920F931F93DF93CF93CDB7DEB767
:10163000A9970FB6F894DEBF0FBECDBF8C0161E055
:1016400070E00E94430A9C016C01EE24FF24D6FE48
:101650006DC081E42030380709F068C0C80165E03A
:1016600070E00E94430A4C0197E0A92EB12CA00E15
:10167000B11ECC24DD24EE24FF24870112C0C50155
:1016800062E070E00E94430AA0E0B0E0E80EF91EBC
:101690000A1F1B1FA4E0B0E0AA0EBB1E0894C11CC9
:1016A000D11CC814D90458F380918A0290918B02FE
:1016B0008E0D9F1D90938B0280938A0280919602DB
:1016C00090919702A0919802B0919902E80EF91EAC
:1016D0000A1F1B1FE0929602F09297020093980255
:1016E00010939902209196023091970240919802AE
:1016F000509199028091920290919302A09194024C
:10170000B0919502281739074A075B0709F0ADC069
:1017100080919A02882309F4A8C0E0917C02F0919C
:101720007D0269E970E080E090E04AC0C601807007
:101730009078892B09F4F2C0B0E820343B0709F413
:1017400099C0E0E821343E07A0F4F0E824303F07D8
:1017500051F180E82530380738F4215030482230E4
:10176000310508F07EC11FC02051304809F079C111
:101770002BC0A4E820303A07B1F0B4E821303B0791
:1017800048F4E0E820383E0771F02050324809F074
:1017900068C109C088E82030380709F4ADC020507E
:1017A000394809F05EC180917C0290917D02892BBD
:1017B00009F45BC0E0917C02F0917D02C701B601A3
:1017C00040E050E020E050C0F8013596D801159671
:1017D0008C9115978D8B81818E8B82818F8B8381EC
:1017E000888FF801399619968C911997898F818184
:1017F0008A8F82818B8F83818C8FF8013D961D9615
:101800008C911D978D8F81818E8F82818F8F8381A7
:1018100088A3F801719651968C91519789A3818183
:101820008AA382818BA383818CA3F8017596559638
:101830008C9155978DA381818EA382818FA3838103
:1018400088A714968C9189A780917C0290917D0243
:10185000892B59F0E0917C02F0917D02C701B6011D
:10186000AE014B5E5F4F25E1099521E030E040E09D
:1018700050E0FBC00B5F1F4FC80160E070E00E94AA
:101880004D0A69837A838B839C83C80164E070E08E
:101890000E944D0A6D837E838F839887C80168E01C
:1018A00070E00E944D0A69877A878B879C87C80100
:1018B0006CE070E00E944D0A6D877E878F87988B61
:1018C000C80160E170E00E944D0A9B01AC0180916B
:1018D0007C0290917D02892B41F2E0917C02F09193
:1018E0007D02298B3A8B4B8B5C8BC701B601AE0115
:1018F0004F5F5F4F24E1B8CF80917C0290917D02D1
:10190000892B09F4B2CFE0917C02F0917D020B5F4C
:101910001F4FC701B601A80121E0A6CFB3E0CB1647
:10192000B0E1DB06B0E0EB06B0E0FB0699F0EFE0DB
:10193000CE16E0E1DE06E0E0EE06E0E0FE0651F065
:10194000FEE0CF16F0E1DF06F0E0EF06F0E0FF0684
:1019500009F06AC085E0C82ED12CC00ED11EC60188
:1019600064E070E00E944D0A675C7F4F8F4F9F4F8D
:1019700009F077C0D80114968C9190E0A0E0B0E017
:101980008093860290938702A0938802B093890285
:10199000C60160E070E00E944D0A7B018C01C60127
:1019A00064E070E00E944D0A675C7F4F8F4F9F4F4D
:1019B00009F05BCFE8E0EE16F1040105110508F02F
:1019C00054CF81E090E00E2C02C0880F991F0A943A
:1019D000E2F780959095AA2797FDA095BA2F2091C0
:1019E000D0013091D1014091D2015091D301822395
:1019F0009323A423B52321E030E040E050E00E2CF7
:101A000004C0220F331F441F551F0A94D2F7822BA4
:101A1000932BA42BB52B8093D0019093D101A0934D
:101A2000D201B093D30121CF80916E0290916F02C9
:101A3000A0E0B0E0C816D906EA06FB0691F060E027
:101A4000F0E0CF16F0E1DF06F0E0EF06F0E0FF0691
:101A500009F461E081E06827262F30E040E050E0A3
:101A600004C020E030E040E050E0B901CA01A9968E
:101A70000FB6F894DEBF0FBECDBFCF91DF911F919F
:101A80000F91FF90EF90DF90CF90BF90AF909F901D
:101A90008F9008958091700290917102892BD1F0FE
:101AA000E0917202F09173028081843099F4CF0149
:101AB0000E940A0B613071058105910559F410925D
:101AC0007102109270020E94D42921E030E040E0BF
:101AD00050E004C020E030E040E050E0B901CA012D
:101AE0000895DF93CF9300D000D0CDB7DEB7198231
:101AF0001A821B821C82FC018581823021F1833095
:101B000009F43FC0813009F05FC080917802909164
:101B10007902892B91F0E0917802F0917902CE015F
:101B200001960995AC01009741F0609174027091A3
:101B3000750229813A8181E045C0609174027091FB
:101B4000750281E03BC08091760290917702892BEB
:101B500091F0E0917602F0917702CE01019609951D
:101B6000AC01009741F06091740270917502298177
:101B70003A8182E027C0609174027091750282E020
:101B80001DC080917A0290917B02892B91F0E091A7
:101B90007A02F0917B02CE0101960995AC01009783
:101BA00041F0609174027091750229813A8183E05D
:101BB00009C0609174027091750283E040E050E0CA
:101BC00020E030E00E9490110F900F900F900F9046
:101BD000CF91DF9108954F925F926F927F928F9293
:101BE0009F92AF92BF92CF92DF92EF92FF920F93AC
:101BF0001F93CF93DF936C012B013A01AA24BB24DE
:101C00000E940A2B8091700290917102892BC1F37E
:101C10008090720290907302D4018C91843009F00C
:101C2000BFC2C40161E070E00E94430A5C01C401CC
:101C30000E940A0B611571058105910509F0A4C286
:101C4000E4012596B8E0AB16B0E1BB0608F056C03B
:101C5000E6E0AE16E0E1BE0608F0CCC0F2E0AF165A
:101C6000F2E0BF0609F4C6C003E0A01602E0B00629
:101C700000F51DE0A116B10480F468E0A616B104D9
:101C800008F0B8C081E0A816B10408F47DC297E05E
:101C9000A916B10408F4AEC0D4C1ADE0AA16B104CF
:101CA00009F4A3C0B1E0AB16B2E0BB0609F06CC208
:101CB0009CC0E3E0AE16E0E1BE0698F4F1E0AF169A
:101CC000F0E1BF0608F096C005E0A01602E0B006FD
:101CD00008F48BC017E0A11612E0B10609F054C257
:101CE0008DC064E0A61660E1B60609F4DCC085E0AC
:101CF000A81680E1B80608F0B1C042C191E1A9166A
:101D000090E1B90609F471C0A2E1AA16A0E1BA06F1
:101D100058F5BBE0AB16B0E1BB0609F46BC0ECE0D4
:101D2000AE16E0E1BE0668F4F9E0AF16F0E1BF06DA
:101D300009F460C00AE0A01600E1B00608F073C123
:101D40003AC11FE0A11610E1B10609F419C160E122
:101D5000A61660E1B60608F061C08DE0A81680E125
:101D6000B80609F011C29FC095E0A91690E2B90625
:101D700009F4A4C1A6E0AA16A0E2BA0668F4B2E18A
:101D8000AB16B0E1BB0609F460C0E1E0AE16E0E2DC
:101D9000BE0608F4F9C129C0FAE0AF16F0E2BF06AA
:101DA00060F408E0A01600E2B006F8F416E0A11610
:101DB00010E2B10609F0E8C118C06BE0A61660E4B5
:101DC000B60609F0E1C1D40115968C9190E090938C
:101DD0008B0280938A02CE0161E070E00E94430A88
:101DE00090938D0280938C02CFC1E4018C81F60127
:101DF0008083CAC1CE0160E070E01EC0F40184811E
:101E0000D6018D936D01CE0160E070E00E944D0A15
:101E1000AB01BC01C6010E941F0AB6C1CE0160E041
:101E200070E00E944D0AF601619371938193919342
:101E30006F01CE0164E070E00E944D0AD6016D93FF
:101E40007D938D939C9313979FC1CE0160E070E0CA
:101E50000E94430AE6019983888396C1CE0160E01F
:101E600070E00E944D0AF601619371938193919302
:101E70008F01CE0164E070E00E944D0AD6011496F5
:101E80006D937D938D939C931797E4E0CE2ED12C88
:101E9000C00ED11ED601FE01389680E101900D9250
:101EA0008150E1F771C1CE0160E070E00E944D0AFF
:101EB000F60161937193819391938F01CE0164E058
:101EC00070E00E944D0AD60114966D937D938D9318
:101ED0009C93179774E0C72ED12CC00ED11ECE0153
:101EE00068E070E00E944D0A9B01AC01E8016C8340
:101EF0007D838E839F83F60184819581A681B7813E
:101F0000875C9F4FAF4FBF4F09F03EC1283031056E
:101F10004105510508F038C1822F21E030E0082E3C
:101F200002C0220F331F0A94E2F720953095442710
:101F300037FD4095542FE090D001F090D1010091F1
:101F4000D2011091D3012E213F214023512361E082
:101F5000E62EF12C012D112D04C0EE0CFF1C001FEC
:101F6000111F8A95D2F72E293F29402B512B209300
:101F7000D0013093D1014093D2015093D30104C1D9
:101F8000CE0160E070E00E944D0AD6016D937D9312
:101F90008D939D938D01CE0164E070E00E944D0A07
:101FA000E6016C837D838E839F8354E0C52ED12C04
:101FB000C00ED11EE9C0CE0160E070E00E944D0A63
:101FC000F60161937193819391938F01CE0164E047
:101FD00070E00E944D0AD60114966D937D938D9307
:101FE0009C93179744E0E42EF12CE00EF11ECE01F5
:101FF00068E070E00E944D0AF8016483758386836F
:10200000978334E0C32ED12CCE0CDF1CCE016CE0C4
:1020100070E00E944D0AD70114966D937D938D93C5
:102020009C931797B1C0E4018C81F60184838D8164
:102030009E81AF81B885E60188839983AA83BB839B
:10204000A3C0CE0160E070E00E944D0AF6016193EA
:102050007193819391938F01CE0164E070E00E94AF
:102060004D0AD60114966D937D938D939C9317978B
:10207000CE0168E070E00E94430AA0E0B0E0F80101
:1020800084839583A683B783CE016AE070E00E94C3
:10209000430AA0E0B0E0F60182879387A487B58762
:1020A0002CE0E22EF12CCE0CDF1CD601FE013C967A
:1020B00086E201900D928150E1F766C0D401159639
:1020C0008C91F60181938981D60111968C93119799
:1020D0008A8181838B8182831496F4013996E4018D
:1020E0008985E6018C8381818D8382818E838381C2
:1020F0008F839D012C5F3F4FF4013D96E4018D8558
:1021000014968C9314978181E601898782818A874E
:1021100083818B87F4017196E4018989E9018C83BD
:102120008181E6018D8782818E8783818F87F4018B
:102130007596E4018D89E901888781811D968C93CC
:102140001D9782811E968C931E9783811F968C9378
:10215000E4019601F401D601A4014A5F5F4F818D2D
:1021600054968C93549731961196E417F507B9F766
:10217000A401405E5F4F8F8DF901828F21962F5F02
:102180003F4FC417D507B9F780916E0290916F0247
:10219000A816B906B9F510926F0210926E0232C0FD
:1021A000D40112960C91C40163E070E00E94430ACE
:1021B000EC0141145104A1F0C401059664E070E003
:1021C0000E944D0A462FF3016083718382839383BB
:1021D00094012B5E3F4FC201B90150E00E94DF0322
:1021E000202F30E0FE01E21BF30B2B5F3F4F280D49
:1021F000391DC601B901AF010E94DF03109291029F
:102200001092900210927102109270020E94D429D2
:10221000D4018C91843041F4B0E0AB16B0E1BB0640
:1022200019F4C4010E94710D80916E0290916F02A9
:10223000892B09F0E5CC8091900290919102892B35
:1022400009F0DECC80E090E0DF91CF911F910F91FB
:10225000FF90EF90DF90CF90BF90AF909F908F90C6
:102260007F906F905F904F90089521E030E0309321
:102270009102209390020E94EB0D089590936F02BB
:1022800080936E02CB0160E070E040E050E00E947D
:10229000EB0D0895CF92DF92EF92FF920F931F9371
:1022A0006B01890192E0FB01958386834783040FCC
:1022B000151F0E0D1F1DCB010896B8010E943B0A89
:1022C0000B5F1F4FC601B8010E94902B60E070E0C9
:1022D00080E090E01F910F91FF90EF90DF90CF9002
:1022E0000895EF92FF920F931F939C017B01042F9F
:1022F00081E0FB018583CB010696B9010E943B0A70
:10230000FC01008310E00C5F1F4FC701B8010E9461
:10231000902B80E090E01F910F91FF90EF90089537
:102320004F925F926F927F928F929F92AF92BF92E5
:10233000CF92DF92EF92FF920F931F93CF93DF9391
:102340006B014A01E90145E0442E512C460E571E0F
:1023500093E0FB019583868337E0632E712C660E34
:10236000771E8E010E5F1F4FC301B8010E943B0A0A
:102370007C012BE0A22EB12CAC0CBD1CF3E0C93EBD
:10238000DF0790F4BE010E943B0AC701BE010E9414
:102390003B0AC501B401AE010E94DF032696C601C7
:1023A000BE010E94902B47C0CE0168EE73E00E94F0
:1023B000E137660F771F060F171FC701B8010E948C
:1023C0003B0AC70168EE73E00E943B0AD501F401A5
:1023D00088EE93E001900D920197E1F78E01085E7F
:1023E000134088EEE82E83E0F82EE80CF91CC601B5
:1023F0006EEE73E01BC00E940A2B83E0093E1807B3
:1024000020F4E80100E010E004C0085E1340C8EECC
:10241000D3E0F201D183C083C301B701AE010E94B2
:10242000DF03EC0EFD1E2296C201BE010E94902B1E
:102430000115110501F7DF91CF911F910F91FF90C9
:10244000EF90DF90CF90BF90AF909F908F907F9054
:102450006F905F904F9008950F931F938C01609140
:1024600074027091750285E090E240E00E94711163
:1024700085E090E2B8010E943E111F910F910895EE
:102480008F929F92AF92BF92CF92DF92EF92FF9284
:102490000F931F93DF93CF930F92CDB7DEB74C010D
:1024A0008B017A0169018FEF8983A0907402B0904B
:1024B0007502F40180819181A281B3810197A10904
:1024C000B1090997A105B10540F48AE090E0A0E0C8
:1024D000B0E080839183A283B383F80180819181EE
:1024E000A281B3810197A109B1090997A105B1059D
:1024F00040F48AE090E0A0E0B0E080839183A28382
:10250000B383F70180819181A281B3810197A109F1
:10251000B1090997A105B10540F48AE090E0A0E077
:10252000B0E080839183A283B383F601808191819F
:10253000A281B3810197A109B1090997A105B1054C
:1025400040F48AE090E0A0E0B0E080839183A28331
:10255000B383F4014081518162817381C501099681
:102560000E941F0AF80140815181628173810E949B
:102570001F0AF70140815181628173810E941F0A05
:10258000F60140815181628173810E941F0A89E0B6
:1025900090E2B50144E10E94711189E090E2BE0130
:1025A0006F5F7F4F0E943E112981332727FD3095B1
:1025B000432F532FB901CA010F90CF91DF911F9183
:1025C0000F91FF90EF90DF90CF90BF90AF909F90D2
:1025D0008F900895CF92DF92EF92FF920F931F9307
:1025E000DF93CF930F92CDB7DEB7D62EC72E8A01D9
:1025F0004132510518F02FEF3FEF36C0E0907402E2
:10260000F0907502AC0160E070E0C70109960E948D
:102610001F0A48E050E060E070E00E941F0AA80135
:1026200060E070E00E941F0ADC018D2D9C2DFC01F2
:102630009F01200F311F02C081918D93E217F30794
:10264000D9F7402F445F81E190E1B7010E947111F9
:1026500081E190E1BE016F5F7F4F0E943E11898151
:10266000282F332727FD3095C9010F90CF91DF9197
:102670001F910F91FF90EF90DF90CF9008952F92D0
:102680003F924F925F926F927F928F929F92AF9202
:10269000BF92CF92DF92EF92FF920F931F93DF933F
:1026A000CF93CDB7DEB728970FB6F894DEBF0FBE35
:1026B000CDBF2B013C012D833E834F8358871601EC
:1026C000C0907402D0907502C6010996B301A201B0
:1026D0000E941F0A4D815E816F8178850E941F0ACA
:1026E000B801A7010E941F0A48E050E060E070E0D6
:1026F0000E941F0AB501A4010E941F0ABC0120E02C
:1027000030E040E050E00CC0F901DB01A20FB31F44
:10271000E20DF31D80818C932F5F3F4F4F4F5F4F32
:10272000281539054A055B0578F3482D4C5E89E08C
:1027300090E1B6010E94711189E090E1BE016F5FE6
:102740007F4F0E943E1129813A814B815C8157FD68
:1027500003C060E070E005C0B9013093BF0620936C
:10276000BE06CB0128960FB6F894DEBF0FBECDBFD4
:10277000CF91DF911F910F91FF90EF90DF90CF905D
:10278000BF90AF909F908F907F906F905F904F9091
:102790003F902F900895CF92DF92EF92FF920F9388
:1027A0001F93DF93CF9300D000D0CDB7DEB78B015E
:1027B0009C01F42EE52E8FEF9FEFAFEFBFEF8983E3
:1027C0009A83AB83BC83C0907402D0907502C6011B
:1027D0000996B901A8010E941F0A48E050E060E094
:1027E00070E00E941F0A48E050E060E070E00E9444
:1027F0001F0ADC018F2D9E2DFC019F01285F3F4F9A
:1028000081918D93E217F307D9F787E090E1B60144
:1028100044E10E94711187E090E1BE016F5F7F4F3C
:102820000E943E1169817A818B819C819B0120935A
:10283000BE063093BF060F900F900F900F90CF9170
:10284000DF911F910F91FF90EF90DF90CF9008954F
:10285000AF92BF92CF92DF92EF92FF920F931F93AE
:10286000DF93CF93CDB7DEB728970FB6F894DEBFCE
:102870000FBECDBFB82EA92E8B016A018FEF9FEF3F
:102880009093BF068093BE06673E710518F02FEF48
:102890003FEF3BC0E0907402F0907502C7010996CB
:1028A00048E050E060E070E00E941F0AA80160E08C
:1028B00070E00E941F0ADC018B2D9A2DFC019F0104
:1028C000200F311F02C081918D93E217F307D9F7D2
:1028D000402F485F80E190E1B7010E94711180E1D3
:1028E00090E1BE016F5F7F4F0E943E1129813A81C6
:1028F0003093BF062093BE068D819E81AF81B8853F
:10290000F60180839183A283B383C90128960FB611
:10291000F894DEBF0FBECDBFCF91DF911F910F9115
:10292000FF90EF90DF90CF90BF90AF9008958F927F
:102930009F92AF92BF92CF92DF92EF92FF920F934E
:102940001F93DF93CF9300D000D0CDB7DEB77B01CC
:102950008C0159016A018FEF9FEFAFEFBFEF8983C1
:102960009A83AB83BC838090740290907502C401FB
:102970000996B801A7010E941F0AB601A5010E948D
:102980001F0A86E090E1B40148E00E94711186E0E0
:1029900090E1BE016F5F7F4F0E943E1169817A8195
:1029A0008B819C819B012093BE063093BF060F90C4
:1029B0000F900F900F90CF91DF911F910F91FF908B
:1029C000EF90DF90CF90BF90AF909F908F90089541
:1029D000CF92DF92EF92FF920F931F93DF93CF93EB
:1029E00000D000D0CDB7DEB78B019C01F42EE52ED0
:1029F0008FEF9FEFAFEFBFEF89839A83AB83BC83E9
:102A0000C0907402D0907502C6010996B901A80160
:102A10000E941F0A48E050E060E070E00E941F0A38
:102A200048E050E060E070E00E941F0ADC018F2D5A
:102A30009E2DFC019F01285F3F4F81918D93E217EE
:102A4000F307D9F782E090E1B60144E10E947111E9
:102A500082E090E1BE016F5F7F4F0E943E1169816D
:102A60007A818B819C819B012093BE063093BF06A7
:102A70000F900F900F900F90CF91DF911F910F91BA
:102A8000FF90EF90DF90CF9008952F923F924F925A
:102A90005F926F927F928F929F92AF92BF92CF92EE
:102AA000DF92EF92FF920F931F93DF93CF93CDB7F7
:102AB000DEB764970FB6F894DEBF0FBECDBF2B0113
:102AC0003C015E874D870F87188B298B3A8B150148
:102AD0009C8A8B8A89A49AA4ABA4BCA4009174029A
:102AE00010917502C8010996B301A2010E941F0A44
:102AF0004F85588969897A890E941F0AB701A60102
:102B00000E941F0AC401B8014CE00E947111C40167
:102B1000BE016F5F7F4F0E943E118D819E81AF810C
:102B2000B885181619061A061B063CF48D859E8575
:102B3000B1014B895C890E9435118D819E81809302
:102B4000BE069093BF0664960FB6F894DEBF0FBE24
:102B5000CDBFCF91DF911F910F91FF90EF90DF904C
:102B6000CF90BF90AF909F908F907F906F905F902D
:102B70004F903F902F9008958F929F92AF92BF9267
:102B8000CF92DF92EF92FF920F931F9300D000D06D
:102B9000F4E08F2EF0E19F2EA12CB12CEDB7FEB703
:102BA00081829282A382B482AA24BB24882499249D
:102BB0000E9445150F900F900F900F901F910F914D
:102BC000FF90EF90DF90CF90BF90AF909F908F904D
:102BD00008954F925F926F927F928F929F92AF92E1
:102BE000BF92CF92DF92EF92FF920F931F93DF93EA
:102BF000CF93CDB7DEB760970FB6F894DEBF0FBEA8
:102C0000CDBF5B016C014A01390128018701E090C9
:102C10007402F0907502C7010996B601A5010E94E1
:102C20001F0A44E150E060E070E00E941F0A44E1A6
:102C300050E060E070E00E941F0A44E150E060E074
:102C400070E00E941F0A44E150E060E070E00E94E2
:102C50001F0A40E050E060E070E00115110521F42A
:102C600041E050E060E070E00E941F0A811491048E
:102C700029F440E050E060E070E005C0F4014081DC
:102C80005181628173810E941F0A6114710429F4C9
:102C900040E050E060E070E005C0F3014081518108
:102CA000628173810E941F0A4114510429F440E09B
:102CB00050E060E070E005C0F20140815181628126
:102CC00073810E941F0A9C010115110551F1F80141
:102CD00080819181A281B3810097A105B10591F412
:102CE00084819581A681B78188589341A040B040E6
:102CF0004CF488E893E1A0E0B0E0F8018483958388
:102D0000A683B783F8014081518162817381C90133
:102D10000E941F0AF80144815581668177810E94D3
:102D20001F0A88E090E1B7014CE20E94711188E02F
:102D300090E1BE016F5F7F4F0E943E1189819A81B1
:102D4000AB81BC81B7FD27C08114910449F08D810E
:102D50009E81AF81B885F40180839183A283B38380
:102D60006114710449F089859A85AB85BC85F301AE
:102D700080839183A283B3834114510449F08D85EC
:102D80009E85AF85B889F20180839183A283B38346
:102D900029813A8106C09093BF068093BE062FEF2B
:102DA0003FEFC90160960FB6F894DEBF0FBECDBFEE
:102DB000CF91DF911F910F91FF90EF90DF90CF9017
:102DC000BF90AF909F908F907F906F905F904F904B
:102DD00008958F929F92AF92BF92CF92DF92EF921F
:102DE000FF920F931F93DF93CF93CDB7DEB7689712
:102DF0000FB6F894DEBF0FBECDBF5B016C017A0148
:102E000049010091740210917502C8010996B6013A
:102E1000A5010E941F0A85E090E1B80144E00E94EC
:102E2000711185E090E1BE016F5F7F4F0E943E11FE
:102E3000E114F10441F0D701FE01399688E00190D8
:102E40000D928150E1F78114910449F088E090E0FF
:102E5000A0E0B0E0F40180839183A283B3838D81ED
:102E60009E819093BF068093BE067C010027F7FCED
:102E70000095102FF8E0EF16F1040105110538F464
:102E8000C801B70120E030E040E050E006C0C601D4
:102E9000B50121E030E040E050E00E94930AB70124
:102EA000C80168960FB6F894DEBF0FBECDBFCF91B4
:102EB000DF911F910F91FF90EF90DF90CF90BF9027
:102EC000AF909F908F900895CF92DF92EF92FF92F4
:102ED0000F931F93DF93CF9300D000D0CDB7DEB711
:102EE0006B017C018FEF9FEFAFEFBFEF89839A8378
:102EF000AB83BC830091740210917502C8010996DE
:102F0000B701A6010E941F0A8BE090E1B80144E0DE
:102F10000E9471118BE090E1BE016F5F7F4F0E94B4
:102F20003E1189819A819093BF068093BE06C701A6
:102F3000B60121E030E040E050E00E94930A698150
:102F40007A818B819C810F900F900F900F90CF9181
:102F5000DF911F910F91FF90EF90DF90CF90089538
:102F60004F925F926F927F928F929F92AF92BF9299
:102F7000CF92DF92EF92FF920F931F93DF93CF9345
:102F800000D000D0CDB7DEB75B016C0139014A013A
:102F90008FEF9FEFAFEFBFEF89839A83AB83BC8343
:102FA0004090740250907502C2010996B601A501C5
:102FB0000E941F0AB401A3010E941F0AB801A701C1
:102FC0000E941F0A81E090E1B2014CE00E94711161
:102FD00081E090E1BE016F5F7F4F0E943E116981E9
:102FE0007A818B819C817093BF066093BE0620E03E
:102FF00030E040E050E00E94930A69817A818B8141
:103000009C810F900F900F900F90CF91DF911F91A7
:103010000F91FF90EF90DF90CF90BF90AF909F9077
:103020008F907F906F905F904F9008958F929F92B6
:10303000AF92BF92CF92DF92EF92FF920F931F93C6
:103040008C010E943A364B015C016801EE24D7FCEA
:10305000E094FE2C8091860290918702A0918802D4
:10306000B09189020097A105B105B1F08091860267
:1030700090918702A0918802B09189029C0190935F
:10308000BF068093BE0610928602109287021092AD
:103090008802109289022CC0C701B6010E94DF0A83
:1030A000611571058105910519F02FEF3FEF20C0E3
:1030B0000E943A36681979098A099B096153754754
:1030C0008040904018F02DEF3FEF12C080918A02AF
:1030D00090918B02892B09F4BDCF80918A02909147
:1030E0008B02019790938B0280938A0220E030E05C
:1030F000C9011F910F91FF90EF90DF90CF90BF908B
:10310000AF909F908F9008952F923F924F925F9231
:103110006F927F928F929F92AF92BF92CF92DF92E7
:10312000EF92FF920F931F93DF93CF93CDB7DEB74C
:103130006A970FB6F894DEBF0FBECDBF1B012C01FE
:103140005C8B4B8B38014901CD8ADE8AEF8AF88E81
:10315000BA8EA98ECFA4D8A8E9A8FAA8CB010E945C
:1031600016189C01009709F0CBC0809192029091B3
:103170009302A0919402B09195020196A11DB11DF8
:103180008093920290939302A0939402B09395023D
:1031900020917402309175023A8B298B8BA99CA9DE
:1031A000ADA9BEA981389105A105B105B9F0833853
:1031B0009105A105B105F1F4A4019301285F3F4FEA
:1031C0004F4F5F4F2D873E874F87588BA988BA880E
:1031D00042E250E0A40EB51E18E10CC0A988BA88DE
:1031E0008AE190E0A80EB91E1A8E198ECC24DD2437
:1031F000760110E189899A890A96B201A1010E949B
:103200001F0A012F10E004501040A80160E070E098
:103210000C5F1F4F0E941F0AB401A3010E941F0AE6
:103220004D895E896F89788D0E941F0A2BA93CA960
:103230004DA95EA9233831054105510561F44D853D
:103240005E856F8578890E941F0A48E050E060E043
:1032500070E00E941F0A20E030E040E050E00CC027
:10326000EB89FC89E20FF31F8081D5018D935D010D
:103270002F5F3F4F4F4F5F4F2615370548055905C4
:103280007CF32BA93CA94DA95EA923383105410542
:103290005105C1F420E030E040E050E00EC0F901FB
:1032A000D501A20FB31F898D9A8DE80FF91F808178
:1032B0008C932F5F3F4F4F4F5F4F2C153D054E05B1
:1032C0005F056CF38BA969897A89A8019301098D3F
:1032D0001A8D76010E944A11BE016F5F7F4F2BA9A4
:1032E0003CA94DA95EA9233831054105510519F4C2
:1032F0008FE090E102C083E090E10E943E119301D3
:10330000C9016A960FB6F894DEBF0FBECDBFCF914C
:10331000DF911F910F91FF90EF90DF90CF90BF90C2
:10332000AF909F908F907F906F905F904F903F9065
:103330002F9008958F929F92AF92BF92CF92DF927B
:10334000EF92FF920F931F93EDB7FEB738970FB62A
:10335000F894FEBF0FBEEDBF118212821382148259
:10336000B1E88B2E912CA12CB12C85829682A7825C
:10337000B086AA24BB240E9484182DB73EB7285FCC
:103380003F4F0FB6F8943EBF0FBE2DBF1F910F9158
:10339000FF90EF90DF90CF90BF90AF909F908F9075
:1033A0000895AF92BF92CF92DF92EF92FF920F9368
:1033B0001F93709377026093760250937902409343
:1033C000780230937B0220937A0210937F0200935D
:1033D0007E02F0928102E0928002D0928302C0923B
:1033E0008202B0928502A092840290937D02809323
:1033F0007C0281E080939A021F910F91FF90EF90E1
:10340000DF90CF90BF90AF9008950F931F93DF93FD
:10341000CF9300D000D0CDB7DEB7AB01BC01DB014C
:10342000CA0188709078A070B07088509048A04011
:10343000B040A9F410929A02483080E8580780E022
:10344000680780E0780729F420E030E040E050E0B1
:103450002AC0477F5F7760707070506803C081E05A
:1034600080939A028FEF9FEFAFEFBFEF89839A832C
:10347000AB83BC830091740210917502C801099658
:103480000E941F0A88E090E0B80144E00E94711198
:1034900088E090E0BE016F5F7F4F0E943E1129815E
:1034A0003A814B815C81B901CA010F900F900F9056
:1034B0000F90CF91DF911F910F9108952F923F921E
:1034C0004F925F926F927F928F929F92AF92BF9234
:1034D000CF92DF92EF92FF920F931F93DF93CF93E0
:1034E000CDB7DEB728970FB6F894DEBF0FBECDBFBD
:1034F0003B014C0119012A018DA58F839EA5988758
:1035000080917402909175029E838D83099644E2A6
:1035100050E060E070E00E941F0AB401A3010E9425
:103520001F0AB201A1010E941F0AB801A7010E944F
:103530001F0AB601A5010E941F0A4D8D5E8D6F8D79
:1035400078A10E941F0A49A15AA16BA17CA10E94E7
:103550001F0A4DA15EA16FA178A50E941F0A49A56F
:103560005AA56BA57CA50E941F0ADC018F81988556
:10357000FC019F01205C3F4F02C081918D93E217B7
:10358000F307D9F783E090E06D817E8144E60E94E5
:10359000711183E090E0BE016F5F7F4F0E943E118A
:1035A00069817A818B819C8128960FB6F894DEBF61
:1035B0000FBECDBFCF91DF911F910F91FF90EF9084
:1035C000DF90CF90BF90AF909F908F907F906F9043
:1035D0005F904F903F902F9008950F931F93DF932C
:1035E000CF9300D000D0CDB7DEB7AB01BC010091C6
:1035F000740210917502C80109960E941F0A8FEF8C
:103600009FEFAFEFBFEF89839A83AB83BC8386E0E4
:1036100090E0B80144E00E94711186E090E0BE01A4
:103620006F5F7F4F0E943E1169817A818B819C81FF
:103630000F900F900F900F90CF91DF911F910F91EE
:1036400008954F925F926F927F928F929F92AF9266
:10365000BF92CF92DF92EF92FF920F931F93DF936F
:10366000CF9300D000D0CDB7DEB75B016C0139013C
:103670004A018FEF9FEFAFEFBFEF89839A83AB8350
:10368000BC834090740250907502C2010996B60145
:10369000A5010E941F0AB401A3010E941F0AB801DC
:1036A000A7010E941F0A84E090E0B2014CE00E9452
:1036B000711184E090E0BE016F5F7F4F0E943E1168
:1036C00069817A818B819C810F900F900F900F9070
:1036D000CF91DF911F910F91FF90EF90DF90CF90EE
:1036E000BF90AF909F908F907F906F905F904F9022
:1036F00008952F923F924F925F926F927F928F9296
:103700009F92AF92BF92CF92DF92EF92FF920F9370
:103710001F93DF93CF93CDB7DEB760970FB6F894C2
:10372000DEBF0FBECDBF2B013C015C874B870D87F1
:103730001E872F87388B16018E010B5F1F4F86E087
:10374000D8011D928A95E9F78FEF9FEFAFEFBFEF9A
:1037500089839A83AB83BC83C0907402D090750236
:10376000C60109964CE150E060E070E00E941F0A3B
:103770004D855E856F8578890E941F0AB301A2017D
:103780000E941F0A4D855E856F857889405F5F4F77
:103790006F4F7F4F0E941F0AB501A4010E941F0AAC
:1037A00060E070E00E943B0ADC01E114F10481F06A
:1037B000AC0120E030E0F701E20FF31F8081FA0155
:1037C0008193AF012F5F3F4F26303105A1F70EC027
:1037D000B8019C01AE01455F5F4FFB018191BF01C4
:1037E000F90181939F0164177507B9F7BD016A5FFD
:1037F0007F4F20E030E040E050E00CC0EB85FC85DE
:10380000E20FF31F8081DB018D93BD012F5F3F4FDE
:103810004F4F5F4F8D859E85AF85B8892817390733
:103820004A075B075CF381149104A104B104C9F059
:1038300021143104B1F020E030E040E050E00CC051
:10384000F901DB01A20FB31FE20DF31D80818C9300
:103850002F5F3F4F4F4F5F4F281539054A055B05D6
:103860007CF34D85445E480D81E090E0B6010E94F6
:10387000711181E090E0BE016F5F7F4F0E943E11A9
:1038800069817A818B819C819B012093BE06309354
:10389000BF0660960FB6F894DEBF0FBECDBFCF91C6
:1038A000DF911F910F91FF90EF90DF90CF90BF902D
:1038B000AF909F908F907F906F905F904F903F90D0
:1038C0002F900895EF92FF920F931F93CF93DF9362
:1038D000EC011092920210929302109294021092B4
:1038E00095021092960210929702109298021092EE
:1038F000990210926F0210926E0210928B02109237
:103900008A0210928D0210928C0210928F021092F5
:103910008E021092910210929002109286021092E2
:1039200087021092880210928902109271021092FE
:103930007002109273021092720289E793E09093E2
:1039400075028093740284E09DE10E94A52CE091B1
:103950007E02F0917F0209957B018C01E091840247
:10396000F091850281E00995E114F104010511054A
:1039700059F0E0917E02F0917F0209956115710581
:1039800081059105B1F714C0E0917E02F0917F02AC
:1039900009956115710581059105B1F3E0917E02EC
:1039A000F0917F0209956115710581059105B1F7C7
:1039B000E0917402F0917502CD2B11F480E001C00A
:1039C00082E0818780E090E4BF0141E00E947111B4
:1039D00080E090E460E070E00E943E11609174022B
:1039E000709175028BE090E440E00E9471118BE0D1
:1039F00090E460E070E00E943E11DF91CF911F9152
:103A00000F91FF90EF90089521E030E03093710224
:103A10002093700290937302809372020E944A0D69
:103A20000895EF92FF920F93FC01108260939B0226
:103A300040939C0220939D028FEF80939E020093FF
:103A40009F021092D502F092D702E092D6020F9117
:103A5000FF90EF900895FC011382128288EE93E0AC
:103A6000A0E0B0E084839583A683B78388ED91E0DE
:103A700091838083E15BFF4F8FEF9FEFAFEFBFEF4D
:103A800080839183A283B3830895FC011382128201
:103A900088EE93E0A0E0B0E084839583A683B783AB
:103AA00088ED91E091838083E15BFF4F40835183F8
:103AB000628373831292129212920895FC01A08184
:103AC000B18154962D913C915597F9010995811139
:103AD00081E0089508950F9388ED92E060E040E062
:103AE00020E000E00E942E330F910895CF92DF92E4
:103AF000EF92FF920F931F93DB01FC01E15BFF4FFD
:103B000060817181828193818A0120E030E0AD0182
:103B1000CC24DD2476010E94BC151F910F91FF90EB
:103B2000EF90DF90CF9008958F929F92AF92BF92C7
:103B3000CF92DF92EF92FF920F931F93DF93CF9379
:103B4000CDB7DEB72C970FB6F894DEBF0FBECDBF52
:103B5000FC01E15BFF4F80819181A281B381EF5431
:103B6000F040B7FF03C020E030E082C0E35BFF4FCE
:103B700020813181ED54F0401216130664F4E45BA9
:103B8000FF4F8081EC54F04090E0821793071CF4C3
:103B9000281B390B6DC019821A821B821C82E15BC3
:103BA000FF4FC080D180E280F380C701B60120E2E0
:103BB00030E040E050E00E941738922E832E022F12
:103BC000132F000F111F000F111F5E010894A11C7D
:103BD000B11C0A0D1B1DC701B60120E230E040E018
:103BE00050E00E94173821E030E040E050E004C08F
:103BF000220F331F441F551F6A95D2F7E92DF82D68
:103C0000EE0FFF1FEE0FFF1FEA0DFB1D808191815C
:103C1000A281B381282B392B4A2B5B2BF8012083FF
:103C20003183428353831D821E821F82188688E857
:103C300093E1A0E0B0E089879A87AB87BC870894BE
:103C4000C11CD11CE11CF11CC701B601A50120E07B
:103C500030E000E010E0E5E0EE2EF12CEC0EFD1E71
:103C60000E94E91520E030E0019711F421E030E0F6
:103C7000C9012C960FB6F894DEBF0FBECDBFCF9111
:103C8000DF911F910F91FF90EF90DF90CF90BF9049
:103C9000AF909F908F9008950F931F938C01015BBD
:103CA0001F4FF80160817181828193810E946417A6
:103CB0002FEF3FEF4FEF5FEFF80120833183428317
:103CC00053831F910F9108954F925F926F927F924D
:103CD0008F929F92AF92BF92CF92DF92EF92FF921C
:103CE0000F931F93CF93DF93EC019CE0492E512C4F
:103CF0004C0E5D1E8DE4882E912C8C0E9D1E0CE4C6
:103D0000A02EB12CAC0EBD1E1FE4612E712C6C0ECA
:103D10007D1E1FC00E940A2BF30160817181828188
:103D20009381A20100E410E020E030E0CC24DD2407
:103D300076010E94BC15F40191838083875C9F4FBC
:103D400031F4CE010E944C1E20E030E014C0F50199
:103D50001082F4012081318112161306DCF6F50180
:103D60008081E82FF0E02E173F07A1F2EC0FFD1F36
:103D70008485282F30E0C901DF91CF911F910F91E9
:103D8000FF90EF90DF90CF90BF90AF909F908F907B
:103D90007F906F905F904F9008954F925F926F92D7
:103DA0007F928F929F92AF92BF92CF92DF92EF92CB
:103DB000FF920F931F93CF93DF93EC015CE0452EAE
:103DC000512C480E591E4DE4842E912C880E991EBC
:103DD0003CE4A32EB12CA80EB91E2FE4622E712C48
:103DE000680E791E1FC00E940A2BF3016081718149
:103DF00082819381A20100E410E020E030E0CC2435
:103E0000DD2476010E94BC15F40191838083875CD8
:103E10009F4F31F4CE010E944C1E20E030E017C0CD
:103E2000F5011082F4018081918118161906DCF6E3
:103E3000F5012081E22FF0E08E179F07A1F2EC0F31
:103E4000FD1F84852F5FF5012083282F30E0C901F5
:103E5000DF91CF911F910F91FF90EF90DF90CF9066
:103E6000BF90AF909F908F907F906F905F904F909A
:103E700008950E944C1E08950F931F93CF93DF93D4
:103E8000EC018C01015B1F4FF80180819181A281BF
:103E9000B381B7FD27C0E881F9810480F581E02D69
:103EA000CE010995892B01F5D8012D913D914D91B8
:103EB0005C91F901EB54FD4F80818130A9F4CA0176
:103EC000B9010E946417D801ED91FC91EB54FD4FAC
:103ED00010828FEF9FEFAFEFBFEFF80180839183E8
:103EE000A283B38380E001C081E0DF91CF911F9175
:103EF0000F9108952F923F924F925F926F927F920F
:103F00008F929F92AF92BF92CF92DF92EF92FF92E9
:103F10000F931F93DF93CF93CDB7DEB7A0970FB664
:103F2000F894DEBF0FBECDBF3C014B0100E0AA24D8
:103F3000BB241E010894211C311C6FE4462E512C19
:103F4000460C571CF4010894811C911C8491882311
:103F5000D1F0F101E00FF11D80830F5F003290F38B
:103F6000F2016081718182819381A10100E210E000
:103F700020E030E0CC24DD2476010E949A19A80EBE
:103F8000B91E00E0DFCF0023B1F08FE490E0680EAF
:103F9000791EF301608171818281938110E020E0BC
:103FA00030E0AE014F5F5F4FCC24DD2476010E94EC
:103FB0009A19A80EB91EC501A0960FB6F894DEBFD7
:103FC0000FBECDBFCF91DF911F910F91FF90EF906A
:103FD000DF90CF90BF90AF909F908F907F906F9029
:103FE0005F904F903F902F900895EF92FF920F9324
:103FF0001F938C010E947A1F7C01C8016BE670E060
:104000000E947A1F9C012E0D3F1DC9011F910F9127
:10401000FF90EF900895CF92DF92EF92FF920F936F
:104020001F93DF93CF930F92CDB7DEB76983FC0167
:10403000E15BFF4F6081718182819381AE014F5FAF
:104040005F4F01E010E020E030E0CC24DD24760179
:104050000E949A199C01442737FD4095542F57FF21
:1040600002C020E030E0C9010F90CF91DF911F9195
:104070000F91FF90EF90DF90CF900895CF92DF9255
:10408000EF92FF920F931F93CF93DF93EC01AB015D
:10409000DB010D900020E9F71197A61BB70B19F46F
:1040A00020E030E00FC0C15BDF4F688179818A81F9
:1040B0009B818D0120E030E0CC24DD2476010E943C
:1040C0009A199C01C901DF91CF911F910F91FF9027
:1040D000EF90DF90CF900895CF92DF92EF92FF9212
:1040E0000F931F93DB01FC01E15BFF4F6081718146
:1040F000828193818A0120E030E0AD01CC24DD246F
:1041000076010E949A191F910F91FF90EF90DF9016
:10411000CF9008956F927F928F929F92AF92BF92AD
:10412000CF92DF92EF92FF920F931F93DF93CF9383
:10413000CDB7DEB760970FB6F894DEBF0FBECDBF28
:104140005C014B013A018DE490E0A80EB91ED50147
:104150001D921C92F50112925F0184EB9FEFA80E55
:10416000B91E62E070E080E090E021E030E040E0E5
:1041700050E0E6E0EE2EF12C012D112D0E94B0173B
:104180006B017C019FEFC9169FEFD9069FEFE906EF
:104190009FEFF906C9F1F601EB54FD4F10828E0135
:1041A0000F5F1F4F80E1D8011D928A95E9F782E0E9
:1041B00090E09A8389837B826C82F401828193816F
:1041C000A481B5812B2F3327442755272D839D01AB
:1041D000442755272E83892F9A2FAB2FBB278F83F8
:1041E00082818887C701B601A80100E110E020E0C4
:1041F00030E00E94CB136F5F7F4F8F4F9F4F39F49A
:10420000C701B6010E94641720E030E00CC08FE4C3
:1042100090E0A80EB91ED501CD92DD92ED92FC92F0
:10422000139721E030E0C90160960FB6F894DEBF25
:104230000FBECDBFCF91DF911F910F91FF90EF90F7
:10424000DF90CF90BF90AF909F908F907F906F90B6
:104250000895DF93CF9300D000D0CDB7DEB7809123
:10426000D50282FF09C083E091E069E070E0AE0111
:104270004F5F5F4F0E9428148091D50290E0969581
:1042800087959695879581700F900F900F900F905E
:10429000CF91DF910895AF92BF92CF92DF92EF92CC
:1042A000FF920F931F93DF93CF93CDB7DEB72A977B
:1042B0000FB6F894DEBF0FBECDBF6C01CB015A0123
:1042C00019821A821B821C82DB010D900020E9F703
:1042D0001197A61BB70BBD01AE014F5F5F4F0E9448
:1042E000281449815A816B817C81411551056105F2
:1042F0007105A1F0892B91F0D601ED91FC91E48438
:10430000F5848E010B5F1F4FC8010E948B33C601DD
:10431000B801A501F70109959C0102C020E030E039
:10432000C9012A960FB6F894DEBF0FBECDBFCF915C
:10433000DF911F910F91FF90EF90DF90CF90BF9092
:10434000AF900895CF93DF93FC019B01E15BFF4F9A
:10435000215B3F4FE90188819981AA81BB818083DC
:104360009183A283B383D9019E918E91929382937C
:10437000ED018A918293E054F040DE01A054B040F8
:1043800080E40D9001928150E1F7DF91CF91089583
:10439000EF92FF920F931F937B018C01FA01422F42
:1043A00080E8E81680E8F80680E0080780E0180753
:1043B00031F48091D50281608093D5022BC081E0D9
:1043C000E81680E8F80680E0080780E0180731F476
:1043D0008091D50282608093D50228C082E0E816E1
:1043E00080E8F80680E0080780E0180731F4809143
:1043F000D502897F8093D5022FC080E1E81680E83E
:10440000F80680E0080780E0180721F48091D502C3
:10441000846009C089E9E816F1040105110531F449
:104420008091D50288608093D50228C080E4E81688
:1044300080E8F80680E0080780E0180769F48091BA
:10444000A0028F5F8093A00221EA32E0C901BF0180
:1044500050E00E94DF0312C080E0E81688E8F8060A
:1044600080E0080780E0180749F44081403230F4CA
:10447000E42FF0E0EB54FD4F81E080831F910F911A
:10448000FF90EF9008958F929F92AF92BF92CF923C
:10449000DF92EF92FF920F931F93DF93CF93CDB7ED
:1044A000DEB7EA970FB6F894DEBF0FBECDBFFC01B2
:1044B0006B015A01490180818823F1F18091D50275
:1044C00081FF3AC08091D50282FF36C0CE010196AD
:1044D0000E942C128C81882379F189819A81AB8189
:1044E000BC81F60180839183A283B3838D819E81F9
:1044F000AF81B885F50180839183A283B3838985D9
:104500009A85AB85BC85F40180839183A283B383B4
:104510008D859E85AF85B889F80180839183A283BC
:10452000B38389899A89AB89BC89F7018083918398
:10453000A283B38381E001C080E0EA960FB6F894CD
:10454000DEBF0FBECDBFCF91DF911F910F91FF90C6
:10455000EF90DF90CF90BF90AF909F908F90089595
:104560002F923F924F925F926F927F928F929F9283
:10457000AF92BF92CF92DF92EF92FF920F931F9371
:10458000FC01D62EC72E342E252E8081882309F4D7
:1045900066C02801390184E04816510461047104A1
:1045A00008F05DC0A62FB72FFD0101900020E9F7AC
:1045B0003197EA1BFB0BB19708F051C0A42FB52F20
:1045C000FD0101900020E9F73197EA1BFB0BB19741
:1045D00008F045C060E070E080E090E020E030E06E
:1045E00040E050E0EE24FF2487010E94211B61156A
:1045F00071058105910599F564EF71E080E090E027
:104600000E944836ED2DFC2DDF010D900020E9F7CA
:104610008D01015010400E1B1F0BE32DF22DDF0109
:104620000D900020E9F74D010894810891088E1A39
:104630009F0A20E030E0AA24BB24C301B2014D2D23
:104640005C2DEE24FF24C32CD22C0E94791B20E089
:10465000611571058105910519F421E001C020E083
:10466000822F1F910F91FF90EF90DF90CF90BF901E
:10467000AF909F908F907F906F905F904F903F9002
:104680002F9008958F929F92AF92BF92CF92DF9218
:10469000EF92FF920F931F93FC01D62EC72E8081BD
:1046A0008823E1F160E070E080E090E020E030E01D
:1046B00040E050E0EE24FF2487010E94211B611599
:1046C00071058105910551F564EF71E080E090E09E
:1046D0000E944836ED2DFC2DDF010D900020E9F7FA
:1046E0008D01015010400E1B1F0B20E030E060E0F8
:1046F00070E080E090E04D2D5C2DEE24FF24CC2472
:10470000DD248824992454010E94791B20E061153E
:1047100071058105910519F421E001C020E0822F87
:104720001F910F91FF90EF90DF90CF90BF90AF90CF
:104730009F908F900895EF92FF920F931F937A01AD
:104740008B018091D6029091D702009709F440C066
:10475000272F332744275527622F4AE050E00E9435
:10476000B9348091D6029091D7026EE20E94EE3366
:104770009801442755278091D6029091D702622F45
:104780004AE050E00E94B9348091D6029091D7025D
:104790006EE20E94EE335527412F302F2F2D80914E
:1047A000D6029091D702622F4AE050E00E94B934BD
:1047B0008091D6029091D7026EE20E94EE338091F2
:1047C000D6029091D7026E2D4AE050E00E94B93493
:1047D0001F910F91FF90EF9008956F927F928F92AB
:1047E0009F92AF92BF92CF92DF92EF92FF920F9380
:1047F0001F93CF93DF93EC01962E842E722E632E9F
:104800008881882309F091C090919C0280919E023A
:10481000923011F480E003C0933009F481E080937A
:104820009E028F3F09F483C00E945C2C88EC91E2C9
:1048300062E679E242E559E22AE539E20AE619E25E
:10484000B8ECEB2EB9E2FB2EA2E8CA2EA9E2DA2ED2
:10485000F6E7AF2EF9E2BF2E0E94D119892D90E024
:104860000E94621C8820A1F460E070E080E090E08B
:1048700020E030E040E050E0EE24FF2487010E9479
:10488000211B6FEF70E080E090E00E94ED1A0FC0F6
:1048900060E070E080E090E020E030E040E050E058
:1048A000E1E0EE2EF12C012D112D0E94211B64E080
:1048B00072E880E090E00E94051A6115710581059B
:1048C0009105A9F581E08883882079F100E010E066
:1048D0000EC00E940A2B0F5F1F4F83E00A3E18078D
:1048E00031F16AE070E080E090E00E94483680910B
:1048F000D50281FFEECF68EE73E080E090E00E9489
:1049000048368091D50282FF10C0E72DF62DDF01D9
:104910000D900020E9F71197AE1BBF0B81E090E0EE
:10492000672D762DAD010E94EA1281E001C080E082
:10493000DF91CF911F910F91FF90EF90DF90CF907B
:10494000BF90AF909F908F907F906F900895AF929F
:10495000BF92CF92DF92EF92FF920F931F93CF936C
:10496000DF93FC018081882311F420E04FC08DB7D4
:104970009EB742970FB6F8949EBF0FBE8DBFEDB79E
:10498000FEB731968FEF9FE1A0E0B0E0CDB7DEB784
:1049900089839A83AB83BC8388E89FEFAFEFBFEF37
:1049A00084839583A683B783108611861286138627
:1049B0008CE291E0A0E0B0E084879587A687B78776
:1049C00080EF91E0918B808BCB01BA0124E130E044
:1049D00040E050E0F4E6EF2EF12C012D112DE5E042
:1049E000AE2EB12CC12CD12C0E945E1A20E04DB706
:1049F0005EB74E5E5F4F0FB6F8945EBF0FBE4DBF01
:104A0000611571058105910509F421E0822FDF917F
:104A1000CF911F910F91FF90EF90DF90CF90BF90BB
:104A2000AF9008955F926F927F928F929F92AF9214
:104A3000BF92CF92DF92EF92FF920F931F93CF938B
:104A4000DF93EC013B014A01522EA02E888188237E
:104A500009F452C0B02EC22EDD24EE24FF24AA2079
:104A600051F0BB2039F48091D50290E0969587955E
:104A7000817042C0BA940E940A2BCE0140EA5FE0E6
:104A800060E070E00E94A72464E971E180E090E0BA
:104A90000E944836CE0140E050E060E070E00E94A5
:104AA000A724552021F0F4018081882349F4CE0108
:104AB000B3010E9442238823D1F000E117E208C02D
:104AC000CE01B301A401970186010E94B022F3CF69
:104AD0008091D50281FD0BC00E940A2B6AE070E034
:104AE00080E090E00E9448360A50104089F780919B
:104AF000D50281FFB4CF81E0DF91CF911F910F915B
:104B0000FF90EF90DF90CF90BF90AF909F908F90ED
:104B10007F906F905F900895FC01A081B1815496C1
:104B20002D913C915597F9010995811181E00895E6
:104B30000F931F93DF93CF9300D000D000D0CDB759
:104B4000DEB7DB01FC01248535852115310519F41B
:104B500020E030E01BC0F90180819181FC010485D7
:104B600015858AE692E09A83898312968D919D91AC
:104B70000D90BC91A02D8B839C83AD83BE83C90116
:104B8000BE016F5F7F4FF80109959C01C901269610
:104B90000FB6F894DEBF0FBECDBFCF91DF911F914E
:104BA0000F910895FC01A485B585109719F420E0B4
:104BB00030E009C0ED91FC9111970684F785E02D56
:104BC000CD0109959C01C9010895FC01A485B58515
:104BD000109711F480E00895ED91FC9111970488ED
:104BE000F589E02DCD0109950895FC01A485B585D1
:104BF000109719F420E030E009C0ED91FC91119775
:104C00000190F081E02DCD0109959C01C901089525
:104C1000FC01A485B585109719F420E030E009C0A7
:104C2000ED91FC9111970680F781E02DCD0109955A
:104C30009C01C9010895FC01A485B585109719F45C
:104C400020E030E009C0ED91FC9111970480F581DE
:104C5000E02DCD0109959C01C9010895FC01A485B1
:104C6000B585109719F420E030E009C0ED91FC9172
:104C700011970088F189E02DCD0109959C01C901AA
:104C80000895FC01A485B585109719F420E030E063
:104C900009C0ED91FC9111970280F381E02DCD01C7
:104CA00009959C01C9010895FC01A485B58510975B
:104CB00019F420E030E009C0ED91FC9111970084D7
:104CC000F185E02DCD0109959C01C9010895FC01F4
:104CD000A485B585109741F0ED91FC911197028460
:104CE000F385E02DCD0109950895FC01A485B585D6
:104CF000109741F0ED91FC9111970288F389E02D16
:104D0000CD0109950895CF93DF939C01CEE3D2E0C6
:104D10004F3FB9F0FC011382128288EE93E0A0E0CD
:104D2000B0E084839583A683B783D183C08383E572
:104D30004802C00111240496860F971F9587848727
:104D40000FC0FC011382128288EE93E0A0E0B0E075
:104D500084839583A683B783D183C0831586148605
:104D6000C901DF91CF9108954F925F926F927F9228
:104D70008F929F92AF92BF92CF92DF92EF92FF926B
:104D80000F931F93CF93DF935C013B014A017C019A
:104D9000CC24DD2400E010E083E5482E512C049D56
:104DA000E001059DD00D149DD00D11242496CA0D4F
:104DB000DB1DD7011496ED91FC9115970488F589B8
:104DC000E02DCE010995882371F0D7011496ED915D
:104DD000FC9115970280F381E02DCE01B301A4016F
:104DE0000995C80ED91E0F5F1F4F83E590E0E80EAE
:104DF000F91E0330110599F6C601DF91CF911F917D
:104E00000F91FF90EF90DF90CF90BF90AF909F9069
:104E10008F907F906F905F904F900895DF93CF9326
:104E20000F92CDB7DEB7FC016983A081B1811296E4
:104E30002D913C911397BE016F5F7F4F41E050E091
:104E4000F90109950F90CF91DF9108950F938EEDA1
:104E500092E060E040E020E000E00E942E330F91FD
:104E600008952F923F924F925F927F928F929F92DE
:104E7000AF92BF92CF92DF92EF92FF920F931F9368
:104E8000DF93CF93CDB7DEB7C355D0400FB6F894BC
:104E9000DEBF0FBECDBF5C016C017724EE24FF2482
:104EA00023E5222E312C9FEF892E912C8A0C9B1CFE
:104EB0002E010894411C511CE29C8001E39C100DC2
:104EC000F29C100D11240C5F1F4F0A0D1B1DD60103
:104ED0001496ED91FC9115970488F589E02DC80191
:104EE00009958823F1F40E940A2BF40160817181F5
:104EF0008281938140E050E020E030E00E94E9169A
:104F0000CB0177FD0EC0AC01662757FD6095762F6B
:104F1000C2010E94451DC801B2010E94A22177244E
:104F200073940894E11CF11C83E590E0C80ED91E2F
:104F300093E0E916F10409F0BFCF872DCD5ADF4F7A
:104F40000FB6F894DEBF0FBECDBFCF91DF911F919A
:104F50000F91FF90EF90DF90CF90BF90AF909F9018
:104F60008F907F905F904F903F902F900895AF92D9
:104F7000BF92CF92DF92EF92FF920F931F93CF9346
:104F8000DF936C01EB010E943127209709F08883A1
:104F9000760100E010E033E5A32EB12C0A9DE0017C
:104FA0000B9DD00D1A9DD00D11242496CC0DDD1D26
:104FB000D7011496ED91FC9115970488F589E02DA1
:104FC000CE0109958823C9F0D7011496ED91FC9183
:104FD00015970480F581E02DCE0109951816190664
:104FE00064F4802FDF91CF911F910F91FF90EF908C
:104FF000DF90CF90BF90AF9008950F5F1F4F83E574
:1050000090E0E80EF91E0330110541F68FEFEACF6C
:10501000EF92FF920F931F93F82EE92E8B01CB0195
:1050200060E070E00E94B727482F8F2D9E2DB801B9
:105030000E9483268F2D9E2D1F910F91FF90EF9040
:1050400008952F923F924F925F926F927F928F922C
:105050009F92AF92BF92CF92DF92EF92FF920F9307
:105060001F93DF93CF93CDB7DEB7A1970FB6F89418
:10507000DEBF0FBECDBF1C0180E498E3A0E0B0E02E
:105080008A839B83AC83BD8380E19EE0A0E0B0E097
:105090008E839F83A887B9878EE190E0A0E0B0E07F
:1050A0008A879B87AC87BD871E861F86188A198AC8
:1050B0000E940A2BCE010296BE016A5F7F4FAE01AD
:1050C000465F5F4F9E01225F3F4F0E944012611575
:1050D00071058105910509F067C00E940A2B62E005
:1050E00070E080E090E021E030E040E050E0A6E0B9
:1050F000EA2EF12C012D112D0E94B0178B0177FDA6
:1051000053C00E940A2B19822801662457FC609420
:10511000762CC301B2012FEF3FEF40E050E0F2E008
:10512000EF2EF12C012D112D6E010894C11CD11C04
:10513000E1E08E2E912CA12CB12C0E943F1397FD03
:1051400033C082E090E09B8B8A8B1E8A1F8A188E68
:10515000198EF101E350FF4F908181818C8B9D8BE3
:105160000E940A2BC301B201AE014E5E5F4F00E107
:1051700010E020E030E00E94E81497FD15C00E9486
:105180000A2BC301B20120E030E040E050E00E9471
:10519000971497FD09C08FEF90E0280E391EF1019A
:1051A0004082518262827382A1960FB6F894DEBF6C
:1051B0000FBECDBFCF91DF911F910F91FF90EF9068
:1051C000DF90CF90BF90AF909F908F907F906F9027
:1051D0005F904F903F902F900895EF92FF920F9322
:1051E0001F938C017B01FC011382128284E392E005
:1051F00091838083C80104960E942B1DC801895A9F
:105200009F4F0E942B1DC80186559F4F0E942B1D4A
:1052100003501F4FF801E192F1928FEF9FEFAFEF34
:10522000BFEF80839183A283B3831F910F91FF907F
:10523000EF900895FC0184859585009729F420E07E
:1052400030E040E050E004C00E944C1E9B01AC01E5
:10525000B901CA010895FC0184859585009719F468
:1052600020E030E003C00E94F51F9C01C9010895B1
:10527000FC0184859585009719F420E030E003C097
:105280000E947A1F9C01C9010895FC0184859585BF
:10529000009719F420E030E003C00E943E209C01FA
:1052A000C9010895FC01108211821282138280E0EC
:1052B00090E00895FC01108211821282138280E036
:1052C00090E00895FC01108211821282138280E026
:1052D00090E0089580919C020E946F379C014427C2
:1052E00037FD4095542FB901CA010895882321F054
:1052F00080919D0261E003C080919D0260E00E9468
:105300001B3708951092FD0380919E020E9476350E
:1053100008951092FD0380919E020E9476350895B3
:10532000CF93DF930E94892980919B0261E00E94C4
:105330001B378091E7028CBD8091E602882319F02B
:105340008DB5816002C08DB58E7F8DBDC091F40298
:10535000D091F502CE57DF4F8881C258D0408E3DA4
:1053600009F0FFCF82E090E0A0E0B0E08093EE0291
:105370009093EF02A093F002B093F102E091E80263
:10538000F091E902CE0105960995DF91CF9108953C
:1053900081E08093FD0380919E0265E77AE242E01E
:1053A00050E00E945335089581E08093FD03809181
:1053B0009E0265E77AE242E050E00E94533508958C
:1053C0000F931F93CF93DF938C01EB0184E00E9436
:1053D000F20920E030E093E00BC09EBD0DB407FE63
:1053E000FDCF8EB5F801E20FF31F80832F5F3F4F93
:1053F0002C173D0790F3DF91CF911F910F910895E6
:10540000EF92FF920F931F93CF93DF93C091F4021B
:10541000D091F5028D81823021F0843009F047C0AF
:105420001BC0CE01059663E070E00E94430A9C0118
:1054300040E050E080FD05C02F5F3F4F4F4F5F4F72
:1054400005C0211531054105510589F1CE010A96A6
:10545000B9010E94E0292BC08885282F30E040E068
:1054600050E079018A010894E108F1080109110965
:10547000DA01C9010996A11DB11D80FF02C07901A1
:105480008A01E114F1040105110529F0CE010A9603
:10549000B7010E94E02988E090E0A0E0B0E08093AE
:1054A000EE029093EF02A093F002B093F10260E05D
:1054B00070E080E090E0DF91CF911F910F91FF901D
:1054C000EF9008950E94002A6115710581059105EC
:1054D00011F40E94902908958091F4029091F502B0
:1054E0006AE070E00E94E029089581E08093FC0367
:1054F0008091EE029091EF02A091F002B091F10242
:105500000097A105B10569F481E090E0A0E0B0E06A
:105510008093EE029093EF02A093F002B093F10219
:1055200076C082309105A105B105B1F586E090E025
:10553000A0E0B0E08093EE029093EF02A093F0021F
:10554000B093F10280919B0260E00E941B378CB502
:105550008093E7028DB581708093E6028091E4022A
:105560008CBD8091E502882319F08DB5816002C061
:105570008DB58E7F8DBD0E946C2A88E090E0A0E002
:10558000B0E08093EE029093EF02A093F002B0930C
:10559000F1020E94622A3BC00397A105B105B9F54B
:1055A0006091F2027091F3024091EA025091EB0295
:1055B00020E030E00BC0FB01E20FF31F80818EBDC5
:1055C0000DB407FEFDCF8EB52F5F3F4F2417350773
:1055D00090F382E090E0A0E0B0E08093EE02909340
:1055E000EF02A093F002B093F10280919B0261E080
:1055F0000E941B378091E7028CBD8091E6028823D0
:1056000019F08DB5816002C08DB58E7F8DBD109271
:10561000FC03089580919C020E946F37892B51F4FE
:105620008091FC03882331F48091FD03882311F0DD
:105630000E94752A08950F931F93CF93DF93EC0177
:105640008B0180919B0260E00E941B378CB5809398
:10565000E7028DB581708093E6028091E4028CBDF3
:105660008091E502882319F08DB5816002C08DB567
:105670008E7F8DBD61E070E080E090E00E94483652
:1056800020E030E0FE01E20FF31F80818EBD0DB4FB
:1056900007FEFDCF8EB52F5F3F4F2430310591F7C8
:1056A00061E070E080E090E00E944836B80164500C
:1056B0007040FE0120E030E009C084818EBD0DB451
:1056C00007FEFDCF8EB52F5F3F4F31962617370768
:1056D000A0F382E090E0A0E0B0E08093EE0290932F
:1056E000EF02A093F002B093F10280919B0261E07F
:1056F0000E941B378091E7028CBD8091E6028823CF
:1057000019F08DB5816002C08DB58E7F8DBD60E0D2
:1057100070E080E090E0DF91CF911F910F910895AC
:105720000F931F93CF93DF93EC0190E060FF91E024
:1057300081E088839B01290F311D3983960F9A835D
:105740001B821C828091FB038E3D09F0FFCF80916C
:10575000EE029091EF02A091F002B091F102009759
:10576000A105B10509F4FFCF89010B5F1F4F019718
:10577000A105B10529F4CE01B8010E941B2B85C0FB
:10578000E0918202F091830209958091EE0290915E
:10579000EF02A091F002B091F1020297A105B105CC
:1057A00009F089C083E090E0A0E0B0E08093EE02D1
:1057B0009093EF02A093F002B093F102D093F30222
:1057C000C093F2021093EB020093EA0280919B02D5
:1057D00060E00E941B378CB58093E7028DB5817025
:1057E0008093E6028091E4028CBD8091E5028823DB
:1057F00019F08DB5816002C08DB58E7F8DBDE091B1
:105800008002F09181020995E0917E02F0917F0281
:1058100009956115710581059105B9F56091F2024F
:105820007091F3024091EA025091EB0220E030E0E7
:105830000BC0FB01E20FF31F80818EBD0DB407FE8C
:10584000FDCF8EB52F5F3F4F2417350790F382E0D1
:1058500090E0A0E0B0E08093EE029093EF02A0937E
:10586000F002B093F10280919B0261E00E941B372D
:105870008091E7028CBD8091E602882319F08DB5F6
:10588000816002C08DB58E7F8DBD8091EE029091BA
:10589000EF02A091F002B091F1020297A105B105CB
:1058A00049F460E070E080E090E0DF91CF911F91DB
:1058B0000F910895FFCFFFCF80919D0261E00E947C
:1058C000DC3680919D0260E00E941B3764EF71E03E
:1058D00080E090E00E94483680919B0261E00E9447
:1058E000DC3680919C0262E00E94DC368CB58093AD
:1058F000E7028DB581708093E6020E94080A84E079
:105900000E94F20981E00E94E90980919F020E94B1
:10591000F7098CB58093E4028DB581708093E50220
:1059200080919B0261E00E941B378091E7028CBD51
:105930008091E602882319F08DB5816002C08DB593
:105940008E7F8DBD80E090E00895CF93DF9310921D
:10595000EE021092EF021092F0021092F102A6EF06
:10596000B2E023E8ED01E22F1992EA95E9F7E9E7C1
:10597000F3E0EF0119922A95E9F79093E9028093F9
:10598000E8021092EB021092EA021092F3021092D7
:10599000F202B093F502A093F4021092ED0210927D
:1059A000EC028EED809378038093FB03E0918002FC
:1059B000F09181020995DF91CF910895EF92FF92C6
:1059C0000F9387EF95E060E040E020E000E00E9468
:1059D0002E338EEF93E06AE043E025E004E035E803
:1059E000E32E36E0F32E0E94111D8FEF93E060E569
:1059F00070E00E94ED280F91FF90EF900895EF92D4
:105A0000FF920F931F93DF93CF93CDB7DEB76497C9
:105A10000FB6F894DEBF0FBECDBF8EEF93E0BE0190
:105A20006F5F7F4FAE014B5F5F4F9E01275F3F4F20
:105A30008E01035F1F4FE1E1EE2EF12CEC0EFD1EF7
:105A40000E944322882341F485E896E064EE70E0EA
:105A50000E94163480E04BC085E896E069ED70E066
:105A60000E94CB3349815A816B817C818EEF93E018
:105A70000E949B2385E896E06EEC70E00E94CB3399
:105A80004D815E816F8178858EEF93E00E949B232C
:105A900085E896E063EC70E00E94CB3349855A8537
:105AA0006B857C858EEF93E00E949B2385E896E0D2
:105AB00068EB70E00E94CB334D855E856F857889F9
:105AC0008EEF93E00E949B2385E896E06DEA70E0FC
:105AD0000E94CB3349895A896B897C898EEF93E088
