:100000000C94C9010C948E2E0C94BB2E0C94F1010F
:100010000C94F1010C94F1010C94F1010C94F10198
:100020000C94F1010C94F1010C94F1010C94F10188
:100030000C94F1010C94F1010C94F1010C94F10178
:100040000C9438300C94F1010C94DA290C94212A88
:100050000C94F1010C94F1010C94F1010C94F10158
:100060000C94F1010C94F1010D0A000D0A0030000E
:100070003078000A444E53736572763A20000A4481
:100080004843507372763A20000A4761746577617D
:10009000793A20000A4E65746D61736B3A20000A4C
:1000A000495020416464723A2000556E61626C656B
:1000B00020746F2072657472696576652074686556
:1000C0002049502041646472657373210D0A004316
:1000D0006C69656E7420646973636F6E6E656374BA
:1000E00065640000485454502F312E31203430358F
:1000F000204D6574686F64204E6F7420416C6C6F86
:10010000776564005D003E3E3E434D442056414CC1
:100110003D5B003E3E3E504154483A003C2F6874DF
:100120006D6C3E00596F7520616363657373656420
:1001300020706174683A2000506174683A20004170
:100140006374696F6E3A200050726F6365737369F0
:100150006E67207265717565737400436C69656EB6
:100160007420636F6E6E65637465642E004C6973F2
:1001700074656E696E6720666F7220636F6E6E6560
:100180006374696F6E732E2E2E007468657265201D
:1001900069736E277420616E206F6276696F757364
:1001A000206D6F6D656E7420746F20646973636F6A
:1001B0006E6E656374207769746820612073657260
:1001C0007665722E0D0A0074696D656F7574207006
:1001D0006572696F64207061737365732E2020549B
:1001E000686973206973206E6F726D616C2062653F
:1001F000686176696F75722073696E63650041503E
:10020000206D61792072656675736520636F6E6E0F
:10021000656374696F6E20726571756573747320A0
:1002200066726F6D20746865204343333030302030
:10023000756E74696C20610073696E636520746803
:1002400065202E646973636F6E6E65637428292060
:1002500066756E6374696F6E206973206E6576656E
:10026000722063616C6C65642C20736F2074686508
:10027000000D0A4E4F54453A205468697320736B41
:1002800065746368206D61792063617573652070A2
:10029000726F626C656D732077697468206F746823
:1002A000657220736B657463686573005265717560
:1002B000657374204448435000436F6E6E656374E9
:1002C000656421004661696C656421000A417474AB
:1002D000656D7074696E6720746F20636F6E6E65F4
:1002E000637420746F2000436F756C646E277420F4
:1002F000626567696E28292120436865636B2079F0
:100300006F757220776972696E673F000A496E697E
:100310007469616C697A696E672E2E2E0048656C6F
:100320006C6F2C20434333303030210A0000000032
:1003300000240027002A0000000000250028002BD0
:100340000000000000230026002900040404040427
:100350000404040202020202020303030303030172
:100360000204081020408001020408102001020449
:10037000081020000000070002010000030406002E
:10038000000000000000000075158A1F4F25872B14
:10039000E32B11241FBECFEFD8E0DEBFCDBF13E0AB
:1003A000A0E0B1E0E4E1F8E602C005900D92A833C8
:1003B000B107D9F717E0A8E3B3E001C01D92A1345B
:1003C000B107E1F713E0C2E9D3E004C02297FE01D0
:1003D0000E945B33C838D107C9F70E9429300C94BA
:1003E00008340C940000882319F48CB5806202C094
:1003F0008CB58F7D8CBD08959CB5937F982B9CBD4B
:1004000008952CB5382F33702C7F322B3CBD2DB581
:1004100090E0959587959595879581702E7F822B95
:100420008DBD08958AE061E00E9461318AE061E05B
:100430000E9422318CB580618CBD8CB580648CBDEE
:100440008DE061E00E9422318BE061E00E94223168
:100450000895CF93DF93FC01DC014D939D01BB27F1
:10046000A72F962F852F8183F9013196CB01AA27DB
:10047000BB27E9018983472F5527662777274183C3
:100480003296CF01DF91CF910895DC01FC01619399
:1004900011967C933196CF010895FB01E80FF91F67
:1004A000318120E08081280F311DC9010895FB01B1
:1004B000E80FF91F238130E040E050E0522F44273D
:1004C00033272227828190E0A0E0B0E0DC01992769
:1004D0008827280F391F4A1F5B1F8081280F311D75
:1004E000411D511D818190E0A0E0B0E0BA2FA92FFD
:1004F000982F8827280F391F4A1F5B1FB901CA018F
:100500000895DF93CF9300D0CDB7DEB720913B079E
:1005100030913C07CE0101962115310519F4815423
:10052000974002C0821B930B9A83898389819A81A9
:100530000F900F90CF91DF910895AF92BF92CF921D
:10054000DF92EF92FF920F931F9359016A01683077
:10055000710581059105A0F522E0A216B104C10440
:10056000D10470F521E030E0062E02C0220F331FC7
:100570000A94E2F720953095442737FD4095542F93
:10058000E0907E02F0907F02009180021091810243
:100590002E213F2140235123062E04C0AA0CBB1C50
:1005A000CC1CDD1C0A94D2F72A293B294C295D2951
:1005B00020937E0230937F02409380025093810209
:1005C0001F910F91FF90EF90DF90CF90BF90AF9071
:1005D00008959B01AC016830710581059105E8F42F
:1005E00081E090E002C0880F991F2A95E2F79C01F4
:1005F000442737FD4095542F80917E0290917F02D1
:10060000A0918002B0918102282339234A235B23E1
:10061000211531054105510521F021E030E040E090
:1006200050E0B901CA0108958F929F92AF92BF9294
:10063000CF92DF92EF92FF920F931F93DF93CF93AE
:10064000CDB7DEB7A9970FB6F894DEBF0FBECDBF0A
:100650008C0161E070E00E944D029C016C01EE246F
:10066000FF24D6FE6DC081E42030380709F068C051
:10067000C80165E070E00E944D024C0197E0A92E90
:10068000B12CA00EB11ECC24DD24EE24FF24870162
:1006900012C0C50162E070E00E944D02A0E0B0E02F
:1006A000E80EF91E0A1F1B1FA4E0B0E0AA0EBB1E35
:1006B0000894C11CD11CC814D90458F38091560366
:1006C000909157038E0D9F1D90935703809356036F
:1006D0008091620390916303A0916403B0916503DC
:1006E000E80EF91E0A1F1B1FE0926203F0926303DB
:1006F00000936403109365032091620330916303B8
:10070000409164035091650380915E0390915F0373
:10071000A0916003B0916103281739074A075B076E
:1007200009F0ADC080916603882309F4A8C0E09168
:100730004803F091490369E970E080E090E04AC025
:10074000C60180709078892B09F4F2C0B0E820349B
:100750003B0709F499C0E0E821343E07A0F4F0E833
:1007600024303F0751F180E82530380738F4215014
:1007700030482230310508F07EC11FC0205130487A
:1007800009F079C12BC0A4E820303A07B1F0B4E8F1
:1007900021303B0748F4E0E820383E0771F0205054
:1007A000324809F068C109C088E82030380709F4E8
:1007B000ADC02050394809F05EC180914803909146
:1007C0004903892B09F45BC0E0914803F091490388
:1007D000C701B60140E050E020E050C0F801359676
:1007E000D80115968C9115978D8B81818E8B828186
:1007F0008F8B8381888FF801399619968C91199780
:10080000898F81818A8F82818B8F83818C8FF80180
:100810003D961D968C911D978D8F81818E8F828143
:100820008F8F838188A3F801719651968C9151978F
:1008300089A381818AA382818BA383818CA3F80100
:10084000759655968C9155978DA381818EA3828143
:100850008FA3838188A714968C9189A780914803E0
:1008600090914903892B59F0E0914803F091490395
:10087000C701B601AE014B5E5F4F25E1099521E04E
:1008800030E040E050E0FBC00B5F1F4FC80160E06C
:1008900070E00E94570269837A838B839C83C8012E
:1008A00064E070E00E9457026D837E838F83988797
:1008B000C80168E070E00E94570269877A878B87D9
:1008C0009C87C8016CE070E00E9457026D877E87AC
:1008D0008F87988BC80160E170E00E9457029B01EE
:1008E000AC018091480390914903892B41F2E0913A
:1008F0004803F0914903298B3A8B4B8B5C8BC701E2
:10090000B601AE014F5F5F4F24E1B8CF809148033D
:1009100090914903892B09F4B2CFE0914803F091FB
:1009200049030B5F1F4FC701B601A80121E0A6CF05
:10093000B3E0CB16B0E1DB06B0E0EB06B0E0FB06BF
:1009400099F0EFE0CE16E0E1DE06E0E0EE06E0E052
:10095000FE0651F0FEE0CF16F0E1DF06F0E0EF0614
:10096000F0E0FF0609F06AC085E0C82ED12CC00E69
:10097000D11EC60164E070E00E945702675C7F4FA1
:100980008F4F9F4F09F077C0D80114968C9190E05B
:10099000A0E0B0E08093520390935303A0935403DC
:1009A000B0935503C60160E070E00E9457027B01DE
:1009B0008C01C60164E070E00E945702675C7F4FC3
:1009C0008F4F9F4F09F05BCFE8E0EE16F104010571
:1009D000110508F054CF81E090E00E2C02C0880F82
:1009E000991F0A94E2F780959095AA2797FDA09504
:1009F000BA2F20917E0230917F0240918002509167
:100A0000810282239323A423B52321E030E040E038
:100A100050E00E2C04C0220F331F441F551F0A94B0
:100A2000D2F7822B932BA42BB52B80937E0290932D
:100A30007F02A0938002B093810221CF80913A037C
:100A400090913B03A0E0B0E0C816D906EA06FB0689
:100A500091F060E0F0E0CF16F0E1DF06F0E0EF06A5
:100A6000F0E0FF0609F461E081E06827262F30E01E
:100A700040E050E004C020E030E040E050E0B90148
:100A8000CA01A9960FB6F894DEBF0FBECDBFCF91B5
:100A9000DF911F910F91FF90EF90DF90CF90BF906B
:100AA000AF909F908F90089580913C0390913D036B
:100AB000892BD1F0E0913E03F0913F038081843097
:100AC00099F4CF010E9414036130710581059105ED
:100AD00059F410923D0310923C030E94452221E0FC
:100AE00030E040E050E004C020E030E040E050E082
:100AF000B901CA010895DF93CF9300D000D0CDB7DC
:100B0000DEB719821A821B821C82FC018581823029
:100B100021F1833009F43FC0813009F05FC080913A
:100B2000440390914503892B91F0E0914403F091A7
:100B30004503CE0101960995AC01009741F0609103
:100B400040037091410329813A8181E045C0609161
:100B500040037091410381E03BC08091420390913A
:100B60004303892B91F0E0914203F0914303CE01BE
:100B700001960995AC01009741F060914003709196
:100B8000410329813A8182E027C06091400370913E
:100B9000410382E01DC08091460390914703892B59
:100BA00091F0E0914603F0914703CE01019609953B
:100BB000AC01009741F0609140037091410329819D
:100BC0003A8183E009C0609140037091410383E062
:100BD00040E050E020E030E00E949A090F900F9032
:100BE0000F900F90CF91DF9108954F925F926F9287
:100BF0007F928F929F92AF92BF92CF92DF92EF92AD
:100C0000FF920F931F93CF93DF936C012B013A0157
:100C1000AA24BB240E947B2380913C0390913D0336
:100C2000892BC1F380903E0390903F03D4018C91B7
:100C3000843009F0BFC2C40161E070E00E944D023F
:100C40005C01C4010E9414036115710581059105C1
:100C500009F0A4C2E4012596B8E0AB16B0E1BB06EA
:100C600008F056C0E6E0AE16E0E1BE0608F0CCC0E3
:100C7000F2E0AF16F2E0BF0609F4C6C003E0A0162A
:100C800002E0B00600F51DE0A116B10480F468E0B2
:100C9000A616B10408F0B8C081E0A816B10408F4A3
:100CA0007DC297E0A916B10408F4AEC0D4C1ADE08E
:100CB000AA16B10409F4A3C0B1E0AB16B2E0BB06BA
:100CC00009F06CC29CC0E3E0AE16E0E1BE0698F409
:100CD000F1E0AF16F0E1BF0608F096C005E0A016FF
:100CE00002E0B00608F48BC017E0A11612E0B106CE
:100CF00009F054C28DC064E0A61660E1B60609F49E
:100D0000DCC085E0A81680E1B80608F0B1C042C199
:100D100091E1A91690E1B90609F471C0A2E1AA1601
:100D2000A0E1BA0658F5BBE0AB16B0E1BB0609F48A
:100D30006BC0ECE0AE16E0E1BE0668F4F9E0AF1679
:100D4000F0E1BF0609F460C00AE0A01600E1B006B9
:100D500008F073C13AC11FE0A11610E1B10609F411
:100D600019C160E1A61660E1B60608F061C08DE029
:100D7000A81680E1B80609F011C29FC095E0A91637
:100D800090E2B90609F4A4C1A6E0AA16A0E2BA0648
:100D900068F4B2E1AB16B0E1BB0609F460C0E1E073
:100DA000AE16E0E2BE0608F4F9C129C0FAE0AF16BB
:100DB000F0E2BF0660F408E0A01600E2B006F8F426
:100DC00016E0A11610E2B10609F0E8C118C06BE008
:100DD000A61660E4B60609F0E1C1D40115968C911F
:100DE00090E09093570380935603CE0161E070E04A
:100DF0000E944D029093590380935803CFC1E401A0
:100E00008C81F6018083CAC1CE0160E070E01EC013
:100E1000F4018481D6018D936D01CE0160E070E014
:100E20000E945702AB01BC01C6010E942902B6C153
:100E3000CE0160E070E00E945702F6016193719369
:100E4000819391936F01CE0164E070E00E9457029C
:100E5000D6016D937D938D939C9313979FC1CE0183
:100E600060E070E00E944D02E6019983888396C19C
:100E7000CE0160E070E00E945702F6016193719329
:100E8000819391938F01CE0164E070E00E9457023C
:100E9000D60114966D937D938D939C931797E4E000
:100EA000CE2ED12CC00ED11ED601FE01389680E187
:100EB00001900D928150E1F771C1CE0160E070E0C8
:100EC0000E945702F60161937193819391938F0170
:100ED000CE0164E070E00E945702D60114966D9333
:100EE0007D938D939C93179774E0C72ED12CC00EE1
:100EF000D11ECE0168E070E00E9457029B01AC0158
:100F0000E8016C837D838E839F83F60184819581C4
:100F1000A681B781875C9F4FAF4FBF4F09F03EC19D
:100F2000283031054105510508F038C1822F21E0F4
:100F300030E0082E02C0220F331F0A94E2F72095FA
:100F40003095442737FD4095542FE0907E02F09075
:100F50007F0200918002109181022E213F214023C7
:100F6000512361E0E62EF12C012D112D04C0EE0C71
:100F7000FF1C001F111F8A95D2F72E293F29402BF5
:100F8000512B20937E0230937F0240938002509336
:100F9000810204C1CE0160E070E00E945702D601D8
:100FA0006D937D938D939D938D01CE0164E070E0F0
:100FB0000E945702E6016C837D838E839F8354E0F9
:100FC000C52ED12CC00ED11EE9C0CE0160E070E06C
:100FD0000E945702F60161937193819391938F015F
:100FE000CE0164E070E00E945702D60114966D9322
:100FF0007D938D939C93179744E0E42EF12CE00EA3
:10100000F11ECE0168E070E00E945702F80164838F
:1010100075838683978334E0C32ED12CCE0CDF1CDE
:10102000CE016CE070E00E945702D70114966D93D8
:101030007D938D939C931797B1C0E4018C81F60149
:1010400084838D819E81AF81B885E60188839983F1
:10105000AA83BB83A3C0CE0160E070E00E94570268
:10106000F60161937193819391938F01CE0164E0B6
:1010700070E00E945702D60114966D937D938D9374
:101080009C931797CE0168E070E00E944D02A0E0AB
:10109000B0E0F80184839583A683B783CE016AE02C
:1010A00070E00E944D02A0E0B0E0F60182879387D5
:1010B000A487B5872CE0E22EF12CCE0CDF1CD601E4
:1010C000FE013C9686E201900D928150E1F766C0E8
:1010D000D40115968C91F60181938981D6011196E0
:1010E0008C9311978A8181838B8182831496F4017A
:1010F0003996E4018985E6018C8381818D83828123
:101100008E8383818F839D012C5F3F4FF4013D9639
:10111000E4018D8514968C9314978181E60189876B
:1011200082818A8783818B87F4017196E4018989A2
:10113000E9018C838181E6018D8782818E8783819D
:101140008F87F4017596E4018D89E9018887818193
:101150001D968C931D9782811E968C931E9783817A
:101160001F968C93E4019601F401D601A4014A5F15
:101170005F4F818D54968C93549731961196E41756
:10118000F507B9F7A401405E5F4F8F8DF901828F9B
:1011900021962F5F3F4FC417D507B9F780913A03C7
:1011A00090913B03A816B906B9F510923B03109233
:1011B0003A0332C0D40112960C91C40163E070E08E
:1011C0000E944D02EC0141145104A1F0C4010596A6
:1011D00064E070E00E945702462FF3016083718340
:1011E0008283938394012B5E3F4FC201B90150E08B
:1011F0000E948B33202F30E0FE01E21BF30B2B5FAC
:101200003F4F280D391DC601B901AF010E948B3334
:1012100010925D0310925C0310923D0310923C0308
:101220000E944522D4018C91843041F4B0E0AB1689
:10123000B0E1BB0619F4C4010E947B0580913A031A
:1012400090913B03892B09F0E5CC80915C03909150
:101250005D03892B09F0DECC80E090E0DF91CF9137
:101260001F910F91FF90EF90DF90CF90BF90AF90C4
:101270009F908F907F906F905F904F90089521E0A6
:1012800030E030935D0320935C030E94F5050895E0
:1012900090933B0380933A03CB0160E070E040E021
:1012A00050E00E94F5050895CF92DF92EF92FF92F1
:1012B0000F931F936B01890192E0FB019583868355
:1012C0004783040F151F0E0D1F1DCB010896B80193
:1012D0000E9445020B5F1F4FC601B8010E94012406
:1012E00060E070E080E090E01F910F91FF90EF9040
:1012F000DF90CF900895EF92FF920F931F939C0180
:101300007B01042F81E0FB018583CB010696B901A7
:101310000E944502FC01008310E00C5F1F4FC701D3
:10132000B8010E94012480E090E01F910F91FF908E
:10133000EF9008954F925F926F927F928F929F925B
:10134000AF92BF92CF92DF92EF92FF920F931F93D3
:10135000CF93DF936B014A01E90145E0442E512C04
:10136000460E571E93E0FB019583868337E0632E7C
:10137000712C660E771E8E010E5F1F4FC301B801E0
:101380000E9445027C012BE0A22EB12CAC0CBD1CAE
:10139000F3E0C93EDF0790F4BE010E944502C70199
:1013A000BE010E944502C501B401AE010E948B330B
:1013B0002696C601BE010E94012447C0CE0168EEF8
:1013C00073E00E940833660F771F060F171FC701CF
:1013D000B8010E944502C70168EE73E00E94450211
:1013E000D501F40188EE93E001900D920197E1F7A9
:1013F0008E01085E134088EEE82E83E0F82EE80C9C
:10140000F91CC6016EEE73E01BC00E947B2383E0D3
:10141000093E180720F4E80100E010E004C0085E6F
:101420001340C8EED3E0F201D183C083C301B701FA
:10143000AE010E948B33EC0EFD1E2296C201BE014E
:101440000E9401240115110501F7DF91CF911F9131
:101450000F91FF90EF90DF90CF90BF90AF909F9053
:101460008F907F906F905F904F9008950F931F9390
:101470008C01609140037091410385E090E240E06F
:101480000E947B0985E090E2B8010E9448091F9103
:101490000F9108958F929F92AF92BF92CF92DF9259
:1014A000EF92FF920F931F93DF93CF930F92CDB7DD
:1014B000DEB74C018B017A0169018FEF8983A0901F
:1014C0004003B0904103F40180819181A281B381F6
:1014D0000197A109B1090997A105B10540F48AE076
:1014E00090E0A0E0B0E080839183A283B383F80111
:1014F00080819181A281B3810197A109B1090997E6
:10150000A105B10540F48AE090E0A0E0B0E080835E
:101510009183A283B383F70180819181A281B381FA
:101520000197A109B1090997A105B10540F48AE025
:1015300090E0A0E0B0E080839183A283B383F601C2
:1015400080819181A281B3810197A109B109099795
:10155000A105B10540F48AE090E0A0E0B0E080830E
:101560009183A283B383F4014081518162817381AD
:10157000C50109960E942902F801408151816281CA
:1015800073810E942902F701408151816281738138
:101590000E942902F60140815181628173810E947B
:1015A000290289E090E2B50144E10E947B0989E0CB
:1015B00090E2BE016F5F7F4F0E9448092981332767
:1015C00027FD3095432F532FB901CA010F90CF91BA
:1015D000DF911F910F91FF90EF90DF90CF90BF9020
:1015E000AF909F908F900895CF92DF92EF92FF92ED
:1015F0000F931F93DF93CF930F92CDB7DEB7D62E05
:10160000C72E8A014132510518F02FEF3FEF36C047
:10161000E0904003F0904103AC0160E070E0C7014E
:1016200009960E94290248E050E060E070E00E94C4
:101630002902A80160E070E00E942902DC018D2DE2
:101640009C2DFC019F01200F311F02C081918D93C1
:10165000E217F307D9F7402F445F81E190E1B7012A
:101660000E947B0981E190E1BE016F5F7F4F0E9484
:1016700048098981282F332727FD3095C9010F900C
:10168000CF91DF911F910F91FF90EF90DF90CF905E
:1016900008952F923F924F925F926F927F928F9216
:1016A0009F92AF92BF92CF92DF92EF92FF920F93F1
:1016B0001F93DF93CF93CDB7DEB728970FB6F8947B
:1016C000DEBF0FBECDBF2B013C012D833E834F8378
:1016D00058871601C0904003D0904103C601099677
:1016E000B301A2010E9429024D815E816F8178853C
:1016F0000E942902B801A7010E94290248E050E097
:1017000060E070E00E942902B501A4010E94290254
:10171000BC0120E030E040E050E00CC0F901DB010A
:10172000A20FB31FE20DF31D80818C932F5F3F4FFB
:101730004F4F5F4F281539054A055B0578F3482D53
:101740004C5E89E090E1B6010E947B0989E090E15E
:10175000BE016F5F7F4F0E94480929813A814B810A
:101760005C8157FD03C060E070E005C0B9013093B3
:10177000400720933F07CB0128960FB6F894DEBFB1
:101780000FBECDBFCF91DF911F910F91FF90EF90D2
:10179000DF90CF90BF90AF909F908F907F906F9091
:1017A0005F904F903F902F900895CF92DF92EF92ED
:1017B000FF920F931F93DF93CF9300D000D0CDB74C
:1017C000DEB78B019C01F42EE52E8FEF9FEFAFEF7C
:1017D000BFEF89839A83AB83BC83C0904003D090D2
:1017E0004103C6010996B901A8010E94290248E0F7
:1017F00050E060E070E00E94290248E050E060E0C4
:1018000070E00E942902DC018F2D9E2DFC019F01BA
:10181000285F3F4F81918D93E217F307D9F787E057
:1018200090E1B60144E10E947B0987E090E1BE01AE
:101830006F5F7F4F0E94480969817A818B819C810B
:101840009B0120933F07309340070F900F900F901C
:101850000F90CF91DF911F910F91FF90EF90DF904C
:10186000CF900895AF92BF92CF92DF92EF92FF9206
:101870000F931F93DF93CF93CDB7DEB728970FB6A3
:10188000F894DEBF0FBECDBFB82EA92E8B016A0122
:101890008FEF9FEF9093400780933F07673E71055E
:1018A00018F02FEF3FEF3BC0E0904003F090410372
:1018B000C701099648E050E060E070E00E9429020C
:1018C000A80160E070E00E942902DC018B2D9A2DB6
:1018D000FC019F01200F311F02C081918D93E217FF
:1018E000F307D9F7402F485F80E190E1B7010E94EC
:1018F0007B0980E190E1BE016F5F7F4F0E94480944
:1019000029813A813093400720933F078D819E8142
:10191000AF81B885F60180839183A283B383C90127
:1019200028960FB6F894DEBF0FBECDBFCF91DF91E2
:101930001F910F91FF90EF90DF90CF90BF90AF90ED
:1019400008958F929F92AF92BF92CF92DF92EF92C3
:10195000FF920F931F93DF93CF9300D000D0CDB7AA
:10196000DEB77B018C0159016A018FEF9FEFAFEF6A
:10197000BFEF89839A83AB83BC83809040039090B0
:101980004103C4010996B801A7010E942902B601CA
:10199000A5010E94290286E090E1B40148E00E947E
:1019A0007B0986E090E1BE016F5F7F4F0E9448098E
:1019B00069817A818B819C819B0120933F073093C1
:1019C00040070F900F900F900F90CF91DF911F91D4
:1019D0000F91FF90EF90DF90CF90BF90AF909F90CE
:1019E0008F900895CF92DF92EF92FF920F931F9303
:1019F000DF93CF9300D000D0CDB7DEB78B019C0131
:101A0000F42EE52E8FEF9FEFAFEFBFEF89839A8320
:101A1000AB83BC83C0904003D0904103C6010996BC
:101A2000B901A8010E94290248E050E060E070E09E
:101A30000E94290248E050E060E070E00E94290224
:101A4000DC018F2D9E2DFC019F01285F3F4F81916E
:101A50008D93E217F307D9F782E090E1B60144E1F4
:101A60000E947B0982E090E1BE016F5F7F4F0E9480
:101A7000480969817A818B819C819B0120933F0772
:101A8000309340070F900F900F900F90CF91DF9100
:101A90001F910F91FF90EF90DF90CF9008952F92BC
:101AA0003F924F925F926F927F928F929F92AF92EE
:101AB000BF92CF92DF92EF92FF920F931F93DF932B
:101AC000CF93CDB7DEB764970FB6F894DEBF0FBEE5
:101AD000CDBF2B013C015E874D870F87188B298B6B
:101AE0003A8B15019C8A8B8A89A49AA4ABA4BCA4C6
:101AF0000091400310914103C8010996B301A2016E
:101B00000E9429024F85588969897A890E94290291
:101B1000B701A6010E942902C401B8014CE00E944D
:101B20007B09C401BE016F5F7F4F0E9448098D8110
:101B30009E81AF81B885181619061A061B063CF45B
:101B40008D859E85B1014B895C890E943F098D81FD
:101B50009E8180933F079093400764960FB6F89458
:101B6000DEBF0FBECDBFCF91DF911F910F91FF90D0
:101B7000EF90DF90CF90BF90AF909F908F907F902D
:101B80006F905F904F903F902F9008958F929F920B
:101B9000AF92BF92CF92DF92EF92FF920F931F937B
:101BA00000D000D0F4E08F2EF0E19F2EA12CB12CBC
:101BB000EDB7FEB781829282A382B482AA24BB24AD
:101BC000882499240E944F0D0F900F900F900F9032
:101BD0001F910F91FF90EF90DF90CF90BF90AF904B
:101BE0009F908F9008954F925F926F927F928F9205
:101BF0009F92AF92BF92CF92DF92EF92FF920F939C
:101C00001F93DF93CF93CDB7DEB760970FB6F894ED
:101C1000DEBF0FBECDBF5B016C014A013901280157
:101C20008701E0904003F0904103C7010996B60197
:101C3000A5010E94290244E150E060E070E00E94AA
:101C4000290244E150E060E070E00E94290244E192
:101C500050E060E070E00E94290244E150E060E062
:101C600070E00E94290240E050E060E070E0011561
:101C7000110521F441E050E060E070E00E9429028B
:101C80008114910429F440E050E060E070E005C068
:101C9000F40140815181628173810E9429026114A3
:101CA000710429F440E050E060E070E005C0F30109
:101CB00040815181628173810E9429024114510443
:101CC00029F440E050E060E070E005C0F20140819E
:101CD0005181628173810E9429029C0101151105C5
:101CE00051F1F80180819181A281B3810097A10512
:101CF000B10591F484819581A681B781885893417B
:101D0000A040B0404CF488E893E1A0E0B0E0F801D6
:101D100084839583A683B783F801408151816281D2
:101D20007381C9010E942902F801448155816681AD
:101D300077810E94290288E090E1B7014CE20E947D
:101D40007B0988E090E1BE016F5F7F4F0E944809E8
:101D500089819A81AB81BC81B7FD27C08114910430
:101D600049F08D819E81AF81B885F4018083918394
:101D7000A283B3836114710449F089859A85AB8588
:101D8000BC85F30180839183A283B3834114510402
:101D900049F08D859E85AF85B889F2018083918356
:101DA000A283B38329813A8106C090934007809330
:101DB0003F072FEF3FEFC90160960FB6F894DEBFE3
:101DC0000FBECDBFCF91DF911F910F91FF90EF908C
:101DD000DF90CF90BF90AF909F908F907F906F904B
:101DE0005F904F9008958F929F92AF92BF92CF9243
:101DF000DF92EF92FF920F931F93DF93CF93CDB7B4
:101E0000DEB768970FB6F894DEBF0FBECDBF5B019B
:101E10006C017A0149010091400310914103C8010E
:101E20000996B601A5010E94290285E090E1B8015A
:101E300044E00E947B0985E090E1BE016F5F7F4F27
:101E40000E944809E114F10441F0D701FE013996DE
:101E500088E001900D928150E1F78114910449F0DE
:101E600088E090E0A0E0B0E0F40180839183A28359
:101E7000B3838D819E819093400780933F077C01BF
:101E80000027F7FC0095102FF8E0EF16F10401058C
:101E9000110538F4C801B70120E030E040E050E01F
:101EA00006C0C601B50121E030E040E050E00E94EC
:101EB0009D02B701C80168960FB6F894DEBF0FBE49
:101EC000CDBFCF91DF911F910F91FF90EF90DF90E9
:101ED000CF90BF90AF909F908F900895CF92DF9258
:101EE000EF92FF920F931F93DF93CF9300D000D018
:101EF000CDB7DEB76B017C018FEF9FEFAFEFBFEF88
:101F000089839A83AB83BC83009140031091410382
:101F1000C8010996B701A6010E9429028BE090E151
:101F2000B80144E00E947B098BE090E1BE016F5F45
:101F30007F4F0E94480989819A819093400780933E
:101F40003F07C701B60121E030E040E050E00E94C9
:101F50009D0269817A818B819C810F900F900F90F7
:101F60000F90CF91DF911F910F91FF90EF90DF9035
:101F7000CF9008954F925F926F927F928F929F922F
:101F8000AF92BF92CF92DF92EF92FF920F931F9387
:101F9000DF93CF9300D000D0CDB7DEB75B016C01EB
:101FA00039014A018FEF9FEFAFEFBFEF89839A832B
:101FB000AB83BC834090400350904103C20109961B
:101FC000B601A5010E942902B401A3010E942902C1
:101FD000B801A7010E94290281E090E1B2014CE022
:101FE0000E947B0981E090E1BE016F5F7F4F0E94FC
:101FF000480969817A818B819C8170934007609345
:102000003F0720E030E040E050E00E949D026981FF
:102010007A818B819C810F900F900F900F90CF91C0
:10202000DF911F910F91FF90EF90DF90CF90BF90C5
:10203000AF909F908F907F906F905F904F9008959A
:102040008F929F92AF92BF92CF92DF92EF92FF92C8
:102050000F931F938C010E9480304B015C0168013B
:10206000EE24D7FCE094FE2C809152039091530310
:10207000A0915403B09155030097A105B105B1F0AB
:102080008091520390915303A0915403B091550352
:102090009C019093400780933F0710925203109247
:1020A000530310925403109255032CC0C701B6017C
:1020B0000E94E902611571058105910519F02FEF64
:1020C0003FEF20C00E948030681979098A099B0976
:1020D000615375478040904018F02DEF3FEF12C0DC
:1020E0008091560390915703892B09F4BDCF8091BD
:1020F000560390915703019790935703809356038B
:1021000020E030E0C9011F910F91FF90EF90DF9028
:10211000CF90BF90AF909F908F9008952F923F9255
:102120004F925F926F927F928F929F92AF92BF92E7
:10213000CF92DF92EF92FF920F931F93DF93CF9393
:10214000CDB7DEB76A970FB6F894DEBF0FBECDBF2E
:102150001B012C015C8B4B8B38014901CD8ADE8A37
:10216000EF8AF88EBA8EA98ECFA4D8A8E9A8FAA8CB
:10217000CB010E9420109C01009709F0CBC08091F8
:102180005E0390915F03A0916003B091610301969B
:10219000A11DB11D80935E0390935F03A093600324
:1021A000B093610320914003309141033A8B298B16
:1021B0008BA99CA9ADA9BEA981389105A105B1053E
:1021C000B9F083389105A105B105F1F4A40193019B
:1021D000285F3F4F4F4F5F4F2D873E874F87588B6C
:1021E000A988BA8842E250E0A40EB51E18E10CC0DE
:1021F000A988BA888AE190E0A80EB91E1A8E198EB5
:10220000CC24DD24760110E189899A890A96B201ED
:10221000A1010E942902012F10E004501040A801E2
:1022200060E070E00C5F1F4F0E942902B401A3011F
:102230000E9429024D895E896F89788D0E9429024A
:102240002BA93CA94DA95EA92338310541055105AB
:1022500061F44D855E856F8578890E94290248E08A
:1022600050E060E070E00E94290220E030E040E0B1
:1022700050E00CC0EB89FC89E20FF31F8081D5018F
:102280008D935D012F5F3F4F4F4F5F4F26153705F1
:10229000480559057CF32BA93CA94DA95EA9233813
:1022A000310541055105C1F420E030E040E050E047
:1022B0000EC0F901D501A20FB31F898D9A8DE80FC9
:1022C000F91F80818C932F5F3F4F4F4F5F4F2C152D
:1022D0003D054E055F056CF38BA969897A89A801D4
:1022E0009301098D1A8D76010E945409BE016F5F1A
:1022F0007F4F2BA93CA94DA95EA923383105410583
:10230000510519F48FE090E102C083E090E10E9452
:1023100048099301C9016A960FB6F894DEBF0FBE53
:10232000CDBFCF91DF911F910F91FF90EF90DF9084
:10233000CF90BF90AF909F908F907F906F905F9065
:102340004F903F902F9008958F929F92AF92BF929F
:10235000CF92DF92EF92FF920F931F93EDB7FEB7EC
:1023600038970FB6F894FEBF0FBEEDBF11821282F0
:1023700013821482B1E88B2E912CA12CB12C858272
:102380009682A782B086AA24BB240E948E102DB705
:102390003EB7285F3F4F0FB6F8943EBF0FBE2DBF2C
:1023A0001F910F91FF90EF90DF90CF90BF90AF9073
:1023B0009F908F900895AF92BF92CF92DF92EF924D
:1023C000FF920F931F9370934303609342035093C4
:1023D00045034093440330934703209346031093EF
:1023E0004B0300934A03F0924D03E0924C03D092CA
:1023F0004F03C0924E03B0925103A09250039093AA
:1024000049038093480381E0809366031F910F91F5
:10241000FF90EF90DF90CF90BF90AF9008950F9313
:102420001F93DF93CF9300D000D0CDB7DEB7AB01C1
:10243000BC01DB01CA0188709078A070B070885030
:102440009048A040B040A9F410926603483080E85C
:10245000580780E0680780E0780729F420E030E042
:1024600040E050E02AC0477F5F776070707050682E
:1024700003C081E0809366038FEF9FEFAFEFBFEF64
:1024800089839A83AB83BC830091400310914103FD
:10249000C80109960E94290288E090E0B80144E052
:1024A0000E947B0988E090E0BE016F5F7F4F0E9431
:1024B000480929813A814B815C81B901CA010F9099
:1024C0000F900F900F90CF91DF911F910F91089572
:1024D0002F923F924F925F926F927F928F929F9234
:1024E000AF92BF92CF92DF92EF92FF920F931F9322
:1024F000DF93CF93CDB7DEB728970FB6F894DEBF42
:102500000FBECDBF3B014C0119012A018DA58F8360
:102510009EA5988780914003909141039E838D836F
:10252000099644E250E060E070E00E942902B401A4
:10253000A3010E942902B201A1010E942902B8014F
:10254000A7010E942902B601A5010E9429024D8D12
:102550005E8D6F8D78A10E94290249A15AA16BA1BD
:102560007CA10E9429024DA15EA16FA178A50E94C5
:10257000290249A55AA56BA57CA50E942902DC0168
:102580008F819885FC019F01205C3F4F02C08191A3
:102590008D93E217F307D9F783E090E06D817E8198
:1025A00044E60E947B0983E090E0BE016F5F7F4FAD
:1025B0000E94480969817A818B819C8128960FB697
:1025C000F894DEBF0FBECDBFCF91DF911F910F9169
:1025D000FF90EF90DF90CF90BF90AF909F908F9043
:1025E0007F906F905F904F903F902F9008950F9342
:1025F0001F93DF93CF9300D000D0CDB7DEB7AB01F0
:10260000BC010091400310914103C80109960E944A
:1026100029028FEF9FEFAFEFBFEF89839A83AB83E0
:10262000BC8386E090E0B80144E00E947B0986E02C
:1026300090E0BE016F5F7F4F0E94480969817A81F7
:102640008B819C810F900F900F900F90CF91DF9115
:102650001F910F9108954F925F926F927F928F9288
:102660009F92AF92BF92CF92DF92EF92FF920F9321
:102670001F93DF93CF9300D000D0CDB7DEB75B01BF
:102680006C0139014A018FEF9FEFAFEFBFEF8983F4
:102690009A83AB83BC834090400350904103C201B6
:1026A0000996B601A5010E942902B401A3010E9466
:1026B0002902B801A7010E94290284E090E0B2013A
:1026C0004CE00E947B0984E090E0BE016F5F7F4F89
:1026D0000E94480969817A818B819C810F900F90BB
:1026E0000F900F90CF91DF911F910F91FF90EF907E
:1026F000DF90CF90BF90AF909F908F907F906F9022
:102700005F904F9008952F923F924F925F926F92F9
:102710007F928F929F92AF92BF92CF92DF92EF9271
:10272000FF920F931F93DF93CF93CDB7DEB76097E0
:102730000FB6F894DEBF0FBECDBF2B013C015C8706
:102740004B870D871E872F87388B16018E010B5FF5
:102750001F4F86E0D8011D928A95E9F78FEF9FEF12
:10276000AFEFBFEF89839A83AB83BC83C0904003F4
:10277000D0904103C60109964CE150E060E070E062
:102780000E9429024D855E856F8578890E94290205
:10279000B301A2010E9429024D855E856F8578896B
:1027A000405F5F4F6F4F7F4F0E942902B501A40128
:1027B0000E94290260E070E00E944502DC01E11401
:1027C000F10481F0AC0120E030E0F701E20FF31FEB
:1027D0008081FA018193AF012F5F3F4F2630310591
:1027E000A1F70EC0B8019C01AE01455F5F4FFB0130
:1027F0008191BF01F90181939F0164177507B9F7B2
:10280000BD016A5F7F4F20E030E040E050E00CC047
:10281000EB85FC85E20FF31F8081DB018D93BD0109
:102820002F5F3F4F4F4F5F4F8D859E85AF85B88996
:10283000281739074A075B075CF381149104A10448
:10284000B104C9F021143104B1F020E030E040E0DF
:1028500050E00CC0F901DB01A20FB31FE20DF31D24
:1028600080818C932F5F3F4F4F4F5F4F2815390565
:102870004A055B057CF34D85445E480D81E090E0A0
:10288000B6010E947B0981E090E0BE016F5F7F4F3F
:102890000E94480969817A818B819C819B012093E8
:1028A0003F073093400760960FB6F894DEBF0FBE27
:1028B000CDBFCF91DF911F910F91FF90EF90DF90EF
:1028C000CF90BF90AF909F908F907F906F905F90D0
:1028D0004F903F902F900895EF92FF920F931F9388
:1028E000CF93DF93EC0110925E0310925F0310927E
:1028F00060031092610310926203109263031092BE
:1029000064031092650310923B0310923A031092F5
:1029100057031092560310925903109258031092C5
:102920005B0310925A0310925D0310925C031092A5
:1029300052031092530310925403109255031092B5
:102940003D0310923C0310923F0310923E0385E436
:1029500094E090934103809340038EE095E10E94C0
:102960001625E0914A03F0914B0309957B018C01F8
:10297000E0915003F091510381E00995E114F104D5
:102980000105110559F0E0914A03F0914B030995B7
:102990006115710581059105B1F714C0E0914A03F5
:1029A000F0914B0309956115710581059105B1F30E
:1029B000E0914A03F0914B0309956115710581057A
:1029C0009105B1F7E0914003F0914103CD2B11F453
:1029D00080E001C082E0818780E090E4BF0141E0B7
:1029E0000E947B0980E090E460E070E00E9448096A
:1029F00060914003709141038BE090E440E00E94BD
:102A00007B098BE090E460E070E00E944809DF9170
:102A1000CF911F910F91FF90EF90089521E030E04A
:102A200030933D0320933C0390933F0380933E03F8
:102A30000E9454050895EF92FF920F93FC011082BB
:102A40006093670340936803209369038FEF80933B
:102A50006A0300936B031092A103F092A303E09228
:102A6000A2030F91FF90EF900895FC011382128250
:102A700088EE93E0A0E0B0E084839583A683B783DB
:102A800084EA92E091838083E15BFF4F8FEF9FEFB9
:102A9000AFEFBFEF80839183A283B3830895FC01DE
:102AA0001382128288EE93E0A0E0B0E084839583E5
:102AB000A683B78384EA92E091838083E15BFF4F32
:102AC000408351836283738312921292129208950B
:102AD000FC01A081B18154962D913C915597F9014B
:102AE0000995811181E0089508950F9384EA93E098
:102AF00060E040E020E000E00E94D72B0F910895B5
:102B0000CF92DF92EF92FF920F931F93DB01FC01B4
:102B1000E15BFF4F60817181828193818A0120E0B6
:102B200030E0AD01CC24DD2476010E94C60D1F915A
:102B30000F91FF90EF90DF90CF9008958F929F922A
:102B4000AF92BF92CF92DF92EF92FF920F931F93BB
:102B5000DF93CF93CDB7DEB72C970FB6F894DEBFD7
:102B60000FBECDBFFC01E15BFF4F80819181A2814F
:102B7000B381EF54F040B7FF03C020E030E082C0E3
:102B8000E35BFF4F20813181ED54F04012161306B4
:102B900064F4E45BFF4F8081EC54F04090E08217D6
:102BA00093071CF4281B390B6DC019821A821B82F3
:102BB0001C82E15BFF4FC080D180E280F380C701BF
:102BC000B60120E230E040E050E00E943E33922E19
:102BD000832E022F132F000F111F000F111F5E01F4
:102BE0000894A11CB11C0A0D1B1DC701B60120E2EF
:102BF00030E040E050E00E943E3321E030E040E031
:102C000050E004C0220F331F441F551F6A95D2F7AE
:102C1000E92DF82DEE0FFF1FEE0FFF1FEA0DFB1D34
:102C200080819181A281B381282B392B4A2B5B2B88
:102C3000F80120833183428353831D821E821F82C9
:102C4000188688E893E1A0E0B0E089879A87AB878F
:102C5000BC870894C11CD11CE11CF11CC701B60142
:102C6000A50120E030E000E010E0E5E0EE2EF12CE0
:102C7000EC0EFD1E0E94F30D20E030E0019711F4F0
:102C800021E030E0C9012C960FB6F894DEBF0FBEEC
:102C9000CDBFCF91DF911F910F91FF90EF90DF900B
:102CA000CF90BF90AF909F908F9008950F931F93F8
:102CB0008C01015B1F4FF8016081718182819381DA
:102CC0000E946E0F2FEF3FEF4FEF5FEFF801208371
:102CD0003183428353831F910F9108954F925F92E6
:102CE0006F927F928F929F92AF92BF92CF92DF921C
:102CF000EF92FF920F931F93CF93DF93EC019CE031
:102D0000492E512C4C0E5D1E8DE4882E912C8C0E7C
:102D10009D1E0CE4A02EB12CAC0EBD1E1FE4612E36
:102D2000712C6C0E7D1E1FC00E947B23F3016081FD
:102D3000718182819381A20100E410E020E030E003
:102D4000CC24DD2476010E94C60DF401918380839A
:102D5000875C9F4F31F4CE010E94561620E030E090
:102D600014C0F5011082F40120813181121613067E
:102D7000DCF6F5018081E82FF0E02E173F07A1F285
:102D8000EC0FFD1F8485282F30E0C901DF91CF9122
:102D90001F910F91FF90EF90DF90CF90BF90AF9079
:102DA0009F908F907F906F905F904F9008954F927B
:102DB0005F926F927F928F929F92AF92BF92CF92CB
:102DC000DF92EF92FF920F931F93CF93DF93EC016B
:102DD0005CE0452E512C480E591E4DE4842E912C5A
:102DE000880E991E3CE4A32EB12CA80EB91E2FE428
:102DF000622E712C680E791E1FC00E947B23F30186
:102E00006081718182819381A20100E410E020E061
:102E100030E0CC24DD2476010E94C60DF4019183BC
:102E20008083875C9F4F31F4CE010E94561620E0CC
:102E300030E017C0F5011082F401808191811816ED
:102E40001906DCF6F5012081E22FF0E08E179F07CE
:102E5000A1F2EC0FFD1F84852F5FF5012083282F41
:102E600030E0C901DF91CF911F910F91FF90EF905A
:102E7000DF90CF90BF90AF909F908F907F906F909A
:102E80005F904F9008950E94561608950F931F93D8
:102E9000CF93DF93EC018C01015B1F4FF801808120
:102EA0009181A281B381B7FD27C0E881F9810480B7
:102EB000F581E02DCE010995892B01F5D8012D91E1
:102EC0003D914D915C91F901EF57FC4F808181302C
:102ED000A9F4CA01B9010E946E0FD801ED91FC91CD
:102EE000EF57FC4F10828FEF9FEFAFEFBFEFF8016E
:102EF00080839183A283B38380E001C081E0DF916E
:102F0000CF911F910F9108952F923F924F925F9210
:102F10006F927F928F929F92AF92BF92CF92DF92E9
:102F2000EF92FF920F931F93DF93CF93CDB7DEB74E
:102F3000A0970FB6F894DEBF0FBECDBF3C014B018A
:102F400000E0AA24BB241E010894211C311C6FE45C
:102F5000462E512C460C571CF4010894811C911CE0
:102F600084918823D1F0F101E00FF11D80830F5F80
:102F7000003290F3F2016081718182819381A1011D
:102F800000E210E020E030E0CC24DD2476010E9455
:102F9000A411A80EB91E00E0DFCF0023B1F08FE42A
:102FA00090E0680E791EF3016081718182819381C6
:102FB00010E020E030E0AE014F5F5F4FCC24DD2415
:102FC00076010E94A411A80EB91EC501A0960FB6E5
:102FD000F894DEBF0FBECDBFCF91DF911F910F914F
:102FE000FF90EF90DF90CF90BF90AF909F908F9029
:102FF0007F906F905F904F903F902F900895EF9249
:10300000FF920F931F938C010E9484177C01C801CB
:103010006BE670E00E9484179C012E0D3F1DC901D4
:103020001F910F91FF90EF900895CF92DF92EF9252
:10303000FF920F931F93DF93CF930F92CDB7DEB71D
:103040006983FC01E15BFF4F608171818281938123
:10305000AE014F5F5F4F01E010E020E030E0CC2494
:10306000DD2476010E94A4119C01442737FD409580
:10307000542F57FF02C020E030E0C9010F90CF91DC
:10308000DF911F910F91FF90EF90DF90CF90089507
:10309000CF92DF92EF92FF920F931F93CF93DF9324
:1030A000EC01AB01DB010D900020E9F71197A61BA5
:1030B000B70B19F420E030E00FC0C15BDF4F68812F
:1030C00079818A819B818D0120E030E0CC24DD2450
:1030D00076010E94A4119C01C901DF91CF911F913B
:1030E0000F91FF90EF90DF90CF900895EF92FF92B5
:1030F0000F931F938C010E9448187C01C80168E659
:1031000070E00E9484179C012E0D3F1DC9011F9184
:103110000F91FF90EF900895CF92DF92EF92FF9280
:103120000F931F93CF93DF93EC01AB01DB010D9065
:103130000020E9F71197A61BB70B19F420E030E047
:103140000FC0C15BDF4F688179818A819B818D01CE
:1031500020E030E0CC24DD2476010E94A4119C0103
:10316000C901DF91CF911F910F91FF90EF90DF90F8
:10317000CF900895CF92DF92EF92FF920F931F931B
:10318000DB01FC01E15BFF4F6081718182819381F2
:103190008A0120E030E0AD01CC24DD2476010E94DC
:1031A000A4111F910F91FF90EF90DF90CF900895A1
:1031B0006F927F928F929F92AF92BF92CF92DF9247
:1031C000EF92FF920F931F93DF93CF93CDB7DEB7AC
:1031D00060970FB6F894DEBF0FBECDBF5C014B0108
:1031E0003A018DE490E0A80EB91ED5011D921C9203
:1031F000F50112925F0184EB9FEFA80EB91E62E009
:1032000070E080E090E021E030E040E050E0E6E077
:10321000EE2EF12C012D112D0E94BA0F6B017C01B5
:103220009FEFC9169FEFD9069FEFE9069FEFF906BA
:10323000C9F1F601EF57FC4F10828E010F5F1F4F4F
:1032400080E1D8011D928A95E9F782E090E09A83A7
:1032500089837B826C82F40182819381A481B58110
:103260002B2F3327442755272D839D01442755278E
:103270002E83892F9A2FAB2FBB278F83828188873C
:10328000C701B601A80100E110E020E030E00E9493
:10329000D50B6F5F7F4F8F4F9F4F39F4C701B6013A
:1032A0000E946E0F20E030E00CC08FE490E0A80E8A
:1032B000B91ED501CD92DD92ED92FC92139721E0DB
:1032C00030E0C90160960FB6F894DEBF0FBECDBFE7
:1032D000CF91DF911F910F91FF90EF90DF90CF90F2
:1032E000BF90AF909F908F907F906F900895DF93E5
:1032F000CF9300D000D0CDB7DEB78091A10382FF7D
:1033000009C083E091E069E070E0AE014F5F5F4F7C
:103310000E94320C8091A10390E096958795969536
:10332000879581700F900F900F900F90CF91DF9144
:103330000895AF92BF92CF92DF92EF92FF920F93D8
:103340001F93DF93CF93CDB7DEB72A970FB6F894CC
:10335000DEBF0FBECDBF6C01CB015A0119821A82AC
:103360001B821C82DB010D900020E9F71197A61B40
:10337000B70BBD01AE014F5F5F4F0E94320C498118
:103380005A816B817C814115510561057105A1F060
:10339000892B91F0D601ED91FC91E484F5848E01A6
:1033A0000B5F1F4FC8010E94342CC601B801A50154
:1033B000F70109959C0102C020E030E0C9012A967E
:1033C0000FB6F894DEBF0FBECDBFCF91DF911F9136
:1033D0000F91FF90EF90DF90CF90BF90AF90089546
:1033E000CF93DF93FC019B01E15BFF4F215B3F4FDC
:1033F000E90188819981AA81BB8180839183A2831D
:10340000B383D9019E918E9192938293ED018A911B
:103410008293E054F040DE01A054B04080E40D906F
:1034200001928150E1F7DF91CF910895EF92FF92E1
:103430000F931F937B018C01FA01422F80E8E8165D
:1034400080E8F80680E0080780E0180731F48091F2
:10345000A10381608093A1032BC081E0E81680E87E
:10346000F80680E0080780E0180731F48091A10396
:1034700082608093A10328C082E0E81680E8F80605
:1034800080E0080780E0180731F48091A103897F6C
:103490008093A1032FC080E1E81680E8F80680E061
:1034A000080780E0180721F48091A103846009C017
:1034B00089E9E816F1040105110531F48091A103B1
:1034C00088608093A10328C080E4E81680E8F806AD
:1034D00080E0080780E0180769F480916C038F5F33
:1034E00080936C032DE633E0C901BF0150E00E94D8
:1034F0008B3312C080E0E81688E8F80680E0080701
:1035000080E0180749F44081403230F4E42FF0E0C5
:10351000EF57FC4F81E080831F910F91FF90EF9058
:1035200008958F929F92AF92BF92CF92DF92EF92C7
:10353000FF920F931F93DF93CF93CDB7DEB7EA9738
:103540000FB6F894DEBF0FBECDBFFC016B015A0170
:10355000490180818823F1F18091A10381FF3AC064
:103560008091A10382FF36C0CE0101960E94360AE7
:103570008C81882379F189819A81AB81BC81F601A4
:1035800080839183A283B3838D819E81AF81B8852F
:10359000F50180839183A283B38389859A85AB8566
:1035A000BC85F40180839183A283B3838D859E853E
:1035B000AF85B889F80180839183A283B383898919
:1035C0009A89AB89BC89F70180839183A283B383F5
:1035D00081E001C080E0EA960FB6F894DEBF0FBE2E
:1035E000CDBFCF91DF911F910F91FF90EF90DF90B2
:1035F000CF90BF90AF909F908F9008952F923F9261
:103600004F925F926F927F928F929F92AF92BF92F2
:10361000CF92DF92EF92FF920F931F93FC01D62E71
:10362000C72E342E252E8081882309F466C02801F8
:10363000390184E0481651046104710408F05DC04A
:10364000A62FB72FFD0101900020E9F73197EA1B63
:10365000FB0BB19708F051C0A42FB52FFD010190CD
:103660000020E9F73197EA1BFB0BB19708F045C042
:1036700060E070E080E090E020E030E040E050E08A
:10368000EE24FF2487010E942B136115710581052B
:10369000910599F564EF71E080E090E00E948E3032
:1036A000ED2DFC2DDF010D900020E9F78D0101507B
:1036B00010400E1B1F0BE32DF22DDF010D9000209B
:1036C000E9F74D010894810891088E1A9F0A20E0BD
:1036D00030E0AA24BB24C301B2014D2D5C2DEE24A1
:1036E000FF24C32CD22C0E94831320E061157105A6
:1036F0008105910519F421E001C020E0822F1F917E
:103700000F91FF90EF90DF90CF90BF90AF909F9080
:103710008F907F906F905F904F903F902F90089583
:103720008F929F92AF92BF92CF92DF92EF92FF92D1
:103730000F931F93FC01D62EC72E80818823E1F1C1
:1037400060E070E080E090E020E030E040E050E0B9
:10375000EE24FF2487010E942B136115710581055A
:10376000910551F564EF71E080E090E00E948E30A9
:10377000ED2DFC2DDF010D900020E9F78D010150AA
:1037800010400E1B1F0B20E030E060E070E080E096
:1037900090E04D2D5C2DEE24FF24CC24DD248824E4
:1037A000992454010E94831320E06115710581055D
:1037B000910519F421E001C020E0822F1F910F91A3
:1037C000FF90EF90DF90CF90BF90AF909F908F9041
:1037D0000895EF92FF920F931F937A018B018091CE
:1037E000A2039091A303009709F440C0272F332729
:1037F00044275527622F4AE050E00E94772D8091A0
:10380000A2039091A3036EE20E94972C9801442793
:1038100055278091A2039091A303622F4AE050E0C4
:103820000E94772D8091A2039091A3036EE20E94E3
:10383000972C5527412F302F2F2D8091A203909147
:10384000A303622F4AE050E00E94772D8091A203EB
:103850009091A3036EE20E94972C8091A203909115
:10386000A3036E2D4AE050E00E94772D1F910F9127
:10387000FF90EF9008956F927F928F929F92AF92F8
:10388000BF92CF92DF92EF92FF920F931F93CF934D
:10389000DF93EC01962E842E722E632E888188236E
:1038A00009F08EC080916803823011F480E005C079
:1038B000833011F08FEF01C081E080936A030E9492
:1038C000CD2486E19AE163ED71E243EC51E22BEC09
:1038D00031E20BED11E2B9E3EB2EB2E2FB2EA3EFE6
:1038E000CA2EA1E2DA2EF7EEAF2EF1E2BF2E0E9431
:1038F000DB11892D90E00E946C148820A1F460E017
:1039000070E080E090E020E030E040E050E0EE2425
:10391000FF2487010E942B136FEF70E080E090E09E
:103920000E94F7120FC060E070E080E090E020E0BD
:1039300030E040E050E0E1E0EE2EF12C012D112DC1
:103940000E942B1364E072E880E090E00E940F1266
:103950006115710581059105A9F581E088838820AD
:1039600079F100E010E00EC00E947B230F5F1F4F33
:1039700083E00A3E180731F16AE070E080E090E0F1
:103980000E948E308091A10381FFEECF68EE73E03C
:1039900080E090E00E948E308091A10382FF10C0F1
:1039A000E72DF62DDF010D900020E9F71197AE1BF2
:1039B000BF0B81E090E0672D762DAD010E94F40AE7
:1039C00081E001C080E0DF91CF911F910F91FF90C6
:1039D000EF90DF90CF90BF90AF909F908F907F90AF
:1039E0006F900895AF92BF92CF92DF92EF92FF92C5
:1039F0000F931F93DF93CF93CDB7DEB7C054D04062
:103A00000FB6F894DEBF0FBECDBF9C01DE0111964C
:103A1000ECEBF2E080E401900D928150E1F7D901E6
:103A20008C91882311F420E04EC0EDB7FEB7729759
:103A30000FB6F894FEBF0FBEEDBF31960FEF1FE13A
:103A400020E030E0ADB7BEB711960D931D932D93D6
:103A50003C93149788E89FEFAFEFBFEF8483958383
:103A6000A683B78310861186128613868CE291E0B6
:103A7000A0E0B0E084879587A687B787CE0101963E
:103A8000918B808BCB01BA0124E130E040E050E023
:103A9000F4E6EF2EF12C012D112DE5E0AE2EB12C28
:103AA000C12CD12C0E94681220E0EDB7FEB77296AF
:103AB0000FB6F894FEBF0FBEEDBF6115710581050D
:103AC000910509F421E0822FC05CDF4F0FB6F89416
:103AD000DEBF0FBECDBFCF91DF911F910F91FF9041
:103AE000EF90DF90CF90BF90AF9008955F926F926C
:103AF0007F928F929F92AF92BF92CF92DF92EF927E
:103B0000FF920F931F93CF93DF93EC013B014A0188
:103B1000522EA02E8881882309F452C0B02EC22EC6
:103B2000DD24EE24FF24AA2051F0BB2039F480913B
:103B3000A10390E096958795817042C0BA940E9447
:103B40007B23CE0140EA5FE060E070E00E94F21C5F
:103B500064E971E180E090E00E948E30CE0140E0A7
:103B600050E060E070E00E94F21C552021F0F4016A
:103B70008081882349F4CE01B3010E94901B8823E1
:103B8000D1F000E117E208C0CE01B301A401970112
:103B900086010E94FE1AF3CF8091A10381FD0BC024
:103BA0000E947B236AE070E080E090E00E948E300B
:103BB0000A50104089F78091A10381FFB4CF81E0C2
:103BC000DF91CF911F910F91FF90EF90DF90CF90F9
:103BD000BF90AF909F908F907F906F905F9008956F
:103BE000FC01A081B18154962D913C915597F9012A
:103BF0000995811181E008950F931F93DF93CF936F
:103C000000D000D000D0CDB7DEB7DB01FC012485A9
:103C100035852115310519F420E030E01BC0F9018C
:103C200080819181FC010485158586E393E09A8368
:103C3000898312968D919D910D90BC91A02D8B83BF
:103C40009C83AD83BE83C901BE016F5F7F4FF801C6
:103C500009959C01C90126960FB6F894DEBF0FBEE8
:103C6000CDBFCF91DF911F910F910895FC01A485E5
:103C7000B585109719F420E030E009C0ED91FC9172
:103C800011970684F785E02DCD0109959C01C901A6
:103C90000895FC01A485B585109711F480E008957E
:103CA000ED91FC9111970488F589E02DCD010995DE
:103CB0000895FC01A485B585109719F420E030E043
:103CC00009C0ED91FC9111970190F081E02DCD019B
:103CD00009959C01C9010895FC01A485B58510973B
:103CE00019F420E030E009C0ED91FC9111970680B5
:103CF000F781E02DCD0109959C01C9010895FC01D2
:103D0000A485B585109719F420E030E009C0ED9145
:103D1000FC9111970480F581E02DCD0109959C015E
:103D2000C9010895FC01A485B585109719F420E018
:103D300030E009C0ED91FC9111970088F189E02DE8
:103D4000CD0109959C01C9010895FC01A485B585A3
:103D5000109719F420E030E009C0ED91FC91119723
:103D60000280F381E02DCD0109959C01C9010895E0
:103D7000FC01A485B585109719F420E030E009C056
:103D8000ED91FC9111970084F185E02DCD0109950D
:103D90009C01C9010895FC01A485B585109741F0E7
:103DA000ED91FC9111970284F385E02DCD010995E9
:103DB0000895FC01A485B585109741F0ED91FC9123
:103DC00011970288F389E02DCD0109950895CF93CD
:103DD000DF939C01CAE0D3E04F3FB9F0FC011382AE
:103DE000128288EE93E0A0E0B0E084839583A683FE
:103DF000B783D183C08383E54802C00111240496B0
:103E0000860F971F958784870FC0FC01138212824B
:103E100088EE93E0A0E0B0E084839583A683B78327
:103E2000D183C08315861486C901DF91CF9108958F
:103E30004F925F926F927F928F929F92AF92BF92BA
:103E4000CF92DF92EF92FF920F931F93CF93DF9366
:103E50005C013B014A017C01CC24DD2400E010E040
:103E600083E5482E512C049DE001059DD00D149D45
:103E7000D00D11242496CA0DDB1DD7011496ED91A7
:103E8000FC9115970488F589E02DCE0109958823CA
:103E900071F0D7011496ED91FC9115970280F38192
:103EA000E02DCE01B301A4010995C80ED91E0F5F04
:103EB0001F4F83E590E0E80EF91E0330110599F6D7
:103EC000C601DF91CF911F910F91FF90EF90DF908E
:103ED000CF90BF90AF909F908F907F906F905F90AA
:103EE0004F900895DF93CF930F92CDB7DEB7FC01CB
:103EF0006983A081B18112962D913C911397BE01E7
:103F00006F5F7F4F41E050E0F90109950F90CF912D
:103F1000DF9108950F938AEA93E060E040E020E0AB
:103F200000E00E94D72B0F9108952F923F924F925D
:103F30005F927F928F929F92AF92BF92CF92DF92C9
:103F4000EF92FF920F931F93DF93CF93CDB7DEB71E
:103F5000C355D0400FB6F894DEBF0FBECDBF5C0195
:103F60006C017724EE24FF2423E5222E312C9FEFD1
:103F7000892E912C8A0C9B1C2E010894411C511CEB
:103F8000E29C8001E39C100DF29C100D11240C5F4B
:103F90001F4F0A0D1B1DD6011496ED91FC9115972C
:103FA0000488F589E02DC80109958823F1F40E9461
:103FB0007B23F401608171818281938140E050E034
:103FC00020E030E00E94F30ECB0177FD0EC0AC0183
:103FD000662757FD6095762FC2010E944F15C801D4
:103FE000B2010E94F019772473940894E11CF11C2B
:103FF00083E590E0C80ED91E93E0E916F10409F0BC
:10400000BFCF872DCD5ADF4F0FB6F894DEBF0FBE5E
:10401000CDBFCF91DF911F910F91FF90EF90DF9077
:10402000CF90BF90AF909F908F907F905F904F9078
:104030003F902F900895AF92BF92CF92DF92EF9270
:10404000FF920F931F93CF93DF936C01EB010E94BC
:10405000951F209709F08883760100E010E033E592
:10406000A32EB12C0A9DE0010B9DD00D1A9DD00D01
:1040700011242496CC0DDD1DD7011496ED91FC91F1
:1040800015970488F589E02DCE0109958823C9F09C
:10409000D7011496ED91FC9115970480F581E02DE0
:1040A000CE0109951816190664F4802FDF91CF917F
:1040B0001F910F91FF90EF90DF90CF90BF90AF9046
:1040C00008950F5F1F4F83E590E0E80EF91E03305F
:1040D000110541F68FEFEACFEF92FF920F931F93F6
:1040E000F82EE92E8B01CB0160E070E00E941B20CE
:1040F000482F8F2D9E2DB8010E94E71E8F2D9E2DDB
:104100001F910F91FF90EF9008952F923F924F9241
:104110005F926F927F928F929F92AF92BF92CF9257
:10412000DF92EF92FF920F931F93DF93CF93CDB760
:10413000DEB7A1970FB6F894DEBF0FBECDBF1C014E
:1041400080E498E3A0E0B0E08A839B83AC83BD83E6
:1041500080E19EE0A0E0B0E08E839F83A887B987CE
:104160008EE190E0A0E0B0E08A879B87AC87BD87B6
:104170001E861F86188A198A0E947B23CE0102960A
:10418000BE016A5F7F4FAE01465F5F4F9E01225FB7
:104190003F4F0E944A0A611571058105910509F09A
:1041A00067C00E947B2362E070E080E090E021E045
:1041B00030E040E050E0A6E0EA2EF12C012D112D78
:1041C0000E94BA0F8B0177FD53C00E947B23198296
:1041D0002801662457FC6094762CC301B2012FEFAE
:1041E0003FEF40E050E0F2E0EF2EF12C012D112DD9
:1041F0006E010894C11CD11CE1E08E2E912CA12CE3
:10420000B12C0E94490B97FD33C082E090E09B8B5C
:104210008A8B1E8A1F8A188E198EF101E350FF4F78
:10422000908181818C8B9D8B0E947B23C301B20185
:10423000AE014E5E5F4F00E110E020E030E00E94F2
:10424000F20C97FD15C00E947B23C301B20120E050
:1042500030E040E050E00E94A10C97FD09C08FEFD4
:1042600090E0280E391EF1014082518262827382F1
:10427000A1960FB6F894DEBF0FBECDBFCF91DF91F0
:104280001F910F91FF90EF90DF90CF90BF90AF9074
:104290009F908F907F906F905F904F903F902F9066
:1042A0000895EF92FF920F931F938C017B01FC0105
:1042B0001382128280E093E091838083C801049688
:1042C0000E943515C801895A9F4F0E943515C801B3
:1042D00086559F4F0E94351503501F4FF801E192FC
:1042E000F1928FEF9FEFAFEFBFEF80839183A283B7
:1042F000B3831F910F91FF90EF900895FC01848587
:104300009585009729F420E030E040E050E004C0BB
:104310000E9456169B01AC01B901CA010895FC0127
:1043200084859585009719F420E030E003C00E9451
:10433000FF179C01C9010895FC01848595850097AC
:1043400019F420E030E003C00E9484179C01C901E9
:104350000895FC0184859585009719F420E030E0EC
:1043600003C00E9476189C01C9010895FC01848550
:104370009585009719F420E030E003C00E948C1866
:104380009C01C9010895FC011082118212821382DE
:1043900080E090E00895FC01108211821282138265
:1043A00080E090E00895FC01108211821282138255
:1043B00080E090E00895809168030E94B5319C01EF
:1043C000442737FD4095542FB901CA010895882329
:1043D00021F08091690361E003C08091690360E08E
:1043E0000E94613108951092C90480916A030E946D
:1043F0007B2E08951092C90480916A030E947B2E3F
:104400000895CF93DF930E94FA218091670361E0C2
:104410000E9461318091B3038CBD8091B2038823E7
:1044200019F08DB5816002C08DB58E7F8DBDC091B4
:10443000C003D091C103CE57DF4F8881C258D0400E
:104440008E3D09F0FFCF82E090E0A0E0B0E08093E5
:10445000BA039093BB03A093BC03B093BD03E09158
:10446000B403F091B503CE0105960995DF91CF9184
:10447000089581E08093C90480916A0366EE72E238
:1044800042E050E00E94582E089581E08093C904D4
:1044900080916A0366EE72E242E050E00E94582E7C
:1044A00008950F931F93CF93DF938C01EB0184E06A
:1044B0000E94FC0120E030E093E00BC09EBD0DB4F3
:1044C00007FEFDCF8EB5F801E20FF31F80832F5F4B
:1044D0003F4F2C173D0790F3DF91CF911F910F9124
:1044E0000895EF92FF920F931F93CF93DF93C091A4
:1044F000C003D091C1038D81823021F0843009F056
:1045000047C01BC0CE01059663E070E00E944D02DB
:104510009C0140E050E080FD05C02F5F3F4F4F4FB2
:104520005F4F05C0211531054105510589F1CE01C7
:104530000A96B9010E9451222BC08885282F30E0AD
:1045400040E050E079018A010894E108F10801098E
:104550001109DA01C9010996A11DB11D80FF02C030
:1045600079018A01E114F1040105110529F0CE0158
:104570000A96B7010E94512288E090E0A0E0B0E0E6
:104580008093BA039093BB03A093BC03B093BD0385
:1045900060E070E080E090E0DF91CF911F910F919B
:1045A000FF90EF9008950E947122611571058105B9
:1045B000910511F40E94012208958091C003909109
:1045C000C1036AE070E00E945122089581E0809367
:1045D000C8048091BA039091BB03A091BC03B09131
:1045E000BD030097A105B10569F481E090E0A0E06A
:1045F000B0E08093BA039093BB03A093BC03B09345
:10460000BD0376C082309105A105B105B1F586E004
:1046100090E0A0E0B0E08093BA039093BB03A09336
:10462000BC03B093BD038091670360E00E946131D9
:104630008CB58093B3038DB581708093B203809164
:10464000B0038CBD8091B103882319F08DB58160D2
:1046500002C08DB58E7F8DBD0E94DD2288E090E086
:10466000A0E0B0E08093BA039093BB03A093BC0397
:10467000B093BD030E94D3223BC00397A105B105AF
:10468000B9F56091BE037091BF034091B60350919C
:10469000B70320E030E00BC0FB01E20FF31F808185
:1046A0008EBD0DB407FEFDCF8EB52F5F3F4F241793
:1046B000350790F382E090E0A0E0B0E08093BA0389
:1046C0009093BB03A093BC03B093BD038091670399
:1046D00061E00E9461318091B3038CBD8091B2038F
:1046E000882319F08DB5816002C08DB58E7F8DBD98
:1046F0001092C8040895809168030E94B531892BF7
:1047000051F48091C804882331F48091C90488232E
:1047100011F00E94E62208950F931F93CF93DF9329
:10472000EC018B018091670360E00E9461318CB5E0
:104730008093B3038DB581708093B2038091B003F1
:104740008CBD8091B103882319F08DB5816002C0C2
:104750008DB58E7F8DBD61E070E080E090E00E94BD
:104760008E3020E030E0FE01E20FF31F80818EBD2D
:104770000DB407FEFDCF8EB52F5F3F4F24303105BE
:1047800091F761E070E080E090E00E948E30B80127
:1047900064507040FE0120E030E009C084818EBD8D
:1047A0000DB407FEFDCF8EB52F5F3F4F3196261714
:1047B0003707A0F382E090E0A0E0B0E08093BA0376
:1047C0009093BB03A093BC03B093BD038091670398
:1047D00061E00E9461318091B3038CBD8091B2038E
:1047E000882319F08DB5816002C08DB58E7F8DBD97
:1047F00060E070E080E090E0DF91CF911F910F9139
:1048000008950F931F93CF93DF93EC0190E060FF27
:1048100091E081E088839B01290F311D3983960F38
:104820009A831B821C828091C7048E3D09F0FFCFC2
:104830008091BA039091BB03A091BC03B091BD03DA
:104840000097A105B10509F4FFCF89010B5F1F4F48
:104850000197A105B10529F4CE01B8010E948C236E
:1048600085C0E0914E03F0914F0309958091BA0302
:104870009091BB03A091BC03B091BD030297A10529
:10488000B10509F089C083E090E0A0E0B0E080933A
:10489000BA039093BB03A093BC03B093BD03D09322
:1048A000BF03C093BE031093B7030093B603809178
:1048B000670360E00E9461318CB58093B3038DB5CE
:1048C00081708093B2038091B0038CBD8091B1035D
:1048D000882319F08DB5816002C08DB58E7F8DBDA6
:1048E000E0914C03F0914D030995E0914A03F0915A
:1048F0004B0309956115710581059105B9F5609125
:10490000BE037091BF034091B6035091B70320E0FE
:1049100030E00BC0FB01E20FF31F80818EBD0DB4B0
:1049200007FEFDCF8EB52F5F3F4F2417350790F35D
:1049300082E090E0A0E0B0E08093BA039093BB03E4
:10494000A093BC03B093BD038091670361E00E9414
:1049500061318091B3038CBD8091B203882319F03B
:104960008DB5816002C08DB58E7F8DBD8091BA03FB
:104970009091BB03A091BC03B091BD030297A10528
:10498000B10549F460E070E080E090E0DF91CF9104
:104990001F910F910895FFCFFFCF8091690361E0D0
:1049A0000E9422318091690360E00E94613164EFCE
:1049B00071E080E090E00E948E308091670361E0BA
:1049C0000E9422318091680362E00E9422318CB5FE
:1049D0008093B3038DB581708093B2030E9412025D
:1049E00084E00E94FC0181E00E94F30180916B034E
:1049F0000E9401028CB58093B0038DB581708093C5
:104A0000B1038091670361E00E9461318091B3033B
:104A10008CBD8091B203882319F08DB5816002C0EE
:104A20008DB58E7F8DBD80E090E00895CF93DF93AC
:104A30001092BA031092BB031092BC031092BD03F4
:104A4000A2ECB3E023E8ED01E22F1992EA95E9F731
:104A5000E5E4F4E0EF0119922A95E9F79093B503A4
:104A60008093B4031092B7031092B6031092BF0361
:104A70001092BE03B093C103A093C0031092B90378
:104A80001092B8038EED809344048093C704E091A4
:104A90004C03F0914D030995DF91CF910895EF926A
:104AA000FF920F938BE796E060E040E020E000E0AB
:104AB0000E94D72B8AEC94E06AE043E025E004E012
:104AC00039E0E32E37E0F32E0E941B158BEC94E0C7
:104AD00060E570E00E9451210F91FF90EF900895E2
:104AE000EF92FF920F931F93DF93CF93CDB7DEB773
:104AF00064970FB6F894DEBF0FBECDBF8AEC94E08A
:104B0000BE016F5F7F4FAE014B5F5F4F9E01275F1E
:104B10003F4F8E01035F1F4FE1E1EE2EF12CEC0EB3
:104B2000FD1E0E94911A882341F489E097E06AEA09
:104B300070E00E94BF2C80E04BC089E097E06FE9F5
:104B400070E00E94742C49815A816B817C818AECCF
:104B500094E00E94E91B89E097E064E970E00E941C
:104B6000742C4D815E816F8178858AEC94E00E947F
:104B7000E91B89E097E069E870E00E94742C4985A0
:104B80005A856B857C858AEC94E00E94E91B89E05C
:104B900097E06EE770E00E94742C4D855E856F850E
:104BA00078898AEC94E00E94E91B89E097E063E74A
:104BB00070E00E94742C49895A896B897C898AEC3F
:104BC00094E00E94E91B89E097E00E949F2C81E01D
:104BD00064960FB6F894DEBF0FBECDBFCF91DF91C4
:104BE0001F910F91FF90EF9008950F931F93CF9314
:104BF000DF93EB018A0160E171E00E948633BC0122
:104C0000009729F0CE014AE050E00E94B23380E0E4
:104C100090E060E171E00E948633BC01009729F0CA
:104C2000C80140E450E00E94B233DF91CF911F9160
:104C30000F910895DC01623071059CF0FC01E60FD4
:104C4000F71F3297808132968D3059F431978081E9
:104C50008A3039F4CD01BA01A9010E94F52581E01D
:104C6000089580E00895AF92BF92CF92DF92EF92C5
:104C7000FF920F931F93DF93CF93CDB7DEB7A69725
:104C80000FB6F894DEBF0FBECDBF8E01075E1F4F7B
:104C9000C8016BEC74E00E946C20C8010E94F01DFA
:104CA000882309F44EC189E097E06BE571E00E942A
:104CB000BF2C10922E0610922D068FE5EEECF5E03B
:104CC000DF011D928A95E9F78BE0EFE2F6E0DF0164
:104CD0001D928A95E9F781E4EAE3F6E0DF011D928F
:104CE0008A95E9F70E9480306B017C0184EF91E0A6
:104CF000A0E0B0E0C80ED91EEA1EFB1EC801B02E0F
:104D0000A92E21C000912D0610912E068B2D9A2DD3
:104D10000E946C1EF801E253FA4F80830F5F1F4F11
:104D200010932E0600932D0660912D0670912E068D
:104D30008EEC95E04FE256E02AE336E00E941A2618
:104D4000882309F0CFC00E9480306C157D058E0548
:104D50009F0508F0A7C080912D0690912E068E35F4
:104D600091050CF09FC08B2D9A2D0E947F1E892BE0
:104D7000D9F2C8CFD6016D917D916D01C8010E9415
:104D8000B621BAE8CB16B2E0DB06A1F79AE8C92E45
:104D900092E0D92E8E01075E1F4F07C0F601619188
:104DA00071916F01C8010E94B621FAE9CF16F2E0B5
:104DB000DF06A1F7C80164E271E00E949C21C801EE
:104DC0006AE376E00E94A921C8016CE171E00E94CB
:104DD0008F2189E097E063E171E00E94742C8E01DD
:104DE0000F5F1F4FC8016AE376E00E94A92F87E09A
:104DF000E82EF12CEC0EFD1EC70162E171E00E946D
:104E0000A92FC801B7010E942D2FD82EC7010E94DB
:104E10002330C8010E942330DD2009F443C0BDE0E7
:104E2000AB2EB12CAC0EBD1EC5016AE376E00E942C
:104E3000A92FA3E1CA2ED12CCC0EDD1E29893A89D7
:104E4000C601B50144E150E00E94DC2FC6010E947A
:104E5000F92E7B018C0189E097E066E071E00E9409
:104E6000742C89E097E0B7014AE050E00E94C92D18
:104E700089E097E064E071E00E94BF2CC6010E94C7
:104E80002330C5010E9423300DC08E01075E1F4FE5
:104E9000C80164EE70E00E948F21C80163EE70E0EB
:104EA0000E948F2164E670E080E090E00E948E30E6
:104EB00089E097E067E271E00E94FB2D0E94810289
:104EC000BC0189E097E04AE050E00E94DC2D89E0D7
:104ED00097E06FEC70E00E94BF2CCE0149960E94D3
:104EE0007E212FC089E097E068E471E00E94BF2C2A
:104EF00089E097E06FE371E00E94742C89E097E00D
:104F00006FE276E00E94FE2D89E097E068E371E0B1
:104F10000E94742C89E097E06AE376E00E94FE2DFF
:104F20008FE296E062E371E00E949433009709F00B
:104F3000ACCFF2E8CF2EF2E0DF2E8E01075E1F4FDE
:104F400020CFA6960FB6F894DEBF0FBECDBFCF918F
:104F5000DF911F910F91FF90EF90DF90CF90BF9066
:104F6000AF9008950F931F93DF93CF93CDB7DEB724
:104F70002C970FB6F894DEBF0FBECDBF89E097E047
:104F800040E052EC61E070E00E945C2A89E097E02A
:104F90006DE173E00E94BF2C8E010F5F1F4FC801AF
:104FA0006AE376E00E94A92F89E097E0B8010E94A9
:104FB000442EC8010E94233089E097E066E371E047
:104FC0000E94FB2D89E097E068E070E04AE050E045
:104FD0000E945A2D8E01095F1F4FC8016AE376E0D7
:104FE0000E94A92F89E097E0B8010E94442EC801D1
:104FF0000E94233089E097E067E571E00E94FB2D75
:1050000089E097E060E170E04AE050E00E945A2DAC
:1050100089E097E067E271E00E94FB2D0E94810227
:10502000BC0189E097E04AE050E00E94DC2D89E075
:1050300097E06CE073E00E94BF2C8AEC94E060E0A3
:1050400040E020E030E00E943B1C882339F489E0F6
:1050500097E067EE72E00E94BF2CFFCF89E097E0F7
:105060006CEC72E00E94742C89E097E06FE671E0CE
:105070000E94FE2D8AEC94E06FE671E045E751E076
:1050800023E000E00E94761D882339F489E097E050
:1050900064EC72E00E94BF2CFFCF89E097E069EBDF
:1050A00072E00E94BF2C89E097E06CEA72E00E94F7
:1050B000BF2C06C064E670E080E090E00E948E3075
:1050C0008AEC94E00E9477198823A1F306C068EE69
:1050D00073E080E090E00E948E300E94702588236B
:1050E000B1F389E097E061E772E00E94BF2C89E0AC
:1050F00097E068E372E00E94BF2C89E097E06EEFD2
:1051000071E00E94BF2C89E097E067EC71E00E949B
:10511000BF2C89E097E06AE871E00E94BF2C8BEC1D
:1051200094E00E94852089E097E06DE671E00E949E
:10513000BF2C2C960FB6F894DEBF0FBECDBFCF911B
:10514000DF911F910F9108950F931F93CF93DF93DA
:10515000BC018230910510F462E070E0E0913D07FF
:10516000F0913E07A0E0B0E040E050E024C0808134
:10517000918186179707D0F08617970771F482817F
:105180009381109729F013969C938E9312972CC0BD
:1051900090933E0780933D0727C04115510519F0B4
:1051A0008417950718F4EF018D01AC01DF018281AE
:1051B00093819C01F9013097D1F641155105F9F021
:1051C000CA01861B970B8430910580F48A819B81EC
:1051D0000115110521F0F8019383828304C0909397
:1051E0003E0780933D07FE01329645C0FE01E80F61
:1051F000F91F619371930297998388833CC08091D2
:105200003B0790913C07892B41F480919C0290913F
:105210009D0290933C0780933B0740919E025091E2
:105220009F024115510541F44DB75EB780919A0236
:1052300090919B02481B590B20913B0730913C07F2
:1052400024173507B0F4CA01821B930B8617970702
:1052500080F0AB014E5F5F4F8417950750F0420F0F
:10526000531F50933C0740933B07F901619371939F
:1052700002C0E0E0F0E0CF01DF91CF911F910F91EC
:105280000895CF93DF939C01009709F48FC0EC0140
:1052900022971B821A8260913D0770913E0761152B
:1052A000710581F488819981820F931F20913B07BA
:1052B00030913C072817390739F5D0933C07C09344
:1052C0003B0774C0DB0140E050E0AC17BD0708F1BC
:1052D000BB83AA83FE0121913191E20FF31FAE1728
:1052E000BF0779F48D919C911197280F391F2E5F7C
:1052F0003F4F3983288312968D919C9113979B83FE
:105300008A834115510571F4D0933E07C0933D0740
:105310004DC012968D919C911397AD01009711F09D
:10532000DC01D3CFDA011396DC93CE931297FA0106
:1053300021913191E20FF31FCE17DF0769F48881C5
:105340009981280F391F2E5F3F4FFA013183208347
:105350008A819B8193838283E0E0F0E0DB011296F7
:105360008D919C911397009719F0BC01FD01F6CF28
:10537000AB014E5F5F4FDB018D919C91840F951FB8
:1053800020913B0730913C072817390779F4309773
:1053900029F410923E0710923D0702C01382128238
:1053A0004250504050933C0740933B07DF91CF91D0
:1053B000089508951F920F920FB60F9211242F9304
:1053C0003F934F938F939F93EF93FF934091C6002A
:1053D0002091C1063091C2062F5F3F4F2F7330706E
:1053E0008091C3069091C4062817390759F0E091BF
:1053F000C106F091C206EF57F94F40833093C206C1
:105400002093C106FF91EF919F918F914F913F9112
:105410002F910F900FBE0F901F901895E0911507D8
:10542000F0911607E05CFF4F8191919120813181CD
:10543000821B930B8F739070892B11F00E94D929D6
:1054400008951F920F920FB60F9211242F933F933E
:105450008F939F93EF93FF93209105073091060759
:1054600080910707909108072817390731F4809138
:10547000C1008F7D8093C10014C0E0910707F091B7
:105480000807EB53F94F2081809107079091080797
:1054900001968F739070909308078093070720936D
:1054A000C600FF91EF919F918F913F912F910F90A7
:1054B0000FBE0F901F901895AF92BF92DF92EF92A0
:1054C000FF920F931F93CF93DF93EC017A018B012F
:1054D000DD24403081EE580780E0680780E07807DF
:1054E00011F0DD24D39491E0A92EB12CEC89FD8933
:1054F000DD2069F0C5010E8C02C0880F991F0A9447
:10550000E2F7808360E079E08DE390E005C01082EF
:1055100060E874E88EE190E0A80197010E941C33D6
:10552000215030404040504056954795379527953B
:1055300080E12030380720F0DD2011F0DD24D6CFC7
:10554000E889F9893083EA89FB892083EE89FF891C
:10555000408121E030E0C9010A8C02C0880F991F08
:105560000A94E2F7482B4083EE89FF894081C90104
:105570000B8C02C0880F991F0A94E2F7482B4083D6
:10558000EE89FF894081C9010C8C02C0880F991FE8
:105590000A94E2F7482B4083EE89FF8980810D8CC5
:1055A00002C0220F331F0A94E2F72095282320839C
:1055B000DF91CF911F910F91FF90EF90DF90BF90FF
:1055C000AF900895DC011C96ED91FC911D97E05C75
:1055D000FF4F2191319180819181281B390B2F73CD
:1055E0003070C9010895DC011C96ED91FC911D9766
:1055F000E05CFF4F20813181E054F040DF01AE5B81
:10560000BF4F8D919C9111972817390719F42FEFEF
:105610003FEF07C08D919C91E80FF91F8081282FE3
:1056200030E0C9010895DC011C96ED91FC911D97B5
:10563000E05CFF4F20813181E054F040DF01AE5B40
:10564000BF4F8D919C9111972817390719F42FEFAF
:105650003FEF10C08D919C911197E80FF91F2081A9
:105660008D919C91119701968F73907011969C93D8
:105670008E9330E0C9010895FC0186859785DC0191
:10568000A05CBF4FFC01EE5BFF4F2D913C91119749
:105690008081918128173907C1F70895CF93DF934F
:1056A000EC01EE85FF85E05CFF4F20813181E05405
:1056B000F0402F5F3F4F2F733070DF01AE5BBF4F65
:1056C0008D919C91119728173907D1F3E05CFF4F1A
:1056D00080819181E054F040E80FF91F6083EE85EE
:1056E000FF85E05CFF4F31832083EE89FF892081B5
:1056F00081E090E00D8C02C0880F991F0A94E2F7B8
:10570000282B208381E090E0DF91CF9108951092C3
:105710000C0710920B0788EE93E0A0E0B0E08093B6
:105720000D0790930E07A0930F07B093100786E222
:1057300093E090930A078093090781E896E090939D
:1057400016078093150785EC96E0909318078093D1
:10575000170785EC90E090931A078093190784EC63
:1057600090E090931C0780931B0780EC90E090934F
:105770001E0780931D0781EC90E090932007809393
:105780001F0786EC90E0909322078093210784E026
:105790008093230783E08093240787E08093250785
:1057A00085E08093260781E08093270708950F9373
:1057B000FC0186E393E091838083628343832483A7
:1057C00005830F91089586E393E0909329078093D2
:1057D000280710922A0710922B0710922C0710927C
:1057E0002D0708958F929F92AF92BF92CF92DF9232
:1057F000EF92FF920F931F93CF93DF934C016B01B6
:105800007C01AA24BB24C0E0D0E0C601F70162817C
:105810004AE050E00E94772D8C01C6016EE20E94A2
:10582000972C080F191FA00EB11E21960894E11C99
:10583000F11CC330D10549F7C601F40165814AE086
:1058400050E00E94772D9501280F391FC901DF9183
:10585000CF911F910F91FF90EF90DF90CF90BF906D
:10586000AF909F908F900895DF93CF9300D000D09A
:10587000CDB7DEB7FC0186E393E09183808342835A
:105880005383648375830F900F900F900F90CF9187
:10589000DF910895CF92DF92EF92FF920F931F93C3
:1058A000CF93DF937C016B018A01C0E0D0E00FC091
:1058B000D6016D916D01D701ED91FC910190F081C0
:1058C000E02DC7010995C80FD91F015010400115DF
:1058D000110571F7CE01DF91CF911F910F91FF90CC
:1058E000EF90DF90CF900895EF92FF920F931F9368
:1058F000CF93DF937C018B01C0E0D0E0F8010F5F14
:105900001F4F6491662359F0D701ED91FC910190EE
:10591000F081E02DC7010995C80FD91FEFCFCE0147
:10592000DF91CF911F910F91FF90EF900895DC01CF
:10593000ED91FC910190F081E02D09950895EF9291
:10594000FF920F931F938C01DC01ED91FC9101906C
:10595000F081E02D6DE009957C01D801ED91FC917D
:105960000190F081E02DC8016AE009959C012E0D9F
:105970003F1DC9011F910F91FF90EF900895EF9285
:10598000FF920F931F937C010E94742C8C01C7011E
:105990000E949F2C9C01200F311FC9011F910F9164
:1059A000FF90EF900895CF93DF93DB010D900020DF
:1059B000E9F71197A61BB70BEC01E881F98102808A
:1059C000F381E02DAD010995DF91CF9108954F92BC
:1059D0005F927F928F929F92AF92BF92CF92DF920F
:1059E000EF92FF920F931F93DF93CF93CDB7DEB764
:1059F000A1970FB6F894DEBF0FBECDBF2C01742E59
:105A0000CB01223008F42AE019A231E2C32ED12CB6
:105A1000CC0EDD1E822E9924AA24BB24672D752F5F
:105A2000A50194010E941C3379018A01C801B701C4
:105A3000A50194010E94E932472D461B0894C10834
:105A4000D1084A3014F4405D01C0495CF60140833E
:105A5000E114F1040105110521F07E2C5F2DC80130
:105A6000DDCFC201B6010E94D32CA1960FB6F894E7
:105A7000DEBF0FBECDBFCF91DF911F910F91FF9081
:105A8000EF90DF90CF90BF90AF909F908F907F90DE
:105A90005F904F900895DC012115310541F4ED919F
:105AA000FC910190F081E02D642F099508950E94EA
:105AB000E72C0895CF92DF92EF92FF920F931F93FE
:105AC0006C017B019A0100E010E0B801A7010E947F
:105AD0004B2D8C01C6010E949F2C080F191FC80175
