:100000000C94A0030C945F350C948C350C94C803AD
:100010000C94C8030C94C8030C94C8030C94C80334
:100020000C94C8030C94C8030C94C8030C94C80324
:100030000C94C8030C94C8030C94C8030C94C80314
:100040000C94C8350C94C8030C945B320C94DE32CB
:100050000C94C8030C94C8030C94C8030C94C803F4
:100060000C94C8030C94C803020413042C04400429
:100070005104590468046F049E04CC04F504FD0483
:100080000205090539056605900598059D05A40535
:10009000D105FD0524062C063106380667069406B0
:1000A000BD060A444E53736572763A20000A4448EE
:1000B00043507372763A20000A476174657761791C
:1000C0003A20000A4E65746D61736B3A20000A494C
:1000D0005020416464723A2000556E61626C652064
:1000E000746F207265747269657665207468652026
:1000F00049502041646472657373210D0A006D6F6D
:1001000076656C656674006D6F7665726967687494
:10011000006D6F76657570006D6F7665646F776ED4
:1001200000212121204D4F564520444F574E20217C
:1001300021212100212121204D4F564520555020BD
:100140002121212100212121204D4F5645205249B6
:10015000474854202121212100212121204D4F56A3
:1001600045204C4546542021212121005D005D5B46
:10017000005D2076616C75653D5B00636D643D5B81
:100180000072756E436F6D6D616E6400436C6965DE
:100190006E7420646973636F6E6E6563746564006A
:1001A00000485454502F312E3120343035204D65C5
:1001B00074686F64204E6F7420416C6C6F77656457
:1001C000003C2F68746D6C3E003C2F68323E20006E
:1001D0003C68723E3C68323E20524553554C542098
:1001E00000506174683A2000416374696F6E3A2070
:1001F0000050726F63657373696E67207265717505
:1002000065737400436C69656E7420636F6E6E6510
:10021000637465642E004C697374656E696E672043
:10022000666F7220636F6E6E656374696F6E732E96
:100230002E2E0074686572652069736E27742061C4
:100240006E206F6276696F7573206D6F6D656E7469
:1002500020746F20646973636F6E6E6563742077BA
:100260006974682061207365727665722E0D0A00CC
:1002700074696D656F757420706572696F64207044
:1002800061737365732E202054686973206973202D
:100290006E6F726D616C206265686176696F7572F0
:1002A0002073696E6365004150206D61792072652D
:1002B0006675736520636F6E6E656374696F6E201B
:1002C00072657175657374732066726F6D207468E2
:1002D000652043433330303020756E74696C206183
:1002E0000073696E636520746865202E64697363AA
:1002F0006F6E6E65637428292066756E6374696F0E
:100300006E206973206E657665722063616C6C6522
:10031000642C20736F20746865000D0A4E4F54459D
:100320003A205468697320736B65746368206D614B
:10033000792063617573652070726F626C656D738F
:100340002077697468206F7468657220736B6574B8
:100350006368657300526571756573742044484322
:100360005000436F6E6E6563746564210046616979
:100370006C656421000A417474656D7074696E6700
:1003800020746F20636F6E6E65637420746F20003D
:10039000436F756C646E277420626567696E2829E7
:1003A0002120436865636B20796F757220776972CD
:1003B000696E673F000A496E697469616C697A69A0
:1003C0006E672E2E2E00414354494F4E3D0041434F
:1003D00054494F4E3D00414354494F4E3D00414327
:1003E00054494F4E3D00414354494F4E3D005069E2
:1003F0006361766574205769466920434333303022
:100400003000485454502F312E3120323030204F9C
:100410004B0A00436F6E74656E742D547970653AA3
:1004200020746578742F68746D6C0A00436F6E6E6B
:10043000656374696F6E3A20636C6F73650A0A00B6
:100440003C21444F43545950452048544D4C3E0A9A
:10045000003C68746D6C3E0A003C68313E54455364
:10046000543C2F68313E0A003C666F726D3E003C82
:10047000696E70757420747970653D746578742048
:100480006E616D653D27636D64272076616C7565CF
:100490003D276D6F76656C656674273E0A003C6982
:1004A0006E70757420747970653D74657874206E13
:1004B000616D653D27646567726565272076616CAF
:1004C00075653D272D313630273E0A003C696E7038
:1004D000757420747970653D277375626D69742732
:1004E0002076616C75653D274D6F7665206C65667D
:1004F00074273E0A003C2F666F726D3E003C6272AC
:100500003E003C666F726D3E003C696E70757420F3
:10051000747970653D74657874206E616D653D27F2
:10052000636D64272076616C75653D276D6F766518
:100530007269676874273E0A003C696E70757420A2
:10054000747970653D74657874206E616D653D27C2
:10055000646567726565272076616C75653D273136
:100560003230273E0A003C696E70757420747970D1
:10057000653D277375626D6974272076616C7565BA
:100580003D274D6F7665207269676874273E0A00C3
:100590003C2F666F726D3E003C62723E003C666F9F
:1005A000726D3E003C696E70757420747970653DA3
:1005B00074657874206E616D653D27636D642720D6
:1005C00076616C75653D276D6F76657570273E0A9F
:1005D000003C696E70757420747970653D7465783F
:1005E00074206E616D653D276465677265652720BF
:1005F00076616C75653D273330273E0A003C696E95
:1006000070757420747970653D277375626D6974B7
:10061000272076616C75653D274D6F7665205550B6
:10062000273E0A003C2F666F726D3E003C62723EB0
:10063000003C666F726D3E003C696E70757420748C
:100640007970653D74657874206E616D653D2763D2
:100650006D64272076616C75653D276D6F766564E6
:100660006F776E273E0A003C696E7075742074794E
:1006700070653D74657874206E616D653D276465B5
:1006800067726565272076616C75653D272D33306F
:10069000273E0A003C696E70757420747970653D60
:1006A000277375626D6974272076616C75653D27C7
:1006B0004D6F766520444F574E273E0A003C2F660B
:1006C0006F726D3E000D0A000D0A00300030780098
:1006D00000000000240027002A0000000000250080
:1006E00028002B000000000023002600290004043D
:1006F00004040404040402020202020203030303CA
:1007000003030102040810204080010204081020A5
:10071000010204081020000000070002010000038D
:10072000040600000000000000006364696E6F7042
:10073000737578585B00E909AB21632B9132103354
:1007400011241FBECFEFD8E0DEBFCDBF12E0A0E086
:10075000B1E0E4ECF0E702C005900D92AC36B107D1
:10076000D9F716E0ACE6B2E001C01D92A33BB10799
:10077000E1F717E0C0E4D7E004C02297FE010E9431
:100780001A38C633D107C9F70E94B9350C946038BE
:100790000C940000FB01DC018D9105908019011083
:1007A000D9F3990B0895FB01DC0105900D9200200F
:1007B000E1F708954CE652E00E9400040895FB0121
:1007C000DC0102C001900D9241505040D8F70895CD
:1007D000FB01DC018D91019080190110D9F3990B77
:1007E0000895FB01DC014150504048F001900D920A
:1007F0000020C9F701C01D9241505040E0F7089514
:10080000009731F4DA018D919C91009709F40EC0A4
:10081000DC01FB013D912191222319F03217C9F32C
:10082000FACF332331F4DA011D921C9288279927DD
:1008300008951197AF93BF93FB013D91219132171A
:1008400071F4332321F488279927119702C01E924F
:100850001196FA01A193B0839F918F91089522235D
:1008600069F7EACFAEE0B0E0E8E3F4E00C943738A3
:100870000D891E8986E08C831A8309838FEF9FE799
:100880009E838D839E01275E3F4FCE0101966F8927
:10089000788DA9010E9470042F813885020F131FE3
:1008A000F80110822E96E4E00C945338AEE0B0E0EC
:1008B000ECE5F4E00C94393885E08C838B899C89D5
:1008C0009A8389839E01295E3F4FCE0101966D89EF
:1008D0007E89A9010E94D1072E96E2E00C9455383A
:1008E000ABE0B0E0E6E7F4E00C9429383C012B01E2
:1008F0005A01FC0117821682838181FD03C06FEFCC
:100900007FEFC6C19AE0892E1E010894211C311C7C
:10091000F3012381F20123FD859123FF81912F01B2
:10092000882309F4B2C1853239F423FD859123FF70
:1009300081912F01853229F490E0B3010E9445098D
:10094000E7CF982FFF24EE249924FFE1FF15D0F084
:100950009B3269F09C3228F4903259F0933291F432
:100960000EC09D3249F0903369F441E024C052E05A
:10097000F52A84E0F82A28C098E0F92A25C0E0E1A9
:10098000FE2A22C0F7FC29C0892F80538A3070F4D8
:10099000F6FE05C0989C902C1124980E15C0E89C7A
:1009A000E02C1124E80EF0E2FF2A0EC09E3229F45A
:1009B000F6FC6BC140E4F42A07C09C3619F450E8F9
:1009C000F52A02C0983649F4F20123FD959123FFE0
:1009D00091912F01992309F0B8CF892F8554833045
:1009E00018F08052833038F444E050E0A40EB51E75
:1009F0005FE359830FC0933631F0933779F0933525
:100A000009F056C020C0F5018081898342E050E0A2
:100A1000A40EB51E610101E010E012C0F501C08016
:100A2000D180F6FC03C06FEF7FEF02C0692D70E04C
:100A300042E050E0A40EB51EC6010E94F8088C01E9
:100A40005FE7F52214C0F501C080D180F6FC03C039
:100A50006FEF7FEF02C0692D70E042E050E0A40E1E
:100A6000B51EC6010E94ED088C0150E8F52AF3FE80
:100A700007C01AC080E290E0B3010E944509EA94E1
:100A80008E2D90E008171907A8F30EC0F601F7FCA9
:100A90008591F7FE81916F0190E0B3010E944509B5
:100AA000E110EA94015010400115110579F7EAC0F0
:100AB000943611F0993669F5F7FE08C0F5012081EA
:100AC00031814281538184E090E00AC0F501808148
:100AD00091819C01442737FD4095542F82E090E09E
:100AE000A80EB91E9FE6F92257FF09C05095409500
:100AF000309521953F4F4F4F5F4FE0E8FE2ACA01E6
:100B0000B901A1012AE030E00E948B09D82ED21849
:100B100040C0953729F41F2D1F7E2AE030E01DC00C
:100B20001F2D197F9F3661F0903720F4983509F01A
:100B3000ACC00FC0903739F0983709F0A6C004C098
:100B400028E030E00AC0106114FD146020E130E0BC
:100B500004C014FD166020E132E017FF08C0F50163
:100B6000608171818281938144E050E008C0F50189
:100B700080819181BC0180E090E042E050E0A40ED1
:100B8000B51EA1010E948B09D82ED2188FE7F82E2E
:100B9000F122F6FE0BC05EEFF522D91438F4F4FE14
:100BA00007C0F2FC05C08FEEF82202C01D2D01C067
:100BB000192DF4FE0DC0FE01ED0DF11D8081803375
:100BC00019F499EEF92208C01F5FF2FE05C003C0B8
:100BD0008F2D867809F01F5F0F2DF3FC14C0F0FEF7
:100BE0000FC01E1510F09D2C0BC09D2C9E0C911A51
:100BF0001E2D06C080E290E0B3010E9445091F5FF0
:100C00001E15C0F304C01E1510F4E11A01C0EE2435
:100C100004FF0FC080E390E0B3010E94450902FF8A
:100C20001DC001FD03C088E790E00EC088E590E09C
:100C30000BC0802F867891F001FF02C08BE201C0CB
:100C400080E2F7FC8DE290E0B3010E94450906C006
:100C500080E390E0B3010E9445099A94D914C0F34F
:100C6000DA94F101ED0DF11D808190E0B3010E9455
:100C70004509DD20A9F706C080E290E0B3010E949B
:100C80004509EA94EE20C1F743CEF30166817781EE
:100C9000CB012B96E2E10C944538FC0120FD08C005
:100CA00023FD05C022FF02C073836283518340830A
:100CB0000895EF92FF920F931F9344FF02C033E019
:100CC00011C046FF02C034E00DC0DB01FC01AA0FD9
:100CD000BB1FEE1FFF1F1094D1F76A0F7B1F8E1FE3
:100CE0009F1F31E0660F771F881F991F3150D1F782
:100CF0007B018C01E20EF11C011D111DA801970161
:100D0000B701CA011F910F91FF90EF9008950F93C3
:100D10001F93CF93DF938C01C8010E940309EC015C
:100D200097FD08C00E941E38892BB1F7CE01B8018B
:100D30000E947109CE01DF91CF911F910F9108950B
:100D4000A0E0B0E0E6EAF6E00C943138EC01C62E03
:100D50005A01122F0E940309AC018B3219F08D3217
:100D600051F41068CA9409F46DC0CE010E940309C1
:100D7000AC0197FD67C06DEFD62ED1228D2D80730B
:100D800001F54033F1F4CA9409F447C0CE010E9442
:100D90000309AC0197FD41C082E0D82A483711F021
:100DA000483559F480E4D82ACA94B9F1CE010E949A
:100DB0000309AC0199232CF430C0D6FC02C080E1B9
:100DC000D82AEE24FF248701242F2053283088F0CE
:100DD000D4FC09C02A3068F0D6FE05C02F7D822FD2
:100DE0008151863028F0CA01BE010E94710912C0EB
:100DF0002750C801B7014D2D0E9459067B018C0177
:100E000082E0D82ACA9461F0CE010E940309AC01A5
:100E100097FFDACFD1FC04C015C0EE24FF24870170
:100E2000D7FE08C010950095F094E094E11CF11CE9
:100E3000011D111DC501B801A7012D2D0E944D06F0
:100E400081E001C080E0CDB7DEB7EAE00C944D3818
:100E5000A0E2B0E0EEE2F7E00C942D386C01A62E93
:100E60008A017901FE01319680E2DF011D928A95A7
:100E7000E9F770E030E060E040E050E04F01A1E0D1
:100E8000B0E0F6018381F70183FD259183FF219175
:100E90007F01222309F47EC02E3519F44115510536
:100EA00069F1872F90E08417950744F42D3551F1AF
:100EB0002D3221F4332329F431E021C0332309F406
:100EC000622F322F832F869586958695F401E80F41
:100ED000F11D832F87703D0102C0660C771C8A9537
:100EE000E2F7208126292083361711F430E007C06D
:100EF000361710F43F5FE6CF3150E4CF71E04F5F1B
:100F00005F4FBFCF332319F08E8180628E837723AA
:100F100059F0FE0131969E012F5D3F4F80818095F3
:100F20008193E217F307D1F7BB24B3944E010894E1
:100F3000811C911CC6010E940309AC0197FD22C0CF
:100F4000869586958695F401E80FF11D808190E0E5
:100F50009A012770307002C0959587952A95E2F71F
:100F600080FD05C0CA01B6010E9471090BC00115C0
:100F7000110519F0D8014D938D01AA94BB24AA2024
:100F8000C9F602C0BB2031F40115110529F0F801A2
:100F9000108202C0EE24FF24C701A096EEE00C945C
:100FA0004938A0E0B0E0E7EDF7E00C942D385C01A3
:100FB0006B013A01FC01178216828824EAC0812F56
:100FC00090E00E941E38892B21F0C5010E948706FF
:100FD000E0C0153249F4F601F3FC6591F3FE61912E
:100FE0006F01653269F415E2C5010E94030997FD9E
:100FF000DCC0181709F4CDC0B5010E947109DAC030
:101000006A3219F0162F00E006C0F3FC1591F3FECA
:1010100011916F0101E099240FC00260692D70E009
:1010200080E090E040E20E945906962EF601F3FC23
:101030001591F3FE11916F01212F20532A3068F38F
:1010400001FD03C099249A9403C0992009F4B2C009
:10105000183621F01C3699F4F6010BC0F601F3FCAA
:101060006591F3FE6191683619F06F01162F07C084
:1010700008600460F3FC1591F3FE11916F011123D8
:1010800009F498C08AE297E0612F70E00E94E208BC
:10109000892B09F48FC0802F00FF03C0EE24FF24AA
:1010A00007C0F301E080F18022E030E0620E731EA1
:1010B0001E3651F4F5014681578160E070E0C701AA
:1010C000202F0E944D0665C0133691F481FD02C0A9
:1010D00099249394C5010E94030997FD66C0E11409
:1010E000F10419F0F70181937F019A9499F74FC0A9
:1010F0001B3559F4C501692DA70196010E942807E7
:101100006C01009709F043C03DC0C5010E948706ED
:1011100097FD4BC01F3659F1103728F4143629F1CA
:10112000193639F527C0133719F0153711F51DC0D9
:10113000C5010E940309EC0197FD11C00E941E38F1
:10114000892B29F0CE01B5010E94710908C0E11474
:10115000F10419F0F701C1937F019A9449F7E11462
:10116000F104A9F0F701108212C0006203C000610F
:1011700001C00064C501692DA701202F0E94A006AF
:10118000882329F4F5018381807379F413C000FF6B
:101190008394F501F380F601F3FC1591F3FE1191B0
:1011A0006F01112309F00BCF05C0882019F42FEF30
:1011B0003FEF02C0282D30E0C901CDB7DEB7EEE029
:1011C0000C944938FC010590061621F00020D9F74F
:1011D000C00108953197CF010895FC010590615039
:1011E00070400110D8F7809590958E0F9F1F08953D
:1011F000FC016150704001900110D8F780959095E6
:101200008E0F9F1F0895CF93DF93EC014B8140FF1A
:101210001AC046FF0AC04F7B4B838E819F81019687
:101220009F838E838A81282F2BC042FF13C0E881C1
:10123000F9818081282F332727FD3095211531052D
:1012400029F440624B832FEF3FEF1BC03196F983A7
:10125000E88311C0EA85FB85CE0109959C0197FFC3
:101260000AC09B812F5F3F4F11F080E201C080E1F7
:10127000892B8B83E8CF8E819F8101969F838E83FC
:1012800030E0C901DF91CF9108950F931F93CF9361
:10129000DF938C01EB018B8181FF1BC082FF0DC0AE
:1012A0002E813F818C819D812817390764F4E88164
:1012B000F9810193F983E88306C0E885F985802FD9
:1012C0000995892B31F48E819F8101969F838E83AE
:1012D00002C00FEF1FEFC801DF91CF911F910F9157
:1012E00008959C01FB01838180FF11C086FD0FC022
:1012F0009FEF2F3F390759F0228380648F7D8383CE
:101300008681978101979783868330E002C02FEF13
:101310003FEFC9010895FA01AA27283051F1203181
:1013200081F1E8946F936E7F6E5F7F4F8F4F9F4F79
:10133000AF4FB1E03ED0B4E03CD0670F781F891FBB
:101340009A1FA11D680F791F8A1F911DA11D6A0F89
:10135000711D811D911DA11D20D009F468943F913C
:101360002AE0269F11243019305D3193DEF6CF013B
:101370000895462F4770405D4193B3E00FD0C9F701
:10138000F6CF462F4F70405D4A3318F0495D31FD6E
:101390004052419302D0A9F7EACFB4E0A6959795C1
:1013A000879577956795BA95C9F700976105710597
:1013B00008959B01AC010A2E0694579547953795E1
:1013C0002795BA95C9F7620F731F841F951FA01D3B
:1013D0000895EF92FF920F9387E694E060E040E07B
:1013E00020E000E00E9404338EE692E06AE043E0F1
:1013F00025E004E03DEFE32E35E0F32E0E9451217D
:101400008FE692E060E570E00E942A2D0F91FF9038
:10141000EF900895EF92FF920F931F93DF93CF9376
:10142000CDB7DEB764970FB6F894DEBF0FBECDBF61
:101430008EE692E0BE016F5F7F4FAE014B5F5F4F64
:101440009E01275F3F4F8E01035F1F4FE1E1EE2EAC
:10145000F12CEC0EFD1E0E948326882341F48DEFB3
:1014600095E069ED70E00E94EC3380E04BC08DEFB9
:1014700095E06EEC70E00E94A13349815A816B8146
:101480007C818EE692E00E94DB278DEF95E063EC95
:1014900070E00E94A1334D815E816F8178858EE678
:1014A00092E00E94DB278DEF95E068EB70E00E94F0
:1014B000A13349855A856B857C858EE692E00E9432
:1014C000DB278DEF95E06DEA70E00E94A1334D853A
:1014D0005E856F8578898EE692E00E94DB278DEF2E
:1014E00095E062EA70E00E94A13349895A896B89CC
:1014F0007C898EE692E00E94DB278DEF95E00E94CA
:10150000CC3381E064960FB6F894DEBF0FBECDBF3A
:10151000CF91DF911F910F91FF90EF9008950F935E
:101520001F93CF93DF93EB018A0160E071E00E948B
:10153000DA03BC01009729F0CE014AE050E00E9496
:10154000F10380E090E060E071E00E94DA03BC010A
:10155000009729F0C80144E650E00E94F103DF91B2
:10156000CF911F910F910895DC01623071059CF0BD
:10157000FC01E60FF71F3297808132968D3059F4C7
:10158000319780818A3039F4CD01BA01A9010E94D6
:101590008F0A81E0089580E00895EF92FF920F9303
:1015A0001F93DF93CF93CDB7DEB72C970FB6F89488
:1015B000DEBF0FBECDBF8C018DEF95E061E871E01D
:1015C0000E94EC338DEF95E062E071E00E941335EC
:1015D0008DEF95E0B8010E9413358DEF95E06EE038
:1015E00071E00E9416358DB79EB708970FB6F89434
:1015F0009EBF0FBE8DBFEDB7FEB73196ADB7BEB77C
:1016000012961C930E93119780E191E0938382834D
:10161000A3E0EA2EF12CEC0EFD1EF582E482CE0151
:101620000196978386830E9456048C018DB79EB7DE
:1016300008960FB6F8949EBF0FBE8DBF8DEF95E054
:101640006BE771E00E94A1338DEF95E0B7010E9436
:1016500013358DEF95E061E771E00E94A133698158
:101660007A818DEF95E04AE050E00E94E1348DEF01
:1016700095E06EE671E00E94A1338DEF95E0B80130
:101680004AE050E00E94E1348DEF95E06CE671E0B5
:101690000E94EC33C7016EEF70E00E94CA03892BF1
:1016A00029F48DEF95E069E571E026C0C70167E098
:1016B00071E00E94CA03892B29F48DEF95E065E45F
:1016C00071E01AC0C70161E171E00E94CA03892B71
:1016D00029F48DEF95E064E371E00EC0C70168E185
:1016E00071E00E94CA03892B19F02FEF3FEF08C069
:1016F0008DEF95E061E271E00E94EC3320E030E094
:10170000C9012C960FB6F894DEBF0FBECDBFCF91A6
:10171000DF911F910F91FF90EF900895AF92BF92CC
:10172000CF92DF92EF92FF920F931F93DF93CF93AD
:10173000CDB7DEB762970FB6F894DEBF0FBECDBF50
:101740008E010B5F1F4FC8016FE672E00E94452CAF
:10175000C8010E94C929882309F426C18DEF95E0AC
:1017600064E072E00E94EC331092F6031092F503ED
:1017700083E8E2E7F3E0DF011D928A95E9F78BE069
:10178000E7EFF3E0DF011D928A95E9F785E6E2E0F5
:10179000F4E0DF011D928A95E9F70E9410366B0193
:1017A0007C0184EF91E0A0E0B0E0C80ED91EEA1EF3
:1017B000FB1E580120C00091F5031091F603C501EE
:1017C0000E94452AF801EE58FC4F80830F5F1F4F9F
:1017D0001093F6030093F5036091F5037091F603FF
:1017E00082E793E047EF53E022E034E00E94B40A3E
:1017F000882309F0B1C00E9410366C157D058E0556
:101800009F0508F089C08091F5039091F603823816
:1018100091050CF081C0C5010E94582A892BE1F284
:10182000CACF82E094E00E94CD0A6C0100E010E093
:1018300025E0E22EF12CEC0EFD1EF801EE0FFF1F4D
:10184000E859FF4F6591749182E094E00E94D303C0
:10185000C70162E074E00E94822D0F5F1F4F0330CA
:10186000110559F700E010E085E0E82EF12CEC0EB0
:10187000FD1EF801EE0FFF1FE259FF4F65917491B5
:1018800082E094E00E94D303C70162E074E00E940A
:10189000822D0F5F1F4F0A31110559F7C70160ED07
:1018A00071E00E94752D00D000D000D0EDB7FEB7DA
:1018B00031968E010F5F1F4FADB7BEB712961C93C6
:1018C0000E93119788E291E093838283D582C4823C
:1018D0000E9432048DB79EB706960FB6F8949EBF4D
:1018E0000FBE8DBFC701B8010E94822DC70169ECF0
:1018F00071E00E94752DC70161EC71E00BC08E0193
:101900000B5F1F4FC80161EA71E00E94682DC8019A
:1019100060EA71E00E94682D64E670E080E090E08B
:101920000E9459368DEF95E06BE271E00E9413350D
:101930000E94B70EBC018DEF95E04AE050E00E9496
:10194000F4348DEF95E06CE871E00E94EC33CE0149
:1019500005960E94572D28C08DEF95E061EF71E04C
:101960000E94EC338DEF95E068EE71E00E94A133A8
:101970008DEF95E067EF73E00E9416358DEF95E0EF
:1019800061EE71E00E94A1338DEF95E062E074E0BA
:101990000E94163587EF93E066E371E00E94E8034A
:1019A000009709F43ECFABCF62960FB6F894DEBF36
:1019B0000FBECDBFCF91DF911F910F91FF90EF90A0
:1019C000DF90CF90BF90AF9008950F931F93DF9358
:1019D000CF93CDB7DEB7C557D0400FB6F894DEBF72
:1019E0000FBECDBF8DEF95E040E052EC61E070E0BE
:1019F00026E00E944B318DEF95E06EEE73E00E9481
:101A0000EC33DE01A05CBF4FEBE4F1E08BE1019031
:101A10000D928150E1F7CE01805C9F4F0E94CD0A6C
:101A20008C018DEF95E066EE73E00E94A1338DEF9F
:101A300095E0B8014AE050E00E94F434DE01A55A76
:101A4000BF4FE6E6F1E08BE101900D928150E1F7A6
:101A5000CE01855A9F4F0E94CD0A8C018DEF95E0F3
:101A60006EED73E00E94A1338DEF95E0B8014AE07E
:101A700050E00E94F434DE011E96E1E8F1E088E1D6
:101A800001900D928150E1F7CE010E960E94CD0A91
:101A90008C018DEF95E066ED73E00E94A1338DEF30
:101AA00095E0B8014AE050E00E94F434DE019696D9
:101AB000E9E9F1E08AE101900D928150E1F7CE0170
:101AC00086960E94CD0A8C018DEF95E06EEC73E056
:101AD0000E94A1338DEF95E0B8014AE050E00E94EA
:101AE000F434DE011196E3EBF1E08DE001900D920C
:101AF0008150E1F7CE0101960E94CD0A8C018DEF55
:101B000095E066EC73E00E94A1338DEF95E0B8019B
:101B10004AE050E00E94F4348DEF95E06BE271E012
:101B20000E9413350E94B70EBC018DEF95E04AE08C
:101B300050E00E94F4348DEF95E065EB73E00E9475
:101B4000EC338EE692E060E040E020E030E00E947E
:101B50002D28882339F48DEF95E060E973E00E9429
:101B6000EC33FFCF8DEF95E065E773E00E94A13382
:101B70008DEF95E06AE371E00E9416358EE692E003
:101B80006AE371E040E451E023E000E00E944F2965
:101B9000882339F48DEF95E06DE673E00E94EC3315
:101BA000FFCF8DEF95E062E673E00E94EC338DEF9E
:101BB00095E065E573E00E94EC3306C064E670E0F2
:101BC00080E090E00E9459368EE692E00E946925FE
:101BD0008823A1F306C068EE73E080E090E00E94E5
:101BE00059360E940A0A8823B1F38DEF95E06AE125
:101BF00073E00E94EC338DEF95E061EE72E00E949D
:101C0000EC338DEF95E067EA72E00E94EC338DEFE4
:101C100095E060E772E00E94EC338DEF95E063E3BE
:101C200072E00E94EC338FE692E00E945E2C8DEF12
:101C300095E066E172E00E94EC33CB58DF4F0FB6BF
:101C4000F894DEBF0FBECDBFCF91DF911F910F91F2
:101C50000895882319F48CB5806202C08CB58F7DFD
:101C60008CBD08959CB5937F982B9CBD08952CB591
:101C7000382F33702C7F322B3CBD2DB590E09595DD
:101C800087959595879581702E7F822B8DBD0895C0
:101C90008AE061E00E9400378AE061E00E94C1367C
:101CA0008CB580618CBD8CB580648CBD8DE061E0AD
:101CB0000E94C1368BE061E00E94C1360895CF9347
:101CC000DF93FC01DC014D939D01BB27A72F962FCD
:101CD000852F8183F9013196CB01AA27BB27E90122
:101CE0008983472F55276627772741833296CF016F
:101CF000DF91CF910895DC01FC01619311967C93F3
:101D00003196CF010895FB01E80FF91F318120E0E2
:101D10008081280F311DC9010895FB01E80FF91FCB
:101D2000238130E040E050E0522F44273327222720
:101D3000828190E0A0E0B0E0DC0199278827280F9D
:101D4000391F4A1F5B1F8081280F311D411D511D06
:101D5000818190E0A0E0B0E0BA2FA92F982F8827CA
:101D6000280F391F4A1F5B1FB901CA010895DF936D
:101D7000CF9300D0CDB7DEB72091AD063091AE063F
:101D8000CE0101962115310519F4835B964002C0FE
:101D9000821B930B9A83898389819A810F900F907C
:101DA000CF91DF910895AF92BF92CF92DF92EF92E1
:101DB000FF920F931F9359016A01683071058105E5
:101DC0009105A0F522E0A216B104C104D10470F57A
:101DD00021E030E0062E02C0220F331F0A94E2F702
:101DE00020953095442737FD4095542FE090D00141
:101DF000F090D1010091D2011091D3012E213F2109
:101E000040235123062E04C0AA0CBB1CCC1CDD1C95
:101E10000A94D2F72A293B294C295D292093D00125
:101E20003093D1014093D2015093D3011F910F9170
:101E3000FF90EF90DF90CF90BF90AF9008959B01FF
:101E4000AC016830710581059105E8F481E090E00E
:101E500002C0880F991F2A95E2F79C01442737FD9D
:101E60004095542F8091D0019091D101A091D20141
:101E7000B091D301282339234A235B23211531054F
:101E80004105510521F021E030E040E050E0B9018A
:101E9000CA0108958F929F92AF92BF92CF92DF9224
:101EA000EF92FF920F931F93DF93CF93CDB7DEB7DF
:101EB000A9970FB6F894DEBF0FBECDBF8C0161E0CD
:101EC00070E00E94830E9C016C01EE24FF24D6FE7C
:101ED0006DC081E42030380709F068C0C80165E0B2
:101EE00070E00E94830E4C0197E0A92EB12CA00E49
:101EF000B11ECC24DD24EE24FF24870112C0C501CD
:101F000062E070E00E94830EA0E0B0E0E80EF91EEF
:101F10000A1F1B1FA4E0B0E0AA0EBB1E0894C11C40
:101F2000D11CC814D90458F38091890490918A0473
:101F30008E0D9F1D90938A0480938904809195044F
:101F400090919604A0919704B0919804E80EF91E20
:101F50000A1F1B1FE0929504F092960400939704C9
:101F60001093980420919504309196044091970421
:101F7000509198048091910490919204A0919304BF
:101F8000B0919404281739074A075B0709F0ADC0E0
:101F900080919904882309F4A8C0E0917B04F09112
:101FA0007C0469E970E080E090E04AC0C60180707E
:101FB0009078892B09F4F2C0B0E820343B0709F48B
:101FC00099C0E0E821343E07A0F4F0E824303F0750
:101FD00051F180E82530380738F42150304822305C
:101FE000310508F07EC11FC02051304809F079C189
:101FF0002BC0A4E820303A07B1F0B4E821303B0709
:1020000048F4E0E820383E0771F02050324809F0EB
:1020100068C109C088E82030380709F4ADC02050F5
:10202000394809F05EC180917B0490917C04892B32
:1020300009F45BC0E0917B04F0917C04C701B60118
:1020400040E050E020E050C0F8013596D8011596E8
:102050008C9115978D8B81818E8B82818F8B838163
:10206000888FF801399619968C911997898F8181FB
:102070008A8F82818B8F83818C8FF8013D961D968C
:102080008C911D978D8F81818E8F82818F8F83811F
:1020900088A3F801719651968C91519789A38181FB
:1020A0008AA382818BA383818CA3F80175965596B0
:1020B0008C9155978DA381818EA382818FA383817B
:1020C00088A714968C9189A780917B0490917C04B9
:1020D000892B59F0E0917B04F0917C04C701B60193
:1020E000AE014B5E5F4F25E1099521E030E040E015
:1020F00050E0FBC00B5F1F4FC80160E070E00E9422
:102100008D0E69837A838B839C83C80164E070E0C1
:102110000E948D0E6D837E838F839887C80168E04F
:1021200070E00E948D0E69877A878B879C87C80133
:102130006CE070E00E948D0E6D877E878F87988B94
:10214000C80160E170E00E948D0E9B01AC0180919E
:102150007B0490917C04892B41F2E0917B04F09107
:102160007C04298B3A8B4B8B5C8BC701B601AE018B
:102170004F5F5F4F24E1B8CF80917B0490917C0446
:10218000892B09F4B2CFE0917B04F0917C040B5FC2
:102190001F4FC701B601A80121E0A6CFB3E0CB16BF
:1021A000B0E1DB06B0E0EB06B0E0FB0699F0EFE053
:1021B000CE16E0E1DE06E0E0EE06E0E0FE0651F0DD
:1021C000FEE0CF16F0E1DF06F0E0EF06F0E0FF06FC
:1021D00009F06AC085E0C82ED12CC00ED11EC60100
:1021E00064E070E00E948D0E675C7F4F8F4F9F4FC1
:1021F00009F077C0D80114968C9190E0A0E0B0E08F
:102200008093850490938604A0938704B0938804F8
:10221000C60160E070E00E948D0E7B018C01C6015A
:1022200064E070E00E948D0E675C7F4F8F4F9F4F80
:1022300009F05BCFE8E0EE16F1040105110508F0A6
:1022400054CF81E090E00E2C02C0880F991F0A94B1
:10225000E2F780959095AA2797FDA095BA2F209137
:10226000D0013091D1014091D2015091D30182230C
:102270009323A423B52321E030E040E050E00E2C6E
:1022800004C0220F331F441F551F0A94D2F7822B1C
:10229000932BA42BB52B8093D0019093D101A093C5
:1022A000D201B093D30121CF80916D0490916E043F
:1022B000A0E0B0E0C816D906EA06FB0691F060E09F
:1022C000F0E0CF16F0E1DF06F0E0EF06F0E0FF0609
:1022D00009F461E081E06827262F30E040E050E01B
:1022E00004C020E030E040E050E0B901CA01A99606
:1022F0000FB6F894DEBF0FBECDBFCF91DF911F9117
:102300000F91FF90EF90DF90CF90BF90AF909F9094
:102310008F90089580916F0490917004892BD1F073
:10232000E0917104F09172048081843099F4CF01BE
:102330000E944A0F613071058105910559F4109290
:10234000700410926F040E94112E21E030E040E0F2
:1023500050E004C020E030E040E050E0B901CA01A4
:102360000895DF93CF9300D000D0CDB7DEB71982A8
:102370001A821B821C82FC018581823021F183300C
:1023800009F43FC0813009F05FC0809177049091DB
:102390007804892B91F0E0917704F0917804CE01D4
:1023A00001960995AC01009741F06091730470911A
:1023B000740429813A8181E045C060917304709171
:1023C000740481E03BC08091750490917604892B60
:1023D00091F0E0917504F0917604CE010196099593
:1023E000AC01009741F060917304709174042981ED
:1023F0003A8182E027C0609173047091740482E096
:102400001DC08091790490917A04892B91F0E0911C
:102410007904F0917A04CE0101960995AC010097F8
:1024200041F0609173047091740429813A8183E0D2
:1024300009C0609173047091740483E040E050E03F
:1024400020E030E00E94D0150F900F900F900F9079
:10245000CF91DF9108954F925F926F927F928F920A
:102460009F92AF92BF92CF92DF92EF92FF920F9323
:102470001F93CF93DF936C012B013A01AA24BB2455
:102480000E94472F80916F0490917004892BC1F3B3
:102490008090710490907204D4018C91843009F082
:1024A000BFC2C40161E070E00E94830E5C01C40100
:1024B0000E944A0F611571058105910509F0A4C2BA
:1024C000E4012596B8E0AB16B0E1BB0608F056C0B3
:1024D000E6E0AE16E0E1BE0608F0CCC0F2E0AF16D2
:1024E000F2E0BF0609F4C6C003E0A01602E0B006A1
:1024F00000F51DE0A116B10480F468E0A616B10451
:1025000008F0B8C081E0A816B10408F47DC297E0D5
:10251000A916B10408F4AEC0D4C1ADE0AA16B10446
:1025200009F4A3C0B1E0AB16B2E0BB0609F06CC27F
:102530009CC0E3E0AE16E0E1BE0698F4F1E0AF1611
:10254000F0E1BF0608F096C005E0A01602E0B00674
:1025500008F48BC017E0A11612E0B10609F054C2CE
:102560008DC064E0A61660E1B60609F4DCC085E023
:10257000A81680E1B80608F0B1C042C191E1A916E1
:1025800090E1B90609F471C0A2E1AA16A0E1BA0669
:1025900058F5BBE0AB16B0E1BB0609F46BC0ECE04C
:1025A000AE16E0E1BE0668F4F9E0AF16F0E1BF0652
:1025B00009F460C00AE0A01600E1B00608F073C19B
:1025C0003AC11FE0A11610E1B10609F419C160E19A
:1025D000A61660E1B60608F061C08DE0A81680E19D
:1025E000B80609F011C29FC095E0A91690E2B9069D
:1025F00009F4A4C1A6E0AA16A0E2BA0668F4B2E102
:10260000AB16B0E1BB0609F460C0E1E0AE16E0E253
:10261000BE0608F4F9C129C0FAE0AF16F0E2BF0621
:1026200060F408E0A01600E2B006F8F416E0A11687
:1026300010E2B10609F0E8C118C06BE0A61660E42C
:10264000B60609F0E1C1D40115968C9190E0909303
:102650008A0480938904CE0161E070E00E94830EB9
:1026600090938C0480938B04CFC1E4018C81F6019C
:102670008083CAC1CE0160E070E01EC0F401848195
:10268000D6018D936D01CE0160E070E00E948D0E49
:10269000AB01BC01C6010E945F0EB6C1CE0160E075
:1026A00070E00E948D0EF601619371938193919376
:1026B0006F01CE0164E070E00E948D0ED6016D9333
:1026C0007D938D939C9313979FC1CE0160E070E042
:1026D0000E94830EE6019983888396C1CE0160E053
:1026E00070E00E948D0EF601619371938193919336
:1026F0008F01CE0164E070E00E948D0ED601149629
:102700006D937D938D939C931797E4E0CE2ED12CFF
:10271000C00ED11ED601FE01389680E101900D92C7
:102720008150E1F771C1CE0160E070E00E948D0E32
:10273000F60161937193819391938F01CE0164E0CF
:1027400070E00E948D0ED60114966D937D938D934B
:102750009C93179774E0C72ED12CC00ED11ECE01CA
:1027600068E070E00E948D0E9B01AC01E8016C8373
:102770007D838E839F83F60184819581A681B781B5
:10278000875C9F4FAF4FBF4F09F03EC128303105E6
:102790004105510508F038C1822F21E030E0082EB4
:1027A00002C0220F331F0A94E2F720953095442788
:1027B00037FD4095542FE090D001F090D101009169
:1027C000D2011091D3012E213F214023512361E0FA
:1027D000E62EF12C012D112D04C0EE0CFF1C001F64
:1027E000111F8A95D2F72E293F29402B512B209378
:1027F000D0013093D1014093D2015093D30104C151
:10280000CE0160E070E00E948D0ED6016D937D9345
:102810008D939D938D01CE0164E070E00E948D0E3A
:10282000E6016C837D838E839F8354E0C52ED12C7B
:10283000C00ED11EE9C0CE0160E070E00E948D0E96
:10284000F60161937193819391938F01CE0164E0BE
:1028500070E00E948D0ED60114966D937D938D933A
:102860009C93179744E0E42EF12CE00EF11ECE016C
:1028700068E070E00E948D0EF801648375838683A2
:10288000978334E0C32ED12CCE0CDF1CCE016CE03C
:1028900070E00E948D0ED70114966D937D938D93F9
:1028A0009C931797B1C0E4018C81F60184838D81DC
:1028B0009E81AF81B885E60188839983AA83BB8313
:1028C000A3C0CE0160E070E00E948D0EF60161931E
:1028D0007193819391938F01CE0164E070E00E9427
:1028E0008D0ED60114966D937D938D939C931797BF
:1028F000CE0168E070E00E94830EA0E0B0E0F80135
:1029000084839583A683B783CE016AE070E00E943A
:10291000830EA0E0B0E0F60182879387A487B58795
:102920002CE0E22EF12CCE0CDF1CD601FE013C96F1
:1029300086E201900D928150E1F766C0D4011596B0
:102940008C91F60181938981D60111968C93119710
:102950008A8181838B8182831496F4013996E40104
:102960008985E6018C8381818D8382818E83838139
:102970008F839D012C5F3F4FF4013D96E4018D85CF
:1029800014968C9314978181E601898782818A87C6
:1029900083818B87F4017196E4018989E9018C8335
:1029A0008181E6018D8782818E8783818F87F40103
:1029B0007596E4018D89E901888781811D968C9344
:1029C0001D9782811E968C931E9783811F968C93F0
:1029D000E4019601F401D601A4014A5F5F4F818DA5
:1029E00054968C93549731961196E417F507B9F7DE
:1029F000A401405E5F4F8F8DF901828F21962F5F7A
:102A00003F4FC417D507B9F780916D0490916E04BC
:102A1000A816B906B9F510926E0410926D0432C072
:102A2000D40112960C91C40163E070E00E94830E01
:102A3000EC0141145104A1F0C401059664E070E07A
:102A40000E948D0E462FF3016083718382839383EE
:102A500094012B5E3F4FC201B90150E00E94DF0399
:102A6000202F30E0FE01E21BF30B2B5F3F4F280DC0
:102A7000391DC601B901AF010E94DF031092900415
:102A800010928F041092700410926F040E94112E05
:102A9000D4018C91843041F4B0E0AB16B0E1BB06B8
:102AA00019F4C4010E94B11180916D0490916E04DB
:102AB000892B09F0E5CC80918F0490919004892BAB
:102AC00009F0DECC80E090E0DF91CF911F910F9173
:102AD000FF90EF90DF90CF90BF90AF909F908F903E
:102AE0007F906F905F904F90089521E030E0309399
:102AF000900420938F040E942B12089590936E04EB
:102B000080936D04CB0160E070E040E050E00E94F3
:102B10002B120895CF92DF92EF92FF920F931F93A3
:102B20006B01890192E0FB01958386834783040F43
:102B3000151F0E0D1F1DCB010896B8010E947B0EBC
:102B40000B5F1F4FC601B8010E94CD2F60E070E0FF
:102B500080E090E01F910F91FF90EF90DF90CF9079
:102B60000895EF92FF920F931F939C017B01042F16
:102B700081E0FB018583CB010696B9010E947B0EA3
:102B8000FC01008310E00C5F1F4FC701B8010E94D9
:102B9000CD2F80E090E01F910F91FF90EF9008956E
:102BA0004F925F926F927F928F929F92AF92BF925D
:102BB000CF92DF92EF92FF920F931F93CF93DF9309
:102BC0006B014A01E90145E0442E512C460E571E87
:102BD00093E0FB019583868337E0632E712C660EAC
:102BE000771E8E010E5F1F4FC301B8010E947B0E3E
:102BF0007C012BE0A22EB12CAC0CBD1CF3E0C93E35
:102C0000DF0790F4BE010E947B0EC701BE010E9447
:102C10007B0EC501B401AE010E94DF032696C601FA
:102C2000BE010E94CD2F47C0CE0168EE73E00E9426
:102C3000C737660F771F060F171FC701B8010E941D
:102C40007B0EC70168EE73E00E947B0ED501F40194
:102C500088EE93E001900D920197E1F78E01085EF6
:102C6000134088EEE82E83E0F82EE80CF91CC6012C
:102C70006EEE73E01BC00E94472F83E0093E1807E9
:102C800020F4E80100E010E004C0085E1340C8EE44
:102C9000D3E0F201D183C083C301B701AE010E942A
:102CA000DF03EC0EFD1E2296C201BE010E94CD2F55
:102CB0000115110501F7DF91CF911F910F91FF9041
:102CC000EF90DF90CF90BF90AF909F908F907F90CC
:102CD0006F905F904F9008950F931F938C016091B8
:102CE00073047091740485E090E240E00E94B11595
:102CF00085E090E2B8010E947E151F910F91089522
:102D00008F929F92AF92BF92CF92DF92EF92FF92FB
:102D10000F931F93DF93CF930F92CDB7DEB74C0184
:102D20008B017A0169018FEF8983A0907304B090C1
:102D30007404F40180819181A281B3810197A1097A
:102D4000B1090997A105B10540F48AE090E0A0E03F
:102D5000B0E080839183A283B383F8018081918165
:102D6000A281B3810197A109B1090997A105B10514
:102D700040F48AE090E0A0E0B0E080839183A283F9
:102D8000B383F70180819181A281B3810197A10969
:102D9000B1090997A105B10540F48AE090E0A0E0EF
:102DA000B0E080839183A283B383F6018081918117
:102DB000A281B3810197A109B1090997A105B105C4
:102DC00040F48AE090E0A0E0B0E080839183A283A9
:102DD000B383F4014081518162817381C5010996F9
:102DE0000E945F0EF80140815181628173810E94CF
:102DF0005F0EF70140815181628173810E945F0EF5
:102E0000F60140815181628173810E945F0E89E0E9
:102E100090E2B50144E10E94B11589E090E2BE0163
:102E20006F5F7F4F0E947E152981332727FD3095E4
:102E3000432F532FB901CA010F90CF91DF911F91FA
:102E40000F91FF90EF90DF90CF90BF90AF909F9049
:102E50008F900895CF92DF92EF92FF920F931F937E
:102E6000DF93CF930F92CDB7DEB7D62EC72E8A0150
:102E70004132510518F02FEF3FEF36C0E090730458
:102E8000F0907404AC0160E070E0C70109960E9404
:102E90005F0E48E050E060E070E00E945F0EA80125
:102EA00060E070E00E945F0EDC018D2D9C2DFC0126
:102EB0009F01200F311F02C081918D93E217F3070C
:102EC000D9F7402F445F81E190E1B7010E94B1152D
:102ED00081E190E1BE016F5F7F4F0E947E15898185
:102EE000282F332727FD3095C9010F90CF91DF910F
:102EF0001F910F91FF90EF90DF90CF9008952F9248
:102F00003F924F925F926F927F928F929F92AF9279
:102F1000BF92CF92DF92EF92FF920F931F93DF93B6
:102F2000CF93CDB7DEB728970FB6F894DEBF0FBEAC
:102F3000CDBF2B013C012D833E834F835887160163
:102F4000C0907304D0907404C6010996B301A20125
:102F50000E945F0E4D815E816F8178850E945F0EB9
:102F6000B801A7010E945F0E48E050E060E070E009
:102F70000E945F0EB501A4010E945F0EBC0120E01B
:102F800030E040E050E00CC0F901DB01A20FB31FBC
:102F9000E20DF31D80818C932F5F3F4F4F4F5F4FAA
:102FA000281539054A055B0578F3482D4C5E89E004
:102FB00090E1B6010E94B11589E090E1BE016F5F1A
:102FC0007F4F0E947E1529813A814B815C8157FD9C
:102FD00003C060E070E005C0B9013093B2062093F1
:102FE000B106CB0128960FB6F894DEBF0FBECDBF59
:102FF000CF91DF911F910F91FF90EF90DF90CF90D5
:10300000BF90AF909F908F907F906F905F904F9008
:103010003F902F900895CF92DF92EF92FF920F93FF
:103020001F93DF93CF9300D000D0CDB7DEB78B01D5
:103030009C01F42EE52E8FEF9FEFAFEFBFEF89835A
:103040009A83AB83BC83C0907304D0907404C60190
:103050000996B901A8010E945F0E48E050E060E0C7
:1030600070E00E945F0E48E050E060E070E00E9477
:103070005F0EDC018F2D9E2DFC019F01285F3F4FCD
:1030800081918D93E217F307D9F787E090E1B601BC
:1030900044E10E94B11587E090E1BE016F5F7F4F70
:1030A0000E947E1569817A818B819C819B0120938E
:1030B000B1063093B2060F900F900F900F90CF9102
:1030C000DF911F910F91FF90EF90DF90CF900895C7
:1030D000AF92BF92CF92DF92EF92FF920F931F9326
:1030E000DF93CF93CDB7DEB728970FB6F894DEBF46
:1030F0000FBECDBFB82EA92E8B016A018FEF9FEFB7
:103100009093B2068093B106673E710518F02FEFD9
:103110003FEF3BC0E0907304F0907404C701099640
:1031200048E050E060E070E00E945F0EA80160E0BF
:1031300070E00E945F0EDC018B2D9A2DFC019F0137
:10314000200F311F02C081918D93E217F307D9F749
:10315000402F485F80E190E1B7010E94B11580E106
:1031600090E1BE016F5F7F4F0E947E1529813A81F9
:103170003093B2062093B1068D819E81AF81B885D0
:10318000F60180839183A283B383C90128960FB689
:10319000F894DEBF0FBECDBFCF91DF911F910F918D
:1031A000FF90EF90DF90CF90BF90AF9008958F92F7
:1031B0009F92AF92BF92CF92DF92EF92FF920F93C6
:1031C0001F93DF93CF9300D000D0CDB7DEB77B0144
:1031D0008C0159016A018FEF9FEFAFEFBFEF898339
:1031E0009A83AB83BC838090730490907404C40171
:1031F0000996B801A7010E945F0EB601A5010E94C1
:103200005F0E86E090E1B40148E00E94B11586E0CF
:1032100090E1BE016F5F7F4F0E947E1569817A81C8
:103220008B819C819B012093B1063093B2060F9055
:103230000F900F900F90CF91DF911F910F91FF9002
:10324000EF90DF90CF90BF90AF909F908F900895B8
:10325000CF92DF92EF92FF920F931F93DF93CF9362
:1032600000D000D0CDB7DEB78B019C01F42EE52E47
:103270008FEF9FEFAFEFBFEF89839A83AB83BC8360
:10328000C0907304D0907404C6010996B901A801D6
:103290000E945F0E48E050E060E070E00E945F0E28
:1032A00048E050E060E070E00E945F0EDC018F2D8E
:1032B0009E2DFC019F01285F3F4F81918D93E21766
:1032C000F307D9F782E090E1B60144E10E94B1151D
:1032D00082E090E1BE016F5F7F4F0E947E156981A1
:1032E0007A818B819C819B012093B1063093B20639
:1032F0000F900F900F900F90CF91DF911F910F9132
:10330000FF90EF90DF90CF9008952F923F924F92D1
:103310005F926F927F928F929F92AF92BF92CF9265
:10332000DF92EF92FF920F931F93DF93CF93CDB76E
:10333000DEB764970FB6F894DEBF0FBECDBF2B018A
:103340003C015E874D870F87188B298B3A8B1501BF
:103350009C8A8B8A89A49AA4ABA4BCA40091730410
:1033600010917404C8010996B301A2010E945F0E76
:103370004F85588969897A890E945F0EB701A60135
:103380000E945F0EC401B8014CE00E94B115C40157
:10339000BE016F5F7F4F0E947E158D819E81AF8140
:1033A000B885181619061A061B063CF48D859E85ED
:1033B000B1014B895C890E9475158D819E81809336
:1033C000B1069093B20664960FB6F894DEBF0FBEB6
:1033D000CDBFCF91DF911F910F91FF90EF90DF90C4
:1033E000CF90BF90AF909F908F907F906F905F90A5
:1033F0004F903F902F9008958F929F92AF92BF92DF
:10340000CF92DF92EF92FF920F931F9300D000D0E4
:10341000F4E08F2EF0E19F2EA12CB12CEDB7FEB77A
:1034200081829282A382B482AA24BB248824992414
:103430000E9485190F900F900F900F901F910F9180
:10344000FF90EF90DF90CF90BF90AF909F908F90C4
:1034500008954F925F926F927F928F929F92AF9258
:10346000BF92CF92DF92EF92FF920F931F93DF9361
:10347000CF93CDB7DEB760970FB6F894DEBF0FBE1F
:10348000CDBF5B016C014A01390128018701E09041
:103490007304F0907404C7010996B601A5010E9457
:1034A0005F0E44E150E060E070E00E945F0E44E196
:1034B00050E060E070E00E945F0E44E150E060E0A8
:1034C00070E00E945F0E44E150E060E070E00E9416
:1034D0005F0E40E050E060E070E00115110521F45E
:1034E00041E050E060E070E00E945F0E81149104C2
:1034F00029F440E050E060E070E005C0F401408154
:103500005181628173810E945F0E6114710429F4FC
:1035100040E050E060E070E005C0F301408151817F
:10352000628173810E945F0E4114510429F440E0CE
:1035300050E060E070E005C0F2014081518162819D
:1035400073810E945F0E9C010115110551F1F80174
:1035500080819181A281B3810097A105B10591F489
:1035600084819581A681B78188589341A040B0405D
:103570004CF488E893E1A0E0B0E0F80184839583FF
:10358000A683B783F8014081518162817381C901AB
:103590000E945F0EF80144815581668177810E9407
:1035A0005F0E88E090E1B7014CE20E94B11588E01F
:1035B00090E1BE016F5F7F4F0E947E1589819A81E5
:1035C000AB81BC81B7FD27C08114910449F08D8186
:1035D0009E81AF81B885F40180839183A283B383F8
:1035E0006114710449F089859A85AB85BC85F30126
:1035F00080839183A283B3834114510449F08D8564
:103600009E85AF85B889F20180839183A283B383BD
:1036100029813A8106C09093B2068093B1062FEFBC
:103620003FEFC90160960FB6F894DEBF0FBECDBF65
:10363000CF91DF911F910F91FF90EF90DF90CF908E
:10364000BF90AF909F908F907F906F905F904F90C2
:1036500008958F929F92AF92BF92CF92DF92EF9296
:10366000FF920F931F93DF93CF93CDB7DEB7689789
:103670000FB6F894DEBF0FBECDBF5B016C017A01BF
:1036800049010091730410917404C8010996B601B0
:10369000A5010E945F0E85E090E1B80144E00E9420
:1036A000B11585E090E1BE016F5F7F4F0E947E15EE
:1036B000E114F10441F0D701FE01399688E0019050
:1036C0000D928150E1F78114910449F088E090E077
:1036D000A0E0B0E0F40180839183A283B3838D8165
:1036E0009E819093B2068093B1067C010027F7FC7F
:1036F0000095102FF8E0EF16F1040105110538F4DC
:10370000C801B70120E030E040E050E006C0C6014B
:10371000B50121E030E040E050E00E94D30EB70157
:10372000C80168960FB6F894DEBF0FBECDBFCF912B
:10373000DF911F910F91FF90EF90DF90CF90BF909E
:10374000AF909F908F900895CF92DF92EF92FF926B
:103750000F931F93DF93CF9300D000D0CDB7DEB788
:103760006B017C018FEF9FEFAFEFBFEF89839A83EF
:10377000AB83BC830091730410917404C801099653
:10378000B701A6010E945F0E8BE090E1B80144E012
:103790000E94B1158BE090E1BE016F5F7F4F0E94E8
:1037A0007E1589819A819093B2068093B106C701F4
:1037B000B60121E030E040E050E00E94D30E698184
:1037C0007A818B819C810F900F900F900F90CF91F9
:1037D000DF911F910F91FF90EF90DF90CF900895B0
:1037E0004F925F926F927F928F929F92AF92BF9211
:1037F000CF92DF92EF92FF920F931F93DF93CF93BD
:1038000000D000D0CDB7DEB75B016C0139014A01B1
:103810008FEF9FEFAFEFBFEF89839A83AB83BC83BA
:103820004090730450907404C2010996B601A5013A
:103830000E945F0EB401A3010E945F0EB801A701B0
:103840000E945F0E81E090E1B2014CE00E94B11550
:1038500081E090E1BE016F5F7F4F0E947E1569811C
:103860007A818B819C817093B2066093B10620E0CF
:1038700030E040E050E00E94D30E69817A818B8174
:103880009C810F900F900F900F90CF91DF911F911F
:103890000F91FF90EF90DF90CF90BF90AF909F90EF
:1038A0008F907F906F905F904F9008958F929F922E
:1038B000AF92BF92CF92DF92EF92FF920F931F933E
:1038C0008C010E9410364B015C016801EE24D7FC8C
:1038D000E094FE2C8091850490918604A091870449
:1038E000B09188040097A105B105B1F080918504DD
:1038F00090918604A0918704B09188049C019093D4
:10390000B2068093B106109285041092860410923C
:103910008704109288042CC0C701B6010E941F0FB3
:10392000611571058105910519F02FEF3FEF20C05A
:103930000E941036681979098A099B0961537547F5
:103940008040904018F02DEF3FEF12C08091890425
:1039500090918A04892B09F4BDCF809189049091BC
:103960008A04019790938A048093890420E030E0D0
:10397000C9011F910F91FF90EF90DF90CF90BF9002
:10398000AF909F908F9008952F923F924F925F92A9
:103990006F927F928F929F92AF92BF92CF92DF925F
:1039A000EF92FF920F931F93DF93CF93CDB7DEB7C4
:1039B0006A970FB6F894DEBF0FBECDBF1B012C0176
:1039C0005C8B4B8B38014901CD8ADE8AEF8AF88EF9
:1039D000BA8EA98ECFA4D8A8E9A8FAA8CB010E94D4
:1039E000561C9C01009709F0CBC0809191049091E6
:1039F0009204A0919304B09194040196A11DB11D6D
:103A00008093910490939204A0939304B0939404B0
:103A100020917304309174043A8B298B8BA99CA953
:103A2000ADA9BEA981389105A105B105B9F08338CA
:103A30009105A105B105F1F4A4019301285F3F4F61
:103A40004F4F5F4F2D873E874F87588BA988BA8885
:103A500042E250E0A40EB51E18E10CC0A988BA8855
:103A60008AE190E0A80EB91E1A8E198ECC24DD24AE
:103A7000760110E189899A890A96B201A1010E9412
:103A80005F0E012F10E004501040A80160E070E0CC
:103A90000C5F1F4F0E945F0EB401A3010E945F0ED6
:103AA0004D895E896F89788D0E945F0E2BA93CA994
:103AB0004DA95EA9233831054105510561F44D85B5
:103AC0005E856F8578890E945F0E48E050E060E077
:103AD00070E00E945F0E20E030E040E050E00CC05B
:103AE000EB89FC89E20FF31F8081D5018D935D0185
:103AF0002F5F3F4F4F4F5F4F26153705480559053C
:103B00007CF32BA93CA94DA95EA9233831054105B9
:103B10005105C1F420E030E040E050E00EC0F90172
:103B2000D501A20FB31F898D9A8DE80FF91F8081EF
:103B30008C932F5F3F4F4F4F5F4F2C153D054E0528
:103B40005F056CF38BA969897A89A8019301098DB6
:103B50001A8D76010E948A15BE016F5F7F4F2BA9D7
:103B60003CA94DA95EA9233831054105510519F439
:103B70008FE090E102C083E090E10E947E15930106
:103B8000C9016A960FB6F894DEBF0FBECDBFCF91C4
:103B9000DF911F910F91FF90EF90DF90CF90BF903A
:103BA000AF909F908F907F906F905F904F903F90DD
:103BB0002F9008958F929F92AF92BF92CF92DF92F3
:103BC000EF92FF920F931F93EDB7FEB738970FB6A2
:103BD000F894FEBF0FBEEDBF1182128213821482D1
:103BE000B1E88B2E912CA12CB12C85829682A782D4
:103BF000B086AA24BB240E94C41C2DB73EB7285F00
:103C00003F4F0FB6F8943EBF0FBE2DBF1F910F91CF
:103C1000FF90EF90DF90CF90BF90AF909F908F90EC
:103C20000895AF92BF92CF92DF92EF92FF920F93DF
:103C30001F937093760460937504509378044093B7
:103C4000770430937A042093790410937E040093D0
:103C50007D04F0928004E0927F04D0928204C092AE
:103C60008104B0928404A092830490937C04809396
:103C70007B0481E0809399041F910F91FF90EF9056
:103C8000DF90CF90BF90AF9008950F931F93DF9375
:103C9000CF9300D000D0CDB7DEB7AB01BC01DB01C4
:103CA000CA0188709078A070B07088509048A04089
:103CB000B040A9F410929904483080E8580780E099
:103CC000680780E0780729F420E030E040E050E029
:103CD0002AC0477F5F7760707070506803C081E0D2
:103CE000809399048FEF9FEFAFEFBFEF89839A83A3
:103CF000AB83BC830091730410917404C8010996CE
:103D00000E945F0E88E090E0B80144E00E94B11587
:103D100088E090E0BE016F5F7F4F0E947E15298191
:103D20003A814B815C81B901CA010F900F900F90CD
:103D30000F90CF91DF911F910F9108952F923F9295
:103D40004F925F926F927F928F929F92AF92BF92AB
:103D5000CF92DF92EF92FF920F931F93DF93CF9357
:103D6000CDB7DEB728970FB6F894DEBF0FBECDBF34
:103D70003B014C0119012A018DA58F839EA59887CF
:103D800080917304909174049E838D83099644E21C
:103D900050E060E070E00E945F0EB401A3010E9459
:103DA0005F0EB201A1010E945F0EB801A7010E943F
:103DB0005F0EB601A5010E945F0E4D8D5E8D6F8D69
:103DC00078A10E945F0E49A15AA16BA17CA10E941B
:103DD0005F0E4DA15EA16FA178A50E945F0E49A55F
:103DE0005AA56BA57CA50E945F0EDC018F8198858A
:103DF000FC019F01205C3F4F02C081918D93E2172F
:103E0000F307D9F783E090E06D817E8144E60E945C
:103E1000B11583E090E0BE016F5F7F4F0E947E1579
:103E200069817A818B819C8128960FB6F894DEBFD8
:103E30000FBECDBFCF91DF911F910F91FF90EF90FB
:103E4000DF90CF90BF90AF909F908F907F906F90BA
:103E50005F904F903F902F9008950F931F93DF93A3
:103E6000CF9300D000D0CDB7DEB7AB01BC0100913D
:103E7000730410917404C80109960E945F0E8FEFBD
:103E80009FEFAFEFBFEF89839A83AB83BC8386E05C
:103E900090E0B80144E00E94B11586E090E0BE01D8
:103EA0006F5F7F4F0E947E1569817A818B819C8133
:103EB0000F900F900F900F90CF91DF911F910F9166
:103EC00008954F925F926F927F928F929F92AF92DE
:103ED000BF92CF92DF92EF92FF920F931F93DF93E7
:103EE000CF9300D000D0CDB7DEB75B016C013901B4
:103EF0004A018FEF9FEFAFEFBFEF89839A83AB83C8
:103F0000BC834090730450907404C2010996B601BA
:103F1000A5010E945F0EB401A3010E945F0EB801CB
:103F2000A7010E945F0E84E090E0B2014CE00E9485
:103F3000B11584E090E0BE016F5F7F4F0E947E1557
:103F400069817A818B819C810F900F900F900F90E7
:103F5000CF91DF911F910F91FF90EF90DF90CF9065
:103F6000BF90AF909F908F907F906F905F904F9099
:103F700008952F923F924F925F926F927F928F920D
:103F80009F92AF92BF92CF92DF92EF92FF920F93E8
:103F90001F93DF93CF93CDB7DEB760970FB6F8943A
:103FA000DEBF0FBECDBF2B013C015C874B870D8769
:103FB0001E872F87388B16018E010B5F1F4F86E0FF
:103FC000D8011D928A95E9F78FEF9FEFAFEFBFEF12
:103FD00089839A83AB83BC83C0907304D0907404AC
:103FE000C60109964CE150E060E070E00E945F0E6F
:103FF0004D855E856F8578890E945F0EB301A201B1
:104000000E945F0E4D855E856F857889405F5F4FAA
:104010006F4F7F4F0E945F0EB501A4010E945F0E9B
:1040200060E070E00E947B0EDC01E114F10481F09D
:10403000AC0120E030E0F701E20FF31F8081FA01CC
:104040008193AF012F5F3F4F26303105A1F70EC09E
:10405000B8019C01AE01455F5F4FFB018191BF013B
:10406000F90181939F0164177507B9F7BD016A5F74
:104070007F4F20E030E040E050E00CC0EB85FC8555
:10408000E20FF31F8081DB018D93BD012F5F3F4F56
:104090004F4F5F4F8D859E85AF85B88928173907AB
:1040A0004A075B075CF381149104A104B104C9F0D1
:1040B00021143104B1F020E030E040E050E00CC0C9
:1040C000F901DB01A20FB31FE20DF31D80818C9378
:1040D0002F5F3F4F4F4F5F4F281539054A055B054E
:1040E0007CF34D85445E480D81E090E0B6010E946E
:1040F000B11581E090E0BE016F5F7F4F0E947E1599
:1041000069817A818B819C819B012093B1063093D8
:10411000B20660960FB6F894DEBF0FBECDBFCF914A
:10412000DF911F910F91FF90EF90DF90CF90BF90A4
:10413000AF909F908F907F906F905F904F903F9047
:104140002F900895EF92FF920F931F93CF93DF93D9
:10415000EC01109291041092920410929304109228
:104160009404109295041092960410929704109261
:10417000980410926E0410926D0410928A041092AA
:10418000890410928C0410928B0410928E04109269
:104190008D041092900410928F0410928504109256
:1041A0008604109287041092880410927004109272
:1041B0006F04109272041092710488E795E0909356
:1041C00074048093730484E491E20E94E230E091ED
:1041D0007D04F0917E0409957B018C01E0918304BC
:1041E000F091840481E00995E114F10401051105C1
:1041F00059F0E0917D04F0917E04099561157105F7
:1042000081059105B1F714C0E0917D04F0917E0421
:1042100009956115710581059105B1F3E0917D0462
:10422000F0917E0409956115710581059105B1F73D
:10423000E0917304F0917404CD2B11F480E001C07F
:1042400082E0818780E090E4BF0141E00E94B115E7
:1042500080E090E460E070E00E947E15609173045D
:10426000709174048BE090E440E00E94B1158BE003
:1042700090E460E070E00E947E15DF91CF911F9185
:104280000F91FF90EF90089521E030E0309370049B
:1042900020936F0490937204809371040E948A119A
:1042A0000895EF92FF920F93FC01108260939A049D
:1042B00040939B0420939C048FEF80939D04009374
:1042C0009E041092D404F092D604E092D5040F918B
:1042D000FF90EF900895FC011382128288EE93E024
:1042E000A0E0B0E084839583A683B78388ED91E056
:1042F00091838083E15BFF4F8FEF9FEFAFEFBFEFC5
:1043000080839183A283B3830895FC011382128278
:1043100088EE93E0A0E0B0E084839583A683B78322
:1043200088ED91E091838083E15BFF4F408351836F
:10433000628373831292129212920895FC01A081FB
:10434000B18154962D913C915597F90109958111B0
:1043500081E0089508950F9387ED94E060E040E0D8
:1043600020E000E00E9404330F910895CF92DF9285
:10437000EF92FF920F931F93DB01FC01E15BFF4F74
:1043800060817181828193818A0120E030E0AD01FA
:10439000CC24DD2476010E94FC191F910F91FF901F
:1043A000EF90DF90CF9008958F929F92AF92BF923F
:1043B000CF92DF92EF92FF920F931F93DF93CF93F1
:1043C000CDB7DEB72C970FB6F894DEBF0FBECDBFCA
:1043D000FC01E15BFF4F80819181A281B381EF54A9
:1043E000F040B7FF03C020E030E082C0E35BFF4F46
:1043F00020813181ED54F0401216130664F4E45B21
:10440000FF4F8081EC54F04090E0821793071CF43A
:10441000281B390B6DC019821A821B821C82E15B3A
:10442000FF4FC080D180E280F380C701B60120E257
:1044300030E040E050E00E94FD37922E832E022FA4
:10444000132F000F111F000F111F5E010894A11CF4
:10445000B11C0A0D1B1DC701B60120E230E040E08F
:1044600050E00E94FD3721E030E040E050E004C021
:10447000220F331F441F551F6A95D2F7E92DF82DDF
:10448000EE0FFF1FEE0FFF1FEA0DFB1D80819181D4
:10449000A281B381282B392B4A2B5B2BF801208377
:1044A0003183428353831D821E821F82188688E8CF
:1044B00093E1A0E0B0E089879A87AB87BC87089436
:1044C000C11CD11CE11CF11CC701B601A50120E0F3
:1044D00030E000E010E0E5E0EE2EF12CEC0EFD1EE9
:1044E0000E94291A20E030E0019711F421E030E029
:1044F000C9012C960FB6F894DEBF0FBECDBFCF9189
:10450000DF911F910F91FF90EF90DF90CF90BF90C0
:10451000AF909F908F9008950F931F938C01015B34
:104520001F4FF80160817181828193810E94A41BD9
:104530002FEF3FEF4FEF5FEFF8012083318342838E
:1045400053831F910F9108954F925F926F927F92C4
:104550008F929F92AF92BF92CF92DF92EF92FF9293
:104560000F931F93CF93DF93EC019CE0492E512CC6
:104570004C0E5D1E8DE4882E912C8C0E9D1E0CE43D
:10458000A02EB12CAC0EBD1E1FE4612E712C6C0E42
:104590007D1E1FC00E94472FF301608171818281BF
:1045A0009381A20100E410E020E030E0CC24DD247F
:1045B00076010E94FC19F40191838083875C9F4FF0
:1045C00031F4CE010E948C2220E030E014C0F501CD
:1045D0001082F4012081318112161306DCF6F501F8
:1045E0008081E82FF0E02E173F07A1F2EC0FFD1FAE
:1045F0008485282F30E0C901DF91CF911F910F9161
:10460000FF90EF90DF90CF90BF90AF909F908F90F2
:104610007F906F905F904F9008954F925F926F924E
:104620007F928F929F92AF92BF92CF92DF92EF9242
:10463000FF920F931F93CF93DF93EC015CE0452E25
:10464000512C480E591E4DE4842E912C880E991E33
:104650003CE4A32EB12CA80EB91E2FE4622E712CBF
:10466000680E791E1FC00E94472FF301608171817F
:1046700082819381A20100E410E020E030E0CC24AC
:10468000DD2476010E94FC19F40191838083875C0C
:104690009F4F31F4CE010E948C2220E030E017C001
:1046A000F5011082F4018081918118161906DCF65B
:1046B000F5012081E22FF0E08E179F07A1F2EC0FA9
:1046C000FD1F84852F5FF5012083282F30E0C9016D
:1046D000DF91CF911F910F91FF90EF90DF90CF90DE
:1046E000BF90AF909F908F907F906F905F904F9012
:1046F00008950E948C2208950F931F93CF93DF9308
:10470000EC018C01015B1F4FF80180819181A28136
:10471000B381B7FD27C0E881F9810480F581E02DE0
:10472000CE010995892B01F5D8012D913D914D912F
:104730005C91F901EC54FB4F80818130A9F4CA01EE
:10474000B9010E94A41BD801ED91FC91EC54FB4FE0
:1047500010828FEF9FEFAFEFBFEFF801808391835F
:10476000A283B38380E001C081E0DF91CF911F91EC
:104770000F9108952F923F924F925F926F927F9286
:104780008F929F92AF92BF92CF92DF92EF92FF9261
:104790000F931F93DF93CF93CDB7DEB7A0970FB6DC
:1047A000F894DEBF0FBECDBF3C014B0100E0AA2450
:1047B000BB241E010894211C311C6FE4462E512C91
:1047C000460C571CF4010894811C911C8491882389
:1047D000D1F0F101E00FF11D80830F5F003290F303
:1047E000F2016081718182819381A10100E210E078
:1047F00020E030E0CC24DD2476010E94DA1DA80EF2
:10480000B91E00E0DFCF0023B1F08FE490E0680E26
:10481000791EF301608171818281938110E020E033
:1048200030E0AE014F5F5F4FCC24DD2476010E9463
:10483000DA1DA80EB91EC501A0960FB6F894DEBF0A
:104840000FBECDBFCF91DF911F910F91FF90EF90E1
:10485000DF90CF90BF90AF909F908F907F906F90A0
:104860005F904F903F902F900895EF92FF920F939B
:104870001F938C010E94BA237C01C80168EC76E08A
:104880000E94BA239C012E0D3F1DC9011F910F915B
:10489000FF90EF900895CF92DF92EF92FF920F93E7
:1048A0001F93DF93CF930F92CDB7DEB76983FC01DF
:1048B000E15BFF4F6081718182819381AE014F5F27
:1048C0005F4F01E010E020E030E0CC24DD247601F1
:1048D0000E94DA1D9C01442737FD4095542F57FF55
:1048E00002C020E030E0C9010F90CF91DF911F910D
:1048F0000F91FF90EF90DF90CF900895CF92DF92CD
:10490000EF92FF920F931F93CF93DF93EC01AB01D4
:10491000DB010D900020E9F71197A61BB70B19F4E6
:1049200020E030E00FC0C15BDF4F688179818A8170
:104930009B818D0120E030E0CC24DD2476010E94B3
:10494000DA1D9C01C901DF91CF911F910F91FF905A
:10495000EF90DF90CF900895CF92DF92EF92FF9289
:104960000F931F93DB01FC01E15BFF4F60817181BD
:10497000828193818A0120E030E0AD01CC24DD24E6
:1049800076010E94DA1D1F910F91FF90EF90DF904A
:10499000CF9008956F927F928F929F92AF92BF9225
:1049A000CF92DF92EF92FF920F931F93DF93CF93FB
:1049B000CDB7DEB760970FB6F894DEBF0FBECDBFA0
:1049C0005C014B013A018DE490E0A80EB91ED501BF
:1049D0001D921C92F50112925F0184EB9FEFA80ECD
:1049E000B91E62E070E080E090E021E030E040E05D
:1049F00050E0E6E0EE2EF12C012D112D0E94F01B6F
:104A00006B017C019FEFC9169FEFD9069FEFE90666
:104A10009FEFF906C9F1F601EC54FB4F10828E01AD
:104A20000F5F1F4F80E1D8011D928A95E9F782E060
:104A300090E09A8389837B826C82F40182819381E6
:104A4000A481B5812B2F3327442755272D839D0122
:104A5000442755272E83892F9A2FAB2FBB278F836F
:104A600082818887C701B601A80100E110E020E03B
:104A700030E00E940B186F5F7F4F8F4F9F4F39F4CC
:104A8000C701B6010E94A41B20E030E00CC08FE4F7
:104A900090E0A80EB91ED501CD92DD92ED92FC9268
:104AA000139721E030E0C90160960FB6F894DEBF9D
:104AB0000FBECDBFCF91DF911F910F91FF90EF906F
:104AC000DF90CF90BF90AF909F908F907F906F902E
:104AD0000895DF93CF9300D000D0CDB7DEB780919B
:104AE000D40482FF09C083EC91E069E070E0AE017C
:104AF0004F5F5F4F0E9468188091D40490E09695B4
:104B000087959695879581700F900F900F900F90D5
:104B1000CF91DF910895AF92BF92CF92DF92EF9243
:104B2000FF920F931F93DF93CF93CDB7DEB72A97F2
:104B30000FB6F894DEBF0FBECDBF6C01CB015A019A
:104B400019821A821B821C82DB010D900020E9F77A
:104B50001197A61BB70BBD01AE014F5F5F4F0E94BF
:104B6000681849815A816B817C8141155105610525
:104B70007105A1F0892B91F0D601ED91FC91E484AF
:104B8000F5848E010B5F1F4FC8010E946133C6017F
:104B9000B801A501F70109959C0102C020E030E0B1
:104BA000C9012A960FB6F894DEBF0FBECDBFCF91D4
:104BB000DF911F910F91FF90EF90DF90CF90BF900A
:104BC000AF900895CF93DF93FC019B01E15BFF4F12
:104BD000215B3F4FE90188819981AA81BB81808354
:104BE0009183A283B383D9019E918E9192938293F4
:104BF000ED018A918293E054F040DE01A054B04070
:104C000080E40D9001928150E1F7DF91CF910895FA
:104C1000EF92FF920F931F937B018C01FA01422FB9
:104C200080E8E81680E8F80680E0080780E01807CA
:104C300031F48091D40481608093D4042BC081E04E
:104C4000E81680E8F80680E0080780E0180731F4ED
:104C50008091D40482608093D40428C082E0E81656
:104C600080E8F80680E0080780E0180731F48091BA
:104C7000D404897F8093D4042FC080E1E81680E8B3
:104C8000F80680E0080780E0180721F48091D4043A
:104C9000846009C089E9E816F1040105110531F4C1
:104CA0008091D40488608093D40428C080E4E816FE
:104CB00080E8F80680E0080780E0180769F4809132
:104CC0009F048F5F80939F0420EA34E0C901BF01F5
:104CD00050E00E94DF0312C080E0E81688E8F80682
:104CE00080E0080780E0180749F44081403230F442
:104CF000E42FF0E0EC54FB4F81E080831F910F9193
:104D0000FF90EF9008958F929F92AF92BF92CF92B3
:104D1000DF92EF92FF920F931F93DF93CF93CDB764
:104D2000DEB7EA970FB6F894DEBF0FBECDBFFC0129
:104D30006B015A01490180818823F1F18091D404EB
:104D400081FF3AC08091D40482FF36C0CE01019623
:104D50000E946C168C81882379F189819A81AB81BC
:104D6000BC81F60180839183A283B3838D819E8170
:104D7000AF81B885F50180839183A283B383898550
:104D80009A85AB85BC85F40180839183A283B3832C
:104D90008D859E85AF85B889F80180839183A28334
:104DA000B38389899A89AB89BC89F7018083918310
:104DB000A283B38381E001C080E0EA960FB6F89445
:104DC000DEBF0FBECDBFCF91DF911F910F91FF903E
:104DD000EF90DF90CF90BF90AF909F908F9008950D
:104DE0002F923F924F925F926F927F928F929F92FB
:104DF000AF92BF92CF92DF92EF92FF920F931F93E9
:104E0000FC01D62EC72E342E252E8081882309F44E
:104E100066C02801390184E0481651046104710418
:104E200008F05DC0A62FB72FFD0101900020E9F723
:104E30003197EA1BFB0BB19708F051C0A42FB52F97
:104E4000FD0101900020E9F73197EA1BFB0BB197B8
:104E500008F045C060E070E080E090E020E030E0E5
:104E600040E050E0EE24FF2487010E94611F61159D
:104E700071058105910599F564EF71E080E090E09E
:104E80000E945936ED2DFC2DDF010D900020E9F731
:104E90008D01015010400E1B1F0BE32DF22DDF0181
:104EA0000D900020E9F74D010894810891088E1AB1
:104EB0009F0A20E030E0AA24BB24C301B2014D2D9B
:104EC0005C2DEE24FF24C32CD22C0E94B91F20E0BD
:104ED000611571058105910519F421E001C020E0FB
:104EE000822F1F910F91FF90EF90DF90CF90BF9096
:104EF000AF909F908F907F906F905F904F903F907A
:104F00002F9008958F929F92AF92BF92CF92DF928F
:104F1000EF92FF920F931F93FC01D62EC72E808134
:104F20008823E1F160E070E080E090E020E030E094
:104F300040E050E0EE24FF2487010E94611F6115CC
:104F400071058105910551F564EF71E080E090E015
:104F50000E945936ED2DFC2DDF010D900020E9F760
:104F60008D01015010400E1B1F0B20E030E060E06F
:104F700070E080E090E04D2D5C2DEE24FF24CC24E9
:104F8000DD248824992454010E94B91F20E0611572
:104F900071058105910519F421E001C020E0822FFF
:104FA0001F910F91FF90EF90DF90CF90BF90AF9047
:104FB0009F908F900895EF92FF920F931F937A0125
:104FC0008B018091D5049091D604009709F440C0DC
:104FD000272F332744275527622F4AE050E00E94AD
:104FE0008F348091D5049091D6046EE20E94C43330
:104FF0009801442755278091D5049091D604622FBB
:105000004AE050E00E948F348091D5049091D604FC
:105010006EE20E94C4335527412F302F2F2D8091EF
:10502000D5049091D604622F4AE050E00E948F345C
:105030008091D5049091D6046EE20E94C433809191
:10504000D5049091D6046E2D4AE050E00E948F3432
:105050001F910F91FF90EF9008956F927F928F9222
:105060009F92AF92BF92CF92DF92EF92FF920F93F7
:105070001F93CF93DF93EC01962E842E722E632E16
:105080008881882309F08EC080919B04823011F4BE
:1050900080E005C0833011F08FEF01C081E0809384
:1050A0009D040E94993088E096E26FE97DE24FE826
:1050B0005DE227E93DE207EA1DE2B5E0EB2EBEE244
:1050C000FB2EAFEBCA2EADE2DA2EF3EBAF2EFDE2F4
:1050D000BF2E0E94111E892D90E00E94A2208820E0
:1050E000A1F460E070E080E090E020E030E040E09B
:1050F00050E0EE24FF2487010E94611F6FEF70E0F3
:1051000080E090E00E942D1F0FC060E070E080E022
:1051100090E020E030E040E050E0E1E0EE2EF12CC5
:10512000012D112D0E94611F64E072E880E090E083
:105130000E94451E6115710581059105A9F581E063
:105140008883882079F100E010E00EC00E94472F8C
:105150000F5F1F4F83E00A3E180731F16AE070E0ED
:1051600080E090E00E9459368091D40481FFEECF18
:1051700068EE73E080E090E00E9459368091D4049C
:1051800082FF10C0E72DF62DDF010D900020E9F71A
:105190001197AE1BBF0B81E090E0672D762DAD011E
:1051A0000E942A1781E001C080E0DF91CF911F911A
:1051B0000F91FF90EF90DF90CF90BF90AF909F90B6
:1051C0008F907F906F900895AF92BF92CF92DF92B1
:1051D000EF92FF920F931F93CF93DF93FC01808197
:1051E000882311F420E04FC08DB79EB742970FB6C9
:1051F000F8949EBF0FBE8DBFEDB7FEB731968FEF0F
:105200009FE1A0E0B0E0CDB7DEB789839A83AB839E
:10521000BC8388E89FEFAFEFBFEF84839583A683BD
:10522000B78310861186128613868CE291E0A0E087
:10523000B0E084879587A687B78780EF91E0918B50
:10524000808BCB01BA0124E130E040E050E0F4E68D
:10525000EF2EF12C012D112DE5E0AE2EB12CC12C3D
:10526000D12C0E949E1E20E04DB75EB74E5E5F4F70
:105270000FB6F8945EBF0FBE4DBF61157105810575
:10528000910509F421E0822FDF91CF911F910F91B9
:10529000FF90EF90DF90CF90BF90AF9008955F9216
:1052A0006F927F928F929F92AF92BF92CF92DF9236
:1052B000EF92FF920F931F93CF93DF93EC013B018B
:1052C0004A01522EA02E8881882309F452C0B02EA4
:1052D000C22EDD24EE24FF24AA2051F0BB2039F495
:1052E0008091D40490E096958795817042C0BA94DD
:1052F0000E94472FCE0140EA5FE060E070E00E942C
:10530000E42864E971E180E090E00E945936CE0122
:1053100040E050E060E070E00E94E428552021F079
:10532000F4018081882349F4CE01B3010E948227D1
:105330008823D1F000E117E208C0CE01B301A40137
:10534000970186010E94F026F3CF8091D40481FD5D
:105350000BC00E94472F6AE070E080E090E00E945E
:1053600059360A50104089F78091D40481FFB4CF98
:1053700081E0DF91CF911F910F91FF90EF90DF902F
:10538000CF90BF90AF909F908F907F906F905F90E5
:105390000895FC01A081B18154962D913C915597BF
:1053A000F9010995811181E008950F931F93DF930F
:1053B000CF9300D000D000D0CDB7DEB7DB01FC0129
:1053C000248535852115310519F420E030E01BC016
:1053D000F90180819181FC01048515858AE692E0BE
:1053E0009A83898312968D919D910D90BC91A02DE9
:1053F0008B839C83AD83BE83C901BE016F5F7F4FEA
:10540000F80109959C01C90126960FB6F894DEBFF4
:105410000FBECDBFCF91DF911F910F910895FC0179
:10542000A485B585109719F420E030E009C0ED910E
:10543000FC9111970684F785E02DCD0109959C011B
:10544000C9010895FC01A485B585109711F480E089
:105450000895ED91FC9111970488F589E02DCD0117
:1054600009950895FC01A485B585109719F420E0ED
:1054700030E009C0ED91FC9111970190F081E02D91
:10548000CD0109959C01C9010895FC01A485B5854C
:10549000109719F420E030E009C0ED91FC911197CC
:1054A0000680F781E02DCD0109959C01C901089581
:1054B000FC01A485B585109719F420E030E009C0FF
:1054C000ED91FC9111970480F581E02DCD010995B6
:1054D0009C01C9010895FC01A485B585109719F4B4
:1054E00020E030E009C0ED91FC9111970088F1892E
:1054F000E02DCD0109959C01C9010895FC01A48509
:10550000B585109719F420E030E009C0ED91FC91C9
:1055100011970280F381E02DCD0109959C01C9010D
:105520000895FC01A485B585109719F420E030E0BA
:1055300009C0ED91FC9111970084F185E02DCD011A
:1055400009959C01C9010895FC01A485B5851097B2
:1055500041F0ED91FC9111970284F385E02DCD018E
:1055600009950895FC01A485B585109741F0ED914A
:10557000FC9111970288F389E02DCD0109950895DA
:10558000CF93DF939C01CEE3D2E04F3FB9F0FC0113
:105590001382128288EE93E0A0E0B0E084839583CA
:1055A000A683B783D183C08383E54802C001112459
:1055B0000496860F971F958784870FC0FC0113827E
:1055C000128288EE93E0A0E0B0E084839583A68306
:1055D000B783D183C08315861486C901DF91CF912B
:1055E00008954F925F926F927F928F929F92AF92A7
:1055F000BF92CF92DF92EF92FF920F931F93CF93C0
:10560000DF935C013B014A017C01CC24DD2400E0F6
:1056100010E083E5482E512C049DE001059DD00D3E
:10562000149DD00D11242496CA0DDB1DD7011496AC
:10563000ED91FC9115970488F589E02DCE0109952F
:10564000882371F0D7011496ED91FC911597028093
:10565000F381E02DCE01B301A4010995C80ED91E36
:105660000F5F1F4F83E590E0E80EF91E0330110530
:1056700099F6C601DF91CF911F910F91FF90EF90A6
:10568000DF90CF90BF90AF909F908F907F906F9062
:105690005F904F900895DF93CF930F92CDB7DEB711
:1056A000FC016983A081B18112962D913C911397E1
:1056B000BE016F5F7F4F41E050E0F90109950F9007
:1056C000CF91DF9108950F938DED94E060E040E07D
:1056D00020E000E00E9404330F9108952F923F9242
:1056E0004F925F927F928F929F92AF92BF92CF9292
:1056F000DF92EF92FF920F931F93DF93CF93CDB77B
:10570000DEB7C355D0400FB6F894DEBF0FBECDBF95
:105710005C016C017724EE24FF2423E5222E312C3A
:105720009FEF892E912C8A0C9B1C2E010894411C02
:10573000511CE29C8001E39C100DF29C100D112481
:105740000C5F1F4F0A0D1B1DD6011496ED91FC91A5
:1057500015970488F589E02DC80109958823F1F48F
:105760000E94472FF401608171818281938140E022
:1057700050E020E030E00E94291BCB0177FD0EC0F5
:10578000AC01662757FD6095762FC2010E948521E6
:10579000C801B2010E94E225772473940894E11CA9
:1057A000F11C83E590E0C80ED91E93E0E916F104E0
:1057B00009F0BFCF872DCD5ADF4F0FB6F894DEBF6B
:1057C0000FBECDBFCF91DF911F910F91FF90EF9052
:1057D000DF90CF90BF90AF909F908F907F905F9021
:1057E0004F903F902F900895AF92BF92CF92DF924B
:1057F000EF92FF920F931F93CF93DF936C01EB0116
:105800000E946E2B209709F08883760100E010E05B
:1058100033E5A32EB12C0A9DE0010B9DD00D1A9DFE
:10582000D00D11242496CC0DDD1DD7011496ED91D9
:10583000FC9115970488F589E02DCE010995882300
:10584000C9F0D7011496ED91FC9115970480F5816C
:10585000E02DCE0109951816190664F4802FDF910A
:10586000CF911F910F91FF90EF90DF90CF90BF905D
:10587000AF9008950F5F1F4F83E590E0E80EF91E8B
:105880000330110541F68FEFEACFEF92FF920F93AD
:105890001F93F82EE92E8B01CB0160E070E00E948F
:1058A000F42B482F8F2D9E2DB8010E94C02A8F2DDA
:1058B0009E2D1F910F91FF90EF9008952F923F9290
:1058C0004F925F926F927F928F929F92AF92BF9210
:1058D000CF92DF92EF92FF920F931F93DF93CF93BC
:1058E000CDB7DEB7A1970FB6F894DEBF0FBECDBF20
:1058F0001C0180E498E3A0E0B0E08A839B83AC8342
:10590000BD8380E19EE0A0E0B0E08E839F83A88706
:10591000B9878EE190E0A0E0B0E08A879B87AC87F2
:10592000BD871E861F86188A198A0E94472FCE01BE
:105930000296BE016A5F7F4FAE01465F5F4F9E01D8
:10594000225F3F4F0E948016611571058105910508
:1059500009F067C00E94472F62E070E080E090E0AD
:1059600021E030E040E050E0A6E0EA2EF12C012DED
:10597000112D0E94F01B8B0177FD53C00E94472F11
:1059800019822801662457FC6094762CC301B20169
:105990002FEF3FEF40E050E0F2E0EF2EF12C012D31
:1059A000112D6E010894C11CD11CE1E08E2E912CAA
:1059B000A12CB12C0E947F1797FD33C082E090E0AC
:1059C0009B8B8A8B1E8A1F8A188E198EF101E350D9
:1059D000FF4F908181818C8B9D8B0E94472FC3014B
:1059E000B201AE014E5E5F4F00E110E020E030E01A
:1059F0000E94281997FD15C00E94472FC301B201CC
:105A000020E030E040E050E00E94D71897FD09C048
:105A10008FEF90E0280E391EF101408251826282A0
:105A20007382A1960FB6F894DEBF0FBECDBFCF91A3
:105A3000DF911F910F91FF90EF90DF90CF90BF907B
:105A4000AF909F908F907F906F905F904F903F901E
:105A50002F900895EF92FF920F931F938C017B017B
:105A6000FC011382128284E392E091838083C80157
:105A700004960E946B21C801895A9F4F0E946B2196
:105A8000C80186559F4F0E946B2103501F4FF8019C
:105A9000E192F1928FEF9FEFAFEFBFEF80839183A1
:105AA000A283B3831F910F91FF90EF900895FC01A3
:105AB00084859585009729F420E030E040E050E0AF
:105AC00004C00E948C229B01AC01B901CA01089557
:105AD000FC0184859585009719F420E030E003C02F
